:100000000C94D4020C941B030C941B030C941B0340
:100010000C941B030C941B030C941B030C941B03E8
:100020000C941B030C941B030C94332A0C94052B87
:100030000C944C250C941B030C941B030C941B0375
:100040000C941B030C941B030C941B030C941B03B8
:100050000C941B030C94A5250C941B030C941B03FC
:100060000C941B030C941B030C941B030C941B0398
:100070000C941B030C941B030C941B030C941B0388
:100080000C941B030C941B030C941B030C941B0378
:100090000C941B030C941B030C941B030C941B0368
:1000A0000C941B030C941B030C941B037B1A7B1AEC
:1000B000AD1AAD1AFA1A181B391C391C231BB81BB0
:1000C000C91BC91B291C391C391C321CD91CD91C41
:1000D000EB1CEB1CE21CEB1CEB1CEB1CD91CD91C15
:1000E000E71CEB1CEB1CE71C722B992B912C992B1A
:1000F000912CE52B082C912C5F2C6E2C165C1E008D
:100100001F002000210022002300240025002600DB
:1001100027002D002E0000002A002B0000001400F4
:100120001A000800150017001C0018000C0012002F
:1001300013002F00300031000151000004001600B0
:10014000070009000A000B000D000E000F0033002D
:10015000340028000000E10000001D001B00060024
:1001600019000500110010003600370038000000AB
:10017000E5000000E000E3000000E20000000000F5
:100180002C00000000000000E600E7000000015124
:10019000E40035003A003B003C003D003E003F00DB
:1001A00040004100420043004400450000004C0074
:1001B00001000000AC00AE00AB0001000100010036
:1001C00001005200010046004700490001003900CB
:1001D0000000AA00A9004C00010001004A005000E4
:1001E00051004F004A004B000100000001000000D8
:1001F000C35CC45CC75CC65CC95CC85CCB5CCA5CE5
:100200004D004E0000000100000001000100000050
:1002100001000000000001000000000000000100DB
:1002200001000000010001001E0F0500047F3F1FB8
:10023000643214643214783C1E1E140A05222325ED
:100240002628292A2C2D2F3032333536383A3B3D9B
:100250003E4042434547494A4C4E505153555759E9
:100260005A5C5E6062646668696B6D6F7173757706
:10027000797B7D7F81838587898A8C8E9092949605
:10028000989A9C9E9FA1A3A5A7A8AAACAEAFB1B314
:10029000B4B6B8B9BBBCBEBFC1C2C3C5C6C7C9CA64
:1002A000CBCCCDCED0D1D2D2D3D4D5D6D7D7D8D926
:1002B000D9DADADBDBDBDCDCDCDCDCDDDDDDDDDC84
:1002C000DCDCDCDCDBDBDBDADAD9D9D8D7D7D6D596
:1002D000D4D3D2D2D1D0CECDCCCBCAC9C7C6C5C358
:1002E000C2C1BFBEBCBBB9B8B6B4B3B1AFAEACAAA5
:1002F000A8A7A5A3A19F9E9C9A98969492908E8C55
:100300008A89878583817F7D7B79777573716F6D2E
:100310006B6968666462605E5C5A59575553515008
:100320004E4C4A4947454342403E3D3B3A383635BC
:100330003332302F2D2C2A292826252322FFAA7F6D
:100340005540000101010101010101010202020207
:10035000020202020203030303030303030404046F
:100360000404040405050505050606060606070738
:1003700007070708080808090909090A0A0A0B0BF0
:100380000B0C0C0C0D0D0D0E0E0E0F0F0F1010118F
:100390001111121213131414151516161717181815
:1003A00019191A1A1B1B1C1D1D1E1E1F202021227D
:1003B00022232424252626272829292A2B2C2D2DC3
:1003C0002E2F30313232333435363738393A3B3CE0
:1003D0003D3E3F404142434445464748494A4C4DD3
:1003E0004E4F50515354555658595A5B5D5E5F619C
:1003F0006264656668696B6C6D6F7072737577782F
:100400007A7B7D7E8082838587888A8C8E8F91938C
:100410009596989A9C9EA0A2A3A5A7A9ABADAFB1B3
:10042000B3B5B7BABCBEC0C2C4C6C9CBCDCFD1D498
:10043000D6D8DBDDDFE2E4E7E9EBEEF0F3F5F8FA3E
:10044000FDFF0A0344005A0036003000000010038C
:100450004B0042004400460061006E007300000043
:100460000403090409023B00020100A0FA09040088
:1004700000010301010009211101000122400007D0
:1004800005810308000A09040100010300000009B6
:10049000211101000122B6000705820320000A1283
:1004A000011001000000085A44602201000102000E
:1004B0000105010902A10185020901A1000509192F
:1004C000012908150025019508750181020501091A
:1004D0003009311581257F95027508810609381587
:1004E00081257F950175088106050C0A3802158162
:1004F000257F950175088106C0C005010980A1010D
:10050000850319012AB700150126B700950175105A
:100510008100C0050C0901A101850419012AA0026E
:10052000150126A002950175108100C0050109067C
:10053000A1018505050719E029E7150025019508A2
:10054000750181020507190029EF1500250195F0B5
:1005500075018102050819012905950575019102AA
:10056000950175039101C005010906A1010507194F
:10057000E029E715002501950875018102950175AF
:100580000881010507190029FF150026FF009506BF
:100590007508810005081901290595057501910265
:1005A000950175039101C00011241FBECFEFDAE061
:1005B000DEBFCDBF04B603FE27C0809174039091C7
:1005C0007503A0917603B09177038730904BA740D5
:1005D000B04BD1F41092740310927503109276030D
:1005E0001092770314BE84B7877F84BF0FB6F89448
:1005F000A8958091600088618093600010926000EF
:100600000FBEE0E0F8E3099511E0A0E0B1E0E8E614
:10061000FCE502C005900D92AE3CB107D9F723E08E
:10062000AEECB1E001C01D92A437B207E1F70E9421
:100630006D270C94322E0C94000081E0089581E027
:1006400008950C941F0308950C9423031F93CF93D4
:10065000DF9300D000D01F92CDB7DEB749835A8315
:100660006B8330915B0289819A81311114C06623BA
:1006700059F0222349F00E941222182F682F8981F5
:100680009A810E94BB2103C00E94E621182F698134
:100690007A81812F04C00E94122269817A810F9091
:1006A0000F900F900F900F90DF91CF911F910C94AE
:1006B0000904FC01262F408151816281738184816C
:1006C0000C942603CF93DF93EC0160E00E94590362
:1006D000BE01DF91CF910C9424030E948B070E94EE
:1006E000F9030E9410150C94C8070C94C4070895D0
:1006F0000E94C71C0E9477032FEF84E39CE02150E7
:1007000080409040E1F700C000000C94CB250F938F
:100710001F93CF93DF938C0161E00E945903EC019A
:10072000B8010E942103882309F44BC0B801CE010F
:100730000E947114882309F444C0B801CE010E94BC
:10074000BE158823F1F1B801CE010E94101688234E
:10075000C1F1B801CE010E943B17882391F1B80185
:10076000CE010E94B512882361F1F80182818823AD
:1007700009F1CB358DE5D807C1F050F4C115FCE582
:10078000DF0781F0CF3DDC45A9F40E94272419C082
:10079000CC35EDE5DE0761F0CD35DD4559F40E943D
:1007A000A52208C00E9478030CC00E94AE2202C09D
:1007B0000E94B122C801DF91CF911F910F910C943B
:1007C0001D0380E0DF91CF911F910F91089508954F
:1007D0000C94E70381E00895CF93C82F0E94EA03A9
:1007E000882329F0C1FD02C02A9A01C02A98CF911E
:1007F0000895229A2A9A0895CF93C82F0E94E80359
:100800008C2F0E94EC03CF91089580E090E0089532
:1008100008952BE4829FC0011124FC012FE0729FF8
:10082000E00DF11D1124E60FF11DEE0FFF1FE45046
:10083000FF4F859194910895880F991FFC01E85D01
:10084000FD4F859194910895CF93DF930E94090401
:100850000E943C05EC018115904508F041C0C1158E
:1008600080E4D80708F0D1C0C83ED10510F5C03EDD
:10087000D10508F0FDC0C83AD10578F4C53AD105D4
:1008800008F0A2C0C130D10509F4F2C008F4EEC0EE
:10089000C430D10508F0ECC0E9C0CF3BD10508F465
:1008A0009BC0C03CD10508F4E1C0CE01805C910939
:1008B0009EC0C11590E2D90758F4C11521E0D207B6
:1008C00008F0D6C0CD3ED10508F4D0C0D065D0C068
:1008D000C11580E3D80708F08EC0CE019F7087C095
:1008E000C11595E5D90708F043C0C11524E5D20725
:1008F00008F0A2C0C11582E5D80708F5C11591E539
:10090000D90708F085C0CE0174E0969587957A9551
:10091000E1F783709C2F937021E030E002C0220F3A
:10092000331F9A95E2F73C68382BCF70C695C69571
:1009300080E2C89FE0011124C22BD32B99C09E01F5
:10094000237033278C2F86958695C115D34508F0E3
:1009500064C0C1E0D0E002C0CC0FDD1F2A95E2F7F1
:1009600020E2829FC0011124C82BD92BDC6880C0F3
:10097000C11529E5D207A0F4C11588E5D80708F00C
:1009800060C0C11596E5D90708F070C08C2F0E9491
:10099000D0058F71C82FD0E0DC2FCC27D06268C083
:1009A000C1152AE5D20708F451C0CE019056811531
:1009B000904208F05BC08D2F8F710E94D005DD271B
:1009C000D0628F71D82B54C0C55AD0E0C65ADE4FC2
:1009D000C881D0E0D0644CC0C85AD0E0CC0FDD1F35
:1009E000C45DDE4F0990D881C02DD46441C00E94FF
:1009F0001C04EC013DC0CE019927D3FF03C0EC01DC
:100A0000D86C36C0EC01D06C33C0DF70D06A30C017
:100A1000DC2FCC27C16FD06A2BC0C1E0D0E002C070
:100A2000CC0FDD1F2A95E2F720E2829FC00111243E
:100A3000C82BD92BDA681CC0DC2FCC27C46FD06A36
:100A400017C0DC2FCC27C06FD06A12C08C2F8F70DC
:100A50000E94D00594E0D695C7959A95E1F7CF709E
:100A6000D0E0DC2FCC27D069C82B02C0C0E0D0E09A
:100A7000CE01DF91CF9108958238910569F1B0F4EC
:100A80008133910509F46DC048F48932910509F468
:100A900063C08A32910509F469C0089585339105D0
:100AA00009F455C089339105B9F00895833E910545
:100AB00069F138F4803E9105B1F0823E910509F16B
:100AC0000895863E9105A9F1873E9105B9F1843ECE
:100AD000910509F064C023C02091170320FD4FC089
:100AE00021FD4DC008958091170380FD44C0809181
:100AF000180380FF44C08091170384FD42C083EE39
:100B00004DC08091170382FF38C0F5CF8091170345
:100B100082FD33C08091180380FD31C0ECCF8091FD
:100B2000180381FF32C08091170384FD2AC087EE2D
:100B300035C08091170383FF26C0F5CF809117033E
:100B400083FD21C08091180381FD1FC0ECCF8091EF
:100B5000170385FD1CC01DC08091170385FD19C0BA
:100B600016C08091170386FD16C017C08091170329
:100B700086FD13C010C089E311C082EE0FC080EE65
:100B80000DC080E00BC086EE09C084EE07C089E28C
:100B900005C085E303C08AE201C081E390E00895C7
:100BA0009091170392FF0DC0282F2871283019F457
:100BB000877F846006C0282F2471243011F48B7F36
:100BC000886093FF0DC0282F2871283119F4877E83
:100BD000846106C0282F2471243111F48B7E886132
:100BE0002091180320FF0DC0382F3871383019F4C8
:100BF000877F816006C0382F3171313011F48E7FCC
:100C0000886021FF0DC0282F2871283119F4877EB4
:100C1000816106C0282F2171213111F48E7E8861F7
:100C200094FD877E0895AF92BF92CF92DF92EF92AC
:100C3000FF920F931F93CF93C0E0CC24C394D12C89
:100C4000E82EF12C8C2F0E94AF075C0100E010E031
:100C5000C601002E02C0880F991F0A94E2F78A216C
:100C60009B21892B31F40F5F1F4F0F30110581F746
:100C70000AC0602F7C2F80E00E940904E816F90664
:100C800091F781E004C0CF5FC530E1F680E0CF91FD
:100C90001F910F91FF90EF90DF90CF90BF90AF909A
:100CA0000895CF93C82F8CE20E941306882321F069
:100CB0008C2FCF910C94130680E0CF910895CF93A1
:100CC000C5E6C15049F00E9413088FE39CE90197E3
:100CD000F1F700C00000F5CF89E20E9451068111B2
:100CE00018C18AE20E94510681110E94272485E0E2
:100CF0000E94510681110E94CB2587E00E94510677
:100D00008823A9F18BE10E945106882351F080913C
:100D1000F30281FB222720F991E0922790FB81F9D1
:100D20000EC08EE00E945106882361F08091F3028C
:100D300082FB222720F991E0922790FB82F9809391
:100D4000F30215C080E10E9451069091F3028823BE
:100D500041F093FB222720F981E0822780FB93F961
:100D600004C0892F809580FB90F99093F3028091C5
:100D7000F3020E94842380EE0E945106882341F0F2
:100D800080911703982F909590FB80F9809317031B
:100D900089E30E945106882359F08091170381FB53
:100DA000222720F991E0922790FB81F98093170385
:100DB00082EE0E945106882359F08091170382FB2E
:100DC000222720F991E0922790FB82F98093170364
:100DD00086EE0E945106882359F08091170383FB09
:100DE000222720F991E0922790FB83F98093170343
:100DF00083EE0E945106882359F08091170384FBEB
:100E0000222720F991E0922790FB84F98093170321
:100E100085E30E945106882359F08091170385FBD2
:100E2000222720F991E0922790FB85F98093170300
:100E300081E30E945106882359F08091170386FBB5
:100E4000222720F991E0922790FB86F980931703DF
:100E500081E10E945106882359F08091170387FB96
:100E6000222720F991E0922790FB87F980931703BE
:100E700080911703909118030E94A32387E20E9498
:100E80005106811125C08EE10E945106811122C0B8
:100E90008FE10E94510681111FC080E20E9451061D
:100EA00081111CC081E20E945106811119C082E2A9
:100EB0000E945106811116C083E20E9451068111E1
:100EC00013C084E20E945106882381F080E80FC09D
:100ED00081E00DC082E00BC084E009C088E007C05B
:100EE00080E105C080E203C080E401C080E00E9490
:100EF0008D238FE00E945106882311F081E006C007
:100F000085E10E945106882321F080E0CF910C9466
:100F10002924CF9108950E947523811102C00E9457
:100F200027240E9480238093F3020E9492239093AF
:100F30001803809317030E945F060E948923682F7D
:100F400070E080E090E00E94BD206091C602709148
:100F5000C7028091C8029091C9020C94F520E82F35
:100F6000F0E0EE0FFF1FED5DFC4F80819181089551
:100F7000089580EA8A95F1F7089500C008950C94C9
:100F8000B90708950C94C1070C94C2070C94C107CB
:100F90000C94C607F894E82FE295EF70F0E031A1C9
:100FA000282F2F7081E090E001C0880F2A95EAF782
:100FB000982F9095932391A392A1892B82A3789443
:100FC00008950F931F93CF93DF9380E90E94CA0780
:100FD00081E90E94CA0782E90E94CA0783E90E9448
:100FE000CA0785E90E94CA07CDE5D1E00CE611E009
:100FF00089910E94CA070C171D07D1F7E9E1F3E0B8
:10100000A3E2B3E0119211921D921D9283E0E332AC
:10101000F807C1F785E00E94A108DF91CF911F91E9
:101020000F910C946D037F928F929F92AF92BF921B
:10103000CF92DF92EF92FF920F931F93CF93DF93A4
:10104000CCE6D1E089E1A82E83E0B82E93E2E92E28
:1010500093E0F92E712C01E010E06E018881F89484
:10106000E82FE295EF70F0E021A18F70A80102C097
:10107000440F551F8A95E2F7CA01922F982B91A32E
:1010800092A18095892382A378940E94BD07EDE503
:10109000F1E020E030E0812C912C4191A42FA29529
:1010A000AF70B0E090968C9190E04F7002C0959533
:1010B00087954A95E2F780FD08C0C801022E02C05C
:1010C000880F991F0A94E2F702C080E090E0882A16
:1010D000992A2F5F3F4F2F303105F9F62196F601FF
:1010E00080810E94CA070E94BF07F501808191811B
:1010F0008816990621F09182808281E001C080E00B
:10110000782AF2E0AF0EB11CEA14FB0409F0A5CF77
:10111000272D45E063E273E089E193E00E94A20895
:101120000E947503872DDF91CF911F910F91FF9042
:10113000EF90DF90CF90BF90AF909F908F907F9077
:1011400008950895FF920F931F93CF93DF93F82E86
:10115000092F162FD72FC42F222349F081E0809327
:10116000D2010E947E259093D1018093D00180917D
:10117000D2018823D9F08091D0019091D1010E94B1
:101180009625069798F0EF2DF02FA12FBD2F80E028
:1011900090E04C2F50E08417950734F42191319161
:1011A0002D933D930196F7CF1092D201DF91CF910D
:1011B0001F910F91FF9008958091D90180FF0BC07E
:1011C0006091090185E0689FB001112475956795CC
:1011D000759567952BC081FF09C06091090185E075
:1011E000689FB00111247595679520C082FF07C0E4
:1011F0006091090185E0689FB001112417C09091AA
:10120000D8019923D1F060910801961788F72091B1
:10121000090185E0289F90011124929FA001939FCE
:10122000500D112470E0CA010E94F52C6038710540
:1012300040F46115710519F406C065E070E0862F71
:1012400008958FE7089581E008958091D90180FF86
:1012500008C06091050170E0759567957595679573
:1012600021C081FF06C06091050170E0759567950A
:1012700019C082FF04C06091050170E010C0909118
:10128000D701992399F0609104019617A0F78091F6
:101290000501899FC001112470E00E94F52C60387F
:1012A000710540F46115710519F406C061E070E044
:1012B000862F08958FE7089581E008958D3E21F4EB
:1012C0000E94DC08819504C08E3E29F40E94DC084F
:1012D0008093DD0108958F3E21F40E94DC08819502
:1012E00004C0803F29F40E94DC088093DC0108954B
:1012F000893F19F40E94250905C08A3F31F40E94F4
:10130000250981958093DE0108958B3F21F40E9489
:101310002509819504C08C3F29F40E9425098093FA
:10132000DF0108959FE0980F983078F421E030E0D5
:10133000A90102C0440F551F9A95E2F7CA01909186
:10134000DB01892B8093DB0108958D3F21F480918F
:10135000D90181600BC08E3F21F48091D901826058
:1013600005C08F3F29F48091D90184608093D90111
:1013700008958D3E39F49091DD0197FF35C01092AC
:10138000DD0159C08E3E29F49091DD011916BCF3A0
:101390002BC09091DC018F3E29F497FF25C010925D
:1013A000DC0149C0803F19F41916CCF31DC090919F
:1013B000DE01893F29F41916BCF41092DE013BC00E
:1013C0008A3F19F497FF10C0F8CF8B3F39F4909102
:1013D000DF0197FF09C01092DF012DC08C3F21F47F
:1013E0009091DF011916BCF39FE0980F983080F4BC
:1013F00021E030E0A90102C0440F551F9A95E2F7A1
:10140000CA0180959091DB0189238093DB0113C091
:101410008D3F21F48091D9018E7F0BC08E3F21F446
:101420008091D9018D7F05C08F3F29F48091D9012A
:101430008B7F8093D9018091DC01811106C080915E
:10144000DD01811102C01092D8018091DE0181116D
:1014500006C08091DF01811102C01092D70108956A
:101460000E947E252091DC01211104C02091DD0124
:10147000222321F09093D6018093D5012091DE01A3
:10148000211104C02091DF01222321F09093D40187
:101490008093D3018AED91E00C949717EF92FF921D
:1014A0000F931F93CF93DF9300D000D000D0CDB720
:1014B000DEB786E0EAEDF1E0DE01119601900D92D3
:1014C0008A95E1F7E090DC01F090DD010091DE010A
:1014D0001091DF011092DC011092DD011092DE010B
:1014E0001092DF01E11003C0FF2009F45DC080917C
:1014F000D5019091D6010E949625AC019091D8011A
:10150000992339F020910A0130E02417350758F06B
:101510004BC020910B018AE0289F900111242417D1
:10152000350718F041C09F3F19F09F5F9093D80195
:10153000EE2061F00E94DC081E1414F09FEF01C041
:1015400091E0989F902D11249093DC01FF2061F091
:101550000E94DC081F1414F09FEF01C091E0989FD7
:10156000902D11249093DD013091DC013323E1F0C3
:101570002091DD012223C1F045EB3403C001112489
:10158000992319F09093DC0103C081E08093DC0182
:1015900035EB2303C0011124992319F09093DD0149
:1015A00003C081E08093DD01011103C0112309F420
:1015B0005DC08091D3019091D4010E949625AC0129
:1015C0009091D701992339F02091060130E024173A
:1015D000350758F04BC0209107018AE0289F900101
:1015E00011242417350718F041C09F3F19F09F5F61
:1015F0009093D701002361F00E942509101614F082
:101600009FEF01C091E0989F902D11249093DE01EF
:10161000112361F00E942509111614F09FEF01C0FB
:1016200091E0989F902D11249093DF013091DE017D
:101630003323E1F02091DF012223C1F045EB340395
:10164000C0011124992319F09093DE0103C081E0B9
:101650008093DE0135EB2303C0011124992319F097
:101660009093DF0103C081E08093DF018091DC0172
:1016700081110BC08091DD01811107C08091DE01D5
:10168000811103C08091DF0181110E94300AEB8239
:10169000FC820D831E8386E0FE013196AAEDB1E047
:1016A00001900D928A95E1F726960FB6F894DEBF69
:1016B0000FBECDBFDF91CF911F910F91FF90EF90A3
:1016C0000895EAEDF1E086E0DF011D928A95E9F7E1
:1016D0001092D8011092D7011092D9010895EF927B
:1016E000FF920F931F93CF93DF938B01682F1111FC
:1016F0000AC0442329F0E82FF0E0EE5BFC4F649130
:10170000762F862F75C0212F30E0E82FF0E044239C
:1017100021F0EE5BFC4FE491F0E046E0049FC00155
:101720001124CFEFD0E0BE010E94E12C4BEA46032A
:10173000C001479F900D1124800F911D800F911DB6
:10174000982F990F890FAE01421B530B4E9FD0016A
:101750004F9FB00D5E9FB00D11249B2F189FA001CD
:101760001124452F55278E01041B150B0E9FA00138
:101770000F9F500D1E9F500D11247E01E81AF10895
:10178000E29E8001E39E100DF29E100D1124212F88
:101790003327C21BD30BCE9F9001CF9F300DDE9F0E
:1017A000300D112462307105A9F048F461157105FE
:1017B00069F061307105C9F48B2F752F0DC064304D
:1017C000710581F058F06630710579F47E2F8B2F0A
:1017D000932F0DC0832F7B2F9E2F09C08E2F7B2F21
:1017E000952F05C08E2F732F02C07E2F852F692F56
:1017F000DF91CF911F910F91FF90EF90089541E0FD
:101800000E946F0B089508950E94FF0B0895CF93D7
:10181000DF93762FE901682F842F0E94040C7983CF
:1018200068838A83DF91CF91089580912D03282FBB
:10183000269530E02115310519F48170826005C0CC
:101840002B32310524F08170846580932D03089537
:1018500088E090E00C94D32DCF92DF92EF92FF922C
:101860006B017C010E94150CB701A60188E090E095
:10187000FF90EF90DF90CF900C94F12DEDE2F3E02C
:1018800083E0808311828FEF82838383148260815F
:101890007181828193810C942C0C80912D0380FFA7
:1018A00002C08695089580E00895909131039330A9
:1018B00018F49F5F90933103882351F060912D03BA
:1018C00070912E0380912F03909130030C942C0C77
:1018D000089581E00C94550C90913103992319F0EF
:1018E000915090933103882351F060912D037091B2
:1018F0002E0380912F03909130030C942C0C0895AB
:1019000081E00C946C0C70E00C9420156091100137
:1019100080912D0380FF0AC080910F0123E0829FF8
:10192000C00111248E5C9C4F0C94830C809111019A
:1019300090911201891780F7E82FF0E09F01220FA4
:10194000331FE20FF31FEE5CFC4F118210821282F4
:101950008F5FF0CF90912D0390FF16C090911101F1
:1019600020911201921770F4E92FF0E0DF01AA0F25
:10197000BB1FEA0FFB1FEE5CFC4F81836083428339
:101980009F5FF0CF0C94860C0895CF93DF9300D027
:101990001F92CDB7DEB790912D0390FF0AC09E0134
:1019A0002F5F3F4F0E94070C4B8169818A810E9403
:1019B000AA0C0F900F900F90DF91CF910895CF93C5
:1019C000DF93EC01EC81F0E0E35CFD4F4491EDE24C
:1019D000F3E0628181810E94C50C8C818F5F8C83D2
:1019E000DF91CF910895CF93DF93EC01EDE2F3E027
:1019F000438162818C810E94C50C8C818F5F8C83B6
:101A0000DF91CF9108950F931F93CF93DF9300D071
:101A10001F92CDB7DEB78C018091E00181110AC021
:101A20009E012F5F3F4F4FEF6FEF0E94070C8A819F
:101A30008093E001F8018481813051F028F08230F8
:101A400061F44091E0010AC08091E00140E007C0EC
:101A50006091E00140E080E003C040E080E060E0B1
:101A60000E94AA0CF801848190E0019663E070E086
:101A70000E94F52C84830F900F900F90DF91CF91EF
:101A80001F910F910895AF92BF92CF92DF92EF9284
:101A9000FF920F931F93CF93DF9300D01F92CDB788
:101AA000DEB7182FF62E042FE22E90912D0390FF13
:101AB0006DC0E92FE695AE2FB0E0AF58BE4F8C91C8
:101AC00080933C029E7F923061F49E012F5F3F4FD6
:101AD000812F0E94070C4B8169818A810E94AA0C88
:101AE00043C0823019F4009130033EC0863019F4AF
:101AF00010912E0339C08930D9F38931A9F5E95104
:101B00008E2F8170D82EE695F0E0E35CFC4FA59017
:101B1000B490C12CBB2460911301C61618F52C2D6E
:101B200030E0A29EC001A39E900DB29E900D1124A4
:101B300070E00E94E12C812FD11002C0860F01C0FD
:101B4000861B90911101290F311DA901440F551FCA
:101B5000240F351F2E5C3C4F402F6F2D0E94070C29
:101B6000C394D9CF0E94860C10932E03F0922F03BA
:101B700000933003EE2051F060912D0370912E03FD
:101B800080912F03909130030E942C0C0F900F90A6
:101B90000F90DF91CF911F910F91FF90EF90DF9009
:101BA000CF90BF90AF900895EDE2F3E09181282FA0
:101BB0004381628188E0890F0C94430D81E00C948D
:101BC000D40DEDE2F3E09181282F4381628188EF0B
:101BD000890F0C94430D81E00C94E10DEDE2F3E0EC
:101BE000628128E0620F08F46FEF282F4381818122
:101BF0000C94430D81E00C94EE0DEDE2F3E0628174
:101C000028E0621B08F460E0282F438181810C9456
:101C1000430D81E00C94FD0DEDE2F3E0438128E0FB
:101C2000420F08F44FEF282F628181810C94430DFD
:101C300081E00C940C0EEDE2F3E0438128E0421BBE
:101C400008F440E0282F628181810C94430D81E0EB
:101C50000C941B0E20E00C94430DFF920F931F93E6
:101C6000CF93DF93EC01F12C0FEF10E060911301A3
:101C7000F616F0F4809111012F2D30E0280F311D60
:101C8000C901880F991F280F391F2E5C3C4F70E047
:101C9000C8010E94F52C962F8C81409130036091F1
:101CA0002F03F99E800D11240E94070CF394DECFC0
:101CB0000E94860C9A818C8190FF02C08F5F01C0C8
:101CC00081508C83DF91CF911F910F91FF900895E8
:101CD000BF92CF92DF92EF92FF920F931F93CF9319
:101CE000DF93FC01828180FF02C00FEF01C001E0A1
:101CF00010E080911301181708F040C08091110185
:101D0000C12ED12CE601C80FD11DCE01880F991F1D
:101D1000C80FD91FCE5CDC4F198218821A8234E0BA
:101D2000E32EF12CB12C8091E2018B0D813114F066
:101D30008F7005C087FF03C090911301890F082E93
:101D4000000C990BC816D90691F4809130038E9D32
:101D5000A0018F9D500D1124559547955595479598
:101D60009E0160912F0380912E030E94070CB00EFC
:101D7000F1E0EF1AF108B9F61F5FBBCF0E94860CA5
:101D80008091E201013031F4811102C08091130190
:101D9000815007C090E001966091130170E00E94AD
:101DA000F52C8093E201DF91CF911F910F91FF906D
:101DB000EF90DF90CF90BF900895CF938091110165
:101DC00090911201891770F4E82FF0E09F01220F23
:101DD000331FE20FF31FEE5CFC4F11821082128260
:101DE0008F5FF0CFC0E060911301C617C0F5EC2FF4
:101DF000F0E070E0CF010E94F52C20911101820FDC
:101E00002091E101022E000C330B90E0E217F30762
:101E1000CCF020910E01022E000C330B2E173F0741
:101E20008CF09C01220F331F820F931F9C012E5CAC
:101E30003C4F4091300360912F0380912E030E940C
:101E4000070C0BC0FC01EE0FFF1F8E0F9F1FFC0144
:101E5000EE5CFC4F118210821282CF5FC4CF0E94D1
:101E6000860C20910D018091E101820F8093E101A8
:101E700090910E01920F90930E0119165CF4082EAA
:101E8000000C990B4091130150E041505109841707
:101E900095071CF0219520930D01CF9108958F9205
:101EA0009F92AF92BF92CF92DF92EF92FF920F93E9
:101EB0001F93CF93DF938C01FC014481C42FD0E0AA
:101EC0009E01DE010E94392D9B01AC010E944F2D25
:101ED0006B017C01E0E2F0E0EC1BFD0BA5E5B0E05E
:101EE0009B01AC010E944F2D4B015C019F01DF0162
:101EF0000E94312D9B01AC010E945A2D9B01AC0127
:101F00002C0D3D1D4E1D5F1DC501B4010E94092D04
:101F1000C22FD22F2A3228F4F3E02F9F90011124F0
:101F20000DC025E530E02C1B3109C901880F991F30
:101F3000280F391F37FF02C02F5F3F4F3595279578
:101F4000C22FC095F12C85E5E82EED1A8091130182
:101F5000F816C8F4F1FC02C08E2D01C08D2F9091AF
:101F600011012F2D30E0290F311DA901440F551FFC
:101F7000240F351F2E5C3C4F4C2F60912F030E9485
:101F8000070CF394E3CF0E94860CF8018481811141
:101F900002C091E003C0803219F49FEF90930C01CE
:101FA00090910C01890FF8018483DF91CF911F91EB
:101FB0000F91FF90EF90DF90CF90BF90AF909F90E8
:101FC0008F9008950F931F93CF93DF93EC0100E060
:101FD00010E080911301282F30E00217130724F539
:101FE000909111019801290F311DA901440F551F2E
:101FF000240F351F2E5C3C4F869590E04C810817CE
:1020000019071CF4442331F002C0411103C0409170
:10201000300301C040E060912F0380912E030E94A5
:10202000070C0F5F1F4FD5CF0E94860C8C8190E06C
:102030000196817099278C83DF91CF911F910F9129
:1020400008957F928F929F92AF92BF92CF92DF922C
:10205000EF92FF920F931F93CF93DF93FC01828047
:10206000748081E08483EDE3F2E09490ECEBF2E0A5
:10207000E491A12CF5E0BF2ECC24CA94D12CE9190F
:102080000E2F10E080911301A81608F0A2C0EA2CD0
:10209000F12C22E0281568F0BE9CF001BF9CF00DE9
:1020A0001124ED51FE4F80912E03808380912F03E8
:1020B000818371100AC0BE9CF001BF9CF00D1124F9
:1020C000ED51FE4F138212826AC0BE9CE001BF9C9C
:1020D000D00D1124CD51DE4F8B818823F9F0815032
:1020E0008B832FEF829FC00111246C8170E00E94CE
:1020F000E12CFB01FF27E35CFD4F8491E82FE919F8
:102100002FEFE29FC0011124B8010E94E12C8091C1
:102110003003689FB00111247A8341C00E94AE2D24
:10212000209130032695215830E0A901440F551F16
:10213000322F2227240F351F232F3327821793078F
:1021400074F582E0881588F40E94AE2DB6010E94D5
:10215000F52C88830E94AE2D20912F032695622FA7
:1021600070E00E94F52C280F2983BE9CF001BF9CD3
:10217000F00D1124ED51FE4F128280913003843115
:1021800020F0893C18F088EC01C084E1BE9CF0018D
:10219000BF9CF00D1124ED51FE4F84838383809109
:1021A00011019701280F311DC901880F991F280FB0
:1021B000391F2E5C3C4FBE9CF001BF9CF00D1124DA
:1021C000ED51FE4F4281618180810E94070CA394F2
:1021D00059CFDF91CF911F910F91FF90EF90DF903A
:1021E000CF90BF90AF909F908F907F900C94860C73
:1021F000EDE2F3E080818E7F808360817181828156
:1022000093810E942C0C10923D022FEF80E792E008
:10221000215080409040E1F700C000000C94860CF3
:10222000EDE2F3E080818E7F808310923D022FEFFC
:1022300080E792E0215080409040E1F700C000002C
:102240000C94860C10923D0280913A0281110AC0D2
:1022500081E080933A0280912D038170809339024E
:102260000C941011089560912D03669570E04BE079
:1022700050E084E191E00E94BE2D892B19F481E0A9
:1022800080933D020E947E25909334028093330216
:10229000089590912D0390FF35C09170811102C077
:1022A000926006C08B3210F0946502C0880F982BA4
:1022B00090932D03662351F060912D0370912E03AE
:1022C00080912F03909130030E942C0C60912D037C
:1022D000669570E04BE050E084E191E00E94BE2DF5
:1022E000892B19F010923D0202C00E94331181E047
:1022F000809336024091300360912F0380912E032A
:102300000C942A0E0895682F90912D03969581E0E4
:10231000890F8B3208F081E00C94491181E00C9414
:102320008311682F90912D0396958FEF890F09F4F3
:102330008AE20C94491181E00C94911161E00C94B3
:102340004911EDE2F3E080818160808386950C94F1
:102350009E1180912D0380FD0C94F8100C94A11116
:1023600060E00C94491180913B0281112EC00E94C3
:102370007523811104C00E9427240E943E0C0E94F4
:10238000280C60932D0370932E0380932F0390935A
:1023900030036E7F61F40E943E0C0E94280C609313
:1023A0002D0370932E0380932F03909330030E948C
:1023B000150C10923D0280912D0380FF03C086957D
:1023C0000E94B01181E080933B020895EDE2F3E0BA
:1023D00080818160808386950C94B01110923A02BE
:1023E0008091390281110E94E6110C9433110F93F0
:1023F0001F93CF93DF9380913D02882309F495C00A
:1024000080913C02E0912D03E695E81BE0933502B4
:10241000823049F4F0E0E75CFD4FE491CE2FD0E04C
:102420000FED1CE059C0863049F4F0E0EA5CFD4F46
:10243000E491CE2FD0E003EF1CE04EC0893051F480
:10244000E695F0E0ED5CFD4FE491CE2FD0E00DE29B
:102450001EE042C08F3051F4E695F0E0E05DFD4FA4
:10246000E491CE2FD0E008E61EE036C0853149F475
:10247000F0E0E35DFD4FE491CE2FD0E00DED1EE0E6
:102480002BC08831D9F0833239F4EBE2F2E0C59108
:10249000D49103E01DE020C08432A9F08532C1F45C
:1024A0008E2F63E00E94D52CE92FF0E0E85DFD4F10
:1024B000E491CE2FD0E001E210E10EC0C8E2D0E0FE
:1024C0000FE41FE009C0C4EFD1E002EE1FE004C03A
:1024D000C0EDD7E003E01CE080913602882361F074
:1024E000109236020E947E2590933402809333022C
:1024F00010923802109237020E947E25E09133023A
:10250000F09134028E1B9F0B8F3F9F4770F4EC0FAE
:10251000FD1FF0933402E093330283E392E0F8016D
:10252000DF91CF911F910F910994DF91CF911F916E
:102530000F910895882311F0FA0101C0FB0109945D
:10254000CF93DF93C82FD62F0E944D0C8C1740F0ED
:102550000E944D0C8D1720F4DF91CF910C948E11B9
:102560008C2FDF91CF910C949E111F93CF93DF930B
:10257000FB011281112309F4C1C0EC010E94B422B5
:102580008272CD3CFCE5DF0709F49BC008F043C034
:10259000C73CECE5DE0709F480C0D8F4C43C9CE5F8
:1025A000D90709F46DC038F4C33CDC4509F0A7C075
:1025B0000E94A9116BC0C53C9CE5D90709F468C00D
:1025C000C63CDC4509F09BC04BEE5DE06EED7DE066
:1025D0005BC0CA3CFCE5DF0709F469C070F4C83C85
:1025E000ECE5DE0709F45EC0C93CDC4509F087C0B4
:1025F0004AEF5DE069E07EE047C0CB3C9CE5D9074F
:1026000009F45AC0CC3CDC4509F079C040E85CE0F4
:1026100069E67CE039C0C23DFCE5DF0709F45EC035
:1026200098F4CF3C9CE5D90709F452C008F44EC099
:10263000C03DFCE5DF0709F44EC0C13DDC4509F0B3
:102640005EC06EE089E057C0C53D9CE5D90709F43E
:102650004BC058F4C33DFCE5DF0709F442C0C43D5C
:10266000DC4509F04CC088E143C0C63D9CE5D90774
:10267000F1F1CE35DD4509F042C06AE285E23BC0AA
:102680004BE951E16EE871E10E949A1210E037C007
:102690004EE851E16BE971E1F7CF4EED5DE06BEE95
:1026A0007DE0F2CF49E05EE06AEF7DE0EDCF47E20A
:1026B0005EE068E17EE0E8CF48E15EE067E27EE070
:1026C000E3CF49E65CE060E87CE0DECF81E010C06B
:1026D00065E082E010C068E086E00DC064E18FE054
:1026E0000AC067E185E107C062E289E104C083E2D4
:1026F0000E949E11CBCF0E94A012C8CF11E0812F63
:10270000DF91CF911F91089586E090E00C94CB2D3E
:10271000682F86E090E00C94DF2D80916203847036
:102720008962809362030C9488130E94752381113F
:1027300004C00E9427240E948D130E94841380935A
:102740006203282F26952695269530E02630310500
:1027500024F087708862809362038091620380FF17
:1027600004C086958695869501C080E00C94A614D9
:1027700020916203822F869586958695482F50E09A
:102780004530510554F48F5F982F990F990F990F89
:10279000822F8770892B809362038091620381600E
:1027A000809362030E9488138091620386958695C8
:1027B00086950C94A61480916203982F9695969511
:1027C0009695A1F0915E990F990F990F8770892BBB
:1027D00080936203887F91E009F490E08091620326
:1027E00090FB80F9809362030E94881380916203BA
:1027F0008695869586950C94A6148091620380FD3B
:1028000013C0816080936203813019F489E0809362
:102810006203809162030E9488138091620386950F
:10282000869586950C94A61408958091620380FF86
:1028300008C08E7F809362030E94881380E00C940E
:10284000A61408958091620380FD0C9415140C94D5
:10285000FD1390916203892F8695869586958F5FEB
:102860008F719770863038F4880F880F880F892B06
:102870008093620302C09093620380916203887F19
:1028800091E009F490E08091620390FB80F98093DD
:1028900062030E94881380916203869586958695CF
:1028A0000C94A614863008F085E09091620397702E
:1028B000282F220F220F220F922B90936203987FD2
:1028C00021E009F420E09091620320FB90F99093BD
:1028D00062030C94A6140E945214809162030C941B
:1028E00088139C01FB018281882349F12E3BFCE582
:1028F0003F07C9F040F42C3BECE53E0769F02D3B67
:102900003C4561F00895203C9CE5390791F070F05A
:10291000213C3C4589F0089585E001C080E00E949B
:102920006B1480E008950E94DB13FBCF0E94B81364
:10293000F8CF0E942214F5CF0E942914F2CF81E033
:102940000895269A2E9808952E980895CF92DF9292
:10295000EF92FF92CF93C82F863050F4811109C0B7
:10296000809180008F7D809380000E94A41406C017
:10297000C5E0809180008062809380002C2F30E041
:10298000AFEFBFEF0E94392D25E030E040E050E08E
:102990000E94092DB42FA32F922F8827492F5A2F39
:1029A0006B2F7727CA014C3724E1520728F469E0DE
:1029B00070E00E94E12C29C0DB01CA018A50974DCA
:1029C000AF4FBF4F6627782F892F9A2F25EF38E218
:1029D00041E050E00E94092D69017A01CA01B90164
:1029E0000E94C52C9B01AC01C701B6010E94C52CF9
:1029F000BB27A92F982F872F009721E0A207B105A9
:102A000011F0BC0102C06FEF7FEF70938B006093F9
:102A10008A00CF91FF90EF90DF90CF9008950895B6
:102A20000E94A11482E28093800089E1809381005A
:102A30008FEF9FEF90938700809386000C949513FF
:102A40006A9A2EB12B7F3EB134604FB7F894FC01E7
:102A5000CB01880F991F680F791F6E0F7F1FE61734
:102A6000F70789F0819198E03EB9000000C087FF28
:102A70002EB9880F000000C000C000C02EB900C0F1
:102A80009A9591F7ECCF4FBF8FE594E00197F1F75E
:102A900000C0000008950F931F93CF93DF93C42FBE
:102AA000D22FFC0182818823C9F0409340020E940A
:102AB0007E2590933F0280933E0280E28C0F883007
:102AC00008F057C0C77081E001C0880FCA95EAF7C7
:102AD000DF91CF911F910F910C943A1A809140028F
:102AE000481330C080913E0290913F020E9496258B
:102AF000883C910538F510E21D0FCD17B9F080E242
:102B00008C0F883040F4C77081E001C0880FCA95EF
:102B1000EAF70E94411A183028F581E09D2F97703E
:102B200001C0880F9A95EAF70E943A1A802F0E94F6
:102B3000311A1830F0F4D77081E001C0880FDA95AF
:102B4000EAF70AC080E28C0F883098F4C77081E001
:102B500001C0880FCA95EAF7DF91CF911F910F91BD
:102B60000C94411A802FDF91CF911F910F910C94FB
:102B7000311ADF91CF911F910F9108950F939C010E
:102B8000CB01243F4CE5340731F188F4293DFCE5C5
:102B90003F07D9F02A3D4CE5340779F1283D3C4503
:102BA000A9F506E221EE41EE68ED7CE52BC0263F5B
:102BB000FCE53F07E1F0A8F0273F3C4539F507E287
:102BC00025EE46EE67EF7CE51DC007E225EE45EEFB
:102BD00069ED7CE517C006E221EE40EE64EF7CE58E
:102BE00011C007E225EE44EE65EF7CE50BC006E27E
:102BF00021EE42EE66EF7CE505C008E221E045EEFD
:102C00006AED7CE50E944B1580E008C0FC018281E2
:102C1000882319F01092400201C081E00F910895BD
:102C2000CF93DF93EC01FB018281882309F41FC15C
:102C3000C230FCE5DF0708F41BC1C6319CE5D907AB
:102C400038F09E012B5F3C452930310508F010C15A
:102C50000E9492239093180380931703C031ECE5F0
:102C6000DE0709F4C3C008F041C0C8308CE5D807BE
:102C700009F49AC0F0F4C430ECE5DE0709F487C02B
:102C800068F4C2308CE5D80709F477C0C330DC455E
:102C900009F0E3C080911703826076C0C630ECE58E
:102CA000DE0709F46EC008F07BC0809117038860CE
:102CB0006BC0CC308CE5D80709F485C068F4CA3005
:102CC000ECE5DE0709F474C008F079C00E94C71C67
:102CD00080911703806858C0CE308CE5D80709F47E
:102CE00076C008F07FC0809117038BC0CC3FECE525
:102CF000DE0709F44FC018F5C3318CE5D80709F495
:102D00007DC078F4C131ECE5DE0709F473C0C2314F
:102D1000DC4509F0A2C00E94C71C809117038F7781
:102D200033C0C5318CE5D80709F472C008F486C0F9
:102D3000CB3FDC4509F091C0809118033EC0C1151E
:102D4000FDE5DF0709F45FC058F4CE3F9CE5D907E5
:102D500009F444C008F43FC08091180382602DC07C
:102D6000C230FDE5DF0709F475C008F45DC0C3306B
:102D7000DD4509F072C080E06EC08091170381606C
:102D800003C08091170380618093170366C0809110
:102D9000170311C0809118038260809318035DC0EF
:102DA000809117038062F0CF809117038064ECCF8D
:102DB0008091170388608460E7CF8160EECF8091B7
:102DC00017038E7FE1CF809117038D7FDDCF809138
:102DD0001703877FD9CF8091180318C080911803FB
:102DE0008D7FDBCF809117038F7ECECF809117032D
:102DF0008F7DCACF809117038F7BC6CF8091170339
:102E0000877F8B7FC1CF809118038D7F8E7FC5CF49
:102E10008091170382FB222720F991E0922790FBF3
:102E200082F990FB83F9B0CF80911803982F909589
:102E300091708E7F892B90FB81F9AFCF0E94C71CC8
:102E40008091170387FB222720F991E0922790FBBE
:102E500087F99ACF81E00E942924809117039091ED
:102E600018030E94A3230E94C71C80E001C081E0D8
:102E7000DF91CF910895CF93DF9386319C4541F543
:102E8000EB010E94B422982F8A8120911F0130917A
:102E90002001882379F09A7A81E009F480E0809318
:102EA0004102911102C069E201C065E3C9010E94BB
:102EB000C4240AC080914102811102C069E201C0AC
:102EC00065E3C9010E94CF240E94062380E001C06F
:102ED00081E0DF91CF91089590934702809346025D
:102EE0000895E0914602F0914702309721F0019059
:102EF000F081E02D099480E00895E0914602F09180
:102F00004702309799F020912B01222359F020910C
:102F1000170327FF07C0DC012C9111962C93119702
:102F200025E02C930280F381E02D09940895E0912F
:102F30004602F0914702309739F022E0DC012C93F1
:102F40000480F581E02D0994089520914402309188
:102F500045022817390771F0909345028093440287
:102F6000E0914602F0914702309721F00680F78108
:102F7000E02D0994089520914202309143022817D0
:102F8000390771F09093430280934202E091460228
:102F9000F0914702309721F00084F185E02D0994EB
:102FA00008950E948A256093570270935802809377
:102FB000590290935A026093530270935402809383
:102FC000550290935602089585B7806885BF85B7EE
:102FD000806885BF089581E008950C94EB170895EB
:102FE0000C94EF170C94EF170C94F2170C94EF1746
:102FF0000C94F6170C94EF170E94E41783E793E202
:103000000E94EF250E94FA170C94F8170E94F017FF
:103010000C94EF170E9475250E94E1070E949513FA
:103020000E94B3110C94F4176F927F928F929F922B
:10303000AF92BF92CF92DF92EF92FF920F931F93C6
:10304000CF93DF93CDB7DEB72A970FB6F894DEBFE4
:103050000FBECDBF0E94130881110E94D11739E421
:10306000832E32E0932E00E010E0C02E802F0E94CD
:10307000AF075C01F401619071904F0168267926D9
:1030800061147104B1F40F5F1F4F0530110569F72A
:103090008FEF89838A831B820E947E258160782F2F
:1030A0009D838C8349815A816B818D810E94CE18CA
:1030B0003AC08091F30281FD0E94B807D12CEE2422
:1030C000E394F12CC3018E219F21892B29F10E94C9
:1030D000ED178823A9F0DE82CF82AE20BF2081E0E9
:1030E000AB2809F480E088870E947E258160782FD4
:1030F0009A8789874E815F8168858A850E94CE186C
:10310000000F111FF801E75BFD4F80819181E826D8
:10311000F926F182E08207C0D394EE0CFF1CFFE099
:10312000DF12D0CFB0CF0E94F7110E940F150E947E
:103130004E0A0E947117909148028917D1F00E949F
:103140007117809348022A960FB6F894DEBF0FBE1F
:10315000CDBFDF91CF911F910F91FF90EF90DF9046
:10316000CF90BF90AF909F908F907F906F900C9476
:10317000FC032A960FB6F894DEBF0FBECDBFDF91D9
:10318000CF911F910F91FF90EF90DF90CF90BF9064
:10319000AF909F908F907F906F900895DF92EF9205
:1031A000FF920F931F93CF93DF93CDB7DEB72B978B
:1031B0000FB6F894DEBF0FBECDBFF42E052F162F2D
:1031C000E72ED82E61110E94D422FE01319686E0AE
:1031D000DF011D928A95E9F77E2D4F2D502F612F2B
:1031E0008D2D9E810E94801F2B960FB6F894DEBF16
:1031F0000FBECDBFDF91CF911F910F91FF90EF9048
:10320000DF900895FC01808191810E9454220895ED
:10321000CF93882309F4A4C0C82F8238C1F40E9438
:10322000711781FD9DC069E380911F01909120017C
:103230000E94C4240E9406232FEF81EE94E02150C7
:1032400080409040E1F700C0000069E319C0833876
:1032500001F50E94711780FD83C063E580911F0115
:10326000909120010E94C4240E9406232FEF81EE3A
:1032700094E0215080409040E1F700C0000063E5F9
:1032800080911F01909120010E94CF24CF910C9436
:1032900006238438C1F40E94711782FD61C067E47F
:1032A00080911F01909120010E94C4240E94062356
:1032B0002FEF81EE94E0215080409040E1F700C074
:1032C000000067E4DDCF8CEF8C0F813AD0F46C2FD7
:1032D00080911F01909120010E944424882349F08D
:1032E0006C2F80911F01909120010E94CF240E9499
:1032F00006236C2F80911F01909120010E94C4240D
:10330000C5CF80E28C0F883048F4C77081E001C0DF
:10331000880FCA95EAF70E94B722B8CFEBE5EC0F09
:10332000E33040F4F0E0E653FE4F808190E0CF912F
:103330000C94A517E8E5EC0FE73150F4F0E0EE0F40
:10334000FF1FE456FE4F80819181CF910C94BB17F3
:10335000CD3E30F08C2F0E945E09CF910C94300A44
:10336000CF910895882309F464C0823879F40E94CB
:10337000711781FF5EC069E380911F019091200168
:103380000E94C4240E94062369E310C08338B1F46C
:103390000E94711780FF4DC063E580911F019091DD
:1033A00020010E94C4240E94062363E580911F012E
:1033B000909120010E94CF240C940623843879F444
:1033C0000E94711782FF35C067E480911F019091C0
:1033D00020010E94C4240E94062367E4E7CF9CEFEB
:1033E000980F913A10F4682FE1CF90E2980F98303F
:1033F00050F4877091E001C0990F8A95EAF7892F00
:103400000E94BD22D9CF9BE5980F933020F480E035
:1034100090E00C94A51798E5980F973120F480E080
:1034200090E00C94BB178D3E20F00E94B9090C94DB
:10343000300A08951F93CF93DF93182FEB010E945A
:103440000819209741F08FE99FE00197F1F700C03C
:1034500000002197F6CF812FDF91CF911F910C941F
:10346000B219893319F060E070E002C060E570E0E5
:103470000C941A1A882321F00E94B7220C94062378
:103480000895882321F00E94BD220C9406230895FC
:10349000CF92DF92EF92FF920F931F93CF93DF9320
:1034A0007C01062FC72FFC01D281158112951F7058
:1034B0000E948C22882399F0DD2389F08C2F807F55
:1034C000803421F080E2800F883048F082E00E9452
:1034D00056230E948C2291E0D82ED92601C0D12CEF
:1034E000CC2EC2948FE0C8228C2D90E0FC01EA5AC9
:1034F000FF4F0C942B2D8C2F807FCF70882311F0E1
:10350000C295C07FDD2399F0CC2309F48DC180E200
:10351000800F883010F0011104C08C2F0E94B72258
:1035200003C08C2F0E94C7220E9406237DC1802FDA
:103530000E94B219CC2309F49CC180E2800F88302C
:1035400010F0011104C08C2F0E94BD2203C08C2FEB
:103550000E94CD220E9406238CC18C2F807FCF70C9
:10356000803211F0C295C07F002319F00130C9F0FC
:1035700022C0DD2371F0112341F0113031F40E949B
:10358000E7228C2B0E94EF2274C10E94E7228C2B31
:103590001DC0112319F0113009F46BC10E94FC22E7
:1035A00025C0DD2321F0163008F063C10EC01530B0
:1035B00008F05FC11BC0DD2361F0112331F0F7017A
:1035C000858180FF31C18F7085838C2F0E943A1ACC
:1035D00050C1112359F0093309F037C1FFEF27EE2D
:1035E00083E0F15020408040E1F72DC18C2F0E94F4
:1035F000411A3FC18C2F86958695837019F08130D2
:1036000061F037C1DD2321F0802F9C2F937002C021
:1036100080E090E00E94A51734C1DD2321F0802FC7
:103620009C2F937002C080E090E00E94BB1729C1DC
:10363000802FDD2319F00E945E0902C00E94B909A3
:103640000E94300A1EC18C2F837009F045C0D11131
:1036500014C1402F429546954770440F440F602F88
:103660006F70862F90E0A0E0B0E0042E04C0880FB9
:10367000991FAA1FBB1F0A94D2F704FF10C00FE0C6
:1036800010E020E030E004C0000F111F221F331FA4
:103690004A95D2F7009510952095309503C000E02B
:1036A00010E09801C695C695C370BC01CD01602B92
:1036B000712B822B932BC23049F058F4C13019F092
:1036C0000E94D120DAC00E94BF20D7C00E94E32010
:1036D000D4C00E94BD20D1C0DD2319F08C2F817091
:1036E00001C08695882309F4C8C0402F42954695AD
:1036F0004770440F440F602F6F70862F90E0A0E05A
:10370000B0E0042E04C0880F991FAA1FBB1F0A94A3
:10371000D2F704FF10C00FE010E020E030E004C05A
:10372000000F111F221F331F4A95D2F700951095E5
:103730002095309503C000E010E09801C695C6952D
:10374000C370BC01CD01602B712B822B932BC23037
:1037500049F058F4C13019F00E9496218EC00E94A1
:1037600084218BC00E94A82188C00E94F72085C0B8
:10377000CF70DD2339F08C2F0E941D21802F0E94F5
:103780003A1A7BC0802F0E94411A8C2F0E943E2142
:1037900074C0023F01F128F4003F41F0013FA1F065
:1037A0003FC0033FF9F0043F39F13AC0DD2341F057
:1037B000153008F05EC08C2F8F710E94632159C0B4
:1037C000163008F056C0F7CFDD2339F08C2F8F71FB
:1037D0000E941D214EC0DD23C9F38C2F8F710E94E2
:1037E0003E2147C0DD2329F08C2F8F710E940821D4
:1037F00040C00E9403213DC0DD2349F0CF718C2FD2
:103800000E941D2163E08C2F0E943B2332C081E087
:103810000E945623123068F182E00E94562329C08C
:10382000DD2331F0112391F2802F0E94081921C06D
:10383000112399F2093349F49FEFE7EEF3E0915039
:10384000E040F040E1F700C00000802F0E94B21974
:1038500010C04C2F4F70602FC7010E9405040E94BA
:103860002E200FC04C2F4F70602FC7010E940804FC
:1038700008C088EF8C0D843020F40E9471170E94DC
:10388000FC03DD20C9F00E94882280FD15C0F701ED
:1038900012820E9482220E941D21C7010E947D1C6B
:1038A0000E948222DF91CF911F910F91FF90EF90A4
:1038B000DF90CF900C943E21DF91CF911F910F911B
:1038C000FF90EF90DF90CF9008950F931F93CF93C9
:1038D000DF93EC01688179818A810E945F228C01EB
:1038E0000E94BA210E94AB20B801CE010E94481A62
:1038F000DF91CF911F910F910895CF93DF93EC014A
:10390000988189812B813C81232B31F08F3F31F4C9
:1039100081E09F3F19F403C081E001C080E080FD99
:1039200019C0CE010E94870381110CC00E948C2215
:10393000882381F08A81882369F082E0DF91CF912A
:103940000C945623CE010E94651CCE01DF91CF91CD
:103950000C946203DF91CF91089580E090E00E9483
:10396000A51780E090E00E94BB170E94D4220E941D
:10397000E4220E9406230E94610B0C94300A80917D
:103980001F01909120010E94DA240C94AD1C0E942A
:10399000C4220C94BF1CE92FE295EF704E2F50E02B
:1039A000FA013297EE30F105B0F4EA59FF4F0C946A
:1039B0002B2D803F91F018F4883E68F40EC0843FB0
:1039C00051F40BC0883E48F0813F29F406C093FBB8
:1039D000882780F9089580E0089581E008950E9485
:1039E00054220E94CB1C0895CF93DF9300D000D0C7
:1039F0001F92CDB7DEB70F900F900F900F900F90E2
:103A0000DF91CF910895CF93DF9300D000D000D005
:103A1000CDB7DEB726960FB6F894DEBF0FBECDBF8A
:103A2000DF91CF9108951F93CF93DF93C0915C02F4
:103A300016E080915D02C81799F0D0E01C9FF0015C
:103A40001D9FF00D1124E25AFD4F4081518162818A
:103A50007381848195810E94031D2196C770E9CFEF
:103A6000DF91CF911F91089540918E0250918F0266
:103A700060919002709191028091920290919302D4
:103A80000C94031D0F931F93CF93DF9380919302A8
:103A900082958F7009F05DC080919002882309F4AF
:103AA00058C080915C0210915D0260918E0270910D
:103AB0008F02C0919102D091920291E06F3F09F084
:103AC00090E0292F06E0811709F443C0209721F0E8
:103AD0007F3F21F030E003C031E001C0322F90E0A1
:103AE00030FD34C0089FF001099FF00D1124DF0163
:103AF000A25ABD4F11963C911197371327C03C91A4
:103B0000361324C012963C91129731111FC01396A0
:103B10004D915C9114974C1B5D0B483C5105B0F4E2
:103B2000809193028F70806180939302ED59FD4FD5
:103B300080818F70806180838EE892E00E947D1C7E
:103B4000DF91CF911F910F910C94131D01968770F7
:103B5000BACFDF91CF911F910F9108959F92AF92AD
:103B6000BF92CF92DF92EF92FF920F931F93CF936A
:103B7000DF93CDB7DEB761970FB6F894DEBF0FBE07
:103B8000CDBF8C0185E0F801DE011D9601900D92FC
:103B90008A95E1F7F80140815181E28090918E028F
:103BA00060918F022091910230919202211531058E
:103BB00031F06F3F31F481E09F3F19F403C081E0A1
:103BC00001C080E0F82FF1709F2E80FD46C1F80102
:103BD000A380B4808EE8C82E82E0D82EF0909002A8
:103BE000F501E21BF30BFF2009F4DFC08091930283
:103BF000E83CF10508F09BC0282F207F09F052C057
:103C0000561313C0491311C0FE2CE1100EC08F7063
:103C10008061809393020E94341DC6010E947D1C26
:103C200080919302F801858358C1AB2831F05F3F42
:103C300031F481E04F3F19F403C081E001C080E01E
:103C400080FD03C081E08E2502C080E090E0F82F67
:103C5000F170FF2E80FF1CC080915C0220915D02FC
:103C600036E0821709F417C190E0389FF001399FC0
:103C7000F00D1124E25AFD4F6181561306C0608198
:103C8000461303C06281E61203C001968770E9CF34
:103C9000FE2CEE2009F421C1809193028160809373
:103CA00093025AC0561306C0491304C0E11002C063
:103CB000F8019FC04D875E878D859E850E94EF1C11
:103CC000882379F1EE2069F120919302822F829569
:103CD0008F7090E0029774F080918E0290918F0225
:103CE00098878F831986BB86AA862C87CE01079674
:103CF0000E947D1C86E0F801AEE8B2E001900D92D2
:103D00008A95E1F70E94421D0E94341D0DC056178E
:103D100029F14D875E878D859E850E94EF1C81115C
:103D20002CC0C8010E947D1CFF24F394D6C0282F0C
:103D3000207F69F77A2DB98AA88A6E2D89890E9419
:103D4000F41C8EE892E00E947D1C86E0F601119240
:103D50008A95E9F70E94341DF12CBFC04913D9CFD1
:103D6000E110D7CFF8018583C8010E947D1C86E051
:103D7000F60111928A95E9F7B0C0EE2091F22091F8
:103D80009302822F82958F7090E002970CF4B2CF4D
:103D900080918E0290918F029A8389831B82BD82CB
:103DA000AC822E83CE010196A3CFE83CF10508F04A
:103DB00047C0FE2CEE2009F4B4CF561330C049138F
:103DC0002EC02091930220FD21C0822F82958F70FA
:103DD000482F50E041155105C9F0F80125834F30B7
:103DE000510541F08F5F982F9295907F822F8F70B1
:103DF000892B8583C8010E947D1C86E0F801AEE80E
:103E0000B2E001900D928A95E1F742C086E0F80198
:103E1000AEE8B2E001900D928A95E1F75EC04D8761
:103E20005E878D859E850E94EF1C811163CF8091F6
:103E30009302816080939302C8010E947D1C4DC053
:103E40007A2DB98AA88A6E2D89890E94F41C86E091
:103E5000F60111928A95E9F71BC0EE2009F461CFB3
:103E60004D875E878D859E850E94EF1CF82E8823E6
:103E700009F457CF86E0F801AEE8B2E001900D9268
:103E80008A95E1F78EE892E00E9402190E94421D95
:103E90000E94341D22C04D875E878D859E850E94BD
:103EA0005422292F22952F70223028F49F7039F048
:103EB000811105C00BC0243028F49F7049F4805E46
:103EC000883020F0C8010E947D1C9F2CF92C05C071
:103ED000F8019581907F99F7F9CF8F2D61960FB6F4
:103EE000F894DEBF0FBECDBFDF91CF911F910F9130
:103EF000FF90EF90DF90CF90BF90AF909F9008958C
:103F00001F93CF93DF93CDB7DEB72C970FB6F894FE
:103F1000DEBF0FBECDBF4F83588769877A878B87F7
:103F20009C87CE0107960E94AE1D8823D1F09F8109
:103F300088852A853B85232B31F08F3F31F481E042
:103F40009F3F19F403C081E001C080E080FD47C0BD
:103F50004F81588569857A858B859C850E94031DD4
:103F60003EC086E0FE013796DE01119601900D926B
:103F70008A95E1F7FF81E8856A857B856115710582
:103F800031F0EF3F31F481E0FF3F19F403C081E0ED
:103F900001C080E080FD23C020915D0230E0C901B6
:103FA00001968770992740915C0250E0841795072D
:103FB000F1F1F983EA837D836C8396E0929FD001CF
:103FC000939FB00D1124A25ABD4FFE01319601906E
:103FD0000D929A95E1F780935D020E94131D16E001
:103FE00080915C0290915D02891771F1189FC00168
:103FF0001124825A9D4F0E94AE1D882329F1E09121
:104000005C021E9FF0011124E25AFD4F4081518154
:1040100062817381848195810E94031D80915C027D
:1040200090E001968770992780935C02D9CF0E9417
:10403000C71C10925D0210925C02EEE8F2E086E08E
:10404000DF011D928A95E9F72C960FB6F894DEBF32
:104050000FBECDBFDF91CF911F910895EF92FF92D8
:104060000F931F93CF93DF938C01892B09F46CC0BE
:10407000F12CEE24E394E8012196F8018491843731
:1040800040F4843008F051C0813081F0823019F161
:104090005BC0853709F444C0A8F19CE7980F9037BE
:1040A00008F052C08F770E94B21941C00E5F1F4FB7
:1040B000FE01849190E2980F983050F48770FE2DA5
:1040C00001C0FF0F8A95EAF78F2F0E94D72214C0F4
:1040D0000E9408192DC00E5F1F4FFE01849190E2CF
:1040E000980F983060F48770FE2D01C0FF0F8A95FD
:1040F000EAF78F2F0E94DD220E94062319C00E943A
:10410000B21916C00E5F1F4FFE01C491CC2381F07F
:104110008FE99FE00197F1F700C00000C150F6CF92
:104120000E5F1F4FFE01F49003C00E9408198E011C
:104130008F2D882309F49FCFEFE9FFE03197F1F746
:1041400000C000008150F5CFDF91CF911F910F91FA
:10415000FF90EF900895089508950C94AC200C946E
:10416000AD200E94AF206093CA027093CB0280936F
:10417000CC029093CD020C94AD1C0C94B1200F9303
:104180001F930091CA021091CB022091CC02309172
:10419000CD02602B712B822B932B1F910F910C94CE
:1041A000B1200F931F930091CA021091CB0220916E
:1041B000CC023091CD0260237123822393231F917F
:1041C0000F910C94B1200F931F930091CA0210918C
:1041D000CB022091CC023091CD026027712782273B
:1041E00093271F910F910C94B1200C94AC200E9446
:1041F000F5206093C6027093C7028093C802909323
:10420000C9020C94AD1C60E070E0CB010C94F72067
:104210000F931F9341E050E060E070E08A019B0142
:1042200004C0000F111F221F331F8A95D2F7C90146
:10423000B8011F910F910C94F7200F931F9341E049
:1042400050E060E070E004C0440F551F661F771F08
:104250008A95D2F78091C6029091C702A091C802B8
:10426000B091C9028A019B01082B192B2A2B3B2BE9
:10427000C901B8011F910F910C94F7200F931F9360
:1042800041E050E060E070E004C0440F551F661F3D
:10429000771F8A95D2F740955095609570958091DB
:1042A000C6029091C702A091C802B091C9028A01CA
:1042B0009B01082319232A233B23C901B8011F911D
:1042C0000F910C94F7200F931F9341E050E060E0B2
:1042D00070E004C0440F551F661F771F8A95D2F700
:1042E0008091C6029091C702A091C802B091C90204
:1042F0008A019B01082719272A273B27C901B801F2
:104300001F910F910C94F7200F931F930091C602F9
:104310001091C7022091C8023091C902602B712B05
:10432000822B932B1F910F910C94F7200F931F93C7
:104330000091C6021091C7022091C8023091C902B3
:1043400060237123822393231F910F910C94F720F4
:104350000F931F930091C6021091C7022091C802CB
:104360003091C90260277127822793271F910F91EF
:104370000C94F72008952FE0929F800D1124E82FD0
:10438000E695E695E695877051E001C0550F8A9550
:10439000EAF785E0E89FF0011124EC56FD4F20E09C
:1043A00030E070E04081CB01022E02C096958795E7
:1043B0000A94E2F78170819584278523842781936D
:1043C0002F5F3F4F2530310569F708952FE0929F09
:1043D000800D1124682F669566956695982F9770C5
:1043E00085E0689FB001112440E050E080E0FB01CF
:1043F000E40FF51FEC56FD4F208130E0092E02C07E
:10440000369527950A94E2F721703327042E01C0D0
:10441000220F0A94EAF7822B4F5F5F4F4530510518
:1044200031F70895BF92CF92DF92EF92FF920F93F0
:104430001F93CF93DF938C01C090C602D090C70228
:10444000E090C802F090C9028091CA029091CB021C
:10445000A091CC02B091CD02C82AD92AEA2AFB2A1F
:10446000CFE1D0E0D701C6010C2E04C0B695A795C8
:10447000979587950A94D2F780FD04C0219790F70D
:10448000B12C07C0BC2EB8018C2F0E9424040197C8
:10449000A9F38B2DDF91CF911F910F91FF90EF909A
:1044A000DF90CF90BF900895CF93DF93EC010E94EF
:1044B0001222BE010E942404DF91CF9108951F9320
:1044C000CF93DF93EB0190915B02992321F0CB0115
:1044D0000E94542213C0882349F0CB010E9412226B
:1044E000182F682FCE010E94BB2104C0CB010E946F
:1044F000E621182FBE01812F0E942404DF91CF9165
:104500001F9108958091CE02859585958595089592
:104510008091CE02877008959091CE02977081E0CD
:1045200009F480E008959091180392FB222720F966
:10453000281751F080FB92F990931803809117038C
:10454000909118030C94A32308958091180382FB83
:10455000882780F991E089270C94932281E00C94BC
:10456000932280E00C9493228091F202089590911E
:10457000F202892B8093F202089580959091F202C5
:1045800089238093F20208951092F2020895909187
:10459000F102892B8093F102089580959091F102A8
:1045A00089238093F10208951092F1020895909169
:1045B000F002892B8093F002089580959091F0028B
:1045C00089238093F00208951092F002089580915B
:1045D000CF02089508950C94EA220C94EB22909156
:1045E000180392FD08C09091CF02981721F0809394
:1045F000CF020C94ED2208958091CF02882329F0F8
:104600001092CF0280E00C94ED220895E0911F01FA
:10461000F09120018091F2028083E0911F01F091DE
:10462000200190818091F102892B8083E0911F010C
:10463000F091200190818091F002892B80838091FC
:10464000CF02882381F0E0911F01F0912001908139
:10465000892B808380911F01909120010E942E243C
:1046600081110E94FC2280911F01909120010C94E5
:104670007D170C94EA229091180392FD10C098E0E7
:10468000899F90011124262B2093CE020E941D2188
:104690008091CE028595859585950C9439230C944F
:1046A0001D211092CE0280E00C9439232091CE027D
:1046B000809582238093CE02982F977041F430E04A
:1046C000482F082E000C550B2417350721F4909124
:1046D000180392FF07C08595859585950E943E2118
:1046E0000C945123089580E0089580E090E00E94AA
:1046F000D92D21E08A3E9E4F09F020E0822F0895B7
:1047000082E090E00C94CB2D682F82E090E00C9436
:10471000DF2D83E090E00C94CB2D682F83E090E0B8
:104720000C94DF2DCF9384E090E00E94CB2DC82F16
:1047300082E290E00E94CB2D2C2F30E0A901582B73
:10474000CA01CF910895CF93C92F682F84E090E0DC
:104750000E94DF2D6C2F82E290E0CF910C94DF2D30
:10476000AB01BC018FE090E00C94F12DAB01BC01DA
:1047700083E190E00C94F12D60E070E0CB010C94AB
:10478000B62360E070E0CB010E94B0230C94BC2300
:104790006AEE7EEF80E090E00E94FD2D60E082E016
:1047A00090E00E94DF2D60E083E090E00E94DF2D2A
:1047B0001092CA021092CB021092CC021092CD023B
:1047C00060E084E090E00E94DF2D60E082E290E013
:1047D0000E94DF2D60E085E090E00E94DF2D60E028
:1047E00086E090E00E94DF2D6FEF87E090E00E946E
:1047F000DF2D40E050E0BA0188E090E00E94F12D0A
:1048000060E08DE090E00E94DF2D40E050E0BA01D2
:1048100088E190E00E94F12D60E087E190E00E9445
:10482000DF2D40E050E0BA018CE190E00E94F12DD4
:1048300060E070E080E290E00E94FD2D40E050E0FA
:10484000BA0188E190E00E94F12D0C94C1230C94F0
:10485000C823682F8EE090E00C94DF2DFC01329687
:1048600080912B01882331F08091170387FF02C0CC
:104870009EE101C096E080E0915028F02191222332
:10488000D9F38F5FF9CF0895662351F120912B0161
:104890002223E9F02091170327FF19C0462F4695E0
:1048A000469546954E31E0F4677021E030E002C055
:1048B000220F331F6A95E2F7FC01E40FF11D82819C
:1048C00090E02823392381E0232B69F409C0FC01FF
:1048D000329608962191621729F0E817F907D1F767
:1048E00080E0089581E008959C01FC0132969FEFDD
:1048F00080E04191461789F09F3F19F4411101C0B2
:10490000982F8F5F8630A9F79F3F39F0F901E90FA3
:10491000F11D97FDFA956283089508959C012A5F21
:104920003F4FFC014281461301C01282019682175B
:104930009307B9F70895262F2695269526952E31AB
:1049400068F4FC01E20FF11D677021E030E001C066
:10495000220F6A95EAF78281282B22830895262F59
:104960002695269526952E3170F4FC01E20FF11D57
:10497000677021E030E001C0220F6A95EAF72095C8
:10498000828128232283089520912B01222329F05C
:104990002091170327FD0C949B240C9474242091E0
:1049A0002B01222329F02091170327FD0C94AF241B
:1049B0000C948E2420912B01FC013296222331F09D
:1049C0008091170387FF02C08EE101C086E0DF01FE
:1049D0001D928A95E9F7089508950C94EC240C949F
:1049E000EC24CF930E94EF240E9413080E94ED2430
:1049F000C0E08C2F0E94AF07892B29F4CF5FC53010
:104A0000C1F780E001C081E0CF9108950C94EC24BF
:104A10000C94062580916B03843009F42EC00E940B
:104A2000082580E00E94A61480E00E94FC030E94FA
:104A300022111092F40220E488E190E00FB6F8947D
:104A4000A895809360000FBE2093600083B7817F9C
:104A5000846083BF83B7816083BF7894889583B770
:104A60008E7F83BF0FB6F894A8958091600088610F
:104A700080936000109260000FBE08950C94EC24A7
:104A80000E94C71C0E9495130E9471170E94FC038C
:104A90000E94EE110C943E251F920F920FB60F92BA
:104AA00011248F939F93AF93BF938091F402811150
:104AB00013C08091630390916403A0916503B0914A
:104AC00066034196A11DB11D809363039093640317
:104AD000A0936503B0936603BF91AF919F918F91AF
:104AE0000F900FBE0F901F90189582E084BD93E049
:104AF00095BD9AEF97BD80936E0008952FB7F894F7
:104B00008091630390916403A0916503B091660363
:104B10002FBF08952FB7F8946091630370916403D9
:104B200080916503909166032FBF08959C014FB754
:104B3000F8948091630390916403A0916503B09110
:104B400066034FBF821B930B089578941F920F92B8
:104B50000FB60F9211248F939F93AF93BF938091C1
:104B6000630390916403A0916503B091660301967D
:104B7000A11DB11D8093630390936403A09365030B
:104B8000B0936603BF91AF919F918F910F900FBE2D
:104B90000F901F90189581E08093E00080E2809351
:104BA000D8001092C9008FE19EE40197F1F700C090
:104BB000000087E090EBDC01809374039093750311
:104BC000A0937603B09377039CE088E10FB6F89446
:104BD000A895809360000FBE90936000FFCF9093E4
:104BE000CF018093CE010895809115030895CF934E
:104BF000DF9300D01F92CDB7DEB790916B03943056
:104C000019F589837B836A8382E08093E9008FEFC3
:104C10009091E800815095FD06C095ED9A95F1F7C9
:104C200000008111F5CF8091E80085FF0DC040E0C4
:104C300050E063E070E0CE0101960E942728809149
:104C4000E8008E778093E8000F900F900F90DF912F
:104C5000CF910895BC0184E00C94F725BC0183E05A
:104C60000C94F72522E02093E9002FEF3091E80023
:104C7000215035FD06C035ED3A95F1F700002111C0
:104C8000F5CF2091E80025FF0BC040E050E066E042
:104C900070E00E9427288091E8008E778093E800DA
:104CA0000895CF93DF9320912B01222339F0209197
:104CB000170327FF03C060E222E002C068E021E0A2
:104CC0002093E9002FEF3091E800215035FD06C018
:104CD00035ED3A95F1F700002111F5CF2091E8006C
:104CE00025FF1DC0EC0180912B01811105C040E022
:104CF00050E068E070E003C070E040E050E0CE01BA
:104D00000E9427288091E8008E778093E80080E257
:104D1000FE01A5EFB2E001900D928A95E1F7DF91D7
:104D2000CF91089580916A03811109C00E94B8292A
:104D30000E94152A8091E20084608093E200089529
:104D400010926A03089508950895089542E061EC71
:104D500081E00E94312942E261EC82E00C94312929
:104D600080916D03833009F460C030F4813071F0BC
:104D7000823009F499C008958A3009F485C08B30D7
:104D800009F46BC0893009F0A7C020C080916C0382
:104D9000813A09F0A1C08091E800877F8093E80004
:104DA0008091700390917103892B21F460E285EF6B
:104DB00092E003C060E080E090E070E00E94722822
:104DC0008091E8008B778093E800089580916C03D0
:104DD000813209F081C08091700390917103029734
:104DE00008F07AC08091E800877F8093E800809186
:104DF000E80082FD05C080916B038111F8CF6CC083
:104E00002091F3008091F20090E0922B029729F418
:104E10008091F1008B7F813021F48091F1008093AB
:104E200015038091E8008B7753C080916C03813A21
:104E300009F052C08091700390917103892B09F0A1
:104E40004BC08091E800877F8093E8008091E80064
:104E500080FFFCCF80912B0136C080916C038132A2
:104E6000D9F58091700390917103892BA9F58091F8
:104E7000E800877F8093E8000E94662980916E0396
:104E800080932B010C94C71C80916C03813221F517
:104E90008091E800877F8093E8000E9466298091D6
:104EA0006F0380931603089580916C03813AA1F4F7
:104EB0008091E800877F8093E8008091E80080FF80
:104EC000FCCF809116038093F1008091E8008E77EB
:104ED0008093E8000C946629089584B7877F84BF87
:104EE0000FB6F894A8958091600088618093600067
:104EF000109260000FBE90E080E80FB6F8948093A7
:104F00006100909361000FBE0E94FC170E94B829B7
:104F10000E94152A8091E20084608093E2007894D8
:104F20000E94AA2C0E940A1881E291E00E946C174C
:104F300080916B038530A9F480916B03853079F4FF
:104F40000E940A25809169038823B1F30E94F1240D
:104F5000882391F30E9411280E94C71CEDCF0E9464
:104F600040250E9414180E940618E2CF0C94B8271E
:104F7000292F332723303105C9F060F42130310562
:104F800081F02230310509F044C08BE390E024E643
:104F900034E043C021323105E1F02232310549F1DC
:104FA00038C082E190E02FE934E037C099278130A2
:104FB000910549F028F0029761F5E2E4F4E005C0BC
:104FC000E0E6F4E002C0EEE4F4E0849190E09F01BA
:104FD00024C06115710541F061307105D1F489E09B
:104FE00090E02FE834E019C089E090E026E734E053
:104FF00014C06115710541F06130710551F486EB03
:1050000090E021EB34E009C080E490E027E635E051
:1050100004C080E090E020E030E0FA01318320839A
:10502000089580E189BD82E189BD09B400FEFDCF0C
:105030008091D8008F7D8093D8008091E0008260BD
:105040008093E0008091E00081FDFCCF0895CF9235
:10505000DF92EF92FF920F931F93CF93DF93EC01B8
:105060008B017A010E948529811133C0E114F1047A
:1050700039F0F70180819181081B190BC80FD91FE6
:10508000C12CD12C0115110519F18091E80085FD85
:1050900016C08091E8008E778093E800E114F10457
:1050A00049F0F70180819181C80ED91ED182C0825A
:1050B00085E00FC00E948529882321F30AC08991C9
:1050C0008093F10001501109FFEFCF1ADF0ADACF08
:1050D00080E0DF91CF911F910F91FF90EF90DF90D3
:1050E000CF900895209172033091730326173707EC
:1050F00048F06115710539F42091E8002E7720936E
:10510000E80001C0B901FC0120E06115710579F1E9
:1051100080916B038823F1F18530F1F18091E800F3
:1051200083FD3CC08091E80082FD2EC08091E800A4
:1051300080FFEBCF2091F3008091F20090E0922B62
:105140006115710551F08830910538F42191209353
:10515000F100615071090196F3CF21E0089709F041
:1051600020E08091E8008E778093E800CECF211177
:10517000CFCF0AC080916B03882361F0853061F046
:105180008091E80083FD0AC08091E80082FFF2CFA1
:1051900080E0089582E0089583E0089581E0089515
:1051A00020917203309173032617370748F0611579
:1051B000710539F42091E8002E772093E80001C0B2
:1051C000B901FC0120E06115710591F180916B033B
:1051D000882309F440C0853009F43FC08091E8007D
:1051E00083FD3DC08091E80082FD2FC08091E800E2
:1051F00080FFE9CF2091F3008091F20090E0922BA4
:105200006115710559F08830910540F4249120937F
:10521000F1003196615071090196F2CF21E00897B3
:1052200009F020E08091E8008E778093E800CBCFF2
:105230002111CCCF0AC080916B03882361F08530A7
:1052400061F08091E80083FD0AC08091E80082FF50
:10525000F2CF80E0089582E0089583E0089581E030
:105260000895982F973068F59093E900981739F0D2
:105270007091EC002091ED005091F00003C0242FBC
:10528000762F50E021FD02C09F5FECCF3091EB0004
:105290003E7F3093EB003091ED003D7F3093ED0089
:1052A0003091EB0031603093EB007093EC00209371
:1052B000ED005093F0002091EE0027FDE5CF80E057
:1052C00008958F708093E90081E0089580916C03C8
:1052D00087FF11C08091E80082FD05C080916B03BB
:1052E0008111F8CF11C08091E8008B770BC08091BD
:1052F0006B03882349F08091E80080FFF8CF80910C
:10530000E8008E778093E80008952091E4003091C2
:10531000E50095E64091EC00842F817040FF23C0AA
:105320008091E80080FD1DC080916B03882399F077
:10533000853099F08091EB0085FD11C04091E4002B
:105340005091E5002417350729F3915011F09A0187
:10535000E1CF84E0089582E0089583E0089581E03C
:10536000089580E008954091E80042FFDDCF089560
:105370000E94262A0E942E2AE0EEF0E080818160C1
:105380008083E8EDF0E080818F77808319BCA7ED02
:10539000B0E08C918E7F8C9380818F7E8083109281
:1053A0006A0308950F931F93CF93DF930E94262AD9
:1053B0000E942E2AC8EDD0E088818F77888388816B
:1053C0008068888388818F7D888319BC10926B03E5
:1053D00010926703109269031092680300EE10E0C8
:1053E000F80180818B7F808388818160888342E09F
:1053F00060E080E00E943129E1EEF0E080818E7F64
:105400008083E2EEF0E0808181608083808188602B
:105410008083F80180818E7F80838881806188838A
:10542000DF91CF911F910F910895E8EDF0E0808119
:105430008F7E8083E7EDF0E080818160808384E06F
:1054400082BF81E080936A030C94D229E8EDF0E0FA
:1054500080818E7F80831092E20008951092DA009E
:105460001092E10008951F920F920FB60F9211242F
:105470002F933F934F935F936F937F938F939F935C
:10548000AF93BF93EF93FF938091E10082FF0BC036
:105490008091E20082FF07C08091E1008B7F8093C2
:1054A000E1000E94A92C8091DA0080FF1FC080914A
:1054B000D80080FF1BC08091DA008E7F8093DA00D5
:1054C0008091D90080FF0DC080E189BD82E189BD56
:1054D00009B400FEFDCF81E080936B030E94922609
:1054E00005C019BC10926B030E94A0268091E100B8
:1054F00080FF19C08091E20080FF15C08091E2001A
:105500008E7F8093E2008091E20080618093E200D0
:105510008091D80080628093D80019BC85E0809388
:105520006B030E94A4268091E10084FF30C080912B
:10553000E20084FF2CC080E189BD82E189BD09B40D
:1055400000FEFDCF8091D8008F7D8093D8008091A0
:10555000E1008F7E8093E1008091E2008F7E809356
:10556000E2008091E20081608093E2008091670315
:10557000882311F084E007C08091E30087FD02C01A
:1055800081E001C083E080936B030E94A526809197
:10559000E10083FF29C08091E20083FF25C0809154
:1055A000E100877F8093E10082E080936B0310929B
:1055B00067038091E1008E7F8093E1008091E2009B
:1055C0008E7F8093E2008091E20080618093E20010
:1055D00042E060E080E00E9431298091F000886024
:1055E0008093F0000E94A326FF91EF91BF91AF91AD
:1055F0009F918F917F916F915F914F913F912F91EB
:105600000F900FBE0F901F9018951F920F920FB61C
:105610000F9211242F933F934F935F936F937F9338
:105620008F939F93AF93BF93CF93DF93EF93FF93AA
:10563000C091E900CF708091EC00D82FD17080FD2F
:10564000D0E81092E9008091F000877F8093F0000D
:1056500078940E94492B1092E9008091F0008860B4
:105660008093F000CD2BCF70C093E900FF91EF91B4
:10567000DF91CF91BF91AF919F918F917F916F916A
:105680005F914F913F912F910F900FBE0F901F9000
:1056900018951F93CF93DF93CDB7DEB7AA970FB6B8
:1056A000F894DEBF0FBECDBFECE6F3E08091F100D1
:1056B000819323E0E437F207C9F70E94B026809176
:1056C000E80083FF2EC180916C0390916D03492FF8
:1056D00050E04A30510508F024C1FA01EC58FF4F60
:1056E0000C942B2D803821F0823809F01AC108C0A3
:1056F0008091680390916903992389F082600FC0BB
:10570000809170038F70873008F00BC18093E9009F
:105710008091EB0085FB882780F91092E900909139
:10572000E800977F9093E8008093F1001092F100D9
:10573000D1C0282F2D7F09F0F4C0882319F08230C2
:1057400061F0EFC080916E03813009F0EAC09330C0
:1057500009F080E0809369032EC080916E0381116F
:105760002AC0809170038F702FEF280F263008F029
:10577000D8C08093E9002091EB0020FF1CC093303B
:1057800021F48091EB00806214C09091EB00906155
:105790009093EB0021E030E0A90102C0440F551FB7
:1057A0008A95E2F74093EA001092EA008091EB00BC
:1057B00088608093EB001092E9008091E800877F79
:1057C0008093E8000E946629ACC08111AAC01091A4
:1057D0006E031F778091E3008078812B8093E30034
:1057E0008091E800877F8093E8000E94662980917D
:1057F000E80080FFFCCF8091E30080688093E300A5
:10580000111102C082E001C083E080936B0389C064
:105810008058823008F085C080916E0390916F03AC
:105820008C3D53E0950779F583E08A838AE289838A
:105830004FB7F894DE01139620E03EE051E2E32FEB
:10584000F0E050935700E49120FF03C0E295EF7021
:105850003F5FEF708E2F90E0EA3010F0C79601C0E6
:10586000C0968D939D932F5F243149F74FBF809150
:10587000E800877F8093E8006AE270E0CE0101963D
:105880000E94722816C06091700370917103AE017E
:105890004F5F5F4F0E94B627BC01892B09F441C0BE
:1058A0009091E800977F9093E80089819A810E9407
:1058B000D0288091E8008B778093E80032C0803850
:1058C00081F58091E800877F8093E80080916703ED
:1058D0008093F1008091E8008E7772CF811121C012
:1058E00080916E0390916F0399270297D4F4809171
:1058F000E800877F8093E80080916E0380936703C0
:105900000E94662980916703811106C08091E3009F
:1059100087FD02C081E001C084E080936B030E9498
:10592000A6268091E80083FF0AC08091E800877F67
:105930008093E8008091EB0080628093EB00AA9650
:105940000FB6F894DEBF0FBECDBFDF91CF911F9190
:1059500008950895CF9380916B038823A1F0C0919F
:10596000E900CF709091EC00892F817090FD80E864
:10597000C82B1092E9008091E80083FD0E94492B1A
:10598000CF70C093E900CF910895DB018F939F936F
:105990000E944F2DBF91AF91A29F800D911DA39F9B
:1059A000900DB29F900D11240895991B79E004C0C9
:1059B000991F961708F0961B881F7A95C9F780954E
:1059C0000895AA1BBB1B51E107C0AA1FBB1FA61746
:1059D000B70710F0A61BB70B881F991F5A95A9F798
:1059E00080959095BC01CD01089597FB072E16F484
:1059F000009407D077FD09D00E94E12C07FC05D068
:105A00003EF4909581959F4F0895709561957F4FD5
:105A10000895A1E21A2EAA1BBB1BFD010DC0AA1FEF
:105A2000BB1FEE1FFF1FA217B307E407F50720F007
:105A3000A21BB30BE40BF50B661F771F881F991F82
:105A40001A9469F760957095809590959B01AC01CB
:105A5000BD01CF010895EE0FFF1F0590F491E02DD9
:105A600009940E94392D332312F48A1B9B0B0C944A
:105A70004A2DA29FB001B39FC001A39F700D811D4D
:105A80001124911DB29F700D811D1124911D089547
:105A90000E94392DB7FF0895821B930B08950E9431
:105AA000392DA59F900DB49F900DA49F800D911D41
:105AB00011240895B7FF0C944F2D0E944F2D821B87
:105AC000930B08958F929F92AF92BF92CF92DF92E5
:105AD000EF92FF92CF93DF93EC01688179818A8105
