:100000000C94BE020C9405030C9405030C94050398
:100010000C9405030C9405030C9405030C94050340
:100020000C9405030C9405030C94C7260C94992793
:100030000C94361D0C9405030C9405030C940503D5
:100040000C9405030C9405030C9405030C94050310
:100050000C9405030C949E1D0C9405030C9405034D
:100060000C9405030C9405030C9405030C940503F0
:100070000C9405030C9405030C9405030C940503E0
:100080000C9405030C9405030C9405030C940503D0
:100090000C9405030C9405030C9405030C940503C0
:1000A0000C9405030C9405030C940503EA03EC037C
:1000B000F703EE03F003F203F403F603F903FB0383
:1000C000FD030804FF0301040304050407040A04F4
:1000D0002C132C1366136613A513C5135E155E153A
:1000E00007145E15B714B7142B1533155E15581584
:1000F000C414C414C414C414C414C414C414C41440
:10010000C414C414C414C414C414C414C414C4142F
:10011000D614E414EB14F214FC14F115F1150316C3
:100120000316FA15031603160316F115F115FF153C
:1001300003160316FF1506282D281F292D281F2911
:1001400079289C281F29F228012907634236B79B8A
:10015000D8A71A39685618AEBAAB558C1D3CB7CC27
:100160005763BD6DEDFD753EF6177231BF0000009F
:10017000803F05A84CCDB2D44EB93836A9020C50F8
:10018000B9918688083CA6AAAA2ABE000000803F32
:1001900000F000201E001F0020002100220023008C
:1001A00024002500260027002D002E0000002A0034
:1001B0002B00000014001A000800150017001C0096
:1001C00018000C00120013002F0030003100015104
:1001D000000004001600070009000A000B000D00D3
:1001E0000E000F003300340028000000E100000082
:1001F0001D001B000600190005001100100036004C
:10020000370038000000E5000000E000E3000000D7
:10021000E2002C0000002C0000002C000000E60092
:10022000E70000000151E40035003A003B003C00CB
:100230003D003E003F0040004100420043004400BA
:10024000450001004C0001000000AC00AE00AB0016
:100250000100010001000100520001004600010000
:100260000100005C0100000001000100010001002C
:1002700001004A00500051004F0001000100010040
:10028000000001000000BA5CBB5CBD5CBE5CBF5CF2
:10029000C05CC15CC25C0100010000000100010003
:1002A0000100010000000100010000000100000049
:1002B00001000000010001000100010001006801CF
:1002C000F000B40078005A007F3F1F64321464329B
:1002D00014783C1E1E140A050000000000010101F4
:1002E00001010101010102020202020202020203F3
:1002F00003030303030303040404040404050505C2
:100300000505060606060607070707080808080980
:1003100009090A0A0A0A0B0B0B0C0C0C0D0D0D0E29
:100320000E0F0F0F101011111112121313141415B8
:100330001516161717181819191A1A1B1C1C1D1D2B
:100340001E1F1F202021222223242525262727287F
:10035000292A2B2B2C2D2E2F2F30313233343536AA
:10036000363738393A3B3C3D3E3F404142434446B4
:100370004748494A4B4C4D4F505152535556575888
:100380005A5B5C5E5F606263646667696A6C6D6E2F
:10039000707173747678797B7C7E808183848688A3
:1003A0008A8B8D8F91929496989A9B9D9FA1A3A5DD
:1003B000A7A9ABADAFB1B3B5B7B9BBBDBFC1C4C6DB
:1003C000C8CACCCFD1D3D6D8DADCDFE1E4E6E8EB9B
:1003D000EDF0F2F5F7FAFCFF0403300000000A0329
:1003E00044005A0036003000000010034B00420069
:1003F0004400460061006E0073000000040309041D
:1004000009026D00040100A0FA09040000010301C3
:1004100001000921110100012240000705810308A4
:10042000000A090401000103010200092111010071
:1004300001224D000705820308000A090402000199
:100440000300000009211101000122360007058385
:100450000308000A09040300010300000009211138
:100460000100012239000705840320000112011058
:100470000100000008EDFE602201000102030105F9
:10048000010906A101050719E029E71500250195D5
:100490000875018102050819012905950575019165
:1004A000029501750391010507190029F71500252B
:1004B0000195F875018102C005010980A10185023D
:1004C0001601002603001A81002A83007510950189
:1004D0008100C0050C0901A1018503160100269CBD
:1004E000021A01002A9C02751095018100C00501C5
:1004F0000902A1010901A100050919012905150039
:10050000250195057501810295017503810105019C
:10051000093009311581257F950275088106093852
:100520001581257F950175088106050C0A3802158D
:1005300081257F950175088106C0C005010906A1C6
:1005400001050719E029E7150025019508750181C6
:1005500002950175088101050819012905950575A0
:100560000191029501750391010507190029FF15F5
:100570000026FF00950675088100C00011241FBEEB
:10058000CFEFDAE0DEBFCDBF04B603FE27C0809117
:100590009E0290919F02A091A002B091A10287308B
:1005A000904BA740B04BD1F410929E0210929F0244
:1005B0001092A0021092A10214BE84B7877F84BF5C
:1005C0000FB6F894A89580916000886180936000D0
:1005D000109260000FBEE0E0F8E3099511E0A0E0A2
:1005E000B1E0E0ECFAE502C005900D92AE33B10740
:1005F000D9F722E0AEE3B1E001C01D92AE39B207F7
:10060000E1F70E94EC230C945E2D0C9400000C94F6
:100610004C09229A2A9A08950E944B090C940903C6
:100620000C946006CF93DF93611121C0EC010E940E
:10063000E01B282F227220933E013A818091020113
:1006400090910301332341F0222311F065E301C0AF
:1006500069E20E94CA1C07C0222311F065E301C0B1
:1006600069E20E94D51CDF91CF910C94AD1BDF9104
:10067000CF91089581E0089581E008950C943C03A2
:100680000E94DF152FEF84E39CE0215080409040D2
:10069000E1F700C000000C94C41DFF920F931F935C
:1006A000CF93DF938C01FC01C081D18180919301B4
:1006B000811113C08281882349F0CE010E940F1B53
:1006C000F82E682FCE010E94B41A04C0CE010E94F9
:1006D000E31AF82EBE018F2D04C0CE010E940F1B1D
:1006E000BE010E946606EC01B8010E943E03882309
:1006F00009F46DC2B801CE010E94FC08882309F4F8
:1007000066C2C23CFCE5DF0741F4F8018281882320
:1007100009F45DC20E949F0C5AC2C33C8CE5D80705
:1007200008F015C1CB3B9CE5D90761F4F801828143
:10073000882309F44CC20E94E01B8272E1F00E94FF
:100740003E0D45C2CC3BECE5DE07C0F0CE3B9CE560
:10075000D90709F4CDC008F0DFC0CC3BFCE5DF07CA
:1007600009F0CEC0F8018281882309F430C20E94CA
:10077000E01B827221F30E94340D29C2C531FCE5D1
:10078000DF0708F07EC0C2308CE5D80708F452C0FD
:10079000F8018281882309F459C00E943F1C81110D
:1007A00002C00E94191C0E945C1C90E090938F0272
:1007B00080938E02FE01E350FC45E231F10530F4F6
:1007C000EA5AFF4F80918E020C94F62C80918E0293
:1007D000816027C0826025C0846023C0806121C001
:1007E00080621FC080641DC080681BC084608860F8
:1007F00018C08E7F16C08D7F14C08B7F12C08F7E75
:1008000010C08F7D0EC08F7B0CC08F770AC08B7F8E
:10081000877F07C087FB222720F991E0922790FB72
:1008200087F980938E0280918E020E94601C0E9444
:10083000DF15CDC1C1159CE5D90781F0C130DC457C
:10084000A9F081E08093440180934501C801DF91C4
:10085000CF911F910F91FF900C943A03F801828180
:10086000882309F4B4C10E944003B1C1F801828118
:10087000882309F4ACC180912B02816080932B0204
:10088000A6C1C531FCE5DF0739F50E94E01B282F22
:10089000F80182814091020150910301882379F08F
:1008A0002A7A91E009F490E090933F01911102C0FF
:1008B00069E201C065E3CA010E94CA1C0AC08091B6
:1008C0003F01811102C069E201C065E3CA010E94D3
:1008D000D51C0E94AD1B7BC1CA3BDC4509F0B1CFE2
:1008E000F8018281882309F472C10E947B0D6FC1D7
:1008F000F8018281882309F46AC10E94300C67C123
:10090000CD3BDC4509F09DCFF8018281882309F4B5
:100910005EC10E94180C5BC1F8018281C03CFCE5FD
:10092000DF0731F4882309F452C10E946A0C4FC1D9
:10093000C13CDC4530F4882309F449C10E944F0CC6
:1009400046C1882309F443C10E94840C40C1C93CBC
:10095000ECE5DE0749F4F8018281882309F437C108
:1009600088E10E94B90C33C1CA3CFCE5DF0708F0FE
:1009700088C0C53C8CE5D807B1F4F8018281882392
:1009800009F425C10E94EA0A6630710581059105C6
:1009900040F00E94EA0A683071058105910508F46B
:1009A000EACE86E0DECFC63C9CE5D90728F5C33CFD
:1009B000ECE5DE0739F4F8018281882309F407C1E8
:1009C00081E0CFCFC43CDC4509F03BCFF801828108
:1009D000882309F4FCC00E94EA0A6230710581058F
:1009E000910540F00E94EA0A653071058105910584
:1009F00008F4C1CE82E0B5CFF8018281C73CFCE5A6
:100A0000DF07A1F4882309F4E2C00E94EA0A6F30EC
:100A100071058105910540F00E94EA0A6431710573
:100A20008105910508F4A7CE8FE09BCFC83CDC453B
:100A3000A0F4882309F4CBC00E94EA0A693071054A
:100A40008105910540F00E94EA0A6E30710581052A
:100A5000910508F490CE89E084CF882309F4B7C0CB
:100A60000E94EA0A653171058105910540F00E94F6
:100A7000EA0A673171058105910508F47CCE85E1AC
:100A800070CFCC3CECE5DE0739F5F8018281882394
:100A900061F0109245010E94681D9093430180937C
:100AA000420180E20E94DF1292C0809145018111D3
:100AB0000FC080914201909143010E94741D883CB7
:100AC000910530F487E20E94891187E20E9480122A
:100AD00080E20E94E6127BC0CD3CFCE5DF0708F017
:100AE00041C0CA3C8CE5D807B1F4F8018281882363
:100AF00009F46DC00E94EA0A69317105810591050A
:100B000040F00E94EA0A623271058105910508F4FD
:100B100032CE89E126CFCB3CDC4509F092CEF801FC
:100B20008281882351F0109244010E94681D9093A5
:100B300041018093400182E0B5CF80914401811151
:100B40000FC080914001909141010E94741D883C2A
:100B5000910530F486E20E94891186E20E9480129B
:100B600082E0B7CFC03DECE5DE0731F4F8018281C9
:100B7000882369F180E009C0C13DFCE5DF0741F44D
:100B8000F8018281882319F182E00E948A241FC023
:100B9000CD3CDC4509F055CEF8018281811179CF39
:100BA00080914501811194CF809142019091430140
:100BB0000E94741D883C910508F08ACF80E20E9453
:100BC000E61288E20E94891188E20E94801280E089
:100BD000DF91CF911F910F91FF9008950C9407031F
:100BE000CF92DF92EF92FF92863030F4811105C0F0
:100BF000909180009F7D04C085E09091800090627C
:100C000090938000282F30E0AFEFBFEF0E94FC2CC4
:100C100025E030E040E050E00E94D42C2C3784E105
:100C200038074105510530F4C90169E070E00E94C0
:100C3000AC2C29C0DA01C9018A50974DAF4FBF4F84
:100C40006627782F892F9A2F25EF38E241E050E070
:100C50000E94D42C69017A01CA01B9010E949C2C1E
:100C60009B01AC01C701B6010E949C2CBB27A92F98
:100C7000982F872F009721E0A207B10511F0BC0142
:100C800002C06FEF7FEF70938B0060938A00FF903C
:100C9000EF90DF90CF900895269A2E9882E280936D
:100CA000800089E1809381008FEF9FEF9093870010
:100CB000809386000C9471210E944C060C940C03C6
:100CC00008950C94100380E090E008959FE0799FD0
:100CD000F00111249BE4899FE00DF11D1124E60F22
:100CE000F11DEE0FFF1FEE56FE4F85919491089572
:100CF000880F991FFC01E057FE4F8591949108954C
:100D0000CF93DF930E9466060E945B08EC01811579
:100D100021E5920708F042C0811530E5930708F0FD
:100D20001EC1883E910500F5803E910508F0BFC1C7
:100D3000883A910570F4853A910508F09DC081309C
:100D4000910509F4B4C108F46BC1049708F0AFC170
:100D500067C18D3B910508F49AC0803C910508F469
:100D60005FC1805C9109EBC0811540E3940780F47A
:100D7000811550E2950708F0E1C0803F910508F425
:100D80004FC18F3F910511F008F091C1D0658FC11F
:100D9000811560E4960708F0DFC0D5C0C11589E56C
:100DA000D80740F5C11528E5D20708F025C1C115BF
:100DB00034E5D30778F4C11543E5D40708F001C141
:100DC000C11552E5D50708F0E6C0DC2FCC27C16F6E
:100DD000D06A6DC1C11565E5D60708F408C1C11513
:100DE00086E5D80708F01CC1CF71DD27DC2FCC27A2
:100DF000D0625DC1C53B2CE5D20709F408C1D8F427
:100E0000C33B4CE5D40709F4FCC008F0FDC0C11594
:100E10006AE5D60708F004C18C2F8F70806E90E0D1
:100E2000906A24E0D695C7952A95E1F7CF709C018A
:100E30003C2BE9013CC1C83B8CE5D80709F4EDC067
:100E400060F4C63B3CE5D30709F4E4C0C73BDC458E
:100E500009F0E6C0C0E0D2ED2AC1CE01905681155E
:100E6000904208F0DDC08D2F8F710E94D808DD27D9
:100E7000D0628F71D82B1BC1853A910509F4D3C07C
:100E8000863A910509F0D2C0C2E8D0E410C1883A90
:100E9000910509F4CEC0893A910509F4CDC08A3A8A
:100EA000910509F4CCC08B3A910509F4CBC08C3A7A
:100EB000910509F4CAC08B3B910509F4C9C08C3B6C
:100EC000910509F4C8C08D3A910509F4C7C0803B6B
:100ED000910509F4C6C08E3A910509F4C5C08F3A50
:100EE000910509F4C4C0813B910509F4C3C0823B5C
:100EF000910509F4C2C0833B910509F4C1C0843B4C
:100F0000910509F4C0C0853B910509F4BFC0863B3B
:100F1000910509F4BEC0873B910509F4BDC0883B2B
:100F2000910509F4BCC0893B910509F4BBC08A3B1B
:100F3000910509F4BAC0C0E0D4E4B9C09F700E9422
:100F40007806EC01B4C09927D3FF03C0EC01D86C3C
:100F5000AEC0EC01D06CABC0DF70D06AA8C0282F47
:100F6000237081E090E002C0880F991F2A95E2F774
:100F70009C689E0174E0369527957A95E1F7237079
:100F8000922BCF70C695C69560E2C69FE0011124F2
:100F9000C82BD92B8CC02C2F2695269580E2289F14
:100FA00090011124C370DD2781E090E0AC0102C004
:100FB000440F551FCA95E2F7EA01C22BD32BDC6818
:100FC00076C02C2F2695269580E2289F900111242B
:100FD000C370DD2781E090E0AC0102C0440F551FD3
:100FE000CA95E2F7EA01C22BD32BDA6860C0DC2F86
:100FF000CC27C46FD06A5BC0DC2FCC27C06FD06A0F
:1010000056C0C0E0D4ED53C0C0E0D5ED50C0C0E044
:10101000D1ED4DC0C0E0D0ED4AC0C0E0D3ED47C037
:10102000C0E0D0E044C0C1E8D0E441C0C3E8D0E4AF
:101030003EC0C2EED4E43BC0C9EED4E438C0CAEE30
:10104000D4E435C0C5EBD4E432C0C6EBD4E42FC041
:10105000C3EBD4E42CC0C4EBD4E429C0C7EBD4E484
:1010600026C0CCECD4E423C0CDECD4E420C0C3E84B
:10107000D5E41DC0CAE8D5E41AC0C2E9D5E417C05A
:10108000C4E9D5E414C0C1E2D6E411C0C3E2D6E499
:101090000EC0C4E2D6E40BC0C5E2D6E408C0C6E286
:1010A000D6E405C0C7E2D6E402C0CAE2D6E4CE0167
:1010B000DF91CF9108958238910549F1B0F48133E1
:1010C000910509F458C048F48932910509F44EC0DD
:1010D0008A32910509F454C008958533910509F4C5
:1010E00040C08933910599F00895833E910529F117
:1010F00038F4803E910591F0823E9105A1F008956B
:10110000863E9105F9F0873E910531F108952091D1
:101110008E0220FD3AC021FD38C0089580918E02D4
:1011200080FD35C032C080918E0282FF32C0809136
:101130008E0284FD30C083EE39C080918E0282FD24
:1011400028C0F5CF80918E0283FF27C080918E0248
:1011500084FD21C087EE2AC080918E0283FD1DC0D0
:10116000F5CF80918E0285FD1AC01BC080918E0242
:1011700085FD17C014C080918E0286FD14C015C075
:1011800080918E0286FD11C00EC080EE0FC089E3F3
:101190000DC082EE0BC080E009C086EE07C089E278
:1011A00005C085E303C08AE201C081E390E00895B1
:1011B00090918E0292FF0DC0282F2871283019F4CB
:1011C000877F846006C0282F2471243011F48B7F20
:1011D000886093FF0DC0282F2871283119F4877E6D
:1011E000846106C0282F2471243111F48B7E88611C
:1011F00094FD877E089508950F931F93CF93FB016D
:101200002281211102C0C1E041C08C01C091530173
:10121000C11125C086319C45B1F70E94FB0881E0D1
:10122000809353010E94681D909352018093510155
:1012300010924601109248011092470110924A0103
:101240001092490110924C0110924B0110924E01E4
:1012500010924D011092500110924F0117C08091D1
:101260005101909152010E94741D883C910558F6DD
:1012700090914601E92FF0E0EE0FFF1FE95BFE4F72
:10128000118300839F5F90934601C0E08C2FCF9124
:101290001F910F9108950895089585B7806885BFBF
:1012A00085B7806885BFA4E2B1E041E050E025E069
:1012B0002A0F8D91E82FE295EF70F0E031A18F7049
:1012C000BA0102C0660F771F8A95E2F7CB01962F0D
:1012D0009095932391A392A1892B82A32A13E9CFFE
:1012E000A5E1B1E041E050E02FE02A0F8D91E82F19
:1012F000E295EF70F0E031A18F70BA0102C0660F85
:10130000771F8A95E2F7CB01962F9095932391A3AF
:1013100092A1892B82A32A13E9CFEEE5F1E0A4E59F
:10132000B1E0119211921D921D9271E0E836F7071B
:10133000C1F70C945C062F923F925F926F927F925E
:101340008F929F92AF92BF92CF92DF92EF92FF92D5
:101350000F931F93CF93DF9324E2C22E21E0D22E6E
:1013600004E511E0E801EE24E394F12C6624639493
:101370005E018880998019821882D6018D916D0155
:10138000E82FE295EF70F0E021A18F70A70102C075
:10139000440F551F8A95E2F7CA01242B21A322A1ED
:1013A000742E7094272122A350EA5A95F1F795E103
:1013B000292E91E0392E20E030E0D1017D911D01F0
:1013C000472F42954F7050E0DA0190965C9048812B
:1013D00059817F70D70102C0AA0FBB1F7A95E2F72F
:1013E000BD01652141F4B701022E02C0660F771FCF
:1013F0000A94E2F702C060E070E0462B572B598355
:1014000048832F5F3F4F2F303105B9F691A17922E4
:1014100071A292A1892B82A32296F50180819181EC
:101420008816990641F0609268010E94681D9093A9
:101430006A0180936901F1E0CE35DF0709F098CFAA
:10144000809168018823B1F08091690190916A01CF
:101450000E94741D069770F0EEE5F1E0D8018D91C1
:101460009D918D0181939193B1E00E351B07B1F7EA
:10147000109268010E94EE0581E0DF91CF911F91EB
:101480000F91FF90EF90DF90CF90BF90AF909F9023
:101490008F907F906F905F903F902F900895E82FEE
:1014A000F0E0EE0FFF1FE25AFE4F80819181089518
:1014B0000895EF92FF920F931F93CF93DF93E9016B
:1014C000662309F44BC0242F30E0EFEFF0E0E61B79
:1014D000F109B901E69F9001E79F300DF69F300DAD
:1014E0001124232F8B01031B11095CE3E52EF12C42
:1014F000B7010E94AC2CFB01BC01069FC001079FF5
:10150000900D169F900D1124B7010E94AC2CE23073
:10151000F105B1F040F4309779F0319711F5832F50
:10152000242F461B21C0E430F105A1F068F0359767
:10153000C1F4842F861B18C0832F262F230F14C0BD
:10154000862F830FE42F03C0E42FE61B842F432F45
:101550002E2F0AC0842F462F430F06C0842F242F1E
:1015600003C080E020E040E0E42FF0E0E852FD4FCF
:101570004491E22FF0E0E852FD4F9491E82FF0E023
:10158000E852FD4FE49149839883EA83DF91CF913C
:101590001F910F91FF90EF90089588E090E00C94D8
:1015A0001E2DAB01BC0188E090E00C943C2DE9E5D8
:1015B000F2E083E0808310925A028FEF828383836C
:1015C0006091590270915A0280915B0290915C0285
:1015D0000C94D10A6091590260FF06C066956F7342
:1015E00070E080E090E0089560E070E0CB01089545
:1015F0008091590280FF06C06DE070E081E692E0C4
:101600000C94321080E090E0FC01EF59FD4F118204
:1016100010821282039687329105B1F7EDCF909137
:10162000590290FF0FC020E030E0F901EF59FD4F63
:101630008183608342832D5F3F4F27323105A9F7B5
:101640000C94F80A0895EF92FF920F931F93CF9393
:10165000DF9300D01F92CDB7DEB7009159021091F1
:101660005A0220915B0230915C0200935D0210935C
:101670005E0220935F02309360022091590220FFA6
:1016800021C0042FF62EE92E182F9E012F5F3F4F09
:101690000E94590A80915D0210FB87F980935D02D8
:1016A000169580915E028078182BE0FA17F9109356
:1016B0005E02F0925F02009360024B8169818A8131
:1016C0000E940F0B0F900F900F90DF91CF911F9101
:1016D0000F91FF90EF9008958F929F92AF92BF92DB
:1016E000CF92DF92EF92FF920F931F93CF93DF93EE
:1016F000EC01062F142F8091590280FF8CC0982F87
:101700009E77923021F4CE010E94230B5AC0E82F1D
:10171000E695EF739EE39E0F9F73943018F410913B
:101720005C024FC09AE39E0F9F73993070F4881F3C
:101730008827881F90915A02292F220FC22FC82B69
:1017400097FB992790F9D92F3CC087E28E0F8F73B2
:101750008A30B8F5F0E07997E0FD02C021E001C0E1
:101760002FEFEE7FE254FD4F859194916DE070E094
:101770000E94AC2C26036001279FD00C11244E013F
:1017800088E9881A8EEF980A81E6E82E82E0F82E22
:1017900098E6A92EBB24B394C401B5010E94AC2CD9
:1017A0009701412F602F0E94590A8C0C9D1C93E0D9
:1017B000E90EF11C88E8E81682E0F80669F70E9455
:1017C000F80A809159029C2FC0FB87F98093590237
:1017D000969580915A028078892BD0FB87F9809367
:1017E0005A0200935B0210935C026091590270915F
:1017F0005A0280915B0290915C02DF91CF911F9120
:101800000F91FF90EF90DF90CF90BF90AF909F909F
:101810008F900C94D10ADF91CF911F910F91FF907F
:10182000EF90DF90CF90BF90AF909F908F900895F2
:10183000E9E5F2E02081221F2227221F30915A027F
:10184000432F440F842F822B37FB992790F908965A
:1018500068E671E00E94C02C438162810C946C0B9D
:1018600020915902221F2227221F30915A02432F12
:10187000440F842F822B37FB992790F988309105EC
:101880001CF4805A9E4F01C0089768E671E00E94E0
:10189000C02C40915C0260915B020C946C0B6091D7
:1018A0005B02862F90E0883F910514F4685F01C0C9
:1018B0006FEF80915902881F8827881F90915A02E4
:1018C000292F220F97FB992790F940915C02822BD8
:1018D0000C946C0B60915B02862F90E0089714F0DB
:1018E000685001C060E080915902881F8827881FD6
:1018F00090915A02292F220F97FB992790F9409136
:101900005C02822B0C946C0B40915C02842F90E063
:10191000883F910514F4485F01C04FEF8091590250
:10192000881F8827881F90915A02292F220F97FB22
:10193000992790F960915B02822B0C946C0B40917B
:101940005C02842F90E0089714F0485001C040E0FA
:1019500080915902881F8827881F90915A02292F49
:10196000220F97FB992790F960915B02822B0C94D0
:101970006C0B9091590290FF42C09178811102C086
:10198000926007C0833210F0946403C08F73880F95
:10199000982B909359026091590270915A0280914C
:1019A0005B0290915C020E94D10A80915902982FAB
:1019B0009E77923019F41092800110C0982F96955E
:1019C0009F732EE3290F2F73273120F491E090931A
:1019D000800104C0995D9F739A3068F3881F88273F
:1019E000881F90915A02292F220F97FB992790F96F
:1019F00040915C0260915B02822B0C946C0B089509
:101A000080912B02816080932B0281E08093810181
:101A10000E943F1C811104C00E94191C0E94D70A19
:101A20000E94CD0A6093590270935A0280935B0220
:101A300090935C026E7761F40E94D70A0E94CD0AEF
:101A40006093590270935A0280935B0290935C02F8
:101A500081E0809380018091590280FF04C08695C7
:101A60008F730C94B90C08958091590286958F73E9
:101A70008F5F833208F081E00C94B90C8091590299
:101A800086958F73815009F482E20C94B90CCF9340
:101A9000DF93C9E5D2E08881816088836091590233
:101AA00070915A0280915B0290915C020E94D10A6F
:101AB000888186958F73DF91CF910C94B90CE9E5FD
:101AC000F2E080818E7F80836091590270915A028A
:101AD00080915B0290915C020E94D10A1092800179
:101AE0002FEF80E792E0215080409040E1F700C066
:101AF00000000C94F80A8091590280FD0C945F0D4F
:101B00000C94470DCF93C82F80917E0190917F0157
:101B10000E94741DEC2FF0E0EC52FD4FE491F0E0D8
:101B20008E179F0708F443C00E94681D90937F01A1
:101B300080937E0160917D0170E080E090E00E94E2
:101B40009D2A20E030E04FE753E40E94C0292BEDAE
:101B50003FE049E450E40E94C62B0E94332C0E94CF
:101B60003A2A2BE43AE34EE25FE30E94532920EF46
:101B70003BEF48ED52E40E94C62B0E946C2A462F90
:101B800080915902881F8827881F90915A02292F17
:101B9000220F97FB992790F960915B02822B0E949C
:101BA000230B80917D0190E0019680937D01CF9180
:101BB0000895CF93C82F80917B0190917C010E9462
:101BC000741DEC2FF0E0EF52FD4FE491F0E08E1722
:101BD0009F07E8F00E94681D90937C0180937B0131
:101BE00040915C0260915B028091790190917A0151
:101BF0000E94230B8091790190917A01019668E609
:101C000071E00E94AC2C90937A0180937901CF917E
:101C10000895CF92DF92FF920F931F93CF93DF939C
:101C2000F82E80917701909178010E94741DEF2D1C
:101C3000E695F0E0E253FD4FE491F0E08E179F0748
:101C4000F0F10E94681D909378018093770101E67E
:101C500012E0C0E0D0E088E6C82EDD24D394809165
:101C60007501909176018C0F9D1FB6010E94AC2CDE
:101C7000980140915C0260915B020E94590A6B9648
:101C80000D5F1F4FCF3581E0D80749F70E94F80A52
:101C90002091750130917601F0FE0BC0C9010196CB
:101CA00068E671E00E94AC2C9093760180937501F8
:101CB00006C0215031093093760120937501DF91E0
:101CC000CF911F910F91FF90DF90CF900895AF9229
:101CD000BF92CF92DF92EF92FF920F931F93CF9319
:101CE000DF93C82F80FF02C01FEF01C011E0809179
:101CF0007301909174010E94741DC695EC2FF0E061
:101D0000E553FD4FE491F0E08E179F0708F466C09D
:101D10000E94681D909374018093730121E6C22E86
:101D200022E0D22E33E6E32E32E0F32EC0E0D0E004
:101D3000F70131971082F6011082F701108294E0CA
:101D4000A92EB12C00E080917201800F87FD835F86
:101D5000082E000C990BC817D907E9F480915C0292
:101D60008A9DA0018B9D500D112455954795559541
:101D7000479580915902881F8827881F90915A02A1
:101D8000592F550F97FB992790F9960160915B02A7
:101D9000852B0E94590A010FF1E0AF1AB10899F69C
:101DA000219683E0C80ED11CE3E0EE0EF11CCD308D
:101DB000D10509F0BDCF0E94F80A8091720111305F
:101DC00031F4811102C08CE007C0815005C090E061
:101DD0000196BE010E94C02C80937201DF91CF91C9
:101DE0001F910F91FF90EF90DF90CF90BF90AF9039
:101DF00008950F931F93CF93DF93C82F80917001A5
:101E0000909171010E94741DEC2FF0E0E853FD4F9A
:101E1000E491F0E08E179F0708F466C00E94681DE9
:101E2000909371018093700180E090E0FC01EF5984
:101E3000FD4F118210821282039687329105B1F70D
:101E4000C0E0D0E00DE010E0CE01B8010E94C02C4F
:101E500040916F01042E000C550BFC01EE0FFF1F8B
:101E6000C417D5070CF140910101042E000C550B4D
:101E70004C175D07CCF08E0F9F1F9C012F593D4FD3
:101E800080915902881F8827881F90915A02592FE4
:101E9000550F97FB992790F940915C0260915B0286
:101EA000852B0E94590A07C0E80FF91FEF59FD4F13
:101EB0001182108212822196CD30D10529F60E941E
:101EC000F80A8091000190916F01980F90936F0133
:101ED00020910101280F20930101121614F49C3067
:101EE0001CF0819580930001DF91CF911F910F919C
:101EF0000895EF92FF920F931F93CF93DF938091FA
:101F00006D0190916E010E94741D883E9340D0F146
:101F10000E94681D90936E0180936D01C0916B01CA
:101F2000D0916C012196C170DD27D0936C01C093D4
:101F30006B0181E6E82E82E0F82E10E008E7812FA1
:101F40008695FE01E80FF11DCF0181709927970159
:101F500040915C0260915B02FC010E9FC0010F9FEB
:101F6000900D11240E94590A1F5FF3E0EF0EF11C3F
:101F70001D3029F7DF91CF911F910F91FF90EF90C6
:101F80000C94F80ADF91CF911F910F91FF90EF9081
:101F9000089580918001882391F190915902892FB1
:101FA00086958F732EE3280F2F73243018F48250F8
:101FB0000C94820D2AE3280F2F73233018F48650D7
:101FC0000C94D90D27E3280F2F73263018F489506D
:101FD0000C94090E21E3280F2F73263018F48F502C
:101FE0000C94670E2BE2280F2F73233018F48551C1
:101FF0000C94F90E9E77903311F40C94790F089598
:102000002EB1342F309523233EB1432B3FB7F894A4
:10201000FC01680F791FE617F70789F0819198E0B6
:102020004EB9000000C087FF2EB9880F000000C025
:1020300000C000C02EB900C09A9591F7ECCF3FBF09
:1020400008952DB1242B2DB99B01220F331F620F50
:10205000731F0E94001087EC90E00197F1F700C019
:102060000000089544E00C94211090938701809320
:1020700086010895E0918601F0918701309721F063
:102080000190F081E02D099480E00895E0918601AF
:10209000F0918701309721F00280F381E02D0994BF
:1020A0000895E0918601F0918701309721F0048036
:1020B000F581E02D099408952091840130918501E6
:1020C0008217930771F09093850180938401E091CA
:1020D0008601F0918701309721F00680F781E02D8D
:1020E000099408952091820130918301821793070A
:1020F00071F09093830180938201E0918601F091C9
:102100008701309721F00084F185E02D099408952E
:1021100008950C94881081E008950E945F1D0E942C
:102120004D090E94341E0E9471210C94000D4F92A3
:102130005F927F928F929F92AF92BF92CF92DF92E7
:10214000EF92FF920F931F93CF93DF93CDB7DEB73C
:102150002A970FB6F894DEBF0FBECDBF0E949B0931
:102160000E948B10811111C08FEF89838A831B829B
:102170000E94681D8160782F9D838C8349815A81DC
:102180006B818D810E94551157C099E8C92E91E04D
:10219000D92E00E010E0AA24A394B12C702E802F39
:1021A0000E944F0A4C01F601419051906F01482660
:1021B00059264114510431F40F5F1F4F05301105AA
:1021C00069F7D2CF80912B0281FD0E94580A20E04E
:1021D00030E07501022E02C0EE0CFF1C0A94E2F7FB
:1021E000C70184219521892B09F12E837F828E20BE
:1021F0009F2091E0892809F490E098870E94681D4B
:102200008160782F9A8789874E815F8168858A856A
:102210000E945511000F111FF801E757FE4F8081F2
:102220009181E826F926F182E08206C02F5F3F4FB8
:102230002F30310571F6C0CF0E94D7201091880150
:102240000E943A101817D9F00E943A108093880122
:102250002A960FB6F894DEBF0FBECDBFDF91CF91A7
:102260001F910F91FF90EF90DF90CF90BF90AF90B4
:102270009F908F907F905F904F900C9461062A966C
:102280000FB6F894DEBF0FBECDBFDF91CF911F9187
:102290000F91FF90EF90DF90CF90BF90AF909F9005
:1022A0008F907F905F904F900895CF93DF93CDB73D
:1022B000DEB72B970FB6F894DEBF0FBECDBF4F83AE
:1022C000588769877A878B87DE01119686E0FD0142
:1022D00011928A95E9F785E0FE01379601900D92FB
:1022E0008A95E1F749815A816B817C818D819E813C
:1022F0000E9486182B960FB6F894DEBF0FBECDBF96
:10230000DF91CF910895FC01808191810E944E1B45
:102310000895882309F4F3C0682F8238C1F40E941D
:102320003A1081FDECC069E38091020190910301B4
:102330000E94CA1C0E94AD1B2FEF81EE94E0215039
:1023400080409040E1F700C0000069E319C0833885
:10235000F9F40E943A1080FDD2C063E58091020139
:10236000909103010E94CA1C0E94AD1B2FEF81EEC9
:1023700094E0215080409040E1F700C0000063E508
:1023800080910201909103010E94D51C0C94AD1B19
:102390008438C1F40E943A1082FDB1C067E4809194
:1023A0000201909103010E94CA1C0E94AD1B2FEFF5
:1023B00081EE94E0215080409040E1F700C00000A1
:1023C00067E4DECF8CEF860F813A38F4809102010A
:1023D000909103010E94CA1CD9CF80E2860F8830F9
:1023E00048F4677081E001C0880F6A95EAF70E949F
:1023F000E31BCCCF8BE5860F833070F4653A29F070
:10240000663A31F083E890E005C081E890E002C0D0
:1024100082E890E00C945C1088E5860F853108F026
:102420006EC0683A61F1693A69F16A3A71F16B3AE2
:1024300079F16C3A81F16B3B89F16C3B91F16D3A2A
:1024400099F1603BA1F16E3AA9F16F3AB1F1613BAC
:10245000B9F1623BC1F1633BC9F1643BD1F1653B2A
:10246000D9F1663BE1F1673BE9F1683BF1F1693B8A
:10247000F9F16A3B09F43FC080E090E03EC082EE93
:1024800090E03BC089EE90E038C08AEE90E035C025
:1024900085EB90E032C086EB90E02FC083EB90E0BC
:1024A0002CC084EB90E029C087EB90E026C08CEC38
:1024B00090E023C08DEC90E020C083E891E01DC047
:1024C0008AE891E01AC082E991E017C084E991E0BE
:1024D00014C081E292E011C083E292E00EC084E277
:1024E00092E00BC085E292E008C086E292E005C06F
:1024F00087E292E002C08AE292E00C9472100895A2
:10250000882309F45BC0682F823879F40E943A105E
:1025100081FF54C069E380910201909103010E9400
:10252000CA1C0E94AD1B69E310C08338B1F40E943D
:102530003A1080FF43C063E580910201909103014E
:102540000E94CA1C0E94AD1B63E58091020190911C
:1025500003010E94D51C0C94AD1B843879F40E94B1
:102560003A1082FF2BC067E4809102019091030131
:102570000E94CA1C0E94AD1B67E4E7CF8CEF860F58
:10258000813A18F380E2860F883048F4677081E062
:1025900001C0880F6A95EAF70E94E91BDCCF8BE542
:1025A000860F833020F480E090E00C945C10685A31
:1025B000653120F480E090E00C9472100895882337
:1025C00021F00E94E31B0C94AD1B0895882321F099
:1025D0000E94E91B0C94AD1B08954F925F926F927D
:1025E0007F92AF92BF92CF92DF92EF92FF920F93C2
:1025F0001F93CF93DF931F92CDB7DEB77C01A72E39
:10260000FC01058102950F701281112321F069836D
:102610000E94001C698169830E94A61B698188232E
:1026200081F0112371F080E2860F883050F082E053
:102630000E948F1B0E94A61B91E0B82EB9266981CB
:1026400001C0B12CCA2CC2948FE0C822D12CF60153
:10265000E859FF4F0C94F62C8A2D807F0A2D0F70BD
:10266000882311F00295007F1123C1F0002309F4A3
:10267000DDC180E2860F883010F0611105C0802F27
:1026800069830E94E31B04C0802F69830E94F31BAF
:10269000698169830E94AD1B6981C8C1862F6983E6
:1026A0000E9480126981002309F408C280E2860F2B
:1026B000883010F0611104C0802F0E94E91B03C014
:1026C000802F0E94F91B0E94AD1BF8C18A2D807FCC
:1026D0009A2D9F70803211F4892F03C0892F829523
:1026E000807F662319F06130B1F01FC0112349F0DB
:1026F000002309F452C1013009F04FC10E94131C9C
:10270000DDC1002319F0013009F4D8C189830E948A
:10271000161C898148C1112321F0063008F0CEC172
:102720003CC1053008F0CAC13EC1112351F000235D
:1027300009F433C1F701958190FF78C19F709583AB
:102740002CC1002309F42FC182C18A2D869586955C
:10275000837090E0009719F0019761F0AFC11123E9
:1027600021F0862F9A2D937002C080E090E00E94A5
:102770005C10B4C1112321F0862F9A2D937002C0F2
:1027800080E090E00E947210A9C11123F9F0653F2A
:1027900051F0663F71F0643FA9F4809188029091F6
:1027A000890281600BC080918802909189028260C9
:1027B00005C080918802909189028460909389027B
:1027C00080938802862F0E94DF1F1EC0653F51F054
:1027D000663F71F0643FA9F480918802909189026C
:1027E0008E7F0BC080918802909189028D7F05C0F9
:1027F00080918802909189028B7F909389028093C7
:102800008802862F0E9447200E94CC2067C18A2D13
:10281000837009F052C011115DC1862F8295869593
:102820008770880F880F962F9F70492E512C612C2E
:10283000712C082E04C0440C551C661C771C0A948D
:10284000D2F764FF14C00FE010E020E030E0B901DF
:10285000A80104C0440F551F661F771F8A95D2F741
:10286000CB01BA01609570958095909503C060E0AA
:1028700070E0CB012A2D26952695237030E022307A
:10288000310569F02330310589F0642975298629DD
:1028900097292130310571F00E94C9191BC16429A3
:1028A0007529862997290E94DB1914C10E94C9192C
:1028B000C301B2010E94B7190DC1112319F08A2D6D
:1028C000817001C08695882309F404C1862F829502
:1028D00086958770880F880F962F9F70492E512CF0
:1028E000612C712C082E04C0440C551C661C771CEE
:1028F0000A94D2F764FF14C00FE010E020E030E04B
:10290000B901A80104C0440F551F661F771F8A959F
:10291000D2F7CB01BA01609570958095909503C070
:1029200060E070E0CB012A2D269526952370422F7A
:1029300050E04230510569F04330510589F0642977
:102940007529862997294130510571F00E948F1A07
:10295000C1C064297529862997290E94A11ABAC085
:102960000E948F1AC301B2010E947D1AB3C0862F44
:1029700090E0FC01E05EF109E531F10508F052C09C
:10298000E858FF4F0C94F62C062F0F708A2D8F718C
:10299000112331F00E94161A802F0E94DF128EC080
:1029A0000E94371A802F0E94E61288C0112341F03E
:1029B000053008F083C08A2D8F710E945C1A7EC09A
:1029C000063008F07BC0F7CF112339F08A2D8F71C4
:1029D0000E94161A73C01123C9F38A2D8F710E94A9
:1029E000371A6CC0112329F08A2D8F710E94011AA9
:1029F00065C00E94FC1962C0112351F01A2D1F718D
:102A0000812F0E94161A63E0812F0E94861B56C0F8
:102A100081E00E948F1B023008F450C082E00E94C7
:102A20008F1B4CC0112331F0002381F2862F0E94AE
:102A3000891144C0002389F2693349F45FEF77EECE
:102A400083E0515070408040E1F700C00000862FC5
:102A50000E94801233C04A2D4F70C7010E94630646
:102A60000E942A193BC0111139C08A2D8F7090E045
:102A70008230910599F03CF4009769F00197F1F4E8
:102A80000E94AB212BC08430910571F054F0059762
:102A9000A9F480E00AC00E948E2120C00E94C721B4
:102AA0001DC00E94E1211AC085E00E94042216C0C8
:102AB0004A2D4F70C7010E94120310C098E0C9163A
:102AC000D10441F05CF0FAE0CF1AD10822E0C2163E
:102AD000D10420F40E943A100E946106BB2001F14B
:102AE0000E94821B80FD1CC0F70112820E947C1B89
:102AF0000E94161AC7010E94A0150E947C1B0F900D
:102B0000DF91CF911F910F91FF90EF90DF90CF90C9
:102B1000BF90AF907F906F905F904F900C94371A5A
:102B20000F90DF91CF911F910F91FF90EF90DF9069
:102B3000CF90BF90AF907F906F905F904F9008952F
:102B40000F931F93CF93DF93EC01888199812B81A1
:102B50003C81232BB9F09F3F11F48F3F99F0CE01B8
:102B60000E944D03882371F0688179818A810E94D7
:102B7000591B8C010E94B31A0E94B419B801CE01EE
:102B80000E94ED12DF91CF911F910F9108950E9445
:102B9000001C0E94101C80910201909103010E9470
:102BA000E01C0E94AD1B0E9465210E94CC2080E0A9
:102BB00090E00E945C1080E090E00C9472100E9403
:102BC000F01B0C94C7150E944E1BE92FE295EF7085
:102BD000F0E03297EE30F105B0F4E357FF4F0C947C
:102BE000F62C803F91F018F4803E68F40EC0843FCC
:102BF00051F40BC0803E48F0813F29F406C093FB9E
:102C0000882780F9089580E0089581E00895CF93A2
:102C1000DF9300D000D01F92CDB7DEB70F900F909A
:102C20000F900F900F90DF91CF910895CF93DF9386
:102C300000D000D000D0CDB7DEB726960FB6F894FE
:102C4000DEBF0FBECDBFDF91CF9108951F93CF930D
:102C5000DF93C091940116E080919501C81799F017
:102C6000D0E01C9FF0011D9FF00D1124EA56FE4F8D
:102C70004081518162817381848195810E94161601
:102C80002196C770E9CFDF91CF911F9108954091B0
:102C9000C6015091C7016091C8017091C90180912E
:102CA000CA019091CB010C9416168091CB018295AC
:102CB0008F7009F054C08091C801882309F44FC077
:102CC00080919401A09195016091C6017091C70116
:102CD0004091C9015091CA01B6E08A1709F43FC07A
:102CE00090E041155105C1F17F3F11F46F3FA1F113
:102CF000B89FF001B99FF00D1124EA56FE4F2181D3
:102D000072132AC02081621327C02281211124C09E
:102D1000238134812417350710F421503109241BF5
:102D2000350B283C3105C0F42091CB012F70206178
:102D30002093CB0126E0289FF001299FF00D11245C
:102D4000E556FE4F80818F708061808386EC91E034
:102D50000E94A0150C94261601968770BECF089588
:102D6000CF92DF92EF92FF920F931F93CF93DF9357
:102D7000CDB7DEB762970FB6F894DEBF0FBECDBFFA
:102D80008C0185E0F801DE011D9601900D928A9577
:102D9000E1F7D8014C9111965C91119712966C91C4
:102DA00012971396CD90DC9014973091C6017091D4
:102DB000C7018091C9019091CA01009709F46BC1C4
:102DC0007F3F19F43F3F09F466C1E090C801EE204F
:102DD00009F4C0C02091CB01C816D90628F0F6012D
:102DE000E81BF90BCF0104C0809590958C0D9D1DBB
:102DF000FF24F394883C910578F0F12C207F09F0B2
:102E0000C6C07C2DD98AC88A89890E94071686EC9B
:102E100091E00E94A015B1C0822F807F09F046C0CA
:102E2000751314C0341312C0611110C02F702061CB
:102E30002093CB010E94471686EC91E00E94A015DA
:102E40008091CB01D80115968C932EC0CD2819F115
:102E50005F3F11F44F3FF9F0F62E61111CC08091D5
:102E600094012091950136E0821709F45AC090E050
:102E7000389FF001399FF00D1124EA56FE4F718101
:102E8000571306C07081471303C07281711103C0CC
:102E900001968770E9CFF62E662309F427C1809149
:102EA000CB0181608093CB01F12C20C1751308C048
:102EB000341306C0611104C08091CB01D801C3C096
:102EC0004D875E878D859E856A8B0E94E3156A8992
:102ED0008823E1F16623D1F12091CB01822F8295E5
:102EE0008F7090E0029774F08091C6019091C701B5
:102EF00098878F831986DB86CA862C87CE01079632
:102F00000E94A01586E0F801A6ECB1E001900D92B8
:102F10008A95E1F70E9455160E944716FF24F39404
:102F2000E5C04D875E878D859E850E944E1B292FAB
:102F300022952F7030E0223031050CF0CBC09F700D
:102F400009F0C5C0805E883008F4D0C0C8010E9476
:102F5000A015E4CFC816D90608F453C0F601E81B43
:102F6000F90BCF01883C910508F450C0F12C7C2D61
:102F7000D98AC88A89890E940716E6ECF1E086E0C2
:102F8000DF011D928A95E9F70E944716AFC07513BD
:102F900014C0341312C0611110C08091CB01F8012C
:102FA0008583C8010E94A01586E0E6ECF1E0DF0110
:102FB0001D928A95E9F7FE2C99C04D875E878D8515
:102FC0009E856A8B0E94E3156A89882309F4BECF27
:102FD000662309F4BBCF2091CB01822F82958F709D
:102FE00090E002970CF48ECF8091C6019091C701BA
:102FF0009A8389831B82DD82CC822E83CE01019647
:103000007FCF809590958C0D9D1DACCFF62E6623BD
:1030100009F49CCF75132EC034132CC02091CB0122
:1030200020FD1FC0822F82958F70D9F0D801159690
:103030002C9315978F3049F08F5F982F9295907F42
:10304000822F8F70892B15968C93C8010E94A01532
:1030500086E0F801A6ECB1E001900D928A95E1F7C7
:1030600093CF86E0F801A6ECB1E001900D928A952D
:10307000E1F73CC04D875E878D859E850E94E315F4
:10308000811140CF8091CB0181608093CB01C80139
:103090000E94A0152BC0662309F458CF4D875E8788
:1030A0008D859E850E94E315F82E882309F44ECF66
:1030B00086E0F801A6ECB1E001900D928A95E1F767
:1030C00086EC91E00E9483110E9455165DCF81111C
:1030D00039CF0CC0243031050CF038CF9F7009F483
:1030E00031CFF8019581907F09F02CCF8F2D62961A
:1030F0000FB6F894DEBF0FBECDBFDF91CF911F9109
:103100000F91FF90EF90DF90CF9008951F93CF9392
:10311000DF93CDB7DEB72C970FB6F894DEBF0FBEA6
:10312000CDBF4F83588769877A878B879C87CE016D
:1031300007960E94B016882369F08F8198852A85AA
:103140003B85232BF1F19F3F09F063C08F3F09F0CE
:1031500060C037C086E0FE013796DE01119601900F
:103160000D928A95E1F76F817885EA85FB85309726
:1031700041F17F3F11F46F3F21F12091950130E043
:10318000C9010196877099274091940150E08417F6
:10319000950709F447C069837A83FD83EC8396E041
:1031A000929FD001939FB00D1124AA56BE4FFE01ED
:1031B000319601900D929A95E1F7809395010E94C6
:1031C000261616E080919401909195018917C1F11E
:1031D000189FC00111248A569E4F0E94B016882362
:1031E00079F1E09194011E9FF0011124EA56FE4FFF
:1031F0004081518162817381848195810E9416167C
:103200008091940190E001968770992780939401B2
:10321000D9CF4F81588569857A858B859C850E9499
:103220001616CFCF0E94DF151092950110929401CF
:10323000E6ECF1E086E0DF011D928A95E9F7C1CF67
:103240002C960FB6F894DEBF0FBECDBFDF91CF91A5
:103250001F910895EF92FF920F931F93CF93DF93E7
:103260008C01892B09F46CC0F12CEE24E394E80165
:103270002196F8018491843740F4843008F051C0DD
:10328000813081F0823019F15BC0853709F444C088
:10329000A8F19CE7980F903708F052C08F770E94F2
:1032A000801241C00E5F1F4FFE01C49180E28C0F5F
:1032B000883048F4C7708E2D01C0880FCA95EAF790
:1032C0000E94031C14C08C2F0E9489112DC00E5F18
:1032D0001F4FFE01C49180E28C0F883058F4C770F4
:1032E0008E2D01C0880FCA95EAF70E94091C0E9422
:1032F000AD1B1AC08C2F0E94801216C00E5F1F4F8C
:10330000FE01C491CC2381F08FE99FE00197F1F792
:1033100000C00000C150F6CF0E5F1F4FFE01F490B9
:1033200003C00E9489118E018F2D882309F49FCF3D
:10333000EFE9FFE03197F1F700C000008150F5CFD1
:10334000DF91CF911F910F91FF90EF900895089515
:103350000E94A719609302027093030280930402F3
:10336000909305020C94C71508950C94A8190F9317
:103370001F930091020210910302209104023091E8
:103380000502602B712B822B932B1F910F910C94B4
:10339000A8190F931F93009102021091030220912C
:1033A00004023091050260237123822393231F912D
:1033B0000F910C94A8190F931F9300910202109182
:1033C00003022091040230910502602771278227B1
:1033D00093271F910F910C94A81908950C94ED193F
:1033E0000E94EE196093FE017093FF01809300022A
:1033F000909301020C94C71560E070E0CB010C942F
:10340000F0190F931F9341E050E060E070E08A01F3
:103410009B0104C0000F111F221F331F8A95D2F792
:10342000C901B8011F910F910C94F0190F931F93CC
:1034300041E050E060E070E004C0440F551F661F9B
:10344000771F8A95D2F78091FE019091FF01A0919C
:103450000002B09101028A019B01082B192B2A2B33
:103460003B2BC901B8011F910F910C94F0190F93D8
:103470001F9341E050E060E070E004C0440F551F2E
:10348000661F771F8A95D2F7409550956095709585
:103490008091FE019091FF01A0910002B091010284
:1034A0008A019B01082319232A233B23C901B80160
:1034B0001F910F910C94F0190F931F9341E050E06E
:1034C00060E070E004C0440F551F661F771F8A95A7
:1034D000D2F78091FE019091FF01A0910002B0917E
:1034E00001028A019B01082719272A273B27C901C6
:1034F000B8011F910F910C94F0190F931F93009135
:10350000FE011091FF012091000230910102602B19
:10351000712B822B932B1F910F910C94F0190F9309
:103520001F930091FE011091FF0120910002309144
:10353000010260237123822393231F910F910C9426
:10354000F0190F931F930091FE011091FF0120913C
:1035500000023091010260277127822793271F9173
:103560000F910C94F01908952FE0929F800D112473
:10357000A82FA695A695A695877051E001C0550F76
:103580008A95EAF785E0A89FD001112420E030E079
:1035900070E0F901EA0FFB1FE453FE4F4081CB01BD
:1035A000022E02C0969587950A94E2F781709927BA
:1035B000819584278523842780832F5F3F4F253083
:1035C000310539F708952FE0929F800D1124682F5F
:1035D000669566956695982F977085E0689FB0010F
:1035E000112440E050E080E0FA01E60FF71FE453B9
:1035F000FE4F208130E0092E02C0369527950A94AF
:10360000E2F721703327042E01C0220F0A94EAF753
:10361000822B4F5F5F4F4530510531F70895CF92B0
:10362000DF92EF92FF920F931F93CF93DF938C0162
:10363000C0900202D0900302E0900402F0900502D4
:103640008091FE019091FF01A0910002B0910102D2
:10365000C82AD92AEA2AFB2ACFE1D0E0D701C6013D
:103660000C2E04C0B695A795979587950A94D2F726
:1036700080FF06C0B8018C2F0E948006019721F4BC
:10368000219760F780E001C08C2FDF91CF911F91CF
:103690000F91FF90EF90DF90CF900895CF93DF933D
:1036A000EC010E940F1BBE010E948006DF91CF91AA
:1036B00008951F93CF93DF93EB019091930199238A
:1036C00021F0CB010E944E1B13C0882349F0CB018F
:1036D0000E940F1B182F682FCE010E94B41A04C03D
:1036E000CB010E94E31A182FBE01812F0E94800691
:1036F000DF91CF911F910895809106028595859560
:1037000085950895809106028770089598E0899FB5
:1037100090011124262B209306020C94161A209156
:1037200006028095822380930602982F977069F491
:1037300030E0482F082E000C550B2417350729F0D0
:103740008595859585950C94371A08959091060274
:10375000977081E009F480E00895E0910201F09112
:10376000030180912A028083E0910201F09103011C
:10377000908180912902892B8083E0910201F09150
:103780000301908180912802892B80838091070218
:10379000882381F0E0910201F09103019081892B4F
:1037A000808380910201909103010E946E1C81111F
:1037B0001092070280910201909103010C9446102F
:1037C00080912A02089590912A02892B80932A02DF
:1037D0000895809590912A02892380932A02089562
:1037E00010922A02089590912902892B8093290230
:1037F0000895809590912902892380932902089544
:1038000010922902089590912802892B8093280212
:103810000895809590912802892380932802089525
:1038200010922802089580930702089510920702CB
:1038300008956DEE7EEF80E090E00E94482D60E0FC
:1038400082E090E00E942A2D60E083E090E00E94F8
:103850002A2D60E084E090E00E942A2D60E085E05F
:1038600090E00E942A2D60E086E090E00E942A2DE0
:1038700040E050E0BA0188E090E00C943C2D80E0FC
:1038800090E00E94242D21E08D3E9E4F09F020E023
:10389000822F089582E090E00C94162D682F82E02C
:1038A00090E00C942A2D83E090E00C94162D682F64
:1038B00083E090E00C942A2D84E090E00C94162D87
:1038C000682F84E090E00C942A2D86E090E00C9420
:1038D000162D682F86E090E00C942A2DFC0131967D
:1038E0009C01205E3F4F80E0919191118F5FE21724
:1038F000F307D1F708959C01FC0132969FEF80E019
:103900004191461789F09F3F19F4411101C0982F4A
:103910008F5F8E31A9F79F3F39F0F901E90FF11D53
:1039200097FDFA95628308950895FC01329680967A
:103930002081261301C010823196E817F907C1F7DC
:103940000895262F2695269526952F3168F4FC019B
:10395000E20FF11D677021E030E001C0220F6A958F
:10396000EAF78181282B21830895262F2695269515
:1039700026952F3170F4FC01E20FF11D677021E0F4
:1039800030E001C0220F6A95EAF720958181282353
:103990002183089520911401222329F020918E0281
:1039A00027FD0C94A11C0C947B1C20911401222354
:1039B00029F020918E0227FD0C94B51C0C94951CC7
:1039C000FC01319680961192E817F907E1F7089506
:1039D00080919502843051F110922C0220E488E10C
:1039E00090E00FB6F894A895809360000FBE2093E6
:1039F000600080E00E94F00580E00E94610683B7CD
:103A0000817F846083BF83B7816083BF789488950A
:103A100083B78E7F83BF0FB6F894A895809160001E
:103A2000886180936000109260000FBE0895089531
:103A30000895CF930E94171D0E949B090E94181D94
:103A4000C0E08C2F0E944F0A892B29F4CF5FC5302C
:103A5000C1F780E001C081E0CF9108950E94DF1599
:103A60000E9471210E943A100C9461061F920F92DD
:103A70000FB60F9211248F939F93AF93BF938091B2
:103A80002C02811113C080918A0290918B02A09127
:103A90008C02B0918D024196A11DB11D80938A02C6
:103AA00090938B02A0938C02B0938D02BF91AF9143
:103AB0009F918F910F900FBE0F901F90189582E0ED
:103AC00084BD93E095BD9AEF97BD80936E000895F5
:103AD0002FB7F89480918A0290918B02A0918C026A
:103AE000B0918D022FBF0895CF92DF92EF92FF9297
:103AF0000F931F932FB7F89440918A0250918B0235
:103B000060918C0270918D022FBF6A017B01EE24BF
:103B1000FF248C0120E030E0C016D106E206F30657
:103B200010F4415051099A01281B390BC9011F910A
:103B30000F91FF90EF90DF90CF90089578941F92AF
:103B40000F920FB60F9211248F939F93AF93BF9351
:103B500080918A0290918B02A0918C02B0918D028B
:103B60000196A11DB11D80938A0290938B02A093B0
:103B70008C02B0938D02BF91AF919F918F910F9066
:103B80000FBE0F901F90189581E08093E00080E2B7
:103B90008093D8001092C9008FE19EE40197F1F75D
:103BA00000C0000087E090EBDC0180939E029093C0
:103BB0009F02A093A002B093A1029CE088E10FB6FF
:103BC000F894A895809360000FBE90936000FFCF9B
:103BD000AF92BF92CF92DF92EF92FF920F931F931B
:103BE000CF93C0E0CC24C394D12CE82EF12C8C2FA1
:103BF0000E944F0A5C0100E010E09601002E02C016
:103C0000220F331F0A94E2F72A213B21232B31F4A0
:103C10000F5F1F4F0F30110581F70AC0602F7C2FF7
:103C200080E00E946606E816F90691F781E004C07C
:103C3000CF5FC530E1F680E0CF911F910F91FF90EB
:103C4000EF90DF90CF90BF90AF900895CF93C82FA3
:103C50008CE20E94E81D882321F08C2FCF910C94D8
:103C6000E81D80E0CF910895CF930E943F1C811101
:103C700002C00E94191CC5E6C15049F00E949B0970
:103C80008FE39CE90197F1F700C00000F5CF89E2CE
:103C90000E94261E81110FC18AE20E94261E8111F8
:103CA0000E94191C85E00E94261E81110E94C41DDD
:103CB0000E944A1C80932B0287E00E94261E8823C4
:103CC000A9F18BE10E94261E882351F080912B02DE
:103CD00081FB222720F991E0922790FB81F90EC009
:103CE0008EE00E94261E882361F080912B0282FBC9
:103CF000222720F991E0922790FB82F980932B02F2
:103D000015C080E10E94261E90912B02882341F06D
:103D100093FB222720F981E0822780FB93F904C0DE
:103D2000892F809580FB90F990932B0280912B0234
:103D30000E944E1C0E945C1C90E090938F02809326
:103D40008E0280EE0E94261E882341F080918E0212
:103D5000982F909590FB80F980938E0289E30E94C2
:103D6000261E882359F080918E0281FB222720F99C
:103D700091E0922790FB81F980938E0282EE0E945F
:103D8000261E882359F080918E0282FB222720F97B
:103D900091E0922790FB82F980938E0286EE0E943A
:103DA000261E882359F080918E0283FB222720F95A
:103DB00091E0922790FB83F980938E0283EE0E941C
:103DC000261E882359F080918E0284FB222720F939
:103DD00091E0922790FB84F980938E0285E30E9404
:103DE000261E882359F080918E0285FB222720F918
:103DF00091E0922790FB85F980938E0281E30E94E7
:103E0000261E882359F080918E0286FB222720F9F6
:103E100091E0922790FB86F980938E0281E10E94C7
:103E2000261E882359F080918E0287FB222720F9D5
:103E300091E0922790FB87F980938E0280918E0209
:103E40000E94601C87E20E94261EC82F8EE10E94FD
:103E5000261E8111C2608FE10E94261E8111C4605E
:103E600080E20E94261E8111C86081E20E94261E07
:103E70008111C06182E20E94261E8111C06283E22C
:103E80000E94261E8111C06484E20E94261E88239F
:103E900011F0C06802C0CC2329F08C2F0E94571C5F
:103EA0006C2F03C00E94531C682F70E080E090E0EC
:103EB000CF910C94B519CF91089580912F0280FF76
:103EC0000BC06091070185E0689FB00111247595D2
:103ED0006795759567952BC081FF09C060910701B3
:103EE00085E0689FB00111247595679520C082FF19
:103EF00007C06091070185E0689FB001112417C0D9
:103F0000909130029923D1F060910601961788F7BD
:103F10002091070185E0289F90011124929FA00124
:103F2000939F500D112470E0CA010E94C02C60388C
:103F3000710540F46115710539F002C065E070E06B
:103F4000862F08958FE7089581E0089580912F02CC
:103F500080FF08C06091050170E0759567957595C3
:103F6000679521C081FF06C06091050170E07595DD
:103F7000679519C082FF04C06091050170E010C010
:103F8000909130029923C1F0609104019617A0F737
:103F900080910501899FC001112470E00E94C02C0E
:103FA0006038710528F46115710521F0862F089598
:103FB0008FE7089581E0089561E070E0F4CF803FDD
:103FC00021F40E945D1F819504C0813F29F40E9465
:103FD0005D1F809333020895823F21F40E945D1F8C
:103FE000819504C0833F29F40E945D1F80933202B3
:103FF0000895893F19F40E94A61F05C08A3F31F435
:104000000E94A61F81958093340208958B3F21F46E
:104010000E94A61F819504C08C3F29F40E94A61F10
:10402000809335020895843F21F4809131028160AC
:1040300017C0853F21F480913102826011C0863F14
:1040400021F48091310284600BC0873F21F480917C
:104050003102886005C0883F31F48091310280616F
:104060008093310208958D3F21F480912F02816069
:104070000BC08E3F21F480912F02826005C08F3FDC
:1040800029F480912F02846080932F020895803F4D
:1040900039F48091330287FF6CC01092330269C0FB
:1040A000813F29F4809133021816BCF362C09091CD
:1040B0003202823F29F497FF5CC01092320259C04D
:1040C000833F19F41916CCF354C0893F41F4809111
:1040D000340218160CF04DC0109234024AC08A3FC8
:1040E00029F48091340287FF44C0F6CF8B3F39F426
:1040F0008091350287FF3DC0109235023AC08C3F57
:1041000029F4809135021816BCF333C0843F21F4A2
:10411000809131028E7F17C0853F21F4809131025A
:104120008D7F11C0863F21F4809131028B7F0BC0BF
:10413000873F21F480913102877F05C0883F31F4A9
:10414000809131028F7E8093310213C08D3F21F424
:1041500080912F028E7F0BC08E3F21F480912F0221
:104160008D7F05C08F3F29F480912F028B7F809334
:104170002F028091320281110EC080913302811191
:104180000AC080913402811106C0809135028111EC
:1041900002C010923002089581E392E00E94511013
:1041A0000E94681D90932E0280932D0208951F9304
:1041B000CF93DF9380912D0290912E020E94741D67
:1041C000AC0190913002992321F02091080130E058
:1041D00006C0209109018AE0289F9001112442170E
:1041E000530708F46EC080913202C0913302D0911F
:1041F000340210913502811107C0C1115EC0D11186
:104200005CC011115AC05DC09F3F19F09F5F909331
:104210003002181624F40E945D1F809332028091B0
:10422000320287FF05C00E945D1F81958093320294
:104230001C1624F40E945D1F809333028091330288
:1042400087FF05C00E945D1F8195809333024091D6
:104250003202442379F030913302332359F025EBB5
:104260004203A0011124509332023203C0011124F1
:10427000909333021D1624F40E94A61F80933402EB
:104280008091340287FF05C00E94A61F819580930C
:104290003402111624F40E94A61F809335028091E7
:1042A000350287FF05C00E94A61F819580933502C5
:1042B000DF91CF911F910C94CC209F3F09F0A6CFA6
:1042C000AECFDF91CF911F910895E1E3F2E085E059
:1042D000DF011D928A95E9F71092300210922F02A9
:1042E00008950E943F1C811102C00E94191C0E9467
:1042F000651C80939002282F269530E026303105EA
:1043000024F081708A60809390028091900280FFF7
:1043100002C0869501C080E00C94F00520919002C7
:10432000822F8695482F50E04530510544F48F5F29
:10433000982F990F822F8170892B80939002809102
:1043400090028160809390020E94691C809190028B
:1043500086950C94F00580919002982F969591F097
:104360009158990F8170892B809390028E7F91E0F4
:1043700009F490E08091900290FB80F98093900284
:104380000E94691C8091900286950C94F0058091A2
:104390009002982F909590FB80F980939002813045
:1043A00019F483E080939002809190020E94691C2E
:1043B0008091900280FF02C0869501C080E00C943D
:1043C000F00590919002892F86958F5F8F7791707D
:1043D000863028F4880F892B8093900202C0909336
:1043E0009002809190028E7F91E009F490E080919C
:1043F000900290FB80F9809390020E94691C80914A
:10440000900286950C94F005863008F085E0880FC0
:10441000909190029170892B809390028E7F91E011
:1044200009F490E08091900290FB80F980939002D3
:104430000E94691C8091900286950C94F0058091F1
:10444000560208950F931F93CF93DF9300D01F92CE
:10445000CDB7DEB78C010E949A24823011F08430EF
:1044600019F593E099831B830A839093E9008FEFFA
:104470009091E800815095FD06C095ED9A95F1F771
:1044800000008111F5CF8091E80085FF0DC040E06C
:1044900050E063E070E0CE0101960E94B724809165
:1044A000E8008E778093E8000F900F900F90DF91D7
:1044B000CF911F910F910895CF93DF9300D01F925A
:1044C000CDB7DEB720919502243031F522E0298363
:1044D000805891099B838A8383E08093E9008FEF62
:1044E0009091E800815095FD06C095ED9A95F1F701
:1044F00000008111F5CF8091E80085FF0DC040E0FC
:1045000050E063E070E0CE0101960E94B7248091F4
:10451000E8008E778093E8000F900F900F90DF9166
:10452000CF910895CF93DF93EC010E949A248230BB
:1045300011F08430F9F482E08093E9009FEF8091DC
:10454000E800915085FD06C085ED8A95F1F70000E1
:104550009111F5CF8091E80085FF0CC040E050E05C
:1045600065E070E0CE010E94B7248091E8008E776C
:104570008093E800DF91CF910895CF93DF93EC0112
:104580000E949A24823019F0843009F047C080914B
:1045900014018823E1F080918E0287FF18C084E027
:1045A0008093E9008FEF9091E800815095FD06C05F
:1045B00095E19A95F1F700008111F5CF8091E8001F
:1045C00085FF2CC040E050E060E270E017C081E061
:1045D0008093E9008FEF9091E800815095FD06C02F
:1045E00095ED9A95F1F700008111F5CF8091E800E3
:1045F00085FF14C040E050E068E070E0CE010E940A
:10460000B7248091E8008E778093E80080E2FE0175
:10461000A6E3B2E001900D928A95E1F7DF91CF9188
:10462000089580919402811109C00E944C260E9435
:10463000A9268091E20084608093E20008951092A0
:1046400094020895089508950C942E1D42E061ECA3
:1046500081E00E94C62542E061EC82E00E94C6250E
:1046600042E061EC83E00E94C62542E261EC84E016
:104670000C94C62580919702833009F455C030F41C
:10468000813071F0823009F48EC008958A3009F4C7
:104690007AC08B3009F460C0893009F09CC020C01A
:1046A00080919602813A09F096C08091E800877F58
:1046B0008093E80080919A0290919B02892B21F4CB
:1046C00060E286E392E003C060E080E090E070E0AA
:1046D0000E9402258091E8008B778093E80008957E
:1046E00080919602813209F076C080919A02909171
:1046F0009B02009719F0039709F06DC08091E800C4
:10470000877F8093E8008091E80082FD05C080915A
:1047100095028111F8CF5FC08091F100809356021D
:104720008091E8008B7753C080919602813A09F01E
:1047300052C080919A0290919B02892B09F04BC044
:104740008091E800877F8093E8008091E80080FFF7
:10475000FCCF8091140136C0809196028132D9F548
:1047600080919A0290919B02892BA9F58091E80093
:10477000877F8093E8000E94FB25809198028093B8
:1047800014010C94DF1580919602813221F58091FD
:10479000E800877F8093E8000E94FB2580919902C2
:1047A00080935702089580919602813AA1F48091F6
:1047B000E800877F8093E8008091E80080FFFCCFCD
:1047C000809157028093F1008091E8008E7780936A
:1047D000E8000C94FB25089584B7877F84BF0FB64B
:1047E000F894A89580916000886180936000109291
:1047F00060000FBE80E880936100109261000E940B
:1048000089100E944C260E94A9268091E2008460B3
:104810008093E20078940E9438290E948D108AE0EB
:1048200091E00E94351080919502853069F40E94D4
:10483000E81C809193028823B1F30E94191D8823FC
:1048400091F30E94A124EFCF0E9497100E94C90FFC
:10485000EACF0C942B24292F332723303105C9F0BC
:1048600064F42130310581F02230310509F049C06E
:104870008DE690E020E034E048C02132310521F19E
:104880002232310571F13DC082E190E02DE634E045
:104890003CC099278130910571F02CF4892B89F562
:1048A000ECEFF3E00DC08230910541F0039749F53C
:1048B000E8EDF3E005C0EAEEF3E002C0EEEDF3E070
:1048C000849190E09F0121C064307105D0F4660F9F
:1048D000771FFB01EB5CFE4F2081318189E090E086
:1048E00014C06430710568F4FB01EE0FFF1FE35D37
:1048F000FE4F20813181FB01E75DFE4F808190E01A
:1049000004C080E090E020E030E0FA0131832083B1
:1049100008950895CF93C82F0E948924C093580208
:10492000CF91089580919502843011F081E008952F
:1049300082E0089580915802811102C00C94922463
:10494000089580E189BD82E189BD09B400FEFDCFF3
:104950008091D8008F7D8093D8008091E0008260A4
:104960008093E0008091E00081FDFCCF0895CF921C
:10497000DF92EF92FF920F931F93CF93DF93EC019F
:104980008B016A010E941A26811133C0C114D1041F
:1049900039F0F60180819181081B190BC80FD91FCE
:1049A000E12CF12C0115110519F18091E80085FD2C
:1049B00016C08091E8008E778093E800C114D1047E
:1049C00049F0F60180819181E80EF91EF182E082C2
:1049D00085E00FC00E941A26882321F30AC089911E
:1049E0008093F10001501109FFEFEF1AFF0ADACFAF
:1049F00080E0DF91CF911F910F91FF90EF90DF90BA
:104A0000CF90089520919C0230919D022617370780
:104A100048F06115710539F42091E8002E77209354
:104A2000E80001C0B90140E061157105A9F12091CC
:104A30009502222309F443C0253009F442C0209195
:104A4000E80023FD40C02091E80022FD32C0209103
:104A5000E80020FFE9CF4091F3002091F20030E020
:104A6000342BFC01CF016115710559F02830310557
:104A700040F481918093F100615071092F5F3F4FA5
:104A8000F1CF41E02830310509F040E02091E80005
:104A90002E772093E800C8CF4111C9CF0AC080917A
:104AA0009502882361F0853061F08091E80083FDF4
:104AB0000AC08091E80082FFF2CF80E0089582E092
:104AC000089583E0089581E0089520919C0230913B
:104AD0009D022617370748F06115710539F42091BA
:104AE000E8002E772093E80001C0B901FC0120E026
:104AF0006115710591F180919502882309F440C0F8
:104B0000853009F43FC08091E80083FD3DC080916D
:104B1000E80082FD2FC08091E80080FFE9CF20915E
:104B2000F3008091F20090E0922B6115710559F02D
:104B30008830910540F424912093F1003196615022
:104B400071090196F2CF21E0089709F020E08091E9
:104B5000E8008E778093E800CBCF2111CCCF0AC03C
:104B600080919502882361F0853061F08091E800A2
:104B700083FD0AC08091E80082FFF2CF80E00895B3
:104B800082E0089583E0089581E00895982F97309A
:104B900058F59093E900981739F07091EC00209146
:104BA000ED005091F00003C0242F762F50E021FF3C
:104BB00019C03091EB003E7F3093EB003091ED0057
:104BC0003D7F3093ED003091EB0031603093EB008E
:104BD0007093EC002093ED005093F0002091EE00D4
:104BE00027FF07C09F5FD3CF8F708093E90081E0DC
:104BF000089580E008958091960287FF11C080910A
:104C0000E80082FD05C0809195028111F8CF11C0A6
:104C10008091E8008B770BC080919502882349F042
:104C20008091E80080FFF8CF8091E8008E77809334
:104C3000E80008952091E4003091E50095E6409168
:104C4000EC00842F817040FF22C08091E80080FD3D
:104C50001CC080919502882391F0853091F080915D
:104C6000EB0085FD10C04091E4005091E500421733
:104C7000530729F39A01915011F784E0089582E0D7
:104C8000089583E0089581E0089580E008954091BB
:104C9000E80042FFDECF08950E94BA260E94C22695
:104CA000E0EEF0E0808181608083E8EDF0E08081DB
:104CB0008F77808319BCA7EDB0E08C918E7F8C93A9
:104CC00080818F7E80831092940208950F931F93AA
:104CD000CF93DF930E94BA260E94C226C8EDD0E08F
:104CE00088818F77888388818068888388818F7D99
:104CF000888319BC1092950210929102109293022F
:104D00001092920200EE10E0F80180818B7F808388
:104D100088818160888342E060E080E00E94C6254F
:104D2000E1EEF0E080818E7F8083E2EEF0E0808132
:104D300081608083808188608083F80180818E7F9C
:104D40008083888180618883DF91CF911F910F914B
:104D50000895E8EDF0E080818F7E8083E7EDF0E05C
:104D600080818160808384E082BF81E080939402AF
:104D70000C946626E8EDF0E080818E7F80831092AF
:104D8000E20008951092DA001092E10008951F9257
:104D90000F920FB60F9211242F933F934F935F936F
:104DA0006F937F938F939F93AF93BF93EF93FF93F3
:104DB0008091E10082FF0BC08091E20082FF07C07A
:104DC0008091E1008B7F8093E1000E9437298091E0
:104DD000DA0080FF1FC08091D80080FF1BC0809147
:104DE000DA008E7F8093DA008091D90080FF0DC0B9
:104DF00080E189BD82E189BD09B400FEFDCF81E07B
:104E0000809395020E94112305C019BC109295024F
:104E10000E941F238091E10080FF19C08091E20071
:104E200080FF15C08091E2008E7F8093E200809128
:104E3000E20080618093E2008091D80080628093DC
:104E4000D80019BC85E0809395020E9423238091AD
:104E5000E10084FF30C08091E20084FF2CC080E13B
:104E600089BD82E189BD09B400FEFDCF8091D800E3
:104E70008F7D8093D8008091E1008F7E8093E10048
:104E80008091E2008F7E8093E2008091E200816059
:104E90008093E20080919102882311F084E007C0A2
:104EA0008091E30087FD02C081E001C083E0809330
:104EB00095020E9424238091E10083FF29C0809104
:104EC000E20083FF25C08091E100877F8093E100AD
:104ED00082E080939502109291028091E1008E7F92
:104EE0008093E1008091E2008E7F8093E2008091C8
:104EF000E20080618093E20042E060E080E00E9496
:104F0000C6258091F00088608093F0000E942223E3
:104F1000FF91EF91BF91AF919F918F917F916F9191
:104F20005F914F913F912F910F900FBE0F901F9067
:104F300018951F920F920FB60F9211242F933F9343
:104F40004F935F936F937F938F939F93AF93BF9391
:104F5000CF93DF93EF93FF93C091E900CF708091DF
:104F6000EC00D82FD17080FDD0E81092E90080913C
:104F7000F000877F8093F00078940E94DD271092E4
:104F8000E9008091F00088608093F000CD2BCF7015
:104F9000C093E900FF91EF91DF91CF91BF91AF9165
:104FA0009F918F917F916F915F914F913F912F9141
:104FB0000F900FBE0F901F9018951F93CF93DF9304
:104FC000CDB7DEB7AA970FB6F894DEBF0FBECDBF40
:104FD000E6E9F2E088E08E0F9091F10091938E1354
:104FE000FBCF0E943A238091E80083FF28C1809183
:104FF000960290919702492F50E04A30510508F0EF
:105000001EC1FA01E556FF4F0C94F62C803821F0B2
:10501000823809F014C108C08091920290919302E5
:10502000992389F082600FC080919A028F70873037
:1050300008F005C18093E9008091EB0085FB88278B
:1050400080F91092E9009091E800977F9093E80032
:105050008093F1001092F100D0C0282F2D7F09F02D
:10506000EEC0882319F0823061F0E9C08091980287
:10507000813009F0E4C0933009F080E0809393021E
:105080002EC08091980281112AC080919A028F705F
:105090002FEF280F263008F0D2C08093E90020912E
:1050A000EB0020FF1CC0933021F48091EB00806264
:1050B00014C09091EB0090619093EB0021E030E000
:1050C000A90102C0440F551F8A95E2F74093EA00F8
:1050D0001092EA008091EB0088608093EB001092C0
:1050E000E9008091E800877F8093E8000E94FB251B
:1050F000A6C08111A4C0109198021F778091E3008F
:105100008078812B8093E3008091E800877F8093F3
:10511000E8000E94FB258091E80080FFFCCF809191
:10512000E30080688093E300111102C082E001C0B7
:1051300083E08093950283C08058823008F07FC05E
:1051400080919802909199028C3D53E0950779F5F2
:1051500083E08A838AE289834FB7F894DE0113964D
:1051600020E03EE051E2E32FF0E050935700E4915D
:1051700020FF03C0E295EF703F5FEF708E2F90E04D
:10518000EA3010F0C79601C0C0968D939D932F5FB3
:10519000243149F74FBF8091E800877F8093E80072
:1051A0006AE270E0CE0101960E94022515C060916E
:1051B0009A0270919B02AE014F5F5F4F0E942924BB
:1051C000BC01892BE1F19091E800977F9093E80072
:1051D00089819A810E9465258091E8008B77809370
:1051E000E8002DC0803859F58091E800877F8093D2
:1051F000E800809191028093F1008091E8008E7721
:1052000073CF81111CC0909198029230C0F48091AC
:10521000E800877F8093E800909391020E94FB252D
:1052200080919102811106C08091E30087FD02C048
:1052300081E001C084E0809395020E942623809142
:10524000E80083FF0AC08091E800877F8093E80030
:105250008091EB0080628093EB00AA960FB6F894E1
:10526000DEBF0FBECDBFDF91CF911F91089508958E
:10527000CF93809195028823A1F0C091E900CF706F
:105280009091EC00892F817090FD80E8C82B1092DE
:10529000E9008091E80083FD0E94DD27CF70C09374
:1052A000E900CF9108955058BB27AA270E946B2987
:1052B0000C94162B0E94082B38F00E940F2B20F024
:1052C00039F49F3F19F426F40C94DE2A0EF4E0958D
:1052D000E7FB0C94D82AE92F0E94272B58F3BA1722
:1052E000620773078407950720F079F4A6F50C94FC
:1052F000492B0EF4E0950B2EBA2FA02D0B01B9010E
:1053000090010C01CA01A0011124FF27591B99F03B
:10531000593F50F4503E68F11A16F040A22F232F47
:10532000342F4427585FF3CF469537952795A79597
:10533000F0405395C9F77EF41F16BA0B620B730B3E
:10534000840BBAF09150A1F0FF0FBB1F661F771FAF
:10535000881FC2F70EC0BA0F621F731F841F48F464
:10536000879577956795B795F7959E3F08F0B0CFED
:105370009395880F08F09927EE0F979587950895D4
:105380000E94D4290C94162B0E940F2B58F00E94D7
:10539000082B40F029F45F3F29F00C94D82A5111D2
:1053A0000C944A2B0C94DE2A0E94272B68F3992335
:1053B000B1F3552391F3951B550BBB27AA27621711
:1053C0007307840738F09F5F5F4F220F331F441F1E
:1053D000AA1FA9F335D00E2E3AF0E0E832D0915052
:1053E0005040E695001CCAF72BD0FE2F29D0660F3F
:1053F000771F881FBB1F261737074807AB07B0E882
:1054000009F0BB0B802DBF01FF2793585F4F3AF087
:105410009E3F510578F00C94D82A0C944A2B5F3F9C
:10542000E4F3983ED4F3869577956795B795F7950D
:105430009F5FC9F7880F911D9695879597F90895F5
:10544000E1E0660F771F881FBB1F62177307840791
:10545000BA0720F0621B730B840BBA0BEE1F88F7A0
:10546000E095089529F416F00C94D82A0C94492B51
:105470000C94DE2A0E942F2BA8F39638A0F707F889
:105480000F92E8942BE33AEA48EB5FE70E94DC2BAB
:105490000F920F920F924DB75EB70F920E94922B10
:1054A000EAE4F1E00E94E12A4F915F91EF91FF91D0
:1054B000E595EE1FFF1F49F0FE57E0684427EE0F09
:1054C000441FFA95E1F74195550B0E945C2B0F9014
:1054D00007FE0C94502B08950E942F2B88F09F57A5
:1054E00098F0B92F9927B751B0F0E1F0660F771F08
:1054F000881F991F1AF0BA95C9F714C0B13091F0FE
:105500000E94492BB1E008950C94492B672F782F06
:105510008827B85F39F0B93FCCF3869577956795C2
:10552000B395D9F73EF490958095709561957F4F2E
:105530008F4F9F4F0895E89409C097FB3EF49095D4
:105540008095709561957F4F8F4F9F4F9923A9F05C
:10555000F92F96E9BB279395F695879577956795EB
:10556000B795F111F8CFFAF4BB0F11F460FF1BC02F
:105570006F5F7F4F8F4F9F4F16C0882311F096E9C2
:1055800011C0772321F09EE8872F762F05C0662370
:1055900071F096E8862F70E060E02AF09A95660F29
:1055A000771F881FDAF7880F9695879597F90895E2
:1055B00097F99F6780E870E060E008959FEF80ECC6
:1055C0000895DF93CF931F930F93FF92EF92DF9293
:1055D0007B018C01689406C0DA2EEF010E94D92B62
:1055E000FE01E894A5912591359145915591A6F339
:1055F000EF010E946B29FE019701A801DA9469F777
:10560000DF90EF90FF900F911F91CF91DF91089560
:1056100000240A9416161706180609060895002491
:105620000A9412161306140605060895092E03940B
:10563000000C11F4882352F0BB0F40F4BF2B11F47F
:1056400060FF04C06F5F7F4F8F4F9F4F089557FDDE
:105650009058440F551F59F05F3F71F04795880FE0
:1056600097FB991F61F09F3F79F087950895121677
:1056700013061406551FF2CF4695F1DF08C0161623
:1056800017061806991FF1CF8695710561050894D4
:105690000895E894BB2766277727CB0197F90895EB
:1056A0009B01AC0160E070E080E89FE30C94C029AE
:1056B0000C94D82A0C943B2C0E942F2BD8F39923BE
:1056C000C9F3940F511DA3F39150504094F059F039
:1056D000882332F0660F771F881F91505040C1F722
:1056E0009E3F51052CF7880F911D9695879597F948
:1056F00008955F3FACF0983E9CF0BB278695779568
:105700006795B79508F4B1609395C1F7BB0F58F74B
:1057100011F460FFE8CF6F5F7F4F8F4F9F4FE3CF54
:105720000C944A2BFA01DC01AA0FBB1F9B01AC01B0
:10573000BF5728F4222733274427507820C0B75179
:1057400090F4AB2F0024469537952795011CA3951F
:10575000D2F3002071F0220F331F441FB395DAF308
:105760000ED00C94532961307105A0E88A07B94620
:1057700030F49B01AC016627772788279078309614
:1057800021F0208331834283538308950E94D92BD3
:105790000C94162B0E94082B38F00E940F2B20F03F
:1057A000952311F00C94D82A0C94DE2A11240C9421
:1057B0004A2B0E94272B70F3959FC1F3950F50E061
:1057C000551F629FF001729FBB27F00DB11D639FB3
:1057D000AA27F00DB11DAA1F649F6627B00DA11D59
:1057E000661F829F2227B00DA11D621F739FB00DFF
:1057F000A11D621F839FA00D611D221F749F33276F
:10580000A00D611D231F849F600D211D822F762F07
:105810006A2F11249F5750409AF0F1F088234AF0E4
:10582000EE0FFF1FBB1F661F771F881F9150504050
:10583000A9F79E3F510580F00C94D82A0C944A2B6E
:105840005F3FE4F3983ED4F3869577956795B795D7
:10585000F795E7959F5FC1F7FE2B880F911D9695F1
:10586000879597F908959F930E944B2C0F9007FC02
:10587000EE5F0C94742C9F3F31F0915020F487958B
:1058800077956795B795880F911D9695879597F9A8
:1058900008950C94DE2A0E942F2BD8F3E894E0E0C0
:1058A000BB279F57F0F02AED3FE049EC06C0EE0F12
:1058B000BB0F661F771F881F28F0B23A6207730775
:1058C000840728F0B25A620B730B840BE3959A9508
:1058D00072F7803830F49A95BB0F661F771F881FC8
:1058E000D2F790480C943D2CEF93E0FF07C0A2EA5A
:1058F0002AED3FE049EC5FEB0E946B290E94162BDA
:105900000F90039401FC9058E2E7F1E00C94882C8E
:105910009F938F937F936F93FF93EF939B01AC01C2
:105920000E94C62BEF91FF910E94E12A2F913F9197
:105930004F915F910C94C62BDB018F939F930E9434
:105940000B2DBF91AF91A29F800D911DA39F900D34
:10595000B29F900D11240895AA1BBB1B51E107C0F3
:10596000AA1FBB1FA617B70710F0A61BB70B881FEF
:10597000991F5A95A9F780959095BC01CD0108957E
:1059800097FB072E16F4009407D077FD09D00E94EC
:10599000AC2C07FC05D03EF4909581959F4F08955F
:1059A000709561957F4F0895A1E21A2EAA1BBB1B2B
:1059B000FD010DC0AA1FBB1FEE1FFF1FA217B307DB
:1059C000E407F50720F0A21BB30BE40BF50B661FF1
:1059D000771F881F991F1A9469F7609570958095B5
:1059E00090959B01AC01BD01CF010895EE0FFF1F03
:1059F0000590F491E02D0994A29FB001B39FC001DE
:105A0000A39F700D811D1124911DB29F700D811DEA
:105A10001124911D08950E94FC2CA59F900DB49F08
:105A2000900DA49F800D911D11240895F999FECF2A
:105A300092BD81BDF89A992780B50895A6E1B0E09E
:105A400044E050E00C94502DA8E1B0E042E050E07A
:105A50000C94502D262FF999FECF92BD81BDF89A56
:105A6000019700B4021639F01FBA20BD0FB6F894A2
:105A7000FA9AF99A0FBE08950396272F0E942B2DAC
:105A80000E942A2D252F0E942B2D242F0C942B2D84
:105A90000196272F0E942B2D0C942A2DDC01CB017F
:105AA000FC01F999FECF06C0F2BDE1BDF89A31962E
:105AB00000B40D9241505040B8F70895F894FFCFCC
:105AC000010208022808140A321E1F22BD22922257
:105AD0005C22222201F0F1C66766379431303534FA
