:100000000C94EC020C9433030C9433030C943303E0
:100010000C9433030C9433030C9433030C94330388
:100020000C9433030C9433030C945B280C942D290B
:100030000C942E1F0C9433030C9433030C94330351
:100040000C9433030C9433030C9433030C94330358
:100050000C9433030C947B1F0C9433030C943303E4
:100060000C9433030C9433030C9433030C94330338
:100070000C9433030C9433030C9433030C94330328
:100080000C9433030C9433030C9433030C94330318
:100090000C9433030C9433030C9433030C94330308
:1000A0000C9433030C9433030C943303470D4A0D23
:1000B000520D570D5C0D610D660D6B0D700D750DBC
:1000C0007A0D7F0D810D840D870D8A0D8D0D900D9C
:1000D000920D970D4A144A147C147C14C914E71429
:1000E0003F163F162915BE15CF15CF152F163F16F3
:1000F0003F163816D416D416E616E616DD16E616A2
:10010000E616E616D416D416E216E616E616E2163B
:100110009A29C129B92AC129B92A0D2A302AB92A0E
:10012000872A962A165C1E001F002000210022004C
:10013000230024002500260027002D002E000000AB
:100140002A002B00000014001A00080015001700F8
:100150001C0018000C00120013002F0030003100AA
:100160000151000004001600070009000A000B00FE
:100170000D000E000F003300340028000000E100E5
:1001800000001D001B0006001900050011001000F2
:100190003600370038000000E5000000E000E30012
:1001A0000000E200000000002C0000000000000041
:1001B000E600E70000000151E40035003A003B0092
:1001C0003C003D003E003F00400041004200430033
:1001D0004400450000004C0001000000AC00AE00EF
:1001E000AB000100010001000100520001004600C7
:1001F00047004900010001000000AA00A900010019
:10020000010001000100500051004F004A004B0066
:100210000100000001000000C25CC35CC65CC55C5C
:10022000C85CC75CCA5CC95C4D004E0000000100A0
:1002300000000100010000000100000000000100BA
:10024000000000000000010001000000005C01004F
:1002500000047F3F1F643214643214783C1E1E1465
:100260000A052223252628292A2C2D2F3032333522
:1002700036383A3B3D3E4042434547494A4C4E5052
:1002800051535557595A5C5E6062646668696B6D7C
:100290006F71737577797B7D7F81838587898A8C80
:1002A0008E90929496989A9C9E9FA1A3A5A7A8AA87
:1002B000ACAEAFB1B3B4B6B8B9BBBCBEBFC1C2C3BC
:1002C000C5C6C7C9CACBCCCDCED0D1D2D2D3D4D556
:1002D000D6D7D7D8D9D9DADADBDBDBDCDCDCDCDC7F
:1002E000DDDDDDDDDCDCDCDCDCDBDBDBDADAD9D957
:1002F000D8D7D7D6D5D4D3D2D2D1D0CECDCCCBCAE5
:10030000C9C7C6C5C3C2C1BFBEBCBBB9B8B6B4B30A
:10031000B1AFAEACAAA8A7A5A3A19F9E9C9A9896A0
:100320009492908E8C8A89878583817F7D7B797773
:100330007573716F6D6B6968666462605E5C5A5953
:1003400057555351504E4C4A4947454342403E3D14
:100350003B3A3836353332302F2D2C2A29282625A2
:100360002322FFAA7F554000010101010101010183
:100370000102020202020202020203030303030358
:100380000303040404040404040505050505060626
:1003900006060607070707070808080809090909E4
:1003A0000A0A0A0B0B0B0C0C0C0D0D0D0E0E0E0F8A
:1003B0000F0F10101111111212131314141515161A
:1003C000161717181819191A1A1B1B1C1D1D1E1E8B
:1003D0001F202021222223242425262627282929DC
:1003E0002A2B2C2D2D2E2F30313232333435363707
:1003F00038393A3B3C3D3E3F404142434445464705
:1004000048494A4C4D4E4F50515354555658595ADD
:100410005B5D5E5F616264656668696B6C6D6F7081
:1004200072737577787A7B7D7E8082838587888AF0
:100430008C8E8F91939596989A9C9EA0A2A3A5A727
:10044000A9ABADAFB1B3B5B7BABCBEC0C2C4C6C923
:10045000CBCDCFD1D4D6D8DBDDDFE2E4E7E9EBEEDC
:10046000F0F3F5F8FAFDFF0403300000000A03443E
:10047000005A0036003000000010034B00420044D8
:1004800000460061006E00730000000403090409C7
:10049000023B00020100A0FA09040000010301016F
:1004A0000009211101000122400007058103080015
:1004B0000A090401000103000000092111010001E3
:1004C00022BC000705820320000A1201100100006F
:1004D00000085A44602201000102030105010902DB
:1004E000A10185020901A1000509190129051500CD
:1004F00025019505750181029501750381010501AD
:10050000093009311581257F950275088106093862
:100510001581257F950175088106050C0A3802159D
:1005200081257F950175088106C0C005010980A15C
:1005300001850319012AB700150126B70095017539
:10054000108100C0050C0901A101850419012AA030
:1005500002150126A002950175108100C005010950
:1005600006A1018505050719E029E7150025019574
:1005700008750181020507190029EF15002501956D
:10058000F07501810205081901290595057501918C
:1005900002950175039101C005010906A101050736
:1005A00019E029E7150025019508750181029501DB
:1005B000750881010507190029FF150026FF009520
:1005C0000675088100050819012905950575019131
:1005D00002950175039101C011241FBECFEFDAE02F
:1005E000DEBFCDBF04B603FE27C0809112039091F9
:1005F0001303A0911403B09115038730904BA740CB
:10060000B04BD1F410921203109213031092140302
:100610001092150314BE84B7877F84BF0FB6F89479
:10062000A8958091600088618093600010926000BE
:100630000FBEE0E0F8E3099511E0A0E0B1E0ECE7DF
:10064000F7E502C005900D92A23CB107D9F723E06F
:10065000A2ECB1E001C01D92A231B207E1F70E9405
:100660008A250C94BC2B0C9400000C942506229A2D
:100670002A9A08950E9427060C94370381FF02C02E
:100680002A9801C02A9A0C94A10381E0089581E080
:1006900008950C94470308950C944B031F93CF9334
:1006A000DF9300D000D01F92CDB7DEB749835A83C5
:1006B0006B833091E60189819A81311114C06623E0
:1006C00059F0222349F00E940D1C182F682F8981B0
:1006D0009A810E94B61B03C00E94E11B182F6981FA
:1006E0007A81812F04C00E940D1C69817A810F904C
:1006F0000F900F900F900F90DF91CF911F910C945E
:100700000C04FC01262F4081518162817381848118
:100710000C944E03CF93DF93EC0160E00E948103C1
:10072000BE01DF91CF910C944C030E943F1D8111BB
:1007300002C00E94F21D0E94120F0C943A030C9406
:100740003503089581E008950C94A203CF93C82F38
:100750000E943E038C2F0E94A403CF910895089518
:100760000E94C2160E94AF032FEF84E39CE0215049
:1007700080409040E1F700C000000C94A11F0F934F
:100780001F93CF93DF93EC0161E00E9481038C0102
:10079000BE010E9449038823A9F1BE01C8010E943D
:1007A0007B0E882379F1BE01C8010E94D50F8823F2
:1007B00049F1BE01C8010E941610882319F1BE013B
:1007C000C8010E9441118823E9F0BE01C8010E94BE
:1007D000300D8823B9F08A81882369F001158CE5F2
:1007E000180731F00E3D1C4531F40E94F21D0AC07D
:1007F0000E94B00307C0CE01DF91CF911F910F91EE
:100800000C94450380E0DF91CF911F910F910895E3
:1008100080E090E0089508952BE4829FC0011124A8
:10082000FC012FE0729FE00DF11D1124E60FF11D78
:10083000EE0FFF1FEC5DFE4F859194910895880F98
:10084000991FFC01E05BFD4F859194910895CF9332
:10085000DF930E940C040E943F05EC018115904536
:1008600008F041C0C11580E4D80708F0D1C0C83EE7
:10087000D10510F5C03ED10508F0FDC0C83AD1053C
:1008800078F4C53AD10508F0A2C0C130D10509F409
:10089000F2C008F4EEC0C430D10508F0ECC0E9C0E5
:1008A000CF3BD10508F49BC0C03CD10508F4E1C0A2
:1008B000CE01805C91099EC0C11590E2D90758F421
:1008C000C11521E0D20708F0D6C0C03FD10508F419
:1008D000D0C0D065D0C0C11580E3D80708F08EC065
:1008E000CE019F7087C0C11595E5D90708F043C0B8
:1008F000C11524E5D20708F0A2C0C11582E5D807CA
:1009000008F5C11591E5D90708F085C0CE0174E05E
:10091000969587957A95E1F783709C2F937021E0E7
:1009200030E002C0220F331F9A95E2F73C68382B63
:10093000CF70C695C69580E2C89FE0011124C22BF6
:10094000D32B99C09E01237033278C2F86958695D3
:10095000C115D34508F064C0C1E0D0E002C0CC0F9F
:10096000DD1F2A95E2F720E2829FC0011124C82BE7
:10097000D92BDC6880C0C11529E5D207A0F4C115C8
:1009800088E5D80708F060C0C11596E5D90708F0DA
:1009900070C08C2F0E94D3058F71C82FD0E0DC2F40
:1009A000CC27D06268C0C1152AE5D20708F451C02F
:1009B000CE0190568115904208F05BC08D2F8F714B
:1009C0000E94D305DD27D0628F71D82B54C0C55A41
:1009D000D0E0CB5ADE4FC881D0E0D0644CC0C85ABA
:1009E000D0E0CC0FDD1FC95DDE4F0990D881C02D4E
:1009F000D46441C00E941F04EC013DC0CE01992780
:100A0000D3FF03C0EC01D86C36C0EC01D06C33C00E
:100A1000DF70D06A30C0DC2FCC27C16FD06A2BC00A
:100A2000C1E0D0E002C0CC0FDD1F2A95E2F720E242
:100A3000829FC0011124C82BD92BDA681CC0DC2F7F
:100A4000CC27C46FD06A17C0DC2FCC27C06FD06A08
:100A500012C08C2F8F700E94D30594E0D695C79555
:100A60009A95E1F7CF70D0E0DC2FCC27D069C82B66
:100A700002C0C0E0D0E0CE01DF91CF91089582386E
:100A8000910569F1B0F48133910509F46DC048F422
:100A90008932910509F463C08A32910509F469C06D
:100AA00008958533910509F455C089339105B9F04E
:100AB0000895833E910569F138F4803E9105B1F0C7
:100AC000823E910509F10895863E9105A9F1873E80
:100AD0009105B9F1843E910509F064C023C02091CD
:100AE000030320FD4FC021FD4DC0089580910303F5
:100AF00080FD44C08091040380FF44C080910303C3
:100B000084FD42C083EE4DC08091030382FF38C054
:100B1000F5CF8091030382FD33C08091040380FDF3
:100B200031C0ECCF8091040381FF32C08091030378
:100B300084FD2AC087EE35C08091030383FF26C061
:100B4000F5CF8091030383FD21C08091040381FDD3
:100B50001FC0ECCF8091030385FD1CC01DC0809198
:100B6000030385FD19C016C08091030386FD16C0DE
:100B700017C08091030386FD13C010C089E311C024
:100B800082EE0FC080EE0DC080E00BC086EE09C083
:100B900084EE07C089E205C085E303C08AE201C094
:100BA00081E390E008959091030392FF0DC0282FF8
:100BB0002871283019F4877F846006C0282F24719B
:100BC000243011F48B7F886093FF0DC0282F28718B
:100BD000283119F4877E846106C0282F24712431BE
:100BE00011F48B7E88612091040320FF0DC0382F03
:100BF0003871383019F4877F816006C0382F317121
:100C0000313011F48E7F886021FF0DC0282F2871AC
:100C1000283119F4877E816106C0282F2171213186
:100C200011F48E7E886194FD877E0895E82FF0E0B0
:100C3000EE0FFF1FE354FD4F8081918108950895C9
:100C400080EA8A95F1F7089508950C9424060C948F
:100C50002406CF93DF93A7E6B1E04CE651E061E0D4
:100C600070E08D91E82FE295EF70F0E021A18F7098
:100C7000EB0102C0CC0FDD1F8A95E2F7CE019C2F5D
:100C80009095922391A392A1892B82A34A175B0787
:100C900041F7A8E5B1E047E651E061E070E08D91F1
:100CA000E82FE295EF70F0E021A18F70EB0102C018
:100CB000CC0FDD1F8A95E2F7CE019C2F90959223F1
:100CC00091A392A1892B82A34A175B0741F7E3EB1B
:100CD000F2E0ADEBB2E08DEB92E0119211921D9239
:100CE0001D928E179F07C9F785E00E941807DF91B4
:100CF000CF910C9495032F923F924F925F926F92F7
:100D00007F928F929F92AF92BF92CF92DF92EF929B
:100D1000FF920F931F93CF93DF9387E6C82E81E056
:100D2000D82E03EB12E09DEB492E92E0592E312C88
:100D300088248394912C5801D8016D907C90119750
:100D40001D921C92F60181916F01C82FC295CF7040
:100D5000D0E099A18F70740101C0EE0C8A95EAF77A
:100D6000892F8E2989A38AA12E2C209482218AA3DF
:100D70000E942006E8E5F1E020E030E06191A62F36
:100D8000A295AF70B0E090968C91D8014D915C9196
:100D900090E06F7002C0959587956A95E2F780FDA7
:100DA00008C0C401022E02C0880F991F0A94E2F7FE
:100DB00002C080E090E0482B592BD8014D935C9302
:100DC0002F5F3F4F2F303105C9F689A1282229A274
:100DD0008AA1E82AEAA20E5F1F4F81E0F501208177
:100DE00031812615370509F480E0382A401651066E
:100DF00009F0A1CF232D45E06DEB72E083EB92E08B
:100E00000E9419070E949F03832DDF91CF911F91AC
:100E10000F91FF90EF90DF90CF90BF90AF909F9099
:100E20008F907F906F905F904F903F902F9008959C
:100E30000895FF920F931F93CF93DF93F82E092FFE
:100E4000162FD72FC42F222349F081E08093C401AD
:100E50000E94601F9093C3018093C2018091C401DE
:100E60008823D9F08091C2019091C3010E946C1F28
:100E7000069798F0EF2DF02FA12FBD2F80E090E086
:100E80004C2F50E08417950734F4219131912D9324
:100E90003D930196F7CF1092C401DF91CF911F913E
:100EA0000F91FF900895EF92FF920F931F93CF93AE
:100EB000DF93F62E472FE82FF0E0711106C0E959B5
:100EC000FC4F6491762F862F72C0272F30E0E959AE
:100ED000FC4FE4910E2F10E056E0659FC0011124F5
:100EE000CFEFD0E0BE010E94FD2A5BEA5603C001AD
:100EF000579F900D11248F0D911D8F0D911D982FCF
:100F0000990F890F7E01E21AF30AE09ED001E19E5B
:100F1000B00DF09EB00D1124489FA0011124452F63
:100F200055277E01E41AF50AE09EA001E19E500DCE
:100F3000F09E500D11247E01E81AF108E29EC001D6
:100F4000E39E900DF29E900D1124892F9927C81BC6
:100F5000D90BC09FC001C19F900DD09F900D11244F
:100F60006230710591F048F461157105E1F061306E
:100F70007105A9F48B2F752F19C06430710561F0CC
:100F800038F06630710579F00AC0892F7B2F0EC0CA
:100F90008E2F7B2FE52F0AC08E2F792F02C0852F31
:100FA0007E2FEB2F03C08B2F7E2FE92F6E2FDF912B
:100FB000CF911F910F91FF90EF9008950895CF93D7
:100FC000DF93762FE901682F842F0E9453077983DE
:100FD00068838A83DF91CF9108958091C702282F7B
:100FE000269530E02115310519F48170826005C025
:100FF0002532310524F0817088648093C7020895FA
:1010000088E090E00C947C2BCF92DF92EF92FF92DD
:101010006B017C010E94ED07B701A60188E090E01A
:10102000FF90EF90DF90CF900C949A2BE7ECF2E0DA
:1010300083E0808311828FEF8283838314826081B7
:101040007181828193810C9404088091C70280FF92
:1010500002C08695089580E008958091CB02833088
:1010600018F48F5F8093CB026091C7027091C80221
:101070008091C9029091CA020C9404088091CB021D
:10108000882319F081508093CB026091C702709140
:10109000C8028091C9029091CA020C94040870E0C1
:1010A0000C945E0F609103018091C70280FF0AC01B
:1010B0008091020123E0829FC001112484539D4F3F
:1010C0000C944F088091040190910501891780F7D5
:1010D000E82FF0E09F01220F331FE20FF31FE453CC
:1010E000FD4F1182108212828F5FF0CF9091C70264
:1010F00090FF16C09091040120910501921770F4A1
:10110000E92FF0E0DF01AA0FBB1FEA0FFB1FE4533A
:10111000FD4F8183608342839F5FF0CF0C94520820
:101120000895CF93DF9300D01F92CDB7DEB7909193
:10113000C70290FF0AC09E012F5F3F4F0E94DF074A
:101140004B8169818A810E9476080F900F900F90E1
:10115000DF91CF910895CF93DF93EC01EC81F0E024
:10116000EE59FD4F4491E7ECF2E0628181810E94EB
:1011700091088C818F5F8C83DF91CF910895CF93FD
:10118000DF93EC01E7ECF2E0438162818C810E9405
:1011900091088C818F5F8C83DF91CF9108950F939D
:1011A0001F93CF93DF9300D01F92CDB7DEB78C0192
:1011B0008091C50181110AC09E012F5F3F4F4FEF03
:1011C0006FEF0E94DF078A818093C501F801848157
:1011D000813051F028F0823061F44091C5010AC09D
:1011E0008091C50140E007C06091C50140E080E00A
:1011F00003C040E080E060E00E947608F80184814E
:1012000090E0019663E070E00E94112B84830F90C0
:101210000F900F90DF91CF911F910F910895AF9292
:10122000BF92CF92DF92EF92FF920F931F93CF93D3
:10123000DF9300D01F92CDB7DEB7182FF62E042F04
:10124000E22E9091C70290FF6DC0E92FE695AE2F78
:10125000B0E0A459BE4F8C918093CF019E7F923015
:1012600061F49E012F5F3F4F812F0E94DF074B816A
:1012700069818A810E94760843C0823019F4009106
:10128000CA023EC0863019F41091C80239C08930B4
:10129000D9F38931A9F5E9518E2F8170D82EE695C1
:1012A000F0E0EE59FC4FA590B490C12CBB246091A6
:1012B0000601C61618F52C2D30E0A29EC001A39E93
:1012C000900DB29E900D112470E00E94FD2A812F96
:1012D000D11002C0860F01C0861B90910401290F16
:1012E000311DA901440F551F240F351F24533D4FB5
:1012F000402F6F2D0E94DF07C394D9CF0E94520860
:101300001093C802F092C9020093CA02EE2051F075
:101310006091C7027091C8028091C9029091CA027F
:101320000E9404080F900F900F90DF91CF911F91B2
:101330000F91FF90EF90DF90CF90BF90AF90089506
:10134000E7ECF2E09181282F4381628188E0890FE8
:101350000C940F0981E00C94A009E7ECF2E0918174
:10136000282F4381628188EF890F0C940F0981E057
:101370000C94AD09E7ECF2E0628128E0620F08F41A
:101380006FEF282F438181810C940F0981E00C9429
:10139000BA09E7ECF2E0628128E0621B08F460E041
:1013A000282F438181810C940F0981E00C94C90995
:1013B000E7ECF2E0438128E0420F08F44FEF282FDA
:1013C000628181810C940F0981E00C94D809E7ECCB
:1013D000F2E0438128E0421B08F440E0282F6281BC
:1013E00081810C940F0981E00C94E70920E00C94B2
:1013F0000F09FF920F931F93CF93DF93EC01F12C12
:101400000FEF10E060910601F616F0F480910401F0
:101410002F2D30E0280F311DC901880F991F280F8B
:10142000391F24533D4F70E0C8010E94112B962FA5
:101430008C814091CA026091C902F99E800D1124ED
:101440000E94DF07F394DECF0E9452089A818C81BC
:1014500090FF02C08F5F01C081508C83DF91CF91DC
:101460001F910F91FF900895BF92CF92DF92EF925C
:10147000FF920F931F93CF93DF93FC01828180FF34
:1014800002C00FEF01C001E010E0809106011817C3
:1014900008F040C080910401C12ED12CE601C80F94
:1014A000D11DCE01880F991FC80FD91FC453DD4F1E
:1014B000198218821A8234E0E32EF12CB12C80912B
:1014C000C7018B0D813114F08F7005C087FF03C0F9
:1014D00090910601890F082E000C990BC816D906A9
:1014E00091F48091CA028E9DA0018F9D500D112410
:1014F00055954795559547959E016091C9028091F4
:10150000C8020E94DF07B00EF1E0EF1AF108B9F649
:101510001F5FBBCF0E9452088091C701013031F498
:10152000811102C080910601815007C090E00196B0
:101530006091060170E00E94112B8093C701DF913A
:10154000CF911F910F91FF90EF90DF90CF90BF90C0
:101550000895CF938091040190910501891770F44B
:10156000E82FF0E09F01220F331FE20FF31FE45337
:10157000FD4F1182108212828F5FF0CFC0E0609128
:101580000601C617C0F5EC2FF0E070E0CF010E9415
:10159000112B20910401820F2091C601022E000C14
:1015A000330B90E0E217F307CCF020910101022EFB
:1015B000000C330B2E173F078CF09C01220F331FBA
:1015C000820F931F9C0124533D4F4091CA026091AA
:1015D000C9028091C8020E94DF070BC0FC01EE0F18
:1015E000FF1F8E0F9F1FFC01E453FD4F11821082DD
:1015F0001282CF5FC4CF0E945208209100018091D7
:10160000C601820F8093C60190910101920F9093C1
:10161000010119165CF4082E000C990B409106018B
:1016200050E041505109841795071CF021952093F3
:101630000001CF9108950F931F93CF93DF938C01F7
:10164000FC0184819581019681709927958384831B
:10165000C0E0D5E580910601C81700F5809104012E
:101660002C2F30E0280F311DC901880F991F280F3A
:10167000391F24533D4F4C2F4695F80184819581A5
:10168000840F911D81704091CA026091C9028D9FA3
:10169000802D11240E94DF07CF5FDCCFDF91CF9137
:1016A0001F910F910C9452080F931F93CF93DF93C8
:1016B000EC0100E010E080910601282F30E00217D5
:1016C000130724F5909104019801290F311DA901F8
:1016D000440F551F240F351F24533D4F869590E02E
:1016E0004C81081719071CF4442331F002C0411142
:1016F00003C04091CA0201C040E06091C9028091DC
:10170000C8020E94DF070F5F1F4FD5CF0E9452080B
:101710008C8190E00196817099278C83DF91CF9125
:101720001F910F910895E7ECF2E080818E7F808316
:1017300060817181828193810E9404081092D0019E
:101740002FEF80E792E0215080409040E1F700C009
:1017500000000C945208E7ECF2E080818E7F8083D9
:101760001092D0012FEF80E792E02150804090400E
:10177000E1F700C000000C9452086091C702669522
:1017800070E04BE050E087E091E00E94672B892BEE
:1017900019F481E08093D0010E94601F9093C901E9
:1017A0008093C80108959091C70290FF35C0917051
:1017B000811102C0926006C0853210F0986402C0A8
:1017C000880F982B9093C702662351F06091C7024F
:1017D0007091C8028091C9029091CA020E940408C7
:1017E0006091C702669570E04BE050E087E091E0C1
:1017F0000E94672B892B19F01092D00102C00E9421
:10180000BD0B81E08093CB014091CA026091C90277
:101810008091C8020C94F6090895682F9091C70230
:10182000969581E0890F853208F081E00C94D30B06
:1018300081E00C940D0C682F9091C70296958FEF64
:10184000890F09F484E20C94D30B81E00C941B0CF7
:1018500061E00C94D30BE7ECF2E08081816080833F
:1018600086950C94280C8091C70280FD0C94930BF4
:101870000C942B0C60E00C94D30B8091CE01811161
:101880002EC00E943F1D811104C00E94F21D0E94C3
:1018900016080E9400086093C7027093C8028093E4
:1018A000C9029093CA026E7F61F40E9416080E94DA
:1018B00000086093C7027093C8028093C902909396
:1018C000CA020E94ED071092D0018091C70280FFEA
:1018D00003C086950E943A0C81E08093CE01089562
:1018E000E7ECF2E080818160808386950C943A0C6D
:1018F0001092D00108950F931F93CF93DF9380919F
:10190000D001882309F48CC08091CF01E091C702F7
:10191000E695E81BE093CA01823049F4F0E0E25A10
:10192000FD4FE491CE2FD0E00BEA18E049C086309D
:1019300049F4F0E0E55AFD4FE491CE2FD0E00FEBF3
:1019400018E03EC0893051F4E695F0E0E85AFD4FCA
:10195000E491CE2FD0E009EF19E032C08F3051F47E
:10196000E695F0E0EB5AFD4FE491CE2FD0E004E392
:101970001AE026C0853149F4F0E0EE5AFD4FE491BB
:10198000CE2FD0E009EA1AE01BC0883181F0833203
:1019900039F4E0E5F2E0C591D4910FEC18E010C005
:1019A000843251F4C4EFD1E004E51BE009C0C8EE75
:1019B000D3E00BE11BE004C0C0EDD7E00EED17E073
:1019C0008091CB01882389F01092CB010E94601F87
:1019D0009E0120953095820F931F9093C9018093AB
:1019E000C8011092CD011092CC018091C801909154
:1019F000C9010E946C1F8C179D0790F0E091C801EF
:101A0000F091C901CE0FDF1FD093C901C093C80167
:101A100088EC91E0F801DF91CF911F910F9109942B
:101A2000DF91CF911F910F910895882311F0FA0152
:101A300001C0FB010994CF93DF93C82FD62F0E94DA
:101A400025088C1740F00E9425088D1720F4DF919F
:101A5000CF910C94180C8C2FDF91CF910C94280C03
:101A60000F931F93CF93FB01C281CC2309F463C072
:101A70008C010E948E1C8272F801E25CFC45E4310C
:101A8000F10508F059C0EA5AFF4F0C94472B0E9409
:101A9000330C06C045E25CE068E17CE00E94150D75
:101AA000C0E04AC048E15CE065E27CE0F7CF47EB8C
:101AB00059E06AEA79E0F2CF4AEA59E067EB79E067
:101AC000EDCF45ED59E066EC79E0E8CF46EC59E022
:101AD00065ED79E0E3CF43EF59E064EE79E0DECFE6
:101AE00044EE59E063EF79E0D9CF4EE358E06DE280
:101AF00078E0D4CF4DE258E06EE378E0CFCF81E0DC
:101B000017C065E082E010C068E086E00DC06EE0BE
:101B100089E00AC064E18FE007C067E185E104C0A5
:101B200088E106C062E289E10E941B0DB9CF83E221
:101B30000E94280CB5CFC1E08C2FCF911F910F913F
:101B400008950E943F1D811102C00E94F21D0E9453
:101B50007A1D8093FC02282F26952695269530E045
:101B60002630310524F0877088628093FC028091D2
:101B7000FC0280FF04C086958695869501C080E0B2
:101B80000C94B00E2091FC02822F86958695869546
:101B9000482F50E04530510554F48F5F982F990F2E
:101BA000990F990F822F8770892B8093FC02809167
:101BB000FC0281608093FC020E947E1D8091FC02E9
:101BC0008695869586950C94B00E8091FC02982F90
:101BD000969596959695A1F0915E990F990F990F0C
:101BE0008770892B8093FC02887F91E009F490E054
:101BF0008091FC0290FB80F98093FC020E947E1D84
:101C00008091FC028695869586950C94B00E809105
:101C1000FC0280FD13C081608093FC02813019F4C6
:101C200089E08093FC028091FC020E947E1D8091DD
:101C3000FC028695869586950C94B00E0895809149
:101C4000FC0280FF08C08E7F8093FC020E947E1DF4
:101C500080E00C94B00E08958091FC0280FD0C94FD
:101C60001F0E0C94070E9091FC02892F8695869585
:101C700086958F5F8F719770863038F4880F880F44
:101C8000880F892B8093FC0202C09093FC02809104
:101C9000FC02887F91E009F490E08091FC0290FBC7
:101CA00080F98093FC020E947E1D8091FC02869543
:101CB000869586950C94B00E863008F085E090915C
:101CC000FC029770282F220F220F220F922B909345
:101CD000FC02987F21E009F420E09091FC0220FBB7
:101CE00090F99093FC020C94B00E0E945C0E8091CF
:101CF000FC020C947E1D9C01FB018281882349F12A
:101D00002D3BFCE53F07C9F040F42B3BECE53E07DB
:101D100069F02C3B3C4561F008952F3B9CE5390769
:101D200091F070F0203C3C4589F0089585E001C0B9
:101D300080E00E94750E80E008950E94E50DFBCFC3
:101D40000E94C20DF8CF0E942C0EF5CF0E94330ED8
:101D5000F2CF81E00895269A2E9808952E9808953E
:101D6000CF92DF92EF92FF92CF93C82F863050F43C
:101D7000811109C0809180008F7D809380000E9436
:101D8000AE0E06C0C5E08091800080628093800026
:101D90002C2F30E0AFEFBFEF0E944D2B25E030E05D
:101DA00040E050E00E94252BC9012C3764E1360742
:101DB00028F469E070E00E94FD2A29C0DA01C90117
:101DC0008A50974DAF4FBF4F6627782F892F9A2F94
:101DD00025EF38E241E050E00E94252B69017A01AD
:101DE000CA01B9010E94ED2A9B01AC01C701B601ED
:101DF0000E94ED2ABB27A92F982F872F009721E05B
:101E0000A207B10511F0BC0102C06FEF7FEF709324
:101E10008B0060938A00CF91FF90EF90DF90CF907E
:101E2000089508950E94AB0E82E28093800089E1BC
:101E3000809381008FEF9FEF9093870080938600BF
:101E40000C94A10D5DB1E42FEF7021E030E001C0F2
:101E5000220FEA95EAF7352F322B3DB942954F70A4
:101E6000E42FF0E032A1422F4095342342A1242BED
:101E70004FB7F894FC01CB01880F991F680F791FA9
:101E80006E0F7F1FE617F70789F0819198E02EB952
:101E9000000000C087FF3EB9880F000000C000C0EE
:101EA00000C03EB900C09A9591F7ECCF4FBF87ECC8
:101EB00090E00197F1F700C00000089542EC0C9407
:101EC000220F0F931F93CF93DF93C62FD42F122F80
:101ED000FC0182818823C9F06093D3010E94601FB6
:101EE0009093D2018093D10180E28C0F883008F06A
:101EF00057C0C77081E001C0880FCA95EAF7DF912B
:101F0000CF911F910F910C940A148091D301681303
:101F100030C08091D1019091D2010E946C1F883C09
:101F2000910538F500E20D0FCD17B9F080E28C0F66
:101F3000883040F4C77081E001C0880FCA95EAF785
:101F40000E941114083028F581E09D2F977001C080
:101F5000880F9A95EAF70E940A14812F0E94F713BE
:101F60000830F0F4D77081E001C0880FDA95EAF705
:101F70000AC080E28C0F883098F4C77081E001C0FD
:101F8000880FCA95EAF7DF91CF911F910F910C94BA
:101F90001114812FDF91CF911F910F910C94F713A2
:101FA000DF91CF911F910F9108959C01CB01233FA9
:101FB0004CE53407F9F078F4283DFCE53F07B9F02B
:101FC000293D4CE5340711F1273D3C4531F526E22A
:101FD00041EE61EE1EC0253FFCE53F0799F070F031
:101FE000263F3C45D1F427E245EE66EE12C027E2DB
:101FF00045EE0EC026E241EE60EE0BC027E245EE54
:1020000064EE07C026E241EE62EE03C028E241E042
:1020100065EE0E94610F80E00895FC0182818823B3
:1020200019F01092D301089581E00895CF93DF93C2
:10203000EC01FB018281882309F41FC1C230FCE559
:10204000DF0708F41BC1C6319CE5D90738F09E01B3
:102050002A5F3C452930310508F010C10E945C1D03
:102060009093040380930303C031ECE5DE0709F489
:10207000C3C008F041C0C8308CE5D80709F49AC045
:10208000F0F4C430ECE5DE0709F487C068F4C23030
:102090008CE5D80709F477C0C330DC4509F0E3C00C
:1020A00080910303826076C0C630ECE5DE0709F458
:1020B0006EC008F07BC08091030388606BC0CC3099
:1020C0008CE5D80709F485C068F4CA30ECE5DE0772
:1020D00009F474C008F079C00E94C216809103030D
:1020E000806858C0CE308CE5D80709F476C008F077
:1020F0007FC0809103038BC0CB3FECE5DE0709F482
:102100004FC018F5C3318CE5D80709F47DC078F4C9
:10211000C131ECE5DE0709F473C0C231DC4509F0DA
:10212000A2C00E94C216809103038F7733C0C531CD
:102130008CE5D80709F472C008F486C0CA3FDC45B4
:1021400009F091C0809104033EC0CF3FFCE5DF075A
:1021500009F45FC058F4CD3F9CE5D90709F444C0A9
:1021600008F43FC08091040382602DC0C130FDE5BA
:10217000DF0709F475C008F45DC0C230DD4509F021
:1021800072C080E06EC080910303816003C08091C3
:10219000030380618093030366C08091030311C031
:1021A000809104038260809304035DC080910303E7
:1021B0008062F0CF809103038064ECCF80910303B1
:1021C00088608460E7CF8160EECF809103038E7FCB
:1021D000E1CF809103038D7FDDCF80910303877F63
:1021E000D9CF8091040318C0809104038D7FDBCF89
:1021F000809103038F7ECECF809103038F7DCACF62
:10220000809103038F7BC6CF80910303877F8B7FF1
:10221000C1CF809104038D7F8E7FC5CF8091030352
:1022200082FB222720F991E0922790FB82F990FB14
:1022300083F9B0CF80910403982F909591708E7F91
:10224000892B90FB81F9AFCF0E94C21680910303C6
:1022500087FB222720F991E0922790FB87F99ACFFC
:1022600081E00E94F41D80910303909104030E9479
:102270006D1D0E94C21680E001C081E0DF91CF9108
:102280000895CF93DF9386319C4541F5EB010E9481
:102290008E1C982F8A81209112013091130188237E
:1022A00079F09A7A81E009F480E08093D401911169
:1022B00002C069E201C065E3C9010E948F1E0AC025
:1022C0008091D401811102C069E201C065E3C901B6
:1022D0000E949A1E0E94DC1C80E001C081E0DF9118
:1022E000CF9108959093DA018093D9010895E091F8
:1022F000D901F091DA01309721F00190F081E02DC1
:10230000099480E00895E091D901F091DA013097C5
:1023100099F020912601222359F02091030327FFF1
:1023200007C0DC012C9111962C93119725E02C937A
:102330000280F381E02D09940895E091D901F09194
:10234000DA01309739F022E0DC012C930480F5812A
:10235000E02D099408952091D7013091D8012817D4
:10236000390771F09093D8018093D701E091D9019A
:10237000F091DA01309721F00680F781E02D099481
:1023800008952091D5013091D6012817390771F0B1
:102390009093D6018093D501E091D901F091DA01B3
:1023A000309721F00084F185E02D0994089585B7D8
:1023B000806885BF85B7806885BF089508950C94AF
:1023C000DE110C94DF110C94DE110C94DE110E94CE
:1023D000D7110E94E3110C94E11181E008950C944F
:1023E000ED110E94571F0E9429060E9411200E9491
:1023F000A10D0E943D0C0C94E5117F928F929F924B
:10240000AF92BF92CF92DF92EF92FF920F931F9302
:10241000CF93DF93CDB7DEB72A970FB6F894DEBF20
:102420000FBECDBF0E947B060E94EF11811111C02B
:102430008FEF89838A831B820E94601F8160782FBF
:102440009D838C8349815A816B818D810E94B11259
:102450004FC04CEDA42E41E0B42E00E010E0702EF1
:10246000802F0E9416066C01F501819091905F010A
:10247000882699268114910431F40F5F1F4F05308F
:10248000110569F7D5CF80917E0281FD0E941F065C
:1024900080E0EE24E394F12C94012E213F21232BA4
:1024A00009F18E837F82CE20DF2081E0CD2809F4E0
:1024B00080E088870E94601F8160782F9A878987D3
:1024C0004E815F8168858A850E94B112000F111FBD
:1024D000F801E452FE4F80819181E826F926F182CD
:1024E000E08206C08F5FEE0CFF1C8F30A9F6C5CFCF
:1024F0000E947B0C0E94110F0E94C5220E9477113E
:102500009091DB018917C9F00E9477118093DB015C
:102510002A960FB6F894DEBF0FBECDBFDF91CF91E4
:102520001F910F91FF90EF90DF90CF90BF90AF90F1
:102530009F908F907F900C94A6032A960FB6F894E4
:10254000DEBF0FBECDBFDF91CF911F910F91FF90E6
:10255000EF90DF90CF90BF90AF909F908F907F9043
:102560000895CF93DF93CDB7DEB72B970FB6F894CE
:10257000DEBF0FBECDBF4F83588769877A878B87B1
:10258000DE01119686E0FD0111928A95E9F785E05A
:10259000FE01379601900D928A95E1F749815A81A3
:1025A0006B817C818D819E810E947B192B960FB659
:1025B000F894DEBF0FBECDBFDF91CF910895FC012F
:1025C000808191810E944F1C0895CF93882309F444
:1025D000A4C0C82F8238C1F40E94771181FD9DC02C
:1025E00069E380911201909113010E948F1E0E9455
:1025F000DC1C2FEF81EE94E0215080409040E1F709
:1026000000C0000069E319C0833801F50E9477110A
:1026100080FD83C063E580911201909113010E94B7
:102620008F1E0E94DC1C2FEF81EE94E02150804031
:102630009040E1F700C0000063E5809112019091A5
:1026400013010E949A1ECF910C94DC1C8438C1F4B3
:102650000E94771182FD61C067E480911201909120
:1026600013010E948F1E0E94DC1C2FEF81EE94E06C
:10267000215080409040E1F700C0000067E4DDCFCA
:102680008CEF8C0F813AD0F46C2F809112019091D5
:1026900013010E940F1E882349F06C2F80911201B4
:1026A000909113010E949A1E0E94DC1C6C2F809155
:1026B0001201909113010E948F1EC5CF80E28C0FF2
:1026C000883048F4C77081E001C0880FCA95EAF7E6
:1026D0000E94911CB8CFEBE5EC0FE33040F4F0E042
:1026E000E154FE4F808190E0CF910C94AB11E8E56E
:1026F000EC0FE73150F4F0E0EE0FFF1FEF56FE4F06
:1027000080819181CF910C94C111C03F30F08C2F0A
:102710000E94CD21CF910C94BA22CF9108958823A5
:1027200009F464C0823879F40E94771181FF5EC099
:1027300069E380911201909113010E948F1E0E9403
:10274000DC1C69E310C08338B1F40E94771180FF6C
:102750004DC063E580911201909113010E948F1E7C
:102760000E94DC1C63E580911201909113010E948C
:102770009A1E0C94DC1C843879F40E94771182FF35
:1027800035C067E480911201909113010E948F1E61
:102790000E94DC1C67E4E7CF9CEF980F913A10F49D
:1027A000682FE1CF90E2980F983050F4877091E055
:1027B00001C0990F8A95EAF7892F0E94971CD9CFFB
:1027C0009BE5980F933020F480E090E00C94AB11DF
:1027D00098E5980F973120F480E090E00C94C111B7
:1027E000803F20F00E9435220C94BA220895CF93A6
:1027F000C82F0E94E512C93349F42FEF87EE93E00A
:10280000215080409040E1F700C000008C2FCF9114
:102810000C948F13882321F00E94911C0C94DC1CD3
:102820000895882321F00E94971C0C94DC1C0895C5
:10283000CF92DF92EF92FF920F931F93CF93DF938C
:102840007C01062FC72FFC01158112951F70D281C4
:10285000D1110E94AE1C0E94871C882379F0DD23D1
:1028600069F080E2800F883048F082E00E94261DE7
:102870000E94871C91E0D82ED92601C0D12CCC2EE5
:10288000C2948FE0C8228C2D90E0FC01E659FF4FE6
:102890000C94472B8C2F807FCF70882311F0C2952A
:1028A000C07FDD2399F0CC2309F4C4C180E2800FFE
:1028B000883010F0011104C08C2F0E94911C03C0BD
:1028C0008C2F0E94A11C0E94DC1CB4C1802F0E948E
:1028D0008F13CC2309F4D3C180E2800F883010F02D
:1028E000011104C08C2F0E94971C03C08C2F0E94E2
:1028F000A71C0E94DC1CC3C18C2F807FCF7080324C
:1029000011F0C295C07F002319F00130C9F022C038
:10291000DD2371F0112341F0113031F40E94C11C0C
:102920008C2B0E94C91CABC10E94C11C8C2B1DC0EA
:10293000112319F0113009F4A2C10E94D21C25C044
:10294000DD2321F0163008F09AC10EC0153008F0D2
:1029500096C11BC0DD2361F0112331F0F7018581A1
:1029600080FF68C18F7085838C2F0E940A1487C1F5
:10297000112359F0093309F06EC1FFEF27EE83E010
:10298000F15020408040E1F764C18C2F0E94111467
:1029900076C18C2F86958695837019F0813061F011
:1029A0006EC1DD2321F0802F9C2F937002C080E048
:1029B00090E00E94AB116BC1DD2321F0802F9C2F92
:1029C000937002C080E090E00E94C11160C1DD23DD
:1029D000F9F0053F51F0063F71F0043FA9F48091F2
:1029E000FD029091FE0281600BC08091FD029091EA
:1029F000FE02826005C08091FD029091FE0284601B
:102A00009093FE028093FD02802F0E94CD211EC074
:102A1000053F51F0063F71F0043FA9F48091FD029B
:102A20009091FE028E7F0BC08091FD029091FE027C
:102A30008D7F05C08091FD029091FE028B7F909367
:102A4000FE028093FD02802F0E9435220E94BA224E
:102A50001EC18C2F837009F045C0D11114C1402FC5
:102A6000429546954770440F440F602F6F70862F34
:102A700090E0A0E0B0E0042E04C0880F991FAA1FC8
:102A8000BB1F0A94D2F704FF10C00FE010E020E053
:102A900030E004C0000F111F221F331F4A95D2F7E8
:102AA000009510952095309503C000E010E0980146
:102AB000C695C695C370BC01CD01602B712B822BCE
:102AC000932BC23049F058F4C13019F00E94CC1A4F
:102AD000DAC00E94BA1AD7C00E94DE1AD4C00E947F
:102AE000B81AD1C0DD2319F08C2F817001C08695F2
:102AF000882309F4C8C0402F429546954770440F7B
:102B0000440F602F6F70862F90E0A0E0B0E0042E9D
:102B100004C0880F991FAA1FBB1F0A94D2F704FF95
:102B200010C00FE010E020E030E004C0000F111FE3
:102B3000221F331F4A95D2F70095109520953095A6
:102B400003C000E010E09801C695C695C370BC01B3
:102B5000CD01602B712B822B932BC23049F058F49E
:102B6000C13019F00E94911B8EC00E947F1B8BC048
:102B70000E94A31B88C00E94F21A85C0CF70DD237B
:102B800039F08C2F0E94181B802F0E940A147BC0E2
:102B9000802F0E9411148C2F0E94391B74C0023F99
:102BA00001F128F4003F41F0013FA1F03FC0033F95
:102BB000F9F0043F39F13AC0DD2341F0153008F057
:102BC0005EC08C2F8F710E945E1B59C0163008F0BA
:102BD00056C0F7CFDD2339F08C2F8F710E94181B60
:102BE0004EC0DD23C9F38C2F8F710E94391B47C063
:102BF000DD2329F08C2F8F710E94031B40C00E949F
:102C0000FE1A3DC0DD2349F0CF718C2F0E94181BA6
:102C100063E08C2F0E94111D32C081E00E94261DAE
:102C2000123068F182E00E94261D29C0DD2331F0B8
:102C3000112391F2802F0E94E51221C0112399F2F5
:102C4000093349F49FEFE7EEF3E09150E040F040A4
:102C5000E1F700C00000802F0E948F1310C04C2F9E
:102C60004F70602FC7010E9408040E94291A0FC0EC
:102C70004C2F4F70602FC7010E940B0408C088EFD3
:102C80008C0D843020F40E9477110E94A603DD2071
:102C9000C9F00E94831C80FD15C0F70112820E94BA
:102CA0007D1C0E94181BC7010E9483160E947D1C78
:102CB000DF91CF911F910F91FF90EF90DF90CF9018
:102CC0000C94391BDF91CF911F910F91FF90EF90E2
:102CD000DF90CF9008950F931F93CF93DF93EC0174
:102CE000688179818A810E945A1C8C010E94B51BDF
:102CF0000E94A61AB801CE010E941814DF91CF914C
:102D00001F910F910895CF93DF93FC0190818181F2
:102D100023813481232B31F08F3F31F481E09F3FB9
:102D200019F403C081E001C080E080FD0EC0EF0116
:102D3000CF010E94BF03882341F0CE010E946B1691
:102D4000CE01DF91CF910C948A03DF91CF9108954A
:102D50000E94AE1C0E94BE1C0E94DC1C0E94E42348
:102D60000E94BA2280E090E00E94AB1180E090E0E7
:102D70000C94C11180911201909113010E94A51E23
:102D80000C94A8160E949E1C0C94BA16E92FE2958A
:102D9000EF704E2F50E0FA013297EE30F105B0F4AB
:102DA000E658FF4F0C94472B803F91F018F4883E73
:102DB00068F40EC0843F51F40BC0883E48F0813F58
:102DC00029F406C093FB882780F9089580E00895D0
:102DD00081E008950E944F1C0E94C6160895CF936B
:102DE000DF9300D000D01F92CDB7DEB70F900F90C9
:102DF0000F900F900F90DF91CF910895CF93DF93B5
:102E000000D000D000D0CDB7DEB726960FB6F8942C
:102E1000DEBF0FBECDBFDF91CF9108951F93CF933B
:102E2000DF93C091E70116E08091E801C81799F09F
:102E3000D0E01C9FF0011D9FF00D1124E751FE4FC3
:102E40004081518162817381848195810E94FE1647
:102E50002196C770E9CFDF91CF911F9108954091DE
:102E6000190250911A0260911B0270911C0280910C
:102E70001D0290911E020C94FE160F931F93CF9388
:102E8000DF9380911E0282958F7009F05DC0809162
:102E90001B02882309F458C08091E7011091E801D2
:102EA0006091190270911A02C0911C02D0911D020A
:102EB00091E06F3F09F090E0292F06E0811709F4B7
:102EC00043C0209721F07F3F21F030E003C031E084
:102ED00001C0322F90E030FD34C0089FF001099FFF
:102EE000F00D1124DF01A751BE4F11963C911197AF
:102EF000371327C03C91361324C012963C91129789
:102F000031111FC013964D915C9114974C1B5D0BB2
:102F1000483C5105B0F480911E028F70806180930F
:102F20001E02E251FE4F80818F708061808389E1B3
:102F300092E00E948316DF91CF911F910F910C9424
:102F40000E1701968770BACFDF91CF911F910F9125
:102F500008959F92AF92BF92CF92DF92EF92FF922D
:102F60000F931F93CF93DF93CDB7DEB761970FB663
:102F7000F894DEBF0FBECDBF8C0185E0F801DE0105
:102F80001D9601900D928A95E1F7F80140815181DB
:102F9000E2809091190260911A0220911C023091F6
:102FA0001D022115310531F06F3F31F481E09F3F63
:102FB00019F403C081E001C080E0F82FF1709F2E6A
:102FC00080FD46C1F801A380B48089E1C82E82E06B
:102FD000D82EF0901B02F501E21BF30BFF2009F441
:102FE000DFC080911E02E83CF10508F09BC0282F4D
:102FF000207F09F052C0561313C0491311C0FE2C94
:10300000E1100EC08F70806180931E020E942F1706
:10301000C6010E94831680911E02F801858358C163
:10302000AB2831F05F3F31F481E04F3F19F403C02A
:1030300081E001C080E080FD03C081E08E2502C0F8
:1030400080E090E0F82FF170FF2E80FF1CC080918F
:10305000E7012091E80136E0821709F417C190E0FA
:10306000389FF001399FF00D1124E751FE4F618127
:10307000561306C06081461303C06281E61203C086
:1030800001968770E9CFFE2CEE2009F421C18091D2
:103090001E02816080931E025AC0561306C0491357
:1030A00004C0E11002C0F8019FC04D875E878D8586
:1030B0009E850E94EA16882379F1EE2069F120911D
:1030C0001E02822F82958F7090E0029774F080919B
:1030D000190290911A0298878F831986BB86AA8657
:1030E0002C87CE0107960E94831686E0F801A9E19D
:1030F000B2E001900D928A95E1F70E943D170E947F
:103100002F170DC0561729F14D875E878D859E8537
:103110000E94EA1681112CC0C8010E948316FF2468
:10312000F394D6C0282F207F69F77A2DB98AA88A10
:103130006E2D89890E94EF1689E192E00E94831624
:1031400086E0F60111928A95E9F70E942F17F12C7B
:10315000BFC04913D9CFE110D7CFF8018583C8018B
:103160000E94831686E0F60111928A95E9F7B0C0B5
:10317000EE2091F220911E02822F82958F7090E0B6
:1031800002970CF4B2CF8091190290911A029A839F
:1031900089831B82BD82AC822E83CE010196A3CF90
:1031A000E83CF10508F047C0FE2CEE2009F4B4CF4E
:1031B000561330C049132EC020911E0220FD21C09D
:1031C000822F82958F70482F50E041155105C9F02C
:1031D000F80125834F30510541F08F5F982F92956C
:1031E000907F822F8F70892B8583C8010E94831660
:1031F00086E0F801A9E1B2E001900D928A95E1F72D
:1032000042C086E0F801A9E1B2E001900D928A95F2
:10321000E1F75EC04D875E878D859E850E94EA1628
:10322000811163CF80911E02816080931E02C801CC
:103230000E9483164DC07A2DB98AA88A6E2D89897D
:103240000E94EF1686E0F60111928A95E9F71BC0FD
:10325000EE2009F461CF4D875E878D859E850E94A3
:10326000EA16F82E882309F457CF86E0F801A9E181
:10327000B2E001900D928A95E1F789E192E00E9417
:10328000DF120E943D170E942F1722C04D875E87D4
:103290008D859E850E944F1C292F22952F702230EC
:1032A00028F49F7039F0811105C00BC0243028F438
:1032B0009F7049F4805E883020F0C8010E94831618
:1032C0009F2CF92C05C0F8019581907F99F7F9CFD3
:1032D0008F2D61960FB6F894DEBF0FBECDBFDF9184
:1032E000CF911F910F91FF90EF90DF90CF90BF9003
:1032F000AF909F9008951F93CF93DF93CDB7DEB724
:103300002C970FB6F894DEBF0FBECDBF4F83588702
:1033100069877A878B879C87CE0107960E94A917B9
:103320008823D1F09F8188852A853B85232B31F026
:103330008F3F31F481E09F3F19F403C081E001C069
:1033400080E080FD47C04F81588569857A858B85EF
:103350009C850E94FE163EC086E0FE013796DE0187
:10336000119601900D928A95E1F7FF81E8856A85B3
:103370007B856115710531F0EF3F31F481E0FF3F4E
:1033800019F403C081E001C080E080FD23C02091DA
:10339000E80130E0C9010196877099274091E70163
:1033A00050E084179507F1F1F983EA837D836C83FC
:1033B00096E0929FD001939FB00D1124A751BE4F6C
:1033C000FE01319601900D929A95E1F78093E80104
:1033D0000E940E1716E08091E7019091E80189178D
:1033E00071F1189FC001112487519E4F0E94A917A7
:1033F000882329F1E091E7011E9FF0011124E75194
:10340000FE4F4081518162817381848195810E9448
:10341000FE168091E70190E00196877099278093CE
:10342000E701D9CF0E94C2161092E8011092E7017D
:10343000E9E1F2E086E0DF011D928A95E9F72C963A
:103440000FB6F894DEBF0FBECDBFDF91CF911F91B5
:103450000895EF92FF920F931F93CF93DF938C0108
:10346000892B09F46CC0F12CEE24E394E801219639
:10347000F8018491843740F4843008F051C08130E1
:1034800081F0823019F15BC0853709F444C0A8F19E
:103490009CE7980F903708F052C08F770E948F13E7
:1034A00041C00E5F1F4FFE01849190E2980F98304B
:1034B00050F48770FE2D01C0FF0F8A95EAF78F2F19
:1034C0000E94B11C14C00E94E5122DC00E5F1F4F58
:1034D000FE01849190E2980F983060F48770FE2D81
:1034E00001C0FF0F8A95EAF78F2F0E94B71C0E9438
:1034F000DC1C19C00E948F1316C00E5F1F4FFE0107
:10350000C491CC2381F08FE99FE00197F1F700C0CF
:103510000000C150F6CF0E5F1F4FFE01F49003C0B4
:103520000E94E5128E018F2D882309F49FCFEFE9C9
:10353000FFE03197F1F700C000008150F5CFDF9137
:10354000CF911F910F91FF90EF90089508950895E6
:103550000C94A71A0C94A81A0E94AA1A60935502F8
:103560007093560280935702909358020C94A816B9
:103570000C94AC1A0F931F930091550210915602B0
:103580002091570230915802602B712B822B932B84
:103590001F910F910C94AC1A0F931F930091550239
:1035A00010915602209157023091580260237123E6
:1035B000822393231F910F910C94AC1A0F931F93A6
:1035C00000915502109156022091570230915802F5
:1035D00060277127822793271F910F910C94AC1AB3
:1035E0000C94A71A0E94F01A609351027093520231
:1035F00080935302909354020C94A81660E070E0FC
:10360000CB010C94F21A0F931F9341E050E060E05D
:1036100070E08A019B0104C0000F111F221F331F9D
:103620008A95D2F7C901B8011F910F910C94F21A33
:103630000F931F9341E050E060E070E004C0440F3E
:10364000551F661F771F8A95D2F78091510290917E
:103650005202A0915302B09154028A019B01082B9F
:10366000192B2A2B3B2BC901B8011F910F910C94E8
:10367000F21A0F931F9341E050E060E070E004C045
:10368000440F551F661F771F8A95D2F740955095B6
:10369000609570958091510290915202A0915302D1
:1036A000B09154028A019B01082319232A233B234A
:1036B000C901B8011F910F910C94F21A0F931F9337
:1036C00041E050E060E070E004C0440F551F661F09
:1036D000771F8A95D2F78091510290915202A09162
:1036E0005302B09154028A019B01082719272A2707
:1036F0003B27C901B8011F910F910C94F21A0F9347
:103700001F93009151021091520220915302309167
:103710005402602B712B822B932B1F910F910C94D1
:10372000F21A0F931F9300915102109152022091AF
:1037300053023091540260237123822393231F91FB
:103740000F910C94F21A0F931F9300915102109154
:103750005202209153023091540260277127822730
:1037600093271F910F910C94F21A08952FE0929FC6
:10377000800D1124E82FE695E695E695877051E0D7
:1037800001C0550F8A95EAF785E0E89FF001112402
:10379000E15EFD4F20E030E070E04081CB01022E81
:1037A00002C0969587950A94E2F7817081958427E7
:1037B0008523842781932F5F3F4F2530310569F79B
:1037C00008952FE0929F800D1124682F66956695CD
:1037D0006695982F977085E0689FB001112440E0AE
:1037E00050E080E0FB01E40FF51FE15EFD4F20811A
:1037F00030E0092E02C0369527950A94E2F7217031
:103800003327042E01C0220F0A94EAF7822B4F5F60
:103810005F4F4530510531F70895BF92CF92DF9247
:10382000EF92FF920F931F93CF93DF938C01C09081
:103830005102D0905202E0905302F09054028091D5
:10384000550290915602A0915702B0915802C82A91
:10385000D92AEA2AFB2ACFE1D0E0D701C6010C2EF3
:1038600004C0B695A795979587950A94D2F780FDE1
:1038700004C0219790F7B12C07C0BC2EB8018C2F43
:103880000E9427040197A9F38B2DDF91CF911F91FF
:103890000F91FF90EF90DF90CF90BF900895CF935E
:1038A000DF93EC010E940D1CBE010E942704DF91F2
:1038B000CF9108951F93CF93DF93EB019091E60191
:1038C000992321F0CB010E944F1C13C0882349F09B
:1038D000CB010E940D1C182F682FCE010E94B61B31
:1038E00004C0CB010E94E11B182FBE01812F0E9452
:1038F0002704DF91CF911F910895809159028595FA
:1039000085958595089580915902877008959091C5
:103910005902977081E009F480E0089580917D025A
:10392000089590917D02892B80937D020895809562
:1039300090917D02892380937D02089510927D02EB
:10394000089590917C02892B80937C020895809544
:1039500090917C02892380937C02089510927C02CE
:10396000089590917B02892B80937B020895809526
:1039700090917B02892380937B02089510927B02B1
:10398000089580915A02089508950C94C41C0C94D3
:10399000C51C90915A02981721F080935A020C94FA
:1039A000C71C089580915A02882329F010925A0268
:1039B00080E00C94C71C0895E0911201F09113016E
:1039C00080917D028083E0911201F091130190813A
:1039D00080917C02892B8083E0911201F091130188
:1039E000908180917B02892B808380915A02882369
:1039F00081F0E0911201F09113019081892B808375
:103A000080911201909113010E94F91D81110E9471
:103A1000D21C80911201909113010C9483110C948B
:103A2000C41C98E0899F90011124262B20935902F1
:103A30000E94181B809159028595859585950C9457
:103A40000F1D1092590280E00C940F1D2091590215
:103A50008095822380935902982F977079F430E0F3
:103A6000482F082E000C550B2417350739F0859583
:103A7000859585950E94391B0C94211D089580E041
:103A800090E00E94822B21E08C3E9E4F09F020E0C6
:103A9000822F089582E090E00C94742B682F82E0CE
:103AA00090E00C94882B83E090E00C94742B682FAA
:103AB00083E090E00C94882BCF9384E090E00E9408
:103AC000742BC82F81E290E00E94742B2C2F30E0E1
:103AD000A901582BCA01CF910895CF93C92F682F00
:103AE00084E090E00E94882B6C2F81E290E0CF91DF
:103AF0000C94882B86E090E00C94742B682F86E061
:103B000090E00C94882BAB01BC018FE090E00C940A
:103B10009A2BAB01BC0183E190E00C949A2B60E0FE
:103B200070E0CB010C94891D60E070E0CB010E9435
:103B3000831D0C948F1D6CEE7EEF80E090E00E9460
:103B4000A62B60E082E090E00E94882B60E083E09A
:103B500090E00E94882B109255021092560210920B
:103B600057021092580260E084E090E00E94882B97
:103B700060E081E290E00E94882B60E085E090E0C8
:103B80000E94882B60E086E090E00E94882B6FEF17
:103B900087E090E00E94882B40E050E0BA0188E086
:103BA00090E00E949A2B60E08DE090E00E94882BCC
:103BB00040E050E0BA0188E190E00E949A2B60E07A
:103BC00087E190E00E94882B40E050E0BA018CE150
:103BD00090E00E949A2B60E080E290E00E94882BA7
:103BE0000C94941D0C949B1D682F8EE090E00C9417
:103BF000882BFC01329680912601882331F0809138
:103C0000030387FF02C09EE101C096E080E091506F
:103C100028F021912223D9F38F5FF9CF08956623ED
:103C200051F1209126012223E9F02091030327FF7F
:103C300019C0462F4695469546954E31E0F467707B
:103C400021E030E002C0220F331F6A95E2F7FC0149
:103C5000E40FF11D828190E02823392381E0232B9A
:103C600069F409C0FC01329608962191621729F087
:103C7000E817F907D1F780E0089581E008959C01E5
:103C8000FC0132969FEF80E04191461789F09F3FFB
:103C900019F4411101C0982F8F5F8630A9F79F3F1B
:103CA00039F0F901E90FF11D97FDFA956283089546
:103CB00008959C012A5F3F4FFC014281461301C0D9
:103CC0001282019682179307B9F70895262F269539
:103CD000269526952E3168F4FC01E20FF11D6770E0
:103CE00021E030E001C0220F6A95EAF78281282B9B
:103CF00022830895262F2695269526952E3170F439
:103D0000FC01E20FF11D677021E030E001C0220FDD
:103D10006A95EAF7209582812823228308952091CD
:103D20002601222329F02091030327FD0C94661E0F
:103D30000C943F1E20912601222329F02091030399
:103D400027FD0C947A1E0C94591E20912601FC012B
:103D50003296222331F08091030387FF02C08EE167
:103D600001C086E0DF011D928A95E9F70895089564
:103D70000C94B71E0C94B71ECF930E94BA1E0E94DB
:103D80007B060E94B81EC0E08C2F0E941606892B6D
:103D900029F4CF5FC530C1F780E001C081E0CF9149
:103DA00008950C94B71E0C94D11E0E94D31E8091CE
:103DB0000903843009F43CC010927F0220E488E1BA
:103DC00090E00FB6F894A895809360000FBE209302
:103DD000600080E00E94B00E80E00E94A6030E9476
:103DE000780C8091800281110AC081E0809380026A
:103DF0008091C7028170809381020E94AB0B0E9468
:103E0000D31E83B7817F846083BF83B7816083BF04
:103E10007894889583B78E7F83BF0FB6F894A89562
:103E200080916000886180936000109260000FBEF6
:103E300008950C94B71E0E94C2160E94A10D0E9404
:103E400077110E94A6031092800280918102811155
:103E50000E94700C0E94BD0B0C94191F1F920F92B0
:103E60000FB60F9211248F939F93AF93BF938091BE
:103E70007F02811113C08091FF0290910003A091F5
:103E80000103B09102034196A11DB11D8093FF0271
:103E900090930003A0930103B0930203BF91AF91ED
:103EA0009F918F910F900FBE0F901F90189582E0F9
:103EB00084BD93E095BD9AEF97BD80936E00089501
:103EC0002FB7F8948091FF0290910003A091010315
:103ED000B09102032FBF08959C014FB7F8948091D1
:103EE000FF0290910003A0910103B09102034FBF24
:103EF000821B930B089578941F920F920FB60F9226
:103F000011248F939F93AF93BF938091FF02909161
:103F10000003A0910103B09102030196A11DB11D00
:103F20008093FF0290930003A0930103B0930203D8
:103F3000BF91AF919F918F910F900FBE0F901F90E7
:103F4000189581E08093E00080E28093D800109281
:103F5000C9008FE19EE40197F1F700C0000087E0FF
:103F600090EBDC018093120390931303A09314034E
:103F7000B09315039CE088E10FB6F894A895809360
:103F800060000FBE90936000FFCFAF92BF92CF92C0
:103F9000DF92EF92FF920F931F93CF93C0E0CC2458
:103FA000C394D12CE82EF12C8C2F0E9416065C01B4
:103FB00000E010E0C601002E02C0880F991F0A948D
:103FC000E2F78A219B21892B31F40F5F1F4F0F30BD
:103FD000110581F70AC0602F7C2F80E00E940C043D
:103FE000E816F90691F781E004C0CF5FC530E1F62D
:103FF00080E0CF911F910F91FF90EF90DF90CF90D5
:10400000BF90AF900895CF93C82F8CE20E94C51F38
:10401000882321F08C2FCF910C94C51F80E0CF9185
:104020000895CF930E943F1D811102C00E94F21D8E
:10403000C5E6C15049F00E947B068FE39CE90197D9
:10404000F1F700C00000F5CF89E20E940320811142
:1040500020C18AE20E94032081110E94F21D85E0A6
:104060000E94032081110E94A11F0E944A1D80937B
:104070007E0287E00E9403208823A9F18BE10E9441
:104080000320882351F080917E0281FB222720F9B2
:1040900091E0922790FB81F90EC08EE00E940320F0
:1040A000882361F080917E0282FB222720F991E033
:1040B000922790FB82F980937E0215C080E10E94D6
:1040C000032090917E02882341F093FB222720F960
:1040D00081E0822780FB93F904C0892F809580FBC3
:1040E00090F990937E0280917E020E944E1D0E9464
:1040F0005C1D909304038093030380EE0E940320D1
:10410000882341F080910303982F909590FB80F9CC
:104110008093030389E30E940320882359F0809150
:10412000030381FB222720F991E0922790FB81F97C
:104130008093030382EE0E940320882359F080912C
:10414000030382FB222720F991E0922790FB82F95A
:104150008093030386EE0E940320882359F0809108
:10416000030383FB222720F991E0922790FB83F938
:104170008093030383EE0E940320882359F08091EB
:10418000030384FB222720F991E0922790FB84F916
:104190008093030385E30E940320882359F08091D4
:1041A000030385FB222720F991E0922790FB85F9F4
:1041B0008093030381E30E940320882359F08091B8
:1041C000030386FB222720F991E0922790FB86F9D2
:1041D0008093030381E10E940320882359F080919A
:1041E000030387FB222720F991E0922790FB87F9B0
:1041F0008093030380910303909104030E946D1D3B
:1042000087E20E940320C82F8EE10E9403208111C3
:10421000C2608FE10E9403208111C46080E20E948D
:1042200003208111C86081E20E9403208111C061D6
:1042300082E20E9403208111C06283E20E94032077
:104240008111C06484E20E940320882311F0C068B9
:1042500002C0CC2329F08C2F0E94571D6C2F03C065
:104260000E94531D682F70E080E090E00E94B81A11
:104270008FE00E940320882319F081E00E94F41D42
:1042800085E10E940320882321F080E0CF910C94E7
:10429000F41DCF9108958091890280FF0BC0609139
:1042A000190185E0689FB001112475956795759592
:1042B00067952BC081FF09C06091190185E0689F57
:1042C000B00111247595679520C082FF07C06091E9
:1042D000190185E0689FB001112417C090918802F0
:1042E0009923D1F060911801961788F72091190150
:1042F00085E0289F90011124929FA001939F500D6B
:10430000112470E0CA010E94112B6038710540F43D
:104310006115710519F406C065E070E0862F0895F7
:104320008FE7089581E008958091890280FF08C099
:104330006091150170E0759567957595679521C039
:1043400081FF06C06091150170E07595679519C0F1
:1043500082FF04C06091150170E010C09091880246
:10436000992399F0609114019617A0F78091150197
:10437000899FC001112470E00E94112B60387105E3
:1043800040F46115710519F406C061E070E0862FF4
:1043900008958FE7089581E00895803F21F40E94F9
:1043A0004B21819504C0813F29F40E944B218093C9
:1043B0008D020895823F21F40E944B21819504C013
:1043C000833F29F40E944B2180938C020895893FFA
:1043D00019F40E94942105C08A3F31F40E9494216F
:1043E000819580938E0208958B3F21F40E94942141
:1043F000819504C08C3F29F40E94942180938F0200
:104400000895843F21F480918B02816017C0853F1D
:1044100021F480918B02826011C0863F21F480914B
:104420008B0284600BC0873F21F480918B028860EF
:1044300005C0883F31F480918B02806180938B02AC
:1044400008958D3F21F48091890281600BC08E3FD9
:1044500021F480918902826005C08F3F29F4809108
:1044600089028460809389020895803F39F48091A5
:104470008D0287FF6CC010928D0269C0813F29F4C4
:1044800080918D021816BCF362C090918C02823F1D
:1044900029F497FF5CC010928C0259C0833F19F435
:1044A0001916CCF354C0893F41F480918E0218163E
:1044B0000CF04DC010928E024AC08A3F29F48091C0
:1044C0008E0287FF44C0F6CF8B3F39F480918F0274
:1044D00087FF3DC010928F023AC08C3F29F4809133
:1044E0008F021816BCF333C0843F21F480918B02F5
:1044F0008E7F17C0853F21F480918B028D7F11C084
:10450000863F21F480918B028B7F0BC0873F21F483
:1045100080918B02877F05C0883F31F480918B02A8
:104520008F7E80938B0213C08D3F21F4809189028E
:104530008E7F0BC08E3F21F4809189028D7F05C054
:104540008F3F29F4809189028B7F8093890280912B
:104550008C0281110EC080918D0281110AC0809160
:104560008E02811106C080918F02811102C01092CB
:10457000880208958AE892E00E949D110E94601FBF
:1045800090938702809386020895CF93DF9300D0A3
:1045900000D000D0CDB7DEB786E0EAE8F2E0DE0179
:1045A000119601900D928A95E1F780918C0281110C
:1045B00005C080918D02882309F47AC0809184021D
:1045C000909185020E946C1FAC0190918802992302
:1045D00039F020911A0130E02417350758F068C0EF
:1045E00020911B018AE0289F900111242417350790
:1045F00018F05EC09F3F19F09F5F90938802109261
:104600008E0210928F0280918C02181624F40E9460
:104610004B2180938C0280918C0287FF05C00E9401
:104620004B21819580938C0280918D02181624F481
:104630000E944B2180938D0280918D0287FF05C0DF
:104640000E944B21819580938D0230918C023323FF
:10465000E1F020918D022223C1F045EB3403C0012B
:104660001124992319F090938C0203C081E0809368
:104670008C0235EB2303C0011124992319F0909388
:104680008D0203C081E080938D020E94BA22809146
:10469000860290918702909385028093840286E03F
:1046A000FE013196AAE8B2E001900D928A95E1F7F9
:1046B00080918E02811105C080918F02882309F4B8
:1046C0007AC080918202909183020E946C1FAC019B
:1046D00090918802992339F02091160130E0241737
:1046E000350758F068C0209117018AE0289F900193
:1046F00011242417350718F05EC09F3F19F09F5F03
:104700009093880210928C0210928D0280918E02FA
:10471000181624F40E94942180938E0280918E02B8
:1047200087FF05C00E949421819580938E0280911D
:104730008F02181624F40E94942180938F02809196
:104740008F0287FF05C00E949421819580938F027C
:1047500030918E023323E1F020918F022223C1F0A9
:1047600045EB3403C0011124992319F090938E0274
:1047700003C081E080938E0235EB2303C001112436
:10478000992319F090938F0203C081E080938F02E8
:104790000E94BA22809186029091870290938302B0
:1047A0008093820286E0FE013196AAE8B2E0019091
:1047B0000D928A95E1F726960FB6F894DEBF0FBEEC
:1047C000CDBFDF91CF910895EAE8F2E086E0DF0106
:1047D0001D928A95E9F71092880210928902089535
:1047E0008091B0020895CF93DF9300D01F92CDB790
:1047F000DEB790910903943019F589837B836A832E
:1048000082E08093E9008FEF9091E800815095FD60
:1048100006C095ED9A95F1F700008111F5CF8091D2
:10482000E80085FF0DC040E050E063E070E0CE019D
:1048300001960E944F268091E8008E778093E800D1
:104840000F900F900F90DF91CF910895CF93DF934A
:10485000EC010E943226823011F0843031F4BE0126
:1048600084E0DF91CF910C94F323DF91CF910895F1
:10487000BC0183E00C94F323CF93DF93EC010E94FF
:104880003226823011F08430F9F482E08093E9001E
:104890008FEF9091E800815095FD06C095ED9A95B7
:1048A000F1F700008111F5CF8091E80085FF0CC081
:1048B00040E050E066E070E0CE010E944F2680911B
:1048C000E8008E778093E800DF91CF910895CF9331
:1048D000DF93EC010E943226823011F08430D9F54A
:1048E00080912601882339F08091030387FF03C05C
:1048F00060E282E002C068E081E08093E9008FEF2F
:104900009091E800815095FD06C095ED9A95F1F7DC
:1049100000008111F5CF8091E80085FF1CC08091D7
:104920002601811105C040E050E068E070E003C05E
:1049300070E040E050E0CE010E944F268091E800F8
:104940008E778093E80080E2FE01A0E9B2E001905A
:104950000D928A95E1F7DF91CF9108958091080338
:10496000811109C00E94E0270E943D288091E20049
:1049700084608093E20008951092080308950895DA
:1049800008950C941B1F42E061EC81E00E945927BE
:1049900042E261EC82E00C94592780910B03833052
:1049A00009F460C030F4813071F0823009F499C0AC
:1049B00008958A3009F485C08B3009F46BC08930C2
:1049C00009F0A7C020C080910A03813A09F0A1C074
:1049D0008091E800877F8093E80080910E0390919A
:1049E0000F03892B21F460E280E992E003C060E0CC
:1049F00080E090E070E00E949A268091E8008B773A
:104A00008093E800089580910A03813209F081C003
:104A100080910E0390910F03029708F07AC0809165
:104A2000E800877F8093E8008091E80082FD05C060
:104A3000809109038111F8CF6CC02091F30080911F
:104A4000F20090E0922B029729F48091F1008B7F85
:104A5000813021F48091F1008093B0028091E800D0
:104A60008B7753C080910A03813A09F052C080913C
:104A70000E0390910F03892B09F04BC08091E80041
:104A8000877F8093E8008091E80080FFFCCF8091D1
:104A9000260136C080910A038132D9F580910E0338
:104AA00090910F03892BA9F58091E800877F80936F
:104AB000E8000E948E2780910C03809326010C94BD
:104AC000C21680910A03813221F58091E800877F28
:104AD0008093E8000E948E2780910D038093B1029D
:104AE000089580910A03813AA1F48091E800877FBC
:104AF0008093E8008091E80080FFFCCF8091B102B4
:104B00008093F1008091E8008E778093E8000C9408
:104B10008E27089584B7877F84BF0FB6F894A89531
:104B200080916000886180936000109260000FBEE9
:104B300090E080E80FB6F894809361009093610054
:104B40000FBE0E94E7110E94E0270E943D2880913D
:104B5000E20084608093E20078940E94D22A0E944E
:104B6000F1118CE191E00E9472118091090385306E
:104B700069F40E94D51E809107038823B1F30E9437
:104B8000BC1E882391F30E943926EFCF0E94FD11AD
:104B9000ECCF0C94CB25292F332723303105C9F0D6
:104BA00060F42130310581F02230310509F04AC02E
:104BB0008BE390E02FE834E049C02132310511F158
:104BC0002232310579F13EC082E190E02AEC34E0F6
:104BD0003DC099278130910561F040F08230910508
:104BE00059F0039779F5E7E6F4E008C0EBE8F4E064
:104BF00005C0E9E7F4E002C0EDE6F4E0849190E05E
:104C00009F0124C06115710541F061307105D1F437
:104C100089E090E02AEB34E019C089E090E021EAD5
:104C200034E014C06115710541F06130710551F433
:104C30008CEB90E02CED34E009C080E490E028E9B2
:104C400035E004C080E090E020E030E0FA013183FC
:104C50002083089580910903843011F081E0089544
:104C600082E008958091B202811102C00C942A263C
:104C7000089580E189BD82E189BD09B400FEFDCFC0
:104C80008091D8008F7D8093D8008091E000826071
:104C90008093E0008091E00081FDFCCF0895CF92E9
:104CA000DF92EF92FF920F931F93CF93DF93EC016C
:104CB0008B017A010E94AD27811133C0E114F10408
:104CC00039F0F70180819181081B190BC80FD91F9A
:104CD000C12CD12C0115110519F18091E80085FD39
:104CE00016C08091E8008E778093E800E114F1040B
:104CF00049F0F70180819181C80ED91ED182C0820E
:104D000085E00FC00E94AD27882321F30AC0899156
:104D10008093F10001501109FFEFCF1ADF0ADACFBB
:104D200080E0DF91CF911F910F91FF90EF90DF9086
:104D3000CF90089520911003309111032617370763
:104D400048F06115710539F42091E8002E77209321
:104D5000E80001C0B901FC0120E06115710579F19D
:104D6000809109038823F1F18530F1F18091E80009
:104D700083FD3CC08091E80082FD2EC08091E80058
:104D800080FFEBCF2091F3008091F20090E0922B16
:104D90006115710551F08830910538F42191209307
:104DA000F100615071090196F3CF21E0089709F0F5
:104DB00020E08091E8008E778093E800CECF21112B
:104DC000CFCF0AC080910903882361F0853061F05C
:104DD0008091E80083FD0AC08091E80082FFF2CF55
:104DE00080E0089582E0089583E0089581E00895C9
:104DF00020911003309111032617370748F06115F1
:104E0000710539F42091E8002E772093E80001C065
:104E1000B901FC0120E06115710591F18091090350
:104E2000882309F440C0853009F43FC08091E80030
:104E300083FD3DC08091E80082FD2FC08091E80095
:104E400080FFE9CF2091F3008091F20090E0922B57
:104E50006115710559F08830910540F42491209333
:104E6000F1003196615071090196F2CF21E0089767
:104E700009F020E08091E8008E778093E800CBCFA6
:104E80002111CCCF0AC080910903882361F08530BD
:104E900061F08091E80083FD0AC08091E80082FF04
:104EA000F2CF80E0089582E0089583E0089581E0E4
:104EB0000895982F973068F59093E900981739F086
:104EC0007091EC002091ED005091F00003C0242F70
:104ED000762F50E021FD02C09F5FECCF3091EB00B8
:104EE0003E7F3093EB003091ED003D7F3093ED003D
:104EF0003091EB0031603093EB007093EC00209325
:104F0000ED005093F0002091EE0027FDE5CF80E00A
:104F100008958F708093E90081E0089580910A03DD
:104F200087FF11C08091E80082FD05C080910903D0
:104F30008111F8CF11C08091E8008B770BC0809170
:104F40000903882349F08091E80080FFF8CF809121
:104F5000E8008E778093E80008952091E400309176
:104F6000E50095E64091EC00842F817040FF23C05E
:104F70008091E80080FD1DC080910903882399F08D
:104F8000853099F08091EB0085FD11C04091E400DF
:104F90005091E5002417350729F3915011F09A013B
:104FA000E1CF84E0089582E0089583E0089581E0F0
:104FB000089580E008954091E80042FFDDCF089514
:104FC0000E944E280E945628E0EEF0E08081816029
:104FD0008083E8EDF0E080818F77808319BCA7EDB6
:104FE000B0E08C918E7F8C9380818F7E8083109235
:104FF000080308950F931F93CF93DF930E944E28C9
:105000000E945628C8EDD0E088818F7788838881F8
:105010008068888388818F7D888319BC10920903FA
:1050200010920503109207031092060300EE10E0A1
:10503000F80180818B7F808388818160888342E052
:1050400060E080E00E945927E1EEF0E080818E7FF1
:105050008083E2EEF0E080818160808380818860DF
:105060008083F80180818E7F80838881806188833E
:10507000DF91CF911F910F910895E8EDF0E08081CD
:105080008F7E8083E7EDF0E080818160808384E023
:1050900082BF81E0809308030C94FA27E8EDF0E0EA
:1050A00080818E7F80831092E20008951092DA0052
:1050B0001092E10008951F920F920FB60F921124E3
:1050C0002F933F934F935F936F937F938F939F9310
:1050D000AF93BF93EF93FF938091E10082FF0BC0EA
:1050E0008091E20082FF07C08091E1008B7F809376
:1050F000E1000E94D12A8091DA0080FF1FC08091D8
:10510000D80080FF1BC08091DA008E7F8093DA0088
:105110008091D90080FF0DC080E189BD82E189BD09
:1051200009B400FEFDCF81E0809309030E94AE2404
:1051300005C019BC109209030E94BC248091E100B3
:1051400080FF19C08091E20080FF15C08091E200CD
:105150008E7F8093E2008091E20080618093E20084
:105160008091D80080628093D80019BC85E080933C
:1051700009030E94C0248091E10084FF30C0809127
:10518000E20084FF2CC080E189BD82E189BD09B4C1
:1051900000FEFDCF8091D8008F7D8093D800809154
:1051A000E1008F7E8093E1008091E2008F7E80930A
:1051B000E2008091E20081608093E200809105032B
:1051C000882311F084E007C08091E30087FD02C0CE
:1051D00081E001C083E0809309030E94C124809193
:1051E000E10083FF29C08091E20083FF25C0809108
:1051F000E100877F8093E10082E0809309031092B1
:1052000005038091E1008E7F8093E1008091E200B0
:105210008E7F8093E2008091E20080618093E200C3
:1052200042E060E080E00E9459278091F0008860B1
:105230008093F0000E94BF24FF91EF91BF91AF9146
:105240009F918F917F916F915F914F913F912F919E
:105250000F900FBE0F901F9018951F920F920FB6D0
:105260000F9211242F933F934F935F936F937F93EC
:105270008F939F93AF93BF93CF93DF93EF93FF935E
:10528000C091E900CF708091EC00D82FD17080FDE3
:10529000D0E81092E9008091F000877F8093F000C1
:1052A00078940E9471291092E9008091F000886042
:1052B0008093F000CD2BCF70C093E900FF91EF9168
:1052C000DF91CF91BF91AF919F918F917F916F911E
:1052D0005F914F913F912F910F900FBE0F901F90B4
:1052E00018951F93CF93DF93CDB7DEB7AA970FB66C
:1052F000F894DEBF0FBECDBFEAE0F3E08091F1008D
:10530000819323E0E231F207C9F70E94CD24809116
:10531000E80083FF2EC180910A0390910B03492F6F
:1053200050E04A30510508F024C1FA01E857FF4F18
:105330000C94472B803821F0823809F01AC108C03C
:105340008091060390910703992389F082600FC032
:1053500080910E038F70873008F00BC18093E900B5
:105360008091EB0085FB882780F91092E9009091ED
:10537000E800977F9093E8008093F1001092F1008D
:10538000D1C0282F2D7F09F0F4C0882319F0823076
:1053900061F0EFC080910C03813009F0EAC09330D6
:1053A00009F080E0809307032EC080910C038111E7
:1053B0002AC080910E038F702FEF280F263008F03F
:1053C000D8C08093E9002091EB0020FF1CC09330EF
:1053D00021F48091EB00806214C09091EB00906109
:1053E0009093EB0021E030E0A90102C0440F551F6B
:1053F0008A95E2F74093EA001092EA008091EB0070
:1054000088608093EB001092E9008091E800877F2C
:105410008093E8000E948E27ACC08111AAC0109131
:105420000C031F778091E3008078812B8093E30049
:105430008091E800877F8093E8000E948E2780910A
:10544000E80080FFFCCF8091E30080688093E30058
:10545000111102C082E001C083E08093090389C07A
:105460008058823008F085C080910C0390910D0324
:105470008C3D53E0950779F583E08A838AE289833E
:105480004FB7F894DE01139620E03EE051E2E32F9F
:10549000F0E050935700E49120FF03C0E295EF70D5
:1054A0003F5FEF708E2F90E0EA3010F0C79601C09A
:1054B000C0968D939D932F5F243149F74FBF809104
:1054C000E800877F8093E8006AE270E0CE010196F1
:1054D0000E949A2616C060910E0370910F03AE01D0
:1054E0004F5F5F4F0E94C925BC01892B09F441C061
:1054F0009091E800977F9093E80089819A810E94BB
:10550000F8268091E8008B778093E80032C08038DD
:1055100081F58091E800877F8093E8008091050302
:105520008093F1008091E8008E7772CF811121C0C5
:1055300080910C0390910D0399270297D4F48091E8
:10554000E800877F8093E80080910C038093050337
:105550000E948E2780910503811106C08091E3008F
:1055600087FD02C081E001C084E0809309030E94AE
:10557000C3248091E80083FF0AC08091E800877F00
:105580008093E8008091EB0080628093EB00AA9604
:105590000FB6F894DEBF0FBECDBFDF91CF911F9144
:1055A00008950895CF93809109038823A1F0C091B5
:1055B000E900CF709091EC00892F817090FD80E818
:1055C000C82B1092E9008091E80083FD0E947129A8
:1055D000CF70C093E900CF910895DB018F939F9323
:1055E0000E945C2BBF91AF91A29F800D911DA39F44
:1055F000900DB29F900D11240895AA1BBB1B51E181
:1056000007C0AA1FBB1FA617B70710F0A61BB70B32
:10561000881F991F5A95A9F780959095BC01CD01D7
:10562000089597FB072E16F4009407D077FD09D054
:105630000E94FD2A07FC05D03EF4909581959F4F6E
:105640000895709561957F4F0895A1E21A2EAA1BC7
:10565000BB1BFD010DC0AA1FBB1FEE1FFF1FA21722
:10566000B307E407F50720F0A21BB30BE40BF50B1F
:10567000661F771F881F991F1A9469F760957095A8
:10568000809590959B01AC01BD01CF010895EE0F6F
:10569000FF1F0590F491E02D0994A29FB001B39FE4
:1056A000C001A39F700D811D1124911DB29F700D2B
:1056B000811D1124911D08950E944D2BA59F900DD1
:1056C000B49F900DA49F800D911D11240895FC019D
:1056D0004150504030F001900616D1F73197CF017C
:1056E0000895882799270895F999FECF92BD81BD25
:1056F000F89A992780B50895A6E1B0E044E050E01B
:105700000C94AE2BA8E1B0E042E050E00C94AE2B3C
:10571000262FF999FECF92BD81BDF89A019700B46A
:10572000021639F01FBA20BD0FB6F894FA9AF99A0A
:105730000FBE08950396272F0E94892B0E94882B65
:10574000252F0E94892B242F0C94892B0196272F1B
:105750000E94892B0C94882BDC01CB01FC01F99968
:10576000FECF06C0F2BDE1BDF89A319600B40D92AD
:0C57700041505040B8F70895F894FFCF66
:10577C000102001000101001191A1B1C1D1E1F2005
:10578C0021225B022808641E140A321EF0236724AF
:10579C003C243824262401E200E900EA00B500B6D6
:1057AC0000B700CD008301CC008A01920194012145
:1057BC0002230224022502260227022A02B300B485
:1057CC00006F007000818283F0F1C66766379431F8
:1057DC00303534979633F4909192939500010202F0
:1057EC0002020606060909090909090F0F0F0F0F16
:1057FC000F1515151819191919191919191919231A
:10580C0024E200E900EA00B500B600B700CD008341
:10581C0001CC008A01920194012102230224022569
:10582C0002260227022A02B300B4006F0070008126
:02583C00828365
:00000001FF
