:100000000C94EC020C9433030C9433030C943303E0
:100010000C9433030C9433030C9433030C94330388
:100020000C9433030C9433030C9457280C94292913
:100030000C942A1F0C9433030C9433030C94330355
:100040000C9433030C9433030C9433030C94330358
:100050000C9433030C94771F0C9433030C943303E8
:100060000C9433030C9433030C9433030C94330338
:100070000C9433030C9433030C9433030C94330328
:100080000C9433030C9433030C9433030C94330318
:100090000C9433030C9433030C9433030C94330308
:1000A0000C9433030C9433030C943303450D480D27
:1000B000500D550D5A0D5F0D640D690D6E0D730DCC
:1000C000780D7D0D7F0D820D850D880D8B0D8E0DAC
:1000D000900D950D4614461478147814C514E31445
:1000E0003B163B162515BA15CB15CB152B163B1613
:1000F0003B163416D016D016E216E216D916E216C2
:10010000E216E216D016D016DE16E216E216DE165B
:100110009629BD29B52ABD29B52A092A2C2AB52A2E
:10012000832A922A165C1E001F0020002100220054
:10013000230024002500260027002D002E000000AB
:100140002A002B00000014001A00080015001700F8
:100150001C0018000C00120013002F0030003100AA
:100160000151000004001600070009000A000B00FE
:100170000D000E000F003300340028000000E100E5
:1001800000001D001B0006001900050011001000F2
:100190003600370038000000E5000000E000E30012
:1001A0000000E200000000002C0000000000000041
:1001B000E600E70000000151E40035003A003B0092
:1001C0003C003D003E003F00400041004200430033
:1001D0004400450000004C0001000000AC00AE00EF
:1001E000BB000100010001000100520001004600B7
:1001F00047004900005C01000000AA00A9000100BE
:10020000010001000100500051004F004A004B0066
:100210000100000001000000C25CC35CC65CC55C5C
:10022000C85CC75CCA5CC95C4D004E0000000100A0
:1002300000000100010000000100000000000100BA
:1002400000000000000001000100000001000100AA
:1002500000047F3F1F643214643214783C1E1E1465
:100260000A052223252628292A2C2D2F3032333522
:1002700036383A3B3D3E4042434547494A4C4E5052
:1002800051535557595A5C5E6062646668696B6D7C
:100290006F71737577797B7D7F81838587898A8C80
:1002A0008E90929496989A9C9E9FA1A3A5A7A8AA87
:1002B000ACAEAFB1B3B4B6B8B9BBBCBEBFC1C2C3BC
:1002C000C5C6C7C9CACBCCCDCED0D1D2D2D3D4D556
:1002D000D6D7D7D8D9D9DADADBDBDBDCDCDCDCDC7F
:1002E000DDDDDDDDDCDCDCDCDCDBDBDBDADAD9D957
:1002F000D8D7D7D6D5D4D3D2D2D1D0CECDCCCBCAE5
:10030000C9C7C6C5C3C2C1BFBEBCBBB9B8B6B4B30A
:10031000B1AFAEACAAA8A7A5A3A19F9E9C9A9896A0
:100320009492908E8C8A89878583817F7D7B797773
:100330007573716F6D6B6968666462605E5C5A5953
:1003400057555351504E4C4A4947454342403E3D14
:100350003B3A3836353332302F2D2C2A29282625A2
:100360002322FFAA7F554000010101010101010183
:100370000102020202020202020203030303030358
:100380000303040404040404040505050505060626
:1003900006060607070707070808080809090909E4
:1003A0000A0A0A0B0B0B0C0C0C0D0D0D0E0E0E0F8A
:1003B0000F0F10101111111212131314141515161A
:1003C000161717181819191A1A1B1B1C1D1D1E1E8B
:1003D0001F202021222223242425262627282929DC
:1003E0002A2B2C2D2D2E2F30313232333435363707
:1003F00038393A3B3C3D3E3F404142434445464705
:1004000048494A4C4D4E4F50515354555658595ADD
:100410005B5D5E5F616264656668696B6C6D6F7081
:1004200072737577787A7B7D7E8082838587888AF0
:100430008C8E8F91939596989A9C9EA0A2A3A5A727
:10044000A9ABADAFB1B3B5B7BABCBEC0C2C4C6C923
:10045000CBCDCFD1D4D6D8DBDDDFE2E4E7E9EBEEDC
:10046000F0F3F5F8FAFDFF0403300000000A03443E
:10047000005A0036003000000010034B00420044D8
:1004800000460061006E00730000000403090409C7
:10049000023B00020100A0FA09040000010301016F
:1004A0000009211101000122400007058103080015
:1004B0000A090401000103000000092111010001E3
:1004C00022BC000705820320000A1201100100006F
:1004D00000085A44602201000102030105010902DB
:1004E000A10185020901A1000509190129051500CD
:1004F00025019505750181029501750381010501AD
:10050000093009311581257F950275088106093862
:100510001581257F950175088106050C0A3802159D
:1005200081257F950175088106C0C005010980A15C
:1005300001850319012AB700150126B70095017539
:10054000108100C0050C0901A101850419012AA030
:1005500002150126A002950175108100C005010950
:1005600006A1018505050719E029E7150025019574
:1005700008750181020507190029EF15002501956D
:10058000F07501810205081901290595057501918C
:1005900002950175039101C005010906A101050736
:1005A00019E029E7150025019508750181029501DB
:1005B000750881010507190029FF150026FF009520
:1005C0000675088100050819012905950575019131
:1005D00002950175039101C011241FBECFEFDAE02F
:1005E000DEBFCDBF04B603FE27C0809112039091F9
:1005F0001303A0911403B09115038730904BA740CB
:10060000B04BD1F410921203109213031092140302
:100610001092150314BE84B7877F84BF0FB6F89479
:10062000A8958091600088618093600010926000BE
:100630000FBEE0E0F8E3099511E0A0E0B1E0E4E7E7
:10064000F7E502C005900D92A03CB107D9F723E071
:10065000A0ECB1E001C01D92A231B207E1F70E9407
:1006600086250C94B82B0C9400000C942506229A35
:100670002A9A08950E9427060C94370381FF02C02E
:100680002A9801C02A9A0C94A10381E0089581E080
:1006900008950C94470308950C944B031F93CF9334
:1006A000DF9300D000D01F92CDB7DEB749835A83C5
:1006B0006B833091E60189819A81311114C06623E0
:1006C00059F0222349F00E94091C182F682F8981B4
:1006D0009A810E94B21B03C00E94DD1B182F698102
:1006E0007A81812F04C00E94091C69817A810F9050
:1006F0000F900F900F900F90DF91CF911F910C945E
:100700000C04FC01262F4081518162817381848118
:100710000C944E03CF93DF93EC0160E00E948103C1
:10072000BE01DF91CF910C944C030E943B1D8111BF
:1007300002C00E94EE1D0E94100F0C943A030C940C
:100740003503089581E008950C94A203CF93C82F38
:100750000E943E038C2F0E94A403CF910895089518
:100760000E94BE160E94AF032FEF84E39CE021504D
:1007700080409040E1F700C000000C949D1F0F9353
:100780001F93CF93DF93EC0161E00E9481038C0102
:10079000BE010E9449038823A9F1BE01C8010E943D
:1007A000790E882379F1BE01C8010E94D30F8823F6
:1007B00049F1BE01C8010E941410882319F1BE013D
:1007C000C8010E943F118823E9F0BE01C8010E94C0
:1007D0002E0D8823B9F08A81882369F001158CE5F4
:1007E000180731F00E3D1C4531F40E94EE1D0AC081
:1007F0000E94B00307C0CE01DF91CF911F910F91EE
:100800000C94450380E0DF91CF911F910F910895E3
:1008100080E090E0089508952BE4829FC0011124A8
:10082000FC012FE0729FE00DF11D1124E60FF11D78
:10083000EE0FFF1FEC5DFE4F859194910895880F98
:10084000991FFC01E05BFD4F859194910895CF9332
:10085000DF930E940C040E943F05EC018115904536
:1008600008F041C0C11580E4D80708F0D1C0C83EE7
:10087000D10510F5C03ED10508F0FDC0C83AD1053C
:1008800078F4C53AD10508F0A2C0C130D10509F409
:10089000F2C008F4EEC0C430D10508F0ECC0E9C0E5
:1008A000CF3BD10508F49BC0C03CD10508F4E1C0A2
:1008B000CE01805C91099EC0C11590E2D90758F421
:1008C000C11521E0D20708F0D6C0C03FD10508F419
:1008D000D0C0D065D0C0C11580E3D80708F08EC065
:1008E000CE019F7087C0C11595E5D90708F043C0B8
:1008F000C11524E5D20708F0A2C0C11582E5D807CA
:1009000008F5C11591E5D90708F085C0CE0174E05E
:10091000969587957A95E1F783709C2F937021E0E7
:1009200030E002C0220F331F9A95E2F73C68382B63
:10093000CF70C695C69580E2C89FE0011124C22BF6
:10094000D32B99C09E01237033278C2F86958695D3
:10095000C115D34508F064C0C1E0D0E002C0CC0F9F
:10096000DD1F2A95E2F720E2829FC0011124C82BE7
:10097000D92BDC6880C0C11529E5D207A0F4C115C8
:1009800088E5D80708F060C0C11596E5D90708F0DA
:1009900070C08C2F0E94D3058F71C82FD0E0DC2F40
:1009A000CC27D06268C0C1152AE5D20708F451C02F
:1009B000CE0190568115904208F05BC08D2F8F714B
:1009C0000E94D305DD27D0628F71D82B54C0C55A41
:1009D000D0E0CD5ADE4FC881D0E0D0644CC0C85AB8
:1009E000D0E0CC0FDD1FCB5DDE4F0990D881C02D4C
:1009F000D46441C00E941F04EC013DC0CE01992780
:100A0000D3FF03C0EC01D86C36C0EC01D06C33C00E
:100A1000DF70D06A30C0DC2FCC27C16FD06A2BC00A
:100A2000C1E0D0E002C0CC0FDD1F2A95E2F720E242
:100A3000829FC0011124C82BD92BDA681CC0DC2F7F
:100A4000CC27C46FD06A17C0DC2FCC27C06FD06A08
:100A500012C08C2F8F700E94D30594E0D695C79555
:100A60009A95E1F7CF70D0E0DC2FCC27D069C82B66
:100A700002C0C0E0D0E0CE01DF91CF91089582386E
:100A8000910569F1B0F48133910509F46DC048F422
:100A90008932910509F463C08A32910509F469C06D
:100AA00008958533910509F455C089339105B9F04E
:100AB0000895833E910569F138F4803E9105B1F0C7
:100AC000823E910509F10895863E9105A9F1873E80
:100AD0009105B9F1843E910509F064C023C02091CD
:100AE000030320FD4FC021FD4DC0089580910303F5
:100AF00080FD44C08091040380FF44C080910303C3
:100B000084FD42C083EE4DC08091030382FF38C054
:100B1000F5CF8091030382FD33C08091040380FDF3
:100B200031C0ECCF8091040381FF32C08091030378
:100B300084FD2AC087EE35C08091030383FF26C061
:100B4000F5CF8091030383FD21C08091040381FDD3
:100B50001FC0ECCF8091030385FD1CC01DC0809198
:100B6000030385FD19C016C08091030386FD16C0DE
:100B700017C08091030386FD13C010C089E311C024
:100B800082EE0FC080EE0DC080E00BC086EE09C083
:100B900084EE07C089E205C085E303C08AE201C094
:100BA00081E390E008959091030392FF0DC0282FF8
:100BB0002871283019F4877F846006C0282F24719B
:100BC000243011F48B7F886093FF0DC0282F28718B
:100BD000283119F4877E846106C0282F24712431BE
:100BE00011F48B7E88612091040320FF0DC0382F03
:100BF0003871383019F4877F816006C0382F317121
:100C0000313011F48E7F886021FF0DC0282F2871AC
:100C1000283119F4877E816106C0282F2171213186
:100C200011F48E7E886194FD877E0895E82FF0E0B0
:100C3000EE0FFF1FE354FD4F8081918108950895C9
:100C400080EA8A95F1F7089508950C9424060C948F
:100C50002406CF93DF93A5E6B1E04AE651E061E0D8
:100C600070E08D91E82FE295EF70F0E021A18F7098
:100C7000EB0102C0CC0FDD1F8A95E2F7CE019C2F5D
:100C80009095922391A392A1892B82A34A175B0787
:100C900041F7A6E5B1E045E651E061E070E08D91F5
:100CA000E82FE295EF70F0E021A18F70EB0102C018
:100CB000CC0FDD1F8A95E2F7CE019C2F90959223F1
:100CC00091A392A1892B82A34A175B0741F7E3EB1B
:100CD000F2E0ADEBB2E08DEB92E0119211921D9239
:100CE0001D928E179F07C9F785E00E941807DF91B4
:100CF000CF910C9495032F923F924F925F926F92F7
:100D00007F928F929F92AF92BF92CF92DF92EF929B
:100D1000FF920F931F93CF93DF9385E6C82E81E058
:100D2000D82E03EB12E09DEB492E92E0592E312C88
:100D300088248394912C5801D8016D907C90119750
:100D40001D921C92F60181916F01C82FC295CF7040
:100D5000D0E099A18F70740101C0EE0C8A95EAF77A
:100D6000892F8E2989A38AA12E2C209482218AA3DF
:100D70000E942006E6E5F1E020E030E06191A62F38
:100D8000A295AF70B0E090968C91D8014D915C9196
:100D900090E06F7002C0959587956A95E2F780FDA7
:100DA00008C0C401022E02C0880F991F0A94E2F7FE
:100DB00002C080E090E0482B592BD8014D935C9302
:100DC0002F5F3F4F2F303105C9F689A1282229A274
:100DD0008AA1E82AEAA20E5F1F4F81E0F501208177
:100DE00031812615370509F480E0382A401651066E
:100DF00009F0A1CF232D45E06DEB72E083EB92E08B
:100E00000E9419070E949F03832DDF91CF911F91AC
:100E10000F91FF90EF90DF90CF90BF90AF909F9099
:100E20008F907F906F905F904F903F902F9008959C
:100E30000895FF920F931F93CF93DF93F82E092FFE
:100E4000162FD72FC42F222349F081E08093C201AF
:100E50000E945C1F9093C1018093C0018091C201E8
:100E60008823D9F08091C0019091C1010E94681F30
:100E7000069798F0EF2DF02FA12FBD2F80E090E086
:100E80004C2F50E08417950734F4219131912D9324
:100E90003D930196F7CF1092C201DF91CF911F9140
:100EA0000F91FF900895EF92FF920F931F93CF93AE
:100EB000DF93F62E472FE82FF0E0711106C0E959B5
:100EC000FC4F6491762F862F72C0272F30E0E959AE
:100ED000FC4FE4910E2F10E056E0659FC0011124F5
:100EE000CFEFD0E0BE010E94F92A5BEA5603C001B1
:100EF000579F900D11248F0D911D8F0D911D982FCF
:100F0000990F890F7E01E21AF30AE09ED001E19E5B
:100F1000B00DF09EB00D1124489FA0011124452F63
:100F200055277E01E41AF50AE09EA001E19E500DCE
:100F3000F09E500D11247E01E81AF108E29EC001D6
:100F4000E39E900DF29E900D1124892F9927C81BC6
:100F5000D90BC09FC001C19F900DD09F900D11244F
:100F60006230710591F048F461157105E1F061306E
:100F70007105A9F48B2F752F19C06430710561F0CC
:100F800038F06630710579F00AC0892F7B2F0EC0CA
:100F90008E2F7B2FE52F0AC08E2F792F02C0852F31
:100FA0007E2FEB2F03C08B2F7E2FE92F6E2FDF912B
:100FB000CF911F910F91FF90EF9008950895CF93D7
:100FC000DF93762FE901682F842F0E9453077983DE
:100FD00068838A83DF91CF9108958091C702282F7B
:100FE000269530E02115310519F48170826005C025
:100FF0002532310524F0817088648093C7020895FA
:1010000088E090E00C94782BCF92DF92EF92FF92E1
:101010006B017C010E94ED07B701A60188E090E01A
:10102000FF90EF90DF90CF900C94962BE7ECF2E0DE
:1010300083E0808311828FEF8283838314826081B7
:101040007181828193810C9404088091C70280FF92
:1010500002C08695089580E008958091CB02833088
:1010600018F48F5F8093CB026091C7027091C80221
:101070008091C9029091CA020C9404088091CB021D
:10108000882319F081508093CB026091C702709140
:10109000C8028091C9029091CA020C940408609120
:1010A000040170E08091C70280FF0AC08091C701EF
:1010B00023E0829FC001112484539D4F0C945C0F48
:1010C0008091C60190910301891780F7E82FF0E025
:1010D0009F01220F331FE20FF31FE453FD4F1182D4
:1010E000108212828F5FF0CF9091C70290FF16C0DE
:1010F0009091C60120910301921770F4E92FF0E05E
:10110000DF01AA0FBB1FEA0FFB1FE453FD4F8183D2
:10111000608342839F5FF0CF0C944F080895CF9374
:10112000DF9300D01F92CDB7DEB79091C70290FF3A
:101130000AC09E012F5F3F4F0E94DF074B816981EC
:101140008A810E9474080F900F900F90DF91CF91C9
:101150000895CF93DF93EC01EC81F0E0EE59FD4F61
:101160004491E7ECF2E0628181810E948F088C81DA
:101170008F5F8C83DF91CF910895CF93DF93EC0144
:10118000E7ECF2E0438162818C810E948F088C81C0
:101190008F5F8C83DF91CF9108950F931F93CF932F
:1011A000DF9300D01F92CDB7DEB78C018091C301D1
:1011B00081110AC09E012F5F3F4F4FEF6FEF0E94DA
:1011C000DF078A818093C301F8018481813051F067
:1011D00028F0823061F44091C3010AC08091C301BC
:1011E00040E007C06091C30140E080E003C040E000
:1011F00080E060E00E947408F801848190E001962C
:1012000063E070E00E940D2B84830F900F900F908D
:10121000DF91CF911F910F910895AF92BF92CF921E
:10122000DF92EF92FF920F931F93CF93DF9300D043
:101230001F92CDB7DEB7182FF62E042FE22E909115
:10124000C70290FF6DC0E92FE695AE2FB0E0A6591A
:10125000BE4F8C918093CF019E7F923061F49E01AE
:101260002F5F3F4F812F0E94DF074B8169818A8169
:101270000E94740843C0823019F40091CA023EC033
:10128000863019F41091C80239C08930D9F38931F8
:10129000A9F5E9518E2F8170D82EE695F0E0EE5930
:1012A000FC4FA590B490C12CBB2460910201C616DE
:1012B00018F52C2D30E0A29EC001A39E900DB29E89
:1012C000900D112470E00E94F92A812FD11002C0E4
:1012D000860F01C0861B9091C601290F311DA901FF
:1012E000440F551F240F351F24533D4F402F6F2DA2
:1012F0000E94DF07C394D9CF0E944F081093C80201
:10130000F092C9020093CA02EE2051F06091C70228
:101310007091C8028091C9029091CA020E9404088B
:101320000F900F900F90DF91CF911F910F91FF9031
:10133000EF90DF90CF90BF90AF900895E7ECF2E090
:101340009181282F4381628188E0890F0C940D09D7
:1013500081E00C949E09E7ECF2E09181282F438113
:10136000628188EF890F0C940D0981E00C94AB0920
:10137000E7ECF2E0628128E0620F08F46FEF282FBB
:10138000438181810C940D0981E00C94B809E7EC4C
:10139000F2E0628128E0621B08F460E0282F4381BC
:1013A00081810C940D0981E00C94C709E7ECF2E00F
:1013B000438128E0420F08F44FEF282F628181819A
:1013C0000C940D0981E00C94D609E7ECF2E043811E
:1013D00028E0421B08F440E0282F628181810C94B0
:1013E0000D0981E00C94E50920E00C940D09FF92B1
:1013F0000F931F93CF93DF93EC01F12C0FEF10E0CD
:1014000060910201F616F0F48091C6012F2D30E0B4
:10141000280F311DC901880F991F280F391F245328
:101420003D4F70E0C8010E940D2B962F8C8140919A
:10143000CA026091C902F99E800D11240E94DF0743
:10144000F394DECF0E944F089A818C8190FF02C0F6
:101450008F5F01C081508C83DF91CF911F910F91DD
:10146000FF900895BF92CF92DF92EF92FF920F9379
:101470001F93CF93DF93FC01828180FF02C00FEFA7
:1014800001C001E010E080910201181708F040C08F
:101490008091C601C12ED12CE601C80FD11DCE010D
:1014A000880F991FC80FD91FC453DD4F19821882A6
:1014B0001A8234E0E32EF12CB12C8091C5018B0D02
:1014C000813114F08F7005C087FF03C09091020135
:1014D000890F082E000C990BC816D90691F480913B
:1014E000CA028E9DA0018F9D500D112455954795E0
:1014F000559547959E016091C9028091C8020E944E
:10150000DF07B00EF1E0EF1AF108B9F61F5FBBCFAD
:101510000E944F088091C501013031F4811102C051
:1015200080910201815007C090E001966091020114
:1015300070E00E940D2B8093C501DF91CF911F9128
:101540000F91FF90EF90DF90CF90BF900895CF93D1
:101550008091C60190910301891770F4E82FF0E0A3
:101560009F01220F331FE20FF31FE453FD4F11823F
:10157000108212828F5FF0CFC0E060910201C61727
:10158000C0F5EC2FF0E070E0CF010E940D2B209110
:10159000C601820F2091C401022E000C330B90E093
:1015A000E217F307CCF020910101022E000C330B5F
:1015B0002E173F078CF09C01220F331F820F931FC1
:1015C0009C0124533D4F4091CA026091C902809111
:1015D000C8020E94DF070BC0FC01EE0FFF1F8E0F39
:1015E0009F1FFC01E453FD4F118210821282CF5FD6
:1015F000C4CF0E944F08209100018091C401820F46
:101600008093C40190910101920F909301011916EA
:101610005CF4082E000C990B4091020150E04150FF
:101620005109841795071CF0219520930001CF9153
:1016300008950F931F93CF93DF938C01FC01848156
:10164000958101968170992795838483C0E0D5E5C3
:1016500080910201C81700F58091C6012C2F30E05F
:10166000280F311DC901880F991F280F391F2453D6
:101670003D4F4C2F4695F80184819581840F911D33
:1016800081704091CA026091C9028D9F802D112402
:101690000E94DF07CF5FDCCFDF91CF911F910F91C9
:1016A0000C944F080F931F93CF93DF93EC0100E04E
:1016B00010E080910201282F30E00217130724F573
:1016C0009091C6019801290F311DA901440F551FA2
:1016D000240F351F24533D4F869590E04C81081709
:1016E00019071CF4442331F002C0411103C040919A
:1016F000CA0201C040E06091C9028091C8020E9404
:10170000DF070F5F1F4FD5CF0E944F088C8190E0FD
:101710000196817099278C83DF91CF911F910F9152
:101720000895E7ECF2E080818E7F80836081718193
:10173000828193810E9404081092D0012FEF80E7EC
:1017400092E0215080409040E1F700C000000C94EE
:101750004F08E7ECF2E080818E7F80831092D00109
:101760002FEF80E792E0215080409040E1F700C0E9
:1017700000000C944F086091C702669570E04BE042
:1017800050E085E091E00E94632B892B19F481E001
:101790008093D0010E945C1F9093C9018093C8017F
:1017A00008959091C70290FF35C09170811102C0D9
:1017B000926006C0853210F0986402C0880F982BA2
:1017C0009093C702662351F06091C7027091C802DE
:1017D0008091C9029091CA020E9404086091C702D8
:1017E000669570E04BE050E085E091E00E94632B4D
:1017F000892B19F01092D00102C00E94BB0B81E02E
:101800008093CB014091CA026091C9028091C802C5
:101810000C94F4090895682F9091C702969581E081
:10182000890F853208F081E00C94D10B81E00C9493
:101830000B0C682F9091C70296958FEF890F09F4D2
:1018400084E20C94D10B81E00C94190C61E00C94AF
:10185000D10BE7ECF2E080818160808386950C9467
:10186000260C8091C70280FD0C94910B0C94290CDE
:1018700060E00C94D10B8091CE0181112EC00E94AA
:101880003B1D811104C00E94EE1D0E9416080E949B
:1018900000086093C7027093C8028093C9029093B6
:1018A000CA026E7F61F40E9416080E9400086093CD
:1018B000C7027093C8028093C9029093CA020E9423
:1018C000ED071092D0018091C70280FF03C086957A
:1018D0000E94380C81E08093CE010895E7ECF2E09D
:1018E00080818160808386950C94380C1092D001A1
:1018F00008950F931F93CF93DF938091D001882396
:1019000009F48CC08091CF01E091C702E695E81BF5
:10191000E093CA01823049F4F0E0E25AFD4FE491CD
:10192000CE2FD0E009EA18E049C0863049F4F0E053
:10193000E55AFD4FE491CE2FD0E00DEB18E03EC00C
:10194000893051F4E695F0E0E85AFD4FE491CE2F4E
:10195000D0E007EF19E032C08F3051F4E695F0E0A7
:10196000EB5AFD4FE491CE2FD0E002E31AE026C0FF
:10197000853149F4F0E0EE5AFD4FE491CE2FD0E0EE
:1019800007EA1AE01BC0883181F0833239F4E0E5C0
:10199000F2E0C591D4910DEC18E010C0843251F4FE
:1019A000C4EFD1E002E51BE009C0C8EED3E009E1D5
:1019B0001BE004C0C0EDD7E00EED17E08091CB0135
:1019C000882389F01092CB010E945C1F9E01209514
:1019D0003095820F931F9093C9018093C801109294
:1019E000CD011092CC018091C8019091C9010E9453
:1019F000681F8C179D0790F0E091C801F091C90114
:101A0000CE0FDF1FD093C901C093C80188EC91E0CD
:101A1000F801DF91CF911F910F910994DF91CF9140
:101A20001F910F910895882311F0FA0101C0FB0165
:101A30000994CF93DF93C82FD62F0E9425088C17C7
:101A400040F00E9425088D1720F4DF91CF910C946F
:101A5000160C8C2FDF91CF910C94260C0F931F93B3
:101A6000CF93FB01C281CC2309F463C08C010E9497
:101A70008A1C8272F801E25CFC45E431F10508F051
:101A800059C0EA5AFF4F0C94432B0E94310C06C0F8
:101A900043E25CE066E17CE00E94130DC0E04AC0D6
:101AA00046E15CE063E27CE0F7CF45EB59E068EAB1
:101AB00079E0F2CF48EA59E065EB79E0EDCF43ED0C
:101AC00059E064EC79E0E8CF44EC59E063ED79E06B
:101AD000E3CF41EF59E062EE79E0DECF42EE59E02C
:101AE00061EF79E0D9CF4EE358E06DE278E0D4CFF2
:101AF0004DE258E06EE378E0CFCF81E017C065E0BB
:101B000082E010C068E086E00DC06EE089E00AC0A7
:101B100064E18FE007C067E185E104C088E106C0A9
:101B200062E289E10E94190DB9CF83E20E94260C7E
:101B3000B5CFC1E08C2FCF911F910F9108950E94D6
:101B40003B1D811102C00E94EE1D0E94761D8093F4
:101B5000FC02282F26952695269530E02630310563
:101B600024F0877088628093FC028091FC0280FFE1
:101B700004C086958695869501C080E00C94AE0ED3
:101B80002091FC02822F869586958695482F50E0FD
:101B90004530510554F48F5F982F990F990F990F85
:101BA000822F8770892B8093FC028091FC028160D8
:101BB0008093FC020E947A1D8091FC028695869596
:101BC00086950C94AE0E8091FC02982F9695969572
:101BD0009695A1F0915E990F990F990F8770892BB7
:101BE0008093FC02887F91E009F490E08091FC02F0
:101BF00090FB80F98093FC020E947A1D8091FC0288
:101C00008695869586950C94AE0E8091FC0280FD9B
:101C100013C081608093FC02813019F489E08093C5
:101C2000FC028091FC020E947A1D8091FC02869544
:101C3000869586950C94AE0E08958091FC0280FFE7
:101C400008C08E7F8093FC020E947A1D80E00C9475
:101C5000AE0E08958091FC0280FD0C941D0E0C9434
:101C6000050E9091FC02892F8695869586958F5F4B
:101C70008F719770863038F4880F880F880F892B02
:101C80008093FC0202C09093FC028091FC02887F4A
:101C900091E009F490E08091FC0290FB80F9809340
:101CA000FC020E947A1D8091FC028695869586959D
:101CB0000C94AE0E863008F085E09091FC0297708F
:101CC000282F220F220F220F922B9093FC02987F35
:101CD00021E009F420E09091FC0220FB90F9909320
:101CE000FC020C94AE0E0E945A0E8091FC020C94E1
:101CF0007A1D9C01FB018281882349F12D3BFCE583
:101D00003F07C9F040F42B3BECE53E0769F02C3B64
:101D10003C4561F008952F3B9CE5390791F070F048
:101D2000203C3C4589F0089585E001C080E00E9498
:101D3000730E80E008950E94E30DFBCF0E94C00D5A
:101D4000F8CF0E942A0EF5CF0E94310EF2CF81E02B
:101D50000895269A2E9808952E980895CF92DF928E
:101D6000EF92FF92CF93C82F863050F4811109C0B3
:101D7000809180008F7D809380000E94AC0E06C011
:101D8000C5E0809180008062809380002C2F30E03D
:101D9000AFEFBFEF0E94492B25E030E040E050E07C
:101DA0000E94212BC9012C3764E1360728F469E031
:101DB00070E00E94F92A29C0DA01C9018A50974DC2
:101DC000AF4FBF4F6627782F892F9A2F25EF38E224
:101DD00041E050E00E94212B69017A01CA01B9015A
:101DE0000E94E92A9B01AC01C701B6010E94E92AC1
:101DF000BB27A92F982F872F009721E0A207B105B5
:101E000011F0BC0102C06FEF7FEF70938B00609305
:101E10008A00CF91FF90EF90DF90CF9008950895C2
:101E20000E94A90E82E28093800089E18093810064
:101E30008FEF9FEF90938700809386000C949F0D07
:101E40005DB1E42FEF7021E030E001C0220FEA9590
:101E5000EAF7352F322B3DB942954F70E42FF0E071
:101E600032A1422F4095342342A1242B4FB7F8943E
:101E7000FC01CB01880F991F680F791F6E0F7F1F20
:101E8000E617F70789F0819198E02EB9000000C0AD
:101E900087FF3EB9880F000000C000C000C03EB9F7
:101EA00000C09A9591F7ECCF4FBF87EC90E0019777
:101EB000F1F700C00000089542EC0C94200F0F933E
:101EC0001F93CF93DF93C62FD42F122FFC01828153
:101ED0008823C9F06093D3010E945C1F9093D201C4
:101EE0008093D10180E28C0F883008F057C0C77012
:101EF00081E001C0880FCA95EAF7DF91CF911F9169
:101F00000F910C9406148091D301681330C0809116
:101F1000D1019091D2010E94681F883C910538F54B
:101F200000E20D0FCD17B9F080E28C0F883040F43D
:101F3000C77081E001C0880FCA95EAF70E940D14AE
:101F4000083028F581E09D2F977001C0880F9A9581
:101F5000EAF70E940614812F0E94F3130830F0F470
:101F6000D77081E001C0880FDA95EAF70AC080E2F5
:101F70008C0F883098F4C77081E001C0880FCA9533
:101F8000EAF7DF91CF911F910F910C940D14812FDF
:101F9000DF91CF911F910F910C94F313DF91CF91AB
:101FA0001F910F9108959C01CB01233F4CE534070D
:101FB000F9F078F4283DFCE53F07B9F0293D4CE500
:101FC000340711F1273D3C4531F526E241EE61EE43
:101FD0001EC0253FFCE53F0799F070F0263F3C45C9
:101FE000D1F427E245EE66EE12C027E245EE0EC0C0
:101FF00026E241EE60EE0BC027E245EE64EE07C03C
:1020000026E241EE62EE03C028E241E065EE0E9466
:102010005F0F80E00895FC018281882319F01092FF
:10202000D301089581E00895CF93DF93EC01FB0184
:102030008281882309F41FC1C230FCE5DF0708F460
:102040001BC1C6319CE5D90738F09E012A5F3C458B
:102050002930310508F010C10E94581D90930403E7
:1020600080930303C031ECE5DE0709F4C3C008F038
:1020700041C0C8308CE5D80709F49AC0F0F4C430E8
:10208000ECE5DE0709F487C068F4C2308CE5D807B8
:1020900009F477C0C330DC4509F0E3C08091030345
:1020A000826076C0C630ECE5DE0709F46EC008F049
:1020B0007BC08091030388606BC0CC308CE5D8076F
:1020C00009F485C068F4CA30ECE5DE0709F474C091
:1020D00008F079C00E94BE1680910303806858C042
:1020E000CE308CE5D80709F476C008F07FC0809127
:1020F00003038BC0CB3FECE5DE0709F44FC018F5B6
:10210000C3318CE5D80709F47DC078F4C131ECE522
:10211000DE0709F473C0C231DC4509F0A2C00E9499
:10212000BE16809103038F7733C0C5318CE5D80785
:1021300009F472C008F486C0CA3FDC4509F091C0BA
:10214000809104033EC0CF3FFCE5DF0709F45FC088
:1021500058F4CD3F9CE5D90709F444C008F43FC0CA
:102160008091040382602DC0C130FDE5DF0709F4D2
:1021700075C008F45DC0C230DD4509F072C080E072
:102180006EC080910303816003C08091030380616E
:102190008093030366C08091030311C08091040300
:1021A0008260809304035DC0809103038062F0CF5E
:1021B000809103038064ECCF809103038860846086
:1021C000E7CF8160EECF809103038E7FE1CF8091D6
:1021D00003038D7FDDCF80910303877FD9CF80916B
:1021E000040318C0809104038D7FDBCF809103032B
:1021F0008F7ECECF809103038F7DCACF8091030362
:102200008F7BC6CF80910303877F8B7FC1CF809167
:1022100004038D7F8E7FC5CF8091030382FB22272D
:1022200020F991E0922790FB82F990FB83F9B0CFDF
:1022300080910403982F909591708E7F892B90FB4D
:1022400081F9AFCF0E94BE168091030387FB22273E
:1022500020F991E0922790FB87F99ACF81E00E94C4
:10226000F01D80910303909104030E94691D0E9458
:10227000BE1680E001C081E0DF91CF910895CF9339
:10228000DF9386319C4541F5EB010E948A1C982F13
:102290008A812091100130911101882379F09A7A76
:1022A00081E009F480E08093D401911102C069E2D9
:1022B00001C065E3C9010E948B1E0AC08091D40150
:1022C000811102C069E201C065E3C9010E94961E46
:1022D0000E94D81C80E001C081E0DF91CF91089579
:1022E0009093DA018093D9010895E091D901F0919A
:1022F000DA01309721F00190F081E02D099480E01F
:102300000895E091D901F091DA01309799F0209188
:102310002401222359F02091030327FF07C0DC0189
:102320002C9111962C93119725E02C930280F38128
:10233000E02D09940895E091D901F091DA013097E8
:1023400039F022E0DC012C930480F581E02D099422
:1023500008952091D7013091D8012817390771F0DD
:102360009093D8018093D701E091D901F091DA01DF
:10237000309721F00680F781E02D0994089520918F
:10238000D5013091D6012817390771F09093D60105
:102390008093D501E091D901F091DA01309721F0D5
:1023A0000084F185E02D0994089585B7806885BF84
:1023B00085B7806885BF089508950C94DC110C944E
:1023C000DD110C94DC110C94DC110E94D5110E94DB
:1023D000E1110C94DF1181E008950E94531F0E94C7
:1023E00029060E940D200E949F0D0E943B0C0C9418
:1023F000E3117F928F929F92AF92BF92CF92DF9222
:10240000EF92FF920F931F93CF93DF93CDB7DEB779
:102410002A970FB6F894DEBF0FBECDBF0E947B0691
:102420000E94EB11811111C08FEF89838A831B8277
:102430000E945C1F8160782F9D838C8349815A8123
:102440006B818D810E94AD124FC04CEDA42E41E0F6
:10245000B42E00E010E0702E802F0E9416066C0152
:10246000F501819091905F0188269926811491044D
:1024700031F40F5F1F4F0530110569F7D5CF8091FB
:102480007E0281FD0E941F0680E0EE24E394F12C81
:1024900094012E213F21232B09F18E837F82CE20B0
:1024A000DF2081E0CD2809F480E088870E945C1F4E
:1024B0008160782F9A8789874E815F8168858A85B8
:1024C0000E94AD12000F111FF801E452FE4F8081EF
:1024D0009181E826F926F182E08206C08F5FEE0C3A
:1024E000FF1C8F30A9F6C5CF0E94790C0E940F0FF8
:1024F0000E94C1220E9475119091DB018917C9F0D9
:102500000E9475118093DB012A960FB6F894DEBF06
:102510000FBECDBFDF91CF911F910F91FF90EF9034
:10252000DF90CF90BF90AF909F908F907F900C9452
:10253000A6032A960FB6F894DEBF0FBECDBFDF917B
:10254000CF911F910F91FF90EF90DF90CF90BF90B0
:10255000AF909F908F907F900895CF93DF93CDB7EA
:10256000DEB72B970FB6F894DEBF0FBECDBF4F83FB
:10257000588769877A878B87DE01119686E0FD018F
:1025800011928A95E9F785E0FE01379601900D9248
:102590008A95E1F749815A816B817C818D819E8189
:1025A0000E9477192B960FB6F894DEBF0FBECDBFF1
:1025B000DF91CF910895FC01808191810E944B1C95
:1025C0000895CF93882309F4A4C0C82F8238C1F49A
:1025D0000E94751181FD9DC069E380911001909169
:1025E00011010E948B1E0E94D81C2FEF81EE94E0F7
:1025F000215080409040E1F700C0000069E319C01D
:10260000833801F50E94751180FD83C063E58091D8
:102610001001909111010E948B1E0E94D81C2FEF77
:1026200081EE94E0215080409040E1F700C000002E
:1026300063E580911001909111010E94961ECF9147
:102640000C94D81C8438C1F40E94751182FD61C0BD
:1026500067E480911001909111010E948B1E0E94ED
:10266000D81C2FEF81EE94E0215080409040E1F79C
:1026700000C0000067E4DDCF8CEF8C0F813AD0F40E
:102680006C2F80911001909111010E940B1E8823E4
:1026900049F06C2F80911001909111010E94961EBB
:1026A0000E94D81C6C2F80911001909111010E9402
:1026B0008B1EC5CF80E28C0F883048F4C77081E054
:1026C00001C0880FCA95EAF70E948D1CB8CFEBE5D0
:1026D000EC0FE33040F4F0E0E354FE4F808190E0F3
:1026E000CF910C94A911E8E5EC0FE73150F4F0E03C
:1026F000EE0FFF1FE157FE4F80819181CF910C9427
:10270000BF11C03F30F08C2F0E94C921CF910C9493
:10271000B622CF910895882309F464C0823879F4F1
:102720000E94751181FF5EC069E380911001909154
:1027300011010E948B1E0E94D81C69E310C08338CF
:10274000B1F40E94751180FF4DC063E580911001C6
:10275000909111010E948B1E0E94D81C63E580910C
:102760001001909111010E94961E0C94D81C84387F
:1027700079F40E94751182FF35C067E480911001E1
:10278000909111010E948B1E0E94D81C67E4E7CF34
:102790009CEF980F913A10F4682FE1CF90E2980FD8
:1027A000983050F4877091E001C0990F8A95EAF74C
:1027B000892F0E94931CD9CF9BE5980F933020F46A
:1027C00080E090E00C94A91198E5980F973120F4DF
:1027D00080E090E00C94BF11803F20F00E943122F5
:1027E0000C94B6220895CF93C82F0E94E112C933EA
:1027F00049F42FEF87EE93E0215080409040E1F7BD
:1028000000C000008C2FCF910C948B13882321F0F3
:102810000E948D1C0C94D81C0895882321F00E94DE
:10282000931C0C94D81C0895CF92DF92EF92FF92E4
:102830000F931F93CF93DF937C01062FC72FFC01CB
:10284000158112951F70D281D1110E94AA1C0E947D
:10285000831C882379F0DD2369F080E2800F8830C3
:1028600048F082E00E94221D0E94831C91E0D82E35
:10287000D92601C0D12CCC2EC2948FE0C8228C2D39
:1028800090E0FC01E659FF4F0C94432B8C2F807F86
:10289000CF70882311F0C295C07FDD2399F0CC233F
:1028A00009F4C4C180E2800F883010F0011104C027
:1028B0008C2F0E948D1C03C08C2F0E949D1C0E9497
:1028C000D81CB4C1802F0E948B13CC2309F4D3C130
:1028D00080E2800F883010F0011104C08C2F0E941C
:1028E000931C03C08C2F0E94A31C0E94D81CC3C140
:1028F0008C2F807FCF70803211F0C295C07F002373
:1029000019F00130C9F022C0DD2371F0112341F02C
:10291000113031F40E94BD1C8C2B0E94C51CABC130
:102920000E94BD1C8C2B1DC0112319F0113009F41D
:10293000A2C10E94CE1C25C0DD2321F0163008F074
:102940009AC10EC0153008F096C11BC0DD2361F09E
:10295000112331F0F701858180FF68C18F70858375
:102960008C2F0E94061487C1112359F0093309F0F6
:102970006EC1FFEF27EE83E0F15020408040E1F789
:1029800064C18C2F0E940D1476C18C2F869586957C
:10299000837019F0813061F06EC1DD2321F0802F4A
:1029A0009C2F937002C080E090E00E94A9116BC13F
:1029B000DD2321F0802F9C2F937002C080E090E0F7
:1029C0000E94BF1160C1DD23F9F0053F51F0063FC1
:1029D00071F0043FA9F48091FD029091FE028160A4
:1029E0000BC08091FD029091FE02826005C0809133
:1029F000FD029091FE0284609093FE028093FD029E
:102A0000802F0E94C9211EC0053F51F0063F71F082
:102A1000043FA9F48091FD029091FE028E7F0BC0CD
:102A20008091FD029091FE028D7F05C08091FD0294
:102A30009091FE028B7F9093FE028093FD02802F87
:102A40000E9431220E94B6221EC18C2F837009F091
:102A500045C0D11114C1402F429546954770440F8F
:102A6000440F602F6F70862F90E0A0E0B0E0042E3E
:102A700004C0880F991FAA1FBB1F0A94D2F704FF36
:102A800010C00FE010E020E030E004C0000F111F84
:102A9000221F331F4A95D2F7009510952095309547
:102AA00003C000E010E09801C695C695C370BC0154
:102AB000CD01602B712B822B932BC23049F058F43F
:102AC000C13019F00E94C81ADAC00E94B61AD7C0E5
:102AD0000E94DA1AD4C00E94B41AD1C0DD2319F0C2
:102AE0008C2F817001C08695882309F4C8C0402FBF
:102AF000429546954770440F440F602F6F70862FA4
:102B000090E0A0E0B0E0042E04C0880F991FAA1F37
:102B1000BB1F0A94D2F704FF10C00FE010E020E0C2
:102B200030E004C0000F111F221F331F4A95D2F757
:102B3000009510952095309503C000E010E09801B5
:102B4000C695C695C370BC01CD01602B712B822B3D
:102B5000932BC23049F058F4C13019F00E948D1BFC
:102B60008EC00E947B1B8BC00E949F1B88C00E944E
:102B7000EE1A85C0CF70DD2339F08C2F0E94141B14
:102B8000802F0E9406147BC0802F0E940D148C2F72
:102B90000E94351B74C0023F01F128F4003F41F050
:102BA000013FA1F03FC0033FF9F0043F39F13AC0C3
:102BB000DD2341F0153008F05EC08C2F8F710E942C
:102BC0005A1B59C0163008F056C0F7CFDD2339F034
:102BD0008C2F8F710E94141B4EC0DD23C9F38C2FE4
:102BE0008F710E94351B47C0DD2329F08C2F8F7118
:102BF0000E94FF1A40C00E94FA1A3DC0DD2349F02E
:102C0000CF718C2F0E94141B63E08C2F0E940D1D2E
:102C100032C081E00E94221D123068F182E00E94E1
:102C2000221D29C0DD2331F0112391F2802F0E9453
:102C3000E11221C0112399F2093349F49FEFE7EE25
:102C4000F3E09150E040F040E1F700C00000802F39
:102C50000E948B1310C04C2F4F70602FC7010E9431
:102C600008040E94251A0FC04C2F4F70602FC70117
:102C70000E940B0408C088EF8C0D843020F40E9461
:102C800075110E94A603DD20C9F00E947F1C80FD03
:102C900015C0F70112820E94791C0E94141BC70103
:102CA0000E947F160E94791CDF91CF911F910F9196
:102CB000FF90EF90DF90CF900C94351BDF91CF9178
:102CC0001F910F91FF90EF90DF90CF9008950F9399
:102CD0001F93CF93DF93EC01688179818A810E94F1
:102CE000561C8C010E94B11B0E94A21AB801CE0191
:102CF0000E941414DF91CF911F910F910895CF93EB
:102D0000DF93FC019081818123813481232B31F079
:102D10008F3F31F481E09F3F19F403C081E001C08F
:102D200080E080FD0EC0EF01CF010E94BF03882329
:102D300041F0CE010E946716CE01DF91CF910C9435
:102D40008A03DF91CF9108950E94AA1C0E94BA1CA9
:102D50000E94D81C0E94E0230E94B62280E090E0EE
:102D60000E94A91180E090E00C94BF1180911001A5
:102D7000909111010E94A11E0C94A4160E949A1C0D
:102D80000C94B616E92FE295EF704E2F50E0FA0141
:102D90003297EE30F105B0F4E658FF4F0C94432B18
:102DA000803F91F018F4883E68F40EC0843F51F4DF
:102DB0000BC0883E48F0813F29F406C093FB88276A
:102DC00080F9089580E0089581E008950E944B1CE9
:102DD0000E94C2160895CF93DF9300D000D01F92B7
:102DE000CDB7DEB70F900F900F900F900F90DF913F
:102DF000CF910895CF93DF9300D000D000D0CDB70E
:102E0000DEB726960FB6F894DEBF0FBECDBFDF91BA
:102E1000CF9108951F93CF93DF93C091E70116E000
:102E20008091E801C81799F0D0E01C9FF0011D9F28
:102E3000F00D1124E751FE4F408151816281738171
:102E4000848195810E94FA162196C770E9CFDF919F
:102E5000CF911F9108954091190250911A026091EB
:102E60001B0270911C0280911D0290911E020C9415
:102E7000FA160F931F93CF93DF9380911E028295D2
:102E80008F7009F05DC080911B02882309F458C03F
:102E90008091E7011091E8016091190270911A0286
:102EA000C0911C02D0911D0291E06F3F09F090E0AB
:102EB000292F06E0811709F443C0209721F07F3FB6
:102EC00021F030E003C031E001C0322F90E030FD4E
:102ED00034C0089FF001099FF00D1124DF01A751B4
:102EE000BE4F11963C911197371327C03C91361372
:102EF00024C012963C91129731111FC013964D9128
:102F00005C9114974C1B5D0B483C5105B0F48091CB
:102F10001E028F70806180931E02E251FE4F8081FD
:102F20008F708061808389E192E00E947F16DF913B
:102F3000CF911F910F910C940A1701968770BACF09
:102F4000DF91CF911F910F9108959F92AF92BF9201
:102F5000CF92DF92EF92FF920F931F93CF93DF9365
:102F6000CDB7DEB761970FB6F894DEBF0FBECDBF09
:102F70008C0185E0F801DE011D9601900D928A9585
:102F8000E1F7F80140815181E2809091190260914E
:102F90001A0220911C0230911D022115310531F0D9
:102FA0006F3F31F481E09F3F19F403C081E001C01D
:102FB00080E0F82FF1709F2E80FD46C1F801A380BC
:102FC000B48089E1C82E82E0D82EF0901B02F50172
:102FD000E21BF30BFF2009F4DFC080911E02E83CE6
:102FE000F10508F09BC0282F207F09F052C056132E
:102FF00013C0491311C0FE2CE1100EC08F70806108
:1030000080931E020E942B17C6010E947F1680919A
:103010001E02F801858358C1AB2831F05F3F31F4BF
:1030200081E04F3F19F403C081E001C080E080FDE2
:1030300003C081E08E2502C080E090E0F82FF1709F
:10304000FF2E80FF1CC08091E7012091E80136E04F
:10305000821709F417C190E0389FF001399FF00DF5
:103060001124E751FE4F6181561306C0608146135B
:1030700003C06281E61203C001968770E9CFFE2C7F
:10308000EE2009F421C180911E02816080931E020E
:103090005AC0561306C0491304C0E11002C0F8011B
:1030A0009FC04D875E878D859E850E94E61688238A
:1030B00079F1EE2069F120911E02822F82958F70A6
:1030C00090E0029774F08091190290911A0298870B
:1030D0008F831986BB86AA862C87CE0107960E940D
:1030E0007F1686E0F801A9E1B2E001900D928A9581
:1030F000E1F70E9439170E942B170DC0561729F1CE
:103100004D875E878D859E850E94E61681112CC0B5
:10311000C8010E947F16FF24F394D6C0282F207F79
:1031200069F77A2DB98AA88A6E2D89890E94EB16D3
:1031300089E192E00E947F1686E0F60111928A955D
:10314000E9F70E942B17F12CBFC04913D9CFE1102A
:10315000D7CFF8018583C8010E947F1686E0F6016B
:1031600011928A95E9F7B0C0EE2091F220911E02EB
:10317000822F82958F7090E002970CF4B2CF8091ED
:10318000190290911A029A8389831B82BD82AC82B4
:103190002E83CE010196A3CFE83CF10508F047C08D
:1031A000FE2CEE2009F4B4CF561330C049132EC0C4
:1031B00020911E0220FD21C0822F82958F70482F02
:1031C00050E041155105C9F0F80125834F305105F4
:1031D00041F08F5F982F9295907F822F8F70892B6F
:1031E0008583C8010E947F1686E0F801A9E1B2E05C
:1031F00001900D928A95E1F742C086E0F801A9E1BD
:10320000B2E001900D928A95E1F75EC04D875E872E
:103210008D859E850E94E616811163CF80911E02E6
:10322000816080931E02C8010E947F164DC07A2DD6
:10323000B98AA88A6E2D89890E94EB1686E0F6016C
:1032400011928A95E9F71BC0EE2009F461CF4D87F2
:103250005E878D859E850E94E616F82E882309F4E8
:1032600057CF86E0F801A9E1B2E001900D928A956E
:10327000E1F789E192E00E94DB120E9439170E9477
:103280002B1722C04D875E878D859E850E944B1C23
:10329000292F22952F70223028F49F7039F0811148
:1032A00005C00BC0243028F49F7049F4805E88303C
:1032B00020F0C8010E947F169F2CF92C05C0F80150
:1032C0009581907F99F7F9CF8F2D61960FB6F8947D
:1032D000DEBF0FBECDBFDF91CF911F910F91FF9049
:1032E000EF90DF90CF90BF90AF909F9008951F9385
:1032F000CF93DF93CDB7DEB72C970FB6F894DEBF30
:103300000FBECDBF4F83588769877A878B879C878D
:10331000CE0107960E94A5178823D1F09F8188854A
:103320002A853B85232B31F08F3F31F481E09F3F8D
:1033300019F403C081E001C080E080FD47C04F81E7
:10334000588569857A858B859C850E94FA163EC0D2
:1033500086E0FE013796DE01119601900D928A9566
:10336000E1F7FF81E8856A857B856115710531F09C
:10337000EF3F31F481E0FF3F19F403C081E001C069
:1033800080E080FD23C02091E80130E0C901019672
:10339000877099274091E70150E084179507F1F174
:1033A000F983EA837D836C8396E0929FD001939F9B
:1033B000B00D1124A751BE4FFE01319601900D9220
:1033C0009A95E1F78093E8010E940A1716E0809130
:1033D000E7019091E801891771F1189FC00111244C
:1033E00087519E4F0E94A517882329F1E091E7019C
:1033F0001E9FF0011124E751FE4F408151816281EF
:103400007381848195810E94FA168091E70190E092
:103410000196877099278093E701D9CF0E94BE1645
:103420001092E8011092E701E9E1F2E086E0DF01A5
:103430001D928A95E9F72C960FB6F894DEBF0FBE61
:10344000CDBFDF91CF911F910895EF92FF920F931F
:103450001F93CF93DF938C01892B09F46CC0F12C5F
:10346000EE24E394E8012196F8018491843740F436
:10347000843008F051C0813081F0823019F15BC096
:10348000853709F444C0A8F19CE7980F903708F0FD
:1034900052C08F770E948B1341C00E5F1F4FFE01F9
:1034A000849190E2980F983050F48770FE2D01C0FF
:1034B000FF0F8A95EAF78F2F0E94AD1C14C00E945F
:1034C000E1122DC00E5F1F4FFE01849190E2980F14
:1034D000983060F48770FE2D01C0FF0F8A95EAF7DF
:1034E0008F2F0E94B31C0E94D81C19C00E948B13FE
:1034F00016C00E5F1F4FFE01C491CC2381F08FE9EF
:103500009FE00197F1F700C00000C150F6CF0E5FB9
:103510001F4FFE01F49003C00E94E1128E018F2D17
:10352000882309F49FCFEFE9FFE03197F1F700C05E
:1035300000008150F5CFDF91CF911F910F91FF9047
:10354000EF900895089508950C94A31A0C94A41A6A
:103550000E94A61A609355027093560280935702F8
:10356000909358020C94A4160C94A81A0F931F93CE
:103570000091550210915602209157023091580245
:10358000602B712B822B932B1F910F910C94A81AF7
:103590000F931F93009155021091560220915702EC
:1035A0003091580260237123822393231F910F913E
:1035B0000C94A81A0F931F93009155021091560274
:1035C0002091570230915802602771278227932754
:1035D0001F910F910C94A81A0C94A31A0E94EC1A34
:1035E000609351027093520280935302909354025D
:1035F0000C94A41660E070E0CB010C94EE1A0F93CB
:103600001F9341E050E060E070E08A019B0104C03C
:10361000000F111F221F331F8A95D2F7C901B8016D
:103620001F910F910C94EE1A0F931F9341E050E0FD
:1036300060E070E004C0440F551F661F771F8A9535
:10364000D2F78091510290915202A0915302B09111
:1036500054028A019B01082B192B2A2B3B2BC901F1
:10366000B8011F910F910C94EE1A0F931F9341E034
:1036700050E060E070E004C0440F551F661F771FE4
:103680008A95D2F74095509560957095809151023A
:1036900090915202A0915302B09154028A019B0171
:1036A000082319232A233B23C901B8011F910F9135
:1036B0000C94EE1A0F931F9341E050E060E070E02D
:1036C00004C0440F551F661F771F8A95D2F780915B
:1036D000510290915202A0915302B09154028A017A
:1036E0009B01082719272A273B27C901B8011F91E9
:1036F0000F910C94EE1A0F931F93009151021091A9
:1037000052022091530230915402602B712B822B74
:10371000932B1F910F910C94EE1A0F931F9300910E
:1037200051021091520220915302309154026023B1
:103730007123822393231F910F910C94EE1A0F9300
:103740001F93009151021091520220915302309127
:10375000540260277127822793271F910F910C94A1
:10376000EE1A08952FE0929F800D1124E82FE69520
:10377000E695E695877051E001C0550F8A95EAF706
:1037800085E0E89FF0011124E15EFD4F20E030E08C
:1037900070E04081CB01022E02C0969587950A9475
:1037A000E2F78170819584278523842781932F5F99
:1037B0003F4F2530310569F708952FE0929F800D26
:1037C0001124682F669566956695982F977085E009
:1037D000689FB001112440E050E080E0FB01E40F5D
:1037E000F51FE15EFD4F208130E0092E02C03695C5
:1037F00027950A94E2F721703327042E01C0220F87
:103800000A94EAF7822B4F5F5F4F4530510531F73D
:103810000895BF92CF92DF92EF92FF920F931F9382
:10382000CF93DF938C01C0905102D0905202E09070
:103830005302F09054028091550290915602A0914B
:103840005702B0915802C82AD92AEA2AFB2ACFE1A6
:10385000D0E0D701C6010C2E04C0B695A795979568
:1038600087950A94D2F780FD04C0219790F7B12C78
:1038700007C0BC2EB8018C2F0E9427040197A9F322
:103880008B2DDF91CF911F910F91FF90EF90DF90E3
:10389000CF90BF900895CF93DF93EC010E94091C55
:1038A000BE010E942704DF91CF9108951F93CF930B
:1038B000DF93EB019091E601992321F0CB010E9467
:1038C0004B1C13C0882349F0CB010E94091C182F00
:1038D000682FCE010E94B21B04C0CB010E94DD1BE9
:1038E000182FBE01812F0E942704DF91CF911F91D5
:1038F00008958091590285958595859508958091C3
:1039000059028770089590915902977081E009F4E7
:1039100080E0089580917D02089590917D02892B29
:1039200080937D020895809590917D0289238093F4
:103930007D02089510927D02089590917C02892B5A
:1039400080937C020895809590917C0289238093D6
:103950007C02089510927C02089590917B02892B3D
:1039600080937B020895809590917B0289238093B8
:103970007B02089510927B02089580915A02089567
:1039800008950C94C01C0C94C11C90915A02981775
:1039900021F080935A020C94C31C089580915A021E
:1039A000882329F010925A0280E00C94C31C0895D9
:1039B000E0911001F091110180917D028083E091EE
:1039C0001001F0911101908180917C02892B8083FC
:1039D000E0911001F0911101908180917B02892B7F
:1039E000808380915A02882381F0E0911001F09148
:1039F00011019081892B8083809110019091110198
:103A00000E94F51D81110E94CE1C809110019091A1
:103A100011010C9481110C94C01C98E0899F9001B5
:103A20001124262B209359020E94141B80915902C5
:103A30008595859585950C940B1D1092590280E013
:103A40000C940B1D2091590280958223809359027A
:103A5000982F977079F430E0482F082E000C550B02
:103A60002417350739F08595859585950E94351B76
:103A70000C941D1D089580E090E00E947E2B21E0B3
:103A80008C3E9E4F09F020E0822F089582E090E066
:103A90000C94702B682F82E090E00C94842B83E0D0
:103AA00090E00C94702B682F83E090E00C94842BB2
:103AB000CF9384E090E00E94702BC82F81E290E0C9
:103AC0000E94702B2C2F30E0A901582BCA01CF91F6
:103AD0000895CF93C92F682F84E090E00E94842B33
:103AE0006C2F81E290E0CF910C94842B86E090E0E3
:103AF0000C94702B682F86E090E00C94842BAB0123
:103B0000BC018FE090E00C94962BAB01BC0183E1EB
:103B100090E00C94962B60E070E0CB010C94851D36
:103B200060E070E0CB010E947F1D0C948B1D6CEE59
:103B30007EEF80E090E00E94A22B60E082E090E0C7
:103B40000E94842B60E083E090E00E94842B10921E
:103B5000550210925602109257021092580260E0DD
:103B600084E090E00E94842B60E081E290E00E947B
:103B7000842B60E085E090E00E94842B60E086E08A
:103B800090E00E94842B6FEF87E090E00E94842BEE
:103B900040E050E0BA0188E090E00E94962B60E09F
:103BA0008DE090E00E94842B40E050E0BA0188E173
:103BB00090E00E94962B60E087E190E00E94842BC9
:103BC00040E050E0BA018CE190E00E94962B60E06A
:103BD00080E290E00E94842B0C94901D0C94971D21
:103BE000682F8EE090E00C94842BFC01329680913B
:103BF0002401882331F08091030387FF02C09EE1F6
:103C000001C096E080E0915028F021912223D9F361
:103C10008F5FF9CF0895662351F12091240122236B
:103C2000E9F02091030327FF19C0462F46954695DA
:103C300046954E31E0F4677021E030E002C0220F7B
:103C4000331F6A95E2F7FC01E40FF11D828190E0D9
:103C50002823392381E0232B69F409C0FC01329623
:103C600008962191621729F0E817F907D1F780E04B
:103C7000089581E008959C01FC0132969FEF80E059
:103C80004191461789F09F3F19F4411101C0982FC7
:103C90008F5F8630A9F79F3F39F0F901E90FF11DD9
:103CA00097FDFA956283089508959C012A5F3F4F1E
:103CB000FC014281461301C01282019682179307CC
:103CC000B9F70895262F2695269526952E3168F466
:103CD000FC01E20FF11D677021E030E001C0220F0E
:103CE0006A95EAF78281282B22830895262F26954C
:103CF000269526952E3170F4FC01E20FF11D6770B8
:103D000021E030E001C0220F6A95EAF72095828118
:103D100028232283089520912401222329F0209131
:103D2000030327FD0C94621E0C943B1E209124017A
:103D3000222329F02091030327FD0C94761E0C9476
:103D4000551E20912401FC013296222331F08091EE
:103D5000030387FF02C08EE101C086E0DF011D92F0
:103D60008A95E9F7089508950C94B31E0C94B31E38
:103D7000CF930E94B61E0E947B060E94B41EC0E034
:103D80008C2F0E941606892B29F4CF5FC530C1F70E
:103D900080E001C081E0CF9108950C94B31E0C9493
:103DA000CD1E0E94CF1E80910903843009F43CC0CF
:103DB00010927F0220E488E190E00FB6F894A89575
:103DC000809360000FBE2093600080E00E94AE0EE2
:103DD00080E00E94A6030E94760C809180028111EF
:103DE0000AC081E0809380028091C7028170809335
:103DF00081020E94A90B0E94CF1E83B7817F84603D
:103E000083BF83B7816083BF7894889583B78E7FA3
:103E100083BF0FB6F894A895809160008861809365
:103E20006000109260000FBE08950C94B31E0E94B3
:103E3000BE160E949F0D0E9475110E94A60310924B
:103E400080028091810281110E946E0C0E94BB0B46
:103E50000C94151F1F920F920FB60F9211248F937F
:103E60009F93AF93BF9380917F02811113C0809184
:103E7000FF0290910003A0910103B09102034196CB
:103E8000A11DB11D8093FF0290930003A093010335
:103E9000B0930203BF91AF919F918F910F900FBE8E
:103EA0000F901F90189582E084BD93E095BD9AEF26
:103EB00097BD80936E0008952FB7F8948091FF020C
:103EC00090910003A0910103B09102032FBF0895C8
:103ED0009C014FB7F8948091FF0290910003A0914C
:103EE0000103B09102034FBF821B930B0895789496
:103EF0001F920F920FB60F9211248F939F93AF933F
:103F0000BF938091FF0290910003A0910103B091B3
:103F100002030196A11DB11D8093FF02909300033F
:103F2000A0930103B0930203BF91AF919F918F9132
:103F30000F900FBE0F901F90189581E08093E000C6
:103F400080E28093D8001092C9008FE19EE401972F
:103F5000F1F700C0000087E090EBDC0180931203D2
:103F600090931303A0931403B09315039CE088E18E
:103F70000FB6F894A895809360000FBE90936000F0
:103F8000FFCFAF92BF92CF92DF92EF92FF920F934B
:103F90001F93CF93C0E0CC24C394D12CE82EF12CF6
:103FA0008C2F0E9416065C0100E010E0C601002E76
:103FB00002C0880F991F0A94E2F78A219B21892B5E
:103FC00031F40F5F1F4F0F30110581F70AC0602FCA
:103FD0007C2F80E00E940C04E816F90691F781E03E
:103FE00004C0CF5FC530E1F680E0CF911F910F9103
:103FF000FF90EF90DF90CF90BF90AF900895CF9358
:10400000C82F8CE20E94C11F882321F08C2FCF91F2
:104010000C94C11F80E0CF910895CF930E943B1D67
:10402000811102C00E94EE1DC5E6C15049F00E94F8
:104030007B068FE39CE90197F1F700C00000F5CF04
:1040400089E20E94FF1F811120C18AE20E94FF1FA6
:1040500081110E94EE1D85E00E94FF1F81110E94C8
:104060009D1F0E94461D80937E0287E00E94FF1FD5
:104070008823A9F18BE10E94FF1F882351F08091D2
:104080007E0281FB222720F991E0922790FB81F9A3
:104090000EC08EE00E94FF1F882361F080917E0297
:1040A00082FB222720F991E0922790FB82F98093EE
:1040B0007E0215C080E10E94FF1F90917E0288233E
:1040C00041F093FB222720F981E0822780FB93F9BE
:1040D00004C0892F809580FB90F990937E02809197
:1040E0007E020E944A1D0E94581D909304038093F3
:1040F000030380EE0E94FF1F882341F08091030399
:10410000982F909590FB80F98093030389E30E9498
:10411000FF1F882359F08091030381FB222720F998
:1041200091E0922790FB81F98093030382EE0E9435
:10413000FF1F882359F08091030382FB222720F977
:1041400091E0922790FB82F98093030386EE0E9410
:10415000FF1F882359F08091030383FB222720F956
:1041600091E0922790FB83F98093030383EE0E94F2
:10417000FF1F882359F08091030384FB222720F935
:1041800091E0922790FB84F98093030385E30E94DA
:10419000FF1F882359F08091030385FB222720F914
:1041A00091E0922790FB85F98093030381E30E94BD
:1041B000FF1F882359F08091030386FB222720F9F3
:1041C00091E0922790FB86F98093030381E10E949E
:1041D000FF1F882359F08091030387FB222720F9D2
:1041E00091E0922790FB87F980930303809103036A
:1041F000909104030E94691D87E20E94FF1FC82F4F
:104200008EE10E94FF1F8111C2608FE10E94FF1F9B
:104210008111C46080E20E94FF1F8111C86081E2A9
:104220000E94FF1F8111C06182E20E94FF1F811165
:10423000C06283E20E94FF1F8111C06484E20E9479
:10424000FF1F882311F0C06802C0CC2329F08C2FF7
:104250000E94531D6C2F03C00E944F1D682F70E0F9
:1042600080E090E00E94B41A8FE00E94FF1F882334
:1042700019F081E00E94F01D85E10E94FF1F882354
:1042800021F080E0CF910C94F01DCF9108958091A2
:10429000890280FF0BC06091170185E0689FB00123
:1042A000112475956795759567952BC081FF09C099
:1042B0006091170185E0689FB0011124759567959D
:1042C00020C082FF07C06091170185E0689FB001A0
:1042D000112417C0909188029923D1F060911601A2
:1042E000961788F72091170185E0289F90011124E7
:1042F000929FA001939F500D112470E0CA010E946B
:104300000D2B6038710540F46115710519F406C074
:1043100065E070E0862F08958FE7089581E00895A5
:104320008091890280FF08C06091130170E075954B
:1043300067957595679521C081FF06C0609113014F
:1043400070E07595679519C082FF04C060911301F4
:1043500070E010C090918802992399F06091120149
:104360009617A0F780911301899FC001112470E076
:104370000E940D2B6038710540F46115710519F428
:1043800006C061E070E0862F08958FE7089581E010
:104390000895803F21F40E944721819504C0813F08
:1043A00029F40E94472180938D020895823F21F4D1
:1043B0000E944721819504C0833F29F40E94472130
:1043C00080938C020895893F19F40E94902105C0C2
:1043D0008A3F31F40E949021819580938E02089546
:1043E0008B3F21F40E949021819504C08C3F29F4D9
:1043F0000E94902180938F020895843F21F4809140
:104400008B02816017C0853F21F480918B0282600E
:1044100011C0863F21F480918B0284600BC0873FDE
:1044200021F480918B02886005C0883F31F480912F
:104430008B02806180938B0208958D3F21F48091DF
:10444000890281600BC08E3F21F4809189028260D5
:1044500005C08F3F29F4809189028460809389028E
:104460000895803F39F480918D0287FF6CC01092CF
:104470008D0269C0813F29F480918D021816BCF32A
:1044800062C090918C02823F29F497FF5CC0109229
:104490008C0259C0833F19F41916CCF354C0893FDC
:1044A00041F480918E0218160CF04DC010928E02CD
:1044B0004AC08A3F29F480918E0287FF44C0F6CF1C
:1044C0008B3F39F480918F0287FF3DC010928F029D
:1044D0003AC08C3F29F480918F021816BCF333C088
:1044E000843F21F480918B028E7F17C0853F21F499
:1044F00080918B028D7F11C0863F21F480918B02C9
:104500008B7F0BC0873F21F480918B02877F05C092
:10451000883F31F480918B028F7E80938B0213C091
:104520008D3F21F4809189028E7F0BC08E3F21F454
:10453000809189028D7F05C08F3F29F48091890287
:104540008B7F8093890280918C0281110EC08091B3
:104550008D0281110AC080918E02811106C0809166
:104560008F02811102C01092880208958AE892E0B9
:104570000E949B110E945C1F909387028093860289
:104580000895CF93DF9300D000D000D0CDB7DEB731
:1045900086E0EAE8F2E0DE01119601900D928A953C
:1045A000E1F780918C02811105C080918D028823F2
:1045B00009F47AC080918402909185020E94681F5C
:1045C000AC0190918802992339F02091180130E0D4
:1045D0002417350758F068C0209119018AE0289FF8
:1045E000900111242417350718F05EC09F3F19F081
:1045F0009F5F9093880210928E0210928F0280919A
:104600008C02181624F40E94472180938C0280911A
:104610008C0287FF05C00E944721819580938C0200
:1046200080918D02181624F40E94472180938D02F8
:1046300080918D0287FF05C00E944721819580935C
:104640008D0230918C023323E1F020918D022223E0
:10465000C1F045EB3403C0011124992319F0909364
:104660008C0203C081E080938C0235EB2303C001F0
:104670001124992319F090938D0203C081E0809357
:104680008D020E94B62280918602909187029093BB
:1046900085028093840286E0FE013196AAE8B2E0AA
:1046A00001900D928A95E1F780918E02811105C0EB
:1046B00080918F02882309F47AC0809182029091C0
:1046C00083020E94681FAC0190918802992339F0FF
:1046D0002091140130E02417350758F068C020916C
:1046E00015018AE0289F900111242417350718F03E
:1046F0005EC09F3F19F09F5F9093880210928C02DA
:1047000010928D0280918E02181624F40E9490213E
:1047100080938E0280918E0287FF05C00E949021B7
:10472000819580938E0280918F02181624F40E9446
:10473000902180938F0280918F0287FF05C00E9495
:104740009021819580938F0230918E023323E1F086
:1047500020918F022223C1F045EB3403C0011124C4
:10476000992319F090938E0203C081E080938E020A
:1047700035EB2303C0011124992319F090938F0284
:1047800003C081E080938F020E94B622809186024E
:1047900090918702909383028093820286E0FE01CB
:1047A0003196AAE8B2E001900D928A95E1F726963B
:1047B0000FB6F894DEBF0FBECDBFDF91CF91089545
:1047C000EAE8F2E086E0DF011D928A95E9F71092AF
:1047D00088021092890208958091B0020895CF93C3
:1047E000DF9300D01F92CDB7DEB7909109039430CC
:1047F00019F589837B836A8382E08093E9008FEFD8
:104800009091E800815095FD06C095ED9A95F1F7DD
:1048100000008111F5CF8091E80085FF0DC040E0D8
:1048200050E063E070E0CE0101960E944B2680913B
:10483000E8008E778093E8000F900F900F90DF9143
:10484000CF910895CF93DF93EC010E942E26823002
:1048500011F0843031F4BE0184E0DF91CF910C94EB
:10486000EF23DF91CF910895BC0183E00C94EF23F7
:10487000CF93DF93EC010E942E26823011F084301A
:10488000F9F482E08093E9008FEF9091E800815085
:1048900095FD06C095ED9A95F1F700008111F5CFD1
:1048A0008091E80085FF0CC040E050E066E070E0D9
:1048B000CE010E944B268091E8008E778093E8001D
:1048C000DF91CF910895CF93DF93EC010E942E26C4
:1048D000823011F08430D9F580912401882339F099
:1048E0008091030387FF03C060E282E002C068E0BA
:1048F00081E08093E9008FEF9091E800815095FD71
:1049000006C095ED9A95F1F700008111F5CF8091E1
:10491000E80085FF1CC080912401811105C040E0A2
:1049200050E068E070E003C070E040E050E0CE018D
:104930000E944B268091E8008E778093E80080E209
:10494000FE01A0E9B2E001900D928A95E1F7DF91B6
:10495000CF91089580910803811109C00E94DC273E
:104960000E9439288091E20084608093E2000895DB
:10497000109208030895089508950C94171F42E0BB
:1049800061EC81E00E94552742E261EC82E00C94E8
:10499000552780910B03833009F460C030F48130D7
:1049A00071F0823009F499C008958A3009F485C005
:1049B0008B3009F46BC0893009F0A7C020C080910A
:1049C0000A03813A09F0A1C08091E800877F8093B3
:1049D000E80080910E0390910F03892B21F460E28F
:1049E00080E992E003C060E080E090E070E00E9427
:1049F00096268091E8008B778093E8000895809157
:104A00000A03813209F081C080910E0390910F0357
:104A1000029708F07AC08091E800877F8093E800D1
:104A20008091E80082FD05C0809109038111F8CFD3
:104A30006CC02091F3008091F20090E0922B0297DD
:104A400029F48091F1008B7F813021F48091F10075
:104A50008093B0028091E8008B7753C080910A0365
:104A6000813A09F052C080910E0390910F03892B77
:104A700009F04BC08091E800877F8093E800809127
:104A8000E80080FFFCCF8091240136C080910A03AA
:104A90008132D9F580910E0390910F03892BA9F5EE
:104AA0008091E800877F8093E8000E948A278091A8
:104AB0000C03809324010C94BE1680910A0381326A
:104AC00021F58091E800877F8093E8000E948A2783
:104AD00080910D038093B102089580910A03813A79
:104AE000A1F48091E800877F8093E8008091E8003E
:104AF00080FFFCCF8091B1028093F1008091E800AB
:104B00008E778093E8000C948A27089584B7877F76
:104B100084BF0FB6F894A895809160008861809357
:104B20006000109260000FBE90E080E80FB6F8942D
:104B300080936100909361000FBE0E94E5110E9476
:104B4000DC270E9439288091E20084608093E20093
:104B500078940E94CE2A0E94ED118AE191E00E9491
:104B6000701180910903853069F40E94D11E8091F3
:104B700007038823B1F30E94B81E882391F30E9493
:104B80003526EFCF0E94F911ECCF0C94C725292FC1
:104B9000332723303105C9F060F42130310581F02D
:104BA0002230310509F04AC08BE390E02FE834E071
:104BB00049C02132310511F12232310579F13EC06F
:104BC00082E190E02AEC34E03DC0992781309105E4
:104BD00061F040F08230910559F0039779F5E7E6EE
:104BE000F4E008C0EBE8F4E005C0E9E7F4E002C057
:104BF000EDE6F4E0849190E09F0124C06115710519
:104C000041F061307105D1F489E090E02AEB34E0A5
:104C100019C089E090E021EA34E014C06115710503
:104C200041F06130710551F48CEB90E02CED34E0F3
:104C300009C080E490E028E935E004C080E090E01D
:104C400020E030E0FA013183208308958091090348
:104C5000843011F081E0089582E008958091B202DD
:104C6000811102C00C942626089580E189BD82E15D
:104C700089BD09B400FEFDCF8091D8008F7D80935F
:104C8000D8008091E00082608093E0008091E00095
:104C900081FDFCCF0895CF92DF92EF92FF920F93A8
:104CA0001F93CF93DF93EC018B017A010E94A92718
:104CB000811133C0E114F10439F0F7018081918151
:104CC000081B190BC80FD91FC12CD12C01151105B8
:104CD00019F18091E80085FD16C08091E8008E777B
:104CE0008093E800E114F10449F0F701808191819B
:104CF000C80ED91ED182C08285E00FC00E94A927AC
:104D0000882321F30AC089918093F1000150110991
:104D1000FFEFCF1ADF0ADACF80E0DF91CF911F914A
:104D20000F91FF90EF90DF90CF90089520911003A6
:104D3000309111032617370748F06115710539F4D2
:104D40002091E8002E772093E80001C0B901FC0112
:104D500020E06115710579F1809109038823F1F153
:104D60008530F1F18091E80083FD3CC08091E8003E
:104D700082FD2EC08091E80080FFEBCF2091F300F0
:104D80008091F20090E0922B6115710551F088300E
:104D9000910538F421912093F10061507109019639
:104DA000F3CF21E0089709F020E08091E8008E77AA
:104DB0008093E800CECF2111CFCF0AC080910903A4
:104DC000882361F0853061F08091E80083FD0AC09E
:104DD0008091E80082FFF2CF80E0089582E008959C
:104DE00083E0089581E0089520911003309111032C
:104DF0002617370748F06115710539F42091E8004E
:104E00002E772093E80001C0B901FC0120E0611574
:104E1000710591F180910903882309F440C0853020
:104E200009F43FC08091E80083FD3DC08091E80017
:104E300082FD2FC08091E80080FFE9CF2091F30030
:104E40008091F20090E0922B6115710559F0883045
:104E5000910540F424912093F1003196615071093D
:104E60000196F2CF21E0089709F020E08091E80058
:104E70008E778093E800CBCF2111CCCF0AC08091F0
:104E80000903882361F0853061F08091E80083FD9B
:104E90000AC08091E80082FFF2CF80E0089582E0AE
:104EA000089583E0089581E00895982F973068F57C
:104EB0009093E900981739F07091EC002091ED0083
:104EC0005091F00003C0242F762F50E021FD02C046
:104ED0009F5FECCF3091EB003E7F3093EB00309141
:104EE000ED003D7F3093ED003091EB003160309369
:104EF000EB007093EC002093ED005093F0002091B4
:104F0000EE0027FDE5CF80E008958F708093E900E3
:104F100081E0089580910A0387FF11C08091E80025
:104F200082FD05C0809109038111F8CF11C08091E5
:104F3000E8008B770BC080910903882349F08091AA
:104F4000E80080FFF8CF8091E8008E778093E8003A
:104F500008952091E4003091E50095E64091EC0041
:104F6000842F817040FF23C08091E80080FD1DC028
:104F700080910903882399F0853099F08091EB00A6
:104F800085FD11C04091E4005091E50024173507DC
:104F900029F3915011F09A01E1CF84E0089582E065
:104FA000089583E0089581E0089580E00895409198
:104FB000E80042FFDDCF08950E944A280E9452284F
:104FC000E0EEF0E0808181608083E8EDF0E08081B8
:104FD0008F77808319BCA7EDB0E08C918E7F8C9386
:104FE00080818F7E80831092080308950F931F9312
:104FF000CF93DF930E944A280E945228C8EDD0E048
:1050000088818F77888388818068888388818F7D75
:10501000888319BC109209031092050310920703AC
:105020001092060300EE10E0F80180818B7F8083F0
:1050300088818160888342E060E080E00E9455279B
:10504000E1EEF0E080818E7F8083E2EEF0E080810F
:1050500081608083808188608083F80180818E7F79
:105060008083888180618883DF91CF911F910F9128
:105070000895E8EDF0E080818F7E8083E7EDF0E039
:1050800080818160808384E082BF81E08093080317
:105090000C94F627E8EDF0E080818E7F80831092FB
:1050A000E20008951092DA001092E10008951F9234
:1050B0000F920FB60F9211242F933F934F935F934C
:1050C0006F937F938F939F93AF93BF93EF93FF93D0
:1050D0008091E10082FF0BC08091E20082FF07C057
:1050E0008091E1008B7F8093E1000E94CD2A809126
:1050F000DA0080FF1FC08091D80080FF1BC0809124
:10510000DA008E7F8093DA008091D90080FF0DC095
:1051100080E189BD82E189BD09B400FEFDCF81E057
:10512000809309030E94AA2405C019BC10920903A8
:105130000E94B8248091E10080FF19C08091E200B4
:1051400080FF15C08091E2008E7F8093E200809105
:10515000E20080618093E2008091D80080628093B9
:10516000D80019BC85E0809309030E94BC2480917B
:10517000E10084FF30C08091E20084FF2CC080E118
:1051800089BD82E189BD09B400FEFDCF8091D800C0
:105190008F7D8093D8008091E1008F7E8093E10025
:1051A0008091E2008F7E8093E2008091E200816036
:1051B0008093E20080910503882311F084E007C00A
:1051C0008091E30087FD02C081E001C083E080930D
:1051D00009030E94BD248091E10083FF29C08091D2
:1051E000E20083FF25C08091E100877F8093E1008A
:1051F00082E080930903109205038091E1008E7F85
:105200008093E1008091E2008E7F8093E2008091A4
:10521000E20080618093E20042E060E080E00E9472
:1052200055278091F00088608093F0000E94BB2495
:10523000FF91EF91BF91AF919F918F917F916F916E
:105240005F914F913F912F910F900FBE0F901F9044
:1052500018951F920F920FB60F9211242F933F9320
:105260004F935F936F937F938F939F93AF93BF936E
:10527000CF93DF93EF93FF93C091E900CF708091BC
:10528000EC00D82FD17080FDD0E81092E900809119
:10529000F000877F8093F00078940E946D2910922F
:1052A000E9008091F00088608093F000CD2BCF70F2
:1052B000C093E900FF91EF91DF91CF91BF91AF9142
:1052C0009F918F917F916F915F914F913F912F911E
:1052D0000F900FBE0F901F9018951F93CF93DF93E1
:1052E000CDB7DEB7AA970FB6F894DEBF0FBECDBF1D
:1052F000EAE0F3E08091F100819323E0E231F207EC
:10530000C9F70E94C9248091E80083FF2EC18091D3
:105310000A0390910B03492F50E04A30510508F0E1
:1053200024C1FA01E857FF4F0C94432B803821F039
:10533000823809F01AC108C08091060390910703D2
:10534000992389F082600FC080910E038F7087309F
:1053500008F00BC18093E9008091EB0085FB882762
:1053600080F91092E9009091E800977F9093E8000F
:105370008093F1001092F100D1C0282F2D7F09F009
:10538000F4C0882319F0823061F0EFC080910C03E3
:10539000813009F0EAC0933009F080E08093070380
:1053A0002EC080910C0381112AC080910E038F7052
:1053B0002FEF280F263008F0D8C08093E900209105
:1053C000EB0020FF1CC0933021F48091EB00806241
:1053D00014C09091EB0090619093EB0021E030E0DD
:1053E000A90102C0440F551F8A95E2F74093EA00D5
:1053F0001092EA008091EB0088608093EB0010929D
:10540000E9008091E800877F8093E8000E948A2766
:10541000ACC08111AAC010910C031F778091E300EA
:105420008078812B8093E3008091E800877F8093D0
:10543000E8000E948A278091E80080FFFCCF8091DD
:10544000E30080688093E300111102C082E001C094
:1054500083E08093090389C08058823008F085C0BA
:1054600080910C0390910D038C3D53E0950779F5E5
:1054700083E08A838AE289834FB7F894DE0113962A
:1054800020E03EE051E2E32FF0E050935700E4913A
:1054900020FF03C0E295EF703F5FEF708E2F90E02A
:1054A000EA3010F0C79601C0C0968D939D932F5F90
:1054B000243149F74FBF8091E800877F8093E8004F
:1054C0006AE270E0CE0101960E94962616C06091B5
:1054D0000E0370910F03AE014F5F5F4F0E94C52511
:1054E000BC01892B09F441C09091E800977F90930B
:1054F000E80089819A810E94F4268091E8008B77E8
:105500008093E80032C0803881F58091E800877F81
:105510008093E800809105038093F1008091E8007A
:105520008E7772CF811121C080910C0390910D0371
:1055300099270297D4F48091E800877F8093E80050
:1055400080910C03809305030E948A2780910503B4
:10555000811106C08091E30087FD02C081E001C097
:1055600084E0809309030E94BF248091E80083FFB8
:105570000AC08091E800877F8093E8008091EB006B
:1055800080628093EB00AA960FB6F894DEBF0FBE40
:10559000CDBFDF91CF911F9108950895CF93809152
:1055A00009038823A1F0C091E900CF709091EC002D
:1055B000892F817090FD80E8C82B1092E9008091BE
:1055C000E80083FD0E946D29CF70C093E900CF9160
:1055D0000895DB018F939F930E94582BBF91AF9149
:1055E000A29F800D911DA39F900DB29F900D11243D
:1055F0000895AA1BBB1B51E107C0AA1FBB1FA6171A
:10560000B70710F0A61BB70B881F991F5A95A9F76B
:1056100080959095BC01CD01089597FB072E16F457
:10562000009407D077FD09D00E94F92A07FC05D025
:105630003EF4909581959F4F0895709561957F4FA9
:105640000895A1E21A2EAA1BBB1BFD010DC0AA1FC3
:10565000BB1FEE1FFF1FA217B307E407F50720F0DB
:10566000A21BB30BE40BF50B661F771F881F991F56
:105670001A9469F760957095809590959B01AC019F
:10568000BD01CF010895EE0FFF1F0590F491E02DAD
:105690000994A29FB001B39FC001A39F700D811D0B
:1056A0001124911DB29F700D811D1124911D08952B
:1056B0000E94492BA59F900DB49F900DA49F800D33
:1056C000911D11240895FC014150504030F001908B
:1056D0000616D1F73197CF010895882799270895A5
:1056E000F999FECF92BD81BDF89A992780B50895AA
:1056F000A6E1B0E044E050E00C94AA2BA8E1B0E0B1
:1057000042E050E00C94AA2B262FF999FECF92BDCF
:1057100081BDF89A019700B4021639F01FBA20BD76
:105720000FB6F894FA9AF99A0FBE08950396272FA8
:105730000E94852B0E94842B252F0E94852B242FCD
:105740000C94852B0196272F0E94852B0C94842B7B
:10575000DC01CB01FC01F999FECF06C0F2BDE1BD31
:10576000F89A319600B40D9241505040B8F7089520
:04577000F894FFCFDB
:10577400010210101001191A1B1C1D1E1F202122CA
:105784005B022808641E140A321EEC2363243824A6
:105794003424222401E200E900EA00B500B600B78F
:1057A40000CD008301CC008A0192019401210223DF
:1057B4000224022502260227022A02B300B4006F43
:1057C400007000818283F0F1C6676637943130350A
:1057D40034979633F4909192939500010202020259
:1057E4000606060909090909090F0F0F0F0F0F15FE
:1057F400151518191919191919191919192324E240
:1058040000E900EA00B500B600B700CD008301CC82
:10581400008A019201940121022302240225022616
:105824000227022A02B300B4006F00700081828351
:00000001FF
