:100000000C94AE020C94E6020C94E6020C94E60208
:100010000C94E6020C94E6020C94E6020C94E602C0
:100020000C94E6020C94E6020C94E7270C94BB288F
:100030000C94FD220C94E6020C94E6020C94E60269
:100040000C94E6020C94E6020C94E6020C94E60290
:100050000C94E6020C9484230C94E6020C94E602C1
:100060000C94E6020C94E6020C94E6020C94E60270
:100070000C94E6020C94E6020C94E6020C94E60260
:100080000C94E6020C94E6020C94E6020C94E60250
:100090000C94E6020C94E6020C94E6020C94E60240
:1000A0000C94E6020C94E6020C94E602167C1E0008
:1000B0001F0020002100220023002400250026002C
:1000C00027002D002E0000002A002B000000140045
:1000D0001A000800150017001C0018000C00120080
:1000E00013002F00300031002152000004001600E0
:1000F000070009000A000B000D000E000F0033007E
:10010000340028000000E10000001D001B00060074
:1001100019000500110010003600370038000000FB
:10012000E5000000E000E3000000E2000000000045
:100130002C00000000000000E600E7000000215253
:10014000E40035003A003B003C003D003E003F002B
:1001500040004100420043004400450000004C00C4
:1001600001000000AC00AE00AB0001000100010086
:10017000010052000100460047004900010039001B
:100180000000000000000000010001004A005000D3
:1001900051004F004A004B00010000000100000028
:1001A000207821782478237826782578287827786D
:1001B0004D004E00000001000000010001000000A1
:1001C000010000000000010000000000000001002C
:1001D00001000000010001001E0F0500047F3F1F09
:1001E000643214643214783C1E1E140A052223253E
:1001F0002628292A2C2D2F3032333536383A3B3DEC
:100200003E4042434547494A4C4E50515355575939
:100210005A5C5E6062646668696B6D6F7173757756
:10022000797B7D7F81838587898A8C8E9092949655
:10023000989A9C9E9FA1A3A5A7A8AAACAEAFB1B364
:10024000B4B6B8B9BBBCBEBFC1C2C3C5C6C7C9CAB4
:10025000CBCCCDCED0D1D2D2D3D4D5D6D7D7D8D976
:10026000D9DADADBDBDBDCDCDCDCDCDDDDDDDDDCD4
:10027000DCDCDCDCDBDBDBDADAD9D9D8D7D7D6D5E6
:10028000D4D3D2D2D1D0CECDCCCBCAC9C7C6C5C3A8
:10029000C2C1BFBEBCBBB9B8B6B4B3B1AFAEACAAF5
:1002A000A8A7A5A3A19F9E9C9A98969492908E8CA5
:1002B0008A89878583817F7D7B79777573716F6D7F
:1002C0006B6968666462605E5C5A59575553515059
:1002D0004E4C4A4947454342403E3D3B3A3836350D
:1002E0003332302F2D2C2A292826252322FFAA7FBE
:1002F0005540000101010101010101010202020258
:1003000002020202020303030303030303040404BF
:100310000404040405050505050606060606070788
:1003200007070708080808090909090A0A0A0B0B40
:100330000B0C0C0C0D0D0D0E0E0E0F0F0F101011DF
:100340001111121213131414151516161717181865
:1003500019191A1A1B1B1C1D1D1E1E1F20202122CD
:1003600022232424252626272829292A2B2C2D2D13
:100370002E2F30313232333435363738393A3B3C30
:100380003D3E3F404142434445464748494A4C4D23
:100390004E4F50515354555658595A5B5D5E5F61EC
:1003A0006264656668696B6C6D6F7072737577787F
:1003B0007A7B7D7E8082838587888A8C8E8F9193DD
:1003C0009596989A9C9EA0A2A3A5A7A9ABADAFB104
:1003D000B3B5B7BABCBEC0C2C4C6C9CBCDCFD1D4E9
:1003E000D6D8DBDDDFE2E4E7E9EBEEF0F3F5F8FA8F
:1003F000FDFF0A0344005A003600300000001003DD
:100400004B0042004400460061006E007300000093
:100410000403090409023B00020100A0FA090400D8
:10042000000103010100092111010001224400071C
:10043000058103080001090401000103000000090F
:10044000211101000122B6000705820320000112DC
:10045000010002000000085A44602201000102006D
:100460000105010902A10185020901A1000509197F
:10047000012908150025019508750181020501096A
:100480003009311581257F950275088106093815D7
:1004900081257F950175088106050C0A38021581B2
:1004A000257F950175088106C0C005010980A1015D
:1004B000850319012AB700150126B70095017510AB
:1004C0008100C0050C0901A101850419012AA002BF
:1004D000150126A002950175108100C005010906CD
:1004E000A1018506050719E029E7150025019508F2
:1004F000750181020507190029EF1500250195F006
:1005000075018102050819012905950575019102FA
:10051000950175039101C005010906A1010507199F
:10052000E029E715002501950875018102950175FF
:100530000881010507190029FF150026FF0095060F
:100540007508810005081901290515002501950583
:1005500075019102950175039101C00011241FBE20
:10056000CFEFDAE0DEBFCDBF04B603FE18C0809146
:10057000A7039091A803A091A903B091AA03873083
:10058000904BA740B04B59F41092A7031092A803C8
:100590001092A9031092AA03E0E0F8E3099511E094
:1005A000A0E0B1E0E0E7F9E502C005900D92A43EBD
:1005B000B107D9F723E0A4EEB1E001C01D92A73A3C
:1005C000B207E1F70E94AA120C94622C0C9400006E
:1005D0008230B8F46530A8F44F3098F450E09FE0D2
:1005E000699F400D511D1124FA019BE4899FE00D84
:1005F000F11D1124EE0FFF1FE455FF4F85919491DB
:10060000089581E090E008950E94E802089581E055
:1006100008950E940703089581E008950E9407034A
:1006200008950E940E03089508950E9414030895EA
:10063000A6E0B0E0EEE1F3E00C940E2B49835A8380
:100640009E833091EB0189819A8131111AC03E81DC
:10065000332399F0222389F00E943B09182F682F39
:1006600089819A810E94170969817A81812F0E946C
:1006700055102696E3E00C942A2B0E942909182F86
:10068000F3CF0E943B0969817A81F1CFFC01262FCB
:100690004081518162817381848195810E94180318
:1006A0000895CF93DF93EC0161E00E944603BE0101
:1006B0000E940903DF91CF910895CF93DF93EC015E
:1006C00060E00E944603BE010E941503DF91CF91B6
:1006D000089581E008950E9469030895CF93C82F7B
:1006E0000E94EC078C2F0E946B032FEF84E39CE0A9
:1006F000215080409040E1F700C00000CF91089564
:1007000081E00E946E030E94A823089580E00E9469
:100710006E030E94CC2308950F931F93CF93DF9312
:100720008C0161E00E944603EC01F8018581811192
:100730000E94291AB801CE010E941103811106C03E
:1007400080E0DF91CF911F910F910895B801CE0104
:100750000E949C1B8823A1F3B801CE010E94CD20EA
:10076000882371F3B801CE010E94F71C882341F35E
:10077000B801CE010E94CD1C882311F3B801CE012F
:100780000E94481A8823E1F2F8018581882361F0EC
:10079000C330FCE7DF07E9F058F4C115ECE7DE07EA
:1007A000A9F0C130DC47B9F0C8010E940C03C9CFE1
:1007B000CB358CE7D807A9F0CC35ECE7DE0771F034
:1007C000CA35DC4789F70E94820DEECF0E94800374
:1007D000B7CF0E948A0D0E948603B2CF0E94780D87
:1007E000E3CF0E94860DE0CF0E94D92280E00E94D4
:1007F0007B1B0E942B040E948C1808950E94CB1A28
:100800000E942F040E9480190E94DE2208950895FC
:1008100081E0089581FD02C02A9A08952A980895DA
:10082000CF93DF93D82F0E940804C82F882319F094
:100830008D2F0E940A048C2FDF91CF910895229A68
:100840002A9A0895CF93C82F0E9407048C2F0E94E4
:100850001004CF91089580E00E94220408950E9420
:1008600016210E9422040895CF930E941621C82FBA
:100870008091E6018C1779F0C093E6010E9469230C
:100880006093E7017093E8018093E9019093EA0196
:100890008C2F0E942204CF910895ADE0B0E0E3E5F3
:1008A000F4E00C940F2B488759876A877B878C87E5
:1008B0009D8791110E94880C1F8286E0FE01389668
:1008C000DE01119601900D928A95E1F78D818111DB
:1008D0000DC029813A814B815C816D817E818F8140
:1008E0000E94D20B2D96E2E00C942B2BCE010196A8
:1008F0000E9451038111EDCFF5CFFC0124812130FD
:1009000021F4808191810E946D090895662329F068
:100910000E94581E0E943D1F08950E94C41EFACFD7
:10092000CF93C82F8823C9F08238C9F40E942321AD
:1009300081FD13C089E30E9442220E941C0D2FEF0B
:1009400087EE93E0215080409040E1F700C0000026
:1009500089E30E9459220E941C0DCF91089583388B
:10096000A1F40E94232180FDF8CF83E50E9442225A
:100970000E941C0D2FEF81EE94E0215080409040AA
:10098000E1F700C0000083E5E4CF8438A1F40E94C1
:10099000232182FDE2CF87E40E9442220E941C0DA7
:1009A0002FEF81EE94E0215080409040E1F700C0AD
:1009B000000087E4CECF8CEF8C0F813A70F48C2F3F
:1009C0000E94B921882329F08C2F0E9459220E946D
:1009D0001C0D8C2F0E944222BECF80E28C0F8830EB
:1009E00048F4C77081E001C0880FCA95EAF70E94F9
:1009F0006B0CB1CFEBE5EC0FE33040F4F0E0EC59D9
:100A0000FE4F808190E00E944D21A7CFE8E5EC0FDA
:100A1000EB3150F4F0E0EE0FFF1FE25DFE4F8081FE
:100A200091810E94722199CF83E38C0F833108F06A
:100A300094CF61E08C2F0E9486048FCF882309F425
:100A400056C0823879F40E94232181FF50C089E387
:100A50000E9442220E941C0D89E30E9459220E949A
:100A60001C0D0895833859F40E94232180FF3FC054
:100A700083E50E9442220E941C0D83E5EECF84385C
:100A800059F40E94232182FF32C087E40E9442224F
:100A90000E941C0D87E4E1CF9CEF980F913AE8F299
:100AA00090E2980F983050F4877091E001C0990F50
:100AB0008A95EAF7892F0E94710CD1CF9BE5980F98
:100AC000933028F490E080E00E944D21089598E54D
:100AD000980F9B3128F490E080E00E9472210895E5
:100AE00093E3980F933118F460E00E948604089510
:100AF0001F93CF93DF93182FEB010E949004209750
:100B000039F4812F0E941E05DF91CF911F91089526
:100B10008FE99FE00197F1F700C000002197EFCF28
:100B200070E060E0893311F460E570E00E947805C0
:100B30000895882321F00E946B0C0E941C0D0895DB
:100B4000882321F00E94710C0E941C0D0895B0E0D2
:100B5000A0E0EDEAF5E00C94082B6C01D62FC72F2E
:100B6000FC011581068102950F700E94610CE82E30
:100B70008823F9F0E12E1123E1F08C2F807F80345F
:100B800061F080E28D0F883008F18C2F807E8032FA
:100B900021F4D230D8F00023C9F08091480382FFBD
:100BA00015C082E00E944C0D0E94610C91E0E82E7D
:100BB000E926BC2EB2949FE0B922FBE0FB15B8F108
:100BC000EB2DF0E0EC59F34D0C94C82AE12CF1CF59
:100BD0000C2F0F70C07F11F00295007F112399F048
:100BE000002359F080E28D0F883010F0D11107C03A
:100BF000802F0E946B0C0E941C0D8D2F5AC0802FDD
:100C00000E947B0CF8CF8D2F0E941E05002379F0E7
:100C100080E28D0F883010F0D11104C0802F0E9427
:100C2000710C03C0802F0E94810C0E941C0DEB2DC3
:100C3000E850FF0B349720F40E9416210E942204F2
:100C4000EE2089F00E945D0C80FD0DC0F60115823A
:100C50000E94570C0E947508C6010E94B3070E94AB
:100C6000570C0E948508CDB7DEB7E9E00C94242B21
:100C70002C2F2F70F22EC07FC03219F0F29480EF2B
:100C8000F822DD2341F0D130D1F1112309F444C021
:100C90000023F1F0B2CF8091480382FD15C01123EB
:100CA00059F0FF2029F08F2D0E946B0C0E941C0D23
:100CB00080E00E949004BBCF80E00E941E05FF20D0
:100CC00009F4B5CF8F2DABCF112369F0011104C00A
:100CD0008F2D0E949905ABCF013009F0A8CF8F2D41
:100CE0000E949F0CA4CF0111A2CF8F2D0E94A005BE
:100CF0008F2D0E94AB0C8F2D0E948F0C98CF11234B
:100D000021F0063008F093CFE3CF053008F08FCF05
:100D10008F2D0E94A0058BCF0023D1F3D93349F446
:100D20003FEF87EE93E0315080409040E1F700C004
:100D300000008D2F0E941E057ACF8C2F86958695F8
:100D4000837069F0813009F072CF8D2F9C2F9370E2
:100D5000111102C080E090E00E94722168CF8D2FB7
:100D60009C2F9370111102C080E090E00E944D21F1
:100D70005ECF612F8D2F0E94860459CF8C2F8370F8
:100D8000A1F5111154CF4D2F429546954770440F50
:100D9000440F2D2F2F7030E0042E02C0220F331F7E
:100DA0000A94E2F790E080E0D4FF09C08FE090E081
:100DB00002C0880F991F4A95E2F780959095C695D5
:100DC000C695C370822B932BC23049F058F4C130C2
:100DD00019F00E9445082BCF0E943C0828CF0E94A2
:100DE0004E0825CF0E94390822CF8695112311F095
:100DF0008C2F8170882309F41ACF4D2F4295469588
:100E00004770440F440F2D2F2F7030E0042E02C086
:100E1000220F331F0A94E2F790E080E0D4FF09C06C
:100E20008FE090E002C0880F991F4A95E2F7809505
:100E30009095C695C695C370822B932BC23049F00E
:100E400058F4C13019F00E94B008F1CE0E94A708F2
:100E5000EECE0E94B908EBCE0E945D08E8CECF70BE
:100E6000112329F08C2F0E9475088D2F32CF8D2FE2
:100E70000E94A0058C2F0E948508D9CED23F41F157
:100E800060F4D03FB9F0D13F81F0112309F443C0A1
:100E90000111B3CE8C2F8F711FC0D33F01F1D43F0E
:100EA000A1F78091480382FD24C08C2F8F711123FC
:100EB00011F312C0112341F0053008F0B8CE8C2F89
:100EC0008F710E949708B3CE063008F0B0CEF7CFEE
:100ED0008C2F8F711111CFCF0E947508A8CE1123CE
:100EE00029F08C2F8F710E946908A1CE0E9464089E
:100EF0009ECE112331F063E08C2F8F710E942E0D56
:100F000096CE81E00E944C0D023008F490CE82E033
:100F10000E944C0D8CCE002359F0D93309F009CF33
:100F2000EFEFF7EE23E0E150F0402040E1F7FFCE95
:100F30008C2F8F71A0CF0F931F93CF93DF93EC0172
:100F4000688179818D810E9478098C010E94C20894
:100F50000E943808B801CE010E94A705DF91CF9109
:100F60001F910F910895CF93DF93EC018C8188231B
:100F700099F0CE010E948C03811111C00E94610C76
:100F8000882351F08D81882339F08091480382FFB6
:100F900003C082E00E944C0DDF91CF910895CE01F5
:100FA0000E949B07CE010E945D03F6CF90E080E097
:100FB0000E944D2190E080E00E9472210E94880CE6
:100FC0000E941C0D0E94591F0E943D1F08950E94FF
:100FD00070220E94D60708950E94780C0E94E707AD
:100FE000089592959F70963091F058F4925F9F709B
:100FF000923058F4803F19F030F4883E30F481E0AC
:1010000008959A5FF4CF843FD1F380E00895883E3D
:10101000B0F3813FD1F7F3CFFC012481222339F0D3
:10102000808191810E946D090E94F107089580E0FE
:101030000895A6E0B0E0EFE1F8E00C940F2B2696BF
:10104000E2E00C942B2BA7E0B0E0E9E2F8E00C948E
:101050000F2B2796E2E00C942B2B08950E942D086D
:1010600008950E942E089093170280931602089507
:1010700008950E94310808952091160230911702B8
:10108000822B932B0E9431080895209116023091F3
:101090001702822393230E9431080895209116029B
:1010A00030911702822793270E94310808950E94E9
:1010B0002D0808950E94570808950E945A08909399
:1010C000150280931402089590E080E00E945D086C
:1010D000089521E030E0A90102C0440F551F8A9510
:1010E000E2F7CA010E945D08089521E030E002C0E5
:1010F000220F331F8A95E2F7809114029091150216
:10110000822B932B0E945D08089521E030E002C0FD
:10111000220F331F8A95E2F72095309580911402B3
:1011200090911502822393230E945D08089521E087
:1011300030E002C0220F331F8A95E2F7809114023B
:1011400090911502822793270E945D0808952091AF
:10115000140230911502822B932B0E945D08089592
:101160002091140230911502822393230E945D087E
:1011700008952091140230911502822793270E942E
:101180005D0808950895262F277091E001C0990FFA
:101190002A95EAF723E0769567952A95E1F7660F99
:1011A000771F660F771FFA01E60FF71F50E040E048
:1011B000682F70E08191DF0111979B01042E02C01E
:1011C000369527950A94E2F721702195282729233F
:1011D00028272C934F5F5F4F4430510559F70895EE
:1011E000A82FA77023E0969587952A95E1F7880F99
:1011F000991F880F991FFB01E80FF91F50E040E08D
:1012000080E0219130E00A2E02C0369527950A949D
:10121000E2F721703327042E01C0220F0A94EAF767
:10122000822B4F5F5F4F4430510559F70895262FA9
:10123000953070F48F3060F4682F70E08FE0989FE5
:10124000600D711D11244CEE51E0822F0E94C308E5
:101250000895292F953068F48F3058F490E06CEEA3
:1012600071E03FE0239F800D911D11240E94F00842
:10127000089580E00895B0E0A0E0E1E4F9E00C9486
:10128000082B7C0100911402109115028091160226
:1012900090911702082B192BCFE0D0E0CC24C394F7
:1012A000D12CBC2EC6010C2E02C0880F991F0A94A7
:1012B000E2F780239123892B49F4219790F7B12CF1
:1012C0008B2DCDB7DEB7E9E00C94242BB7018C2F22
:1012D0000E946110019789F3F3CFCF93DF93EC0164
:1012E0000E943B09BE010E946110DF91CF910895D9
:1012F0001F93CF93DF93EB019091EB01992339F08A
:10130000CB010E946D09DF91CF911F910895882331
:1013100069F0CB010E943B09182F682FCE010E9473
:101320001709BE01812F0E946110EDCFCB010E94F1
:101330002909182FF6CF1F93CF93DF93C09118027E
:1013400017E0809119028C1304C0DF91CF911F9197
:101350000895D0E01C9FF0011D9FF00D1124E65E62
:10136000FD4F208131814281538164817581868165
:101370000E9423082196C770E4CF20915202309139
:10138000530240915402509155026091560270915F
:101390005702809158020E9423080895CF93DF934B
:1013A00080915802807F09F04DC0809157028823B8
:1013B00009F448C0E091180250911902C0915302FB
:1013C000D0915202609154027091550247E05E172D
:1013D000C9F18E2F90E0E49FF0011124E65EFD4FED
:1013E0002481222391F1489FF001499FF00D11249F
:1013F000DF01A65EBD4F11962C9111972C1325C0CD
:101400002C912D1322C015962C91159721111DC0DA
:1014100012962D913C91261B370B283C3105A8F4E0
:10142000809158028F70806180935802E05EFD4F7A
:1014300080818F708061808382E592E00E94B30793
:101440000E949B09DF91CF910895FC013196E770CE
:10145000BECF482F209118029091190257E029130E
:1014600002C080E0089530E0529FF001539FF00DDC
:101470001124E65EFD4F8181681306C08081481308
:1014800003C085818111EECF2F5F3F4F2770E7CFDB
:10149000A4E1B0E0EEE4FAE00C94052B8C0186E0C8
:1014A000F801DE011F9601900D928A95E1F7F8018F
:1014B0008481E58092E5A92E92E0B92E90915602A2
:1014C00091111FC08823D1F0EE20A9F0C8010E941D
:1014D0000C08F82E882379F087E0F801D5010190F7
:1014E0000D928A95E1F7C5010E947D040E94CE0904
:1014F0000E94BD095FC0C8010E94B307FF24F39496
:1015000059C0C080D18082809380F0905702209192
:10151000540230915502A401421B530BFF2009F4E1
:10152000F9C0483C510508F0A7C0882309F442C01F
:101530009091530280915802282F207F09F05CC0BF
:101540009D1116C090915202C91212C0E1104EC0F6
:101550008F708061809358020E94BD0982E592E0FD
:101560000E94B30780915802F8018683F12C22C0B3
:10157000E1103CC06D2D8C2D0E94290A6D2D8C2D03
:101580000E94290AE82E8111F1CFCF86D88A8F8553
:1015900098890E946D09292F22952F70243078F4A4
:1015A0009F702230A8F09923B9F0F8019681907FBE
:1015B00099F4FE2C8F2D6496ECE00C94212B2A5F7D
:1015C0002F70223068F0C8010E94B307EF2CF1CFD2
:1015D000992311F0882369F3805E883050F3F3CFAC
:1015E000803F38F3815F833070F7E3CF80915802FA
:1015F000816080935802BACF9D1113C0909152021E
:10160000C9120FC0E1100DC08683C8010E94B30744
:1016100087E0F801A2E5B2E001900D928A95E1F72A
:1016200067CFC8010E940C08882309F464CFEE201C
:1016300009F461CF80915802803288F020915202E3
:1016400030915302398728879B868A86909156026B
:101650009C871D868E87CE0108960E94B30787E07F
:10166000F801A2E5B2E001900D928A95E1F70E949F
:10167000CE090E94BD0942CF90915802292F207FA8
:10168000A1F4682D9A8A898AA6017A899E2D0E94E2
:10169000190882E592E00E94B30787E0F5011192F4
:1016A0008A95E9F70E94BD0961CF882309F482CFAA
:1016B000809153028D1110C080915202C8120CC04B
:1016C000E1100AC09683C8010E94B30787E0F501C4
:1016D00011928A95E9F76ECFC8010E940C08882301
:1016E00009F409CFEE2009F406CF80915802803228
:1016F00008F4B5CF20915202309153023A832983E6
:101700009C828B82909156029D831E828F83CE0194
:101710000196A3CF483C5105B8F5882309F4EECED5
:10172000FE2CEE2009F4E7CE809153028D111EC0ED
:1017300080915202C8121AC08091580280FD0DC0DB
:10174000982F907F51F08683903F09F45ECF982FB9
:10175000907F905F8F70892B57CF87E0F801A2E5CB
:10176000B2E001900D928A95E1F724CFC8010E9462
:101770000C08811174CF80915802816080935802C7
:10178000C8010E94B30716CF682D9A8A898AA601DC
:101790007A899E2D0E94190887E0F50111928A9599
:1017A000E9F7A6CEAEE0B0E0E8EDFBE00C940E2B3E
:1017B000288739874A875B876C877D878E87CE012C
:1017C00008960E94480A8823B1F06C85662341F090
:1017D000288539854A855B857D858E850E9423080D
:1017E00017E0809118029091190289133DC02E963E
:1017F000E3E00C942A2B87E0FE013896DE01119677
:1018000001900D928A95E1F78C85882349F3209108
:10181000190230E0C901019687709927409118029A
:101820004817190699F097E0929FD001939FB00D49
:101830001124A65EBD4FFE01319601900D929A953E
:10184000E1F7809319020E949B09CACF0E94EC071E
:10185000109219021092180287E0E2E5F2E0DF012F
:101860001D928A95E9F7BCCF819FC0011124865E45
:101870009D4F0E94480A882309F4B9CFE0911802CD
:101880001E9FF0011124E65EFD4F208131814281CF
:1018900053816481758186810E942308809118029A
:1018A00090E0019687709927809318029ACF8091D3
:1018B000810286958695869508958091810287702C
:1018C000089590918102977081E009F480E0089575
:1018D0008091AD0208959091AD02892B8093AD0265
:1018E000089580959091AD0298239093AD0208954C
:1018F0001092AD0208959091AC02892B8093AC02B6
:10190000089580959091AC0298239093AC0208952D
:101910001092AC02089508950E948B0C0895909146
:101920008202292F282331F0809589238093820217
:101930000E948C0C089508950E949B0C089590912C
:101940008302292F2823281729F0982B90938302AC
:101950000E949C0C089590918302292F282331F036
:1019600080958923809383020E949C0C0895809126
:101970008302882329F01092830280E00E949C0C4D
:101980000895CF93C091AD028091AC02C82B809195
:101990008302882331F0C82B0E94972181110E9475
:1019A000B70C8C2FCF910895CF93DF93C091060190
:1019B000D09107010E94C10C8883C0910601D0918B
:1019C000070148E050E069E772E0CE010E94D52BA4
:1019D000892B59F088E0FE01A9E7B2E001900D9251
:1019E0008A95E1F7CE010E942621DF91CF910895DB
:1019F000CF93DF93C0910401D09105010E94C10CE7
:101A00008983C0910401D091050140E250E069E56D
:101A100072E0CE010E94D52B892B59F080E2FE01A5
:101A2000A9E5B2E001900D928A95E1F7CE010E94FE
:101A30003121DF91CF91089580912D01882339F0D4
:101A40008091470387FF03C00E94F80C08950E940D
:101A5000D40C089508950E942A0D0895909148038A
:101A600092FF11C098E0899F90011124622B60932E
:101A700081020E94750880918102869586958695DF
:101A80000E942B0D08950E947508089510928102FE
:101A900080E00E942B0D089590918102809589230A
:101AA00080938102282F277069F4891759F090914B
:101AB000480392FF07C08695869586950E94850803
:101AC0000E94460D08959091480392FB222720F929
:101AD000281769F080FB92F990934803809147039F
:101AE000909148030E94AB0D82E00E944C0D089536
:101AF0008091480382FB882780F991E089270E9422
:101B0000630D089581E00E94630D089580E00E94B6
:101B1000630D08956FEF7FEF90E080E00E942D2C21
:101B2000089590E080E00E94F92B21E0853E9E4FD1
:101B300009F020E0822F089582E090E00E94EB2BD4
:101B4000089583E090E00E94EB2B089584E090E0FC
:101B50000E94F92B0895BC0184E090E00E942D2C96
:101B60000895AB01BC018FE090E00E94212C089504
:101B7000AB01BC0183E190E00E94212C089560E05C
:101B800070E0CB010E94B80D089560E070E0CB01D9
:101B90000E94B10D0E94BF0D0895A8E0B0E0E3EDF2
:101BA000FDE00C940F2B65EE7EEF90E080E00E944C
:101BB0002D2C60E082E090E00E940F2C81E090E00C
:101BC000909317028093160261E083E090E00E94F8
:101BD0000F2C60E074E184E090E00E942D2C60E026
:101BE00086E090E00E940F2C60E087E090E00E9489
:101BF0000F2C40E050E0BA0188E090E00E94212CD8
:101C000060E083E290E00E940F2C60E08CE090E0C6
:101C10000E940F2C60E08DE090E00E940F2C198252
:101C20001A821B821C821D821E821F82188648E037
:101C300050E067E170E0CE0101960E94FF2B40E08A
:101C400050E0BA018FE190E00E94212C0E94C50D66
:101C50002896E2E00C942B2B0E94CD0D0895682F5E
:101C60008EE090E00E940F2C0895A6E0B0E0EBE338
:101C7000FEE00C940D2B0E945D238C018091AE023E
:101C80009091AF028017910781F019821A820E9409
:101C90005D23682F49815A81792F80E090E00E946E
:101CA0004D041093AF020093AE022696E4E00C942C
:101CB000292B0E9469236093BE027093BF02809318
:101CC000C0029093C1026093BA027093BB028093EA
:101CD000BC029093BD020895089508950E946C0E71
:101CE000089508950E94710E089587E591E10E947C
:101CF000BF120E946D0E0E946E0E089581E008953D
:101D00000E947E0E08950E947E0E08950895089503
:101D10000E94860E0E94870E08950E94910D8111E7
:101D200002C00E942C0E0E949C0D8093C2020E9451
:101D3000A60D90934803809347030E94CA1C0E94FB
:101D4000A10D90E00E943908809114029091150233
:101D50000E945A0808950E9454230E941A120E9459
:101D60008D0E0E941F040E946E1C0E94CB1A0E94BE
:101D700035190E94720E0895A6E0B0E0E2ECFEE094
:101D80000C94032B0E94800E81110EC00E94350E10
:101D90000E942A1A0E946D1C0E947B1F0E9434041C
:101DA0002696EEE00C941F2B0E94301220EB822E20
:101DB00022E0922E640110E0F601E190F1906F01B3
:101DC000812F0E9461111F5F153009F44BC0E81686
:101DD000F90691F38091C20281FD0E946A110E946E
:101DE000830E782E10E066246394812F0E94611187
:101DF0007C01F401A190B1904F018A159B0561F11E
:101E000000E0CC24C394D12CAE24BF24C5018C2186
:101E10009D21892BC1F07720B1F009831A830E949C
:101E20005D239C838B836D8221E0C7018C219D21E2
:101E3000892B09F420E049815A816B817C818D8155
:101E4000922F0E944D040F5FCC0CDD1C0F30F1F679
:101E5000F4013297F182E0821F5F153031F60E9463
:101E6000590E96CFE816F90609F0B4CF8FCF1F931D
:101E7000CF93DF930E946610EC01C11580E5D8076F
:101E8000F0F5C11580E4D80708F09CC0C03ED1052C
:101E900020F5CD3CD10508F082C0C83AD10578F4D0
:101EA000C53AD10508F073C0C130D10519F12097AA
:101EB00009F1C430D105F0F4D0E0C0E01BC0C33C50
:101EC000D105D0F7C85AD0E0CC0FDD1FC959DE4F7D
:101ED0000990D881C02DD4640DC0C11580E2D80707
:101EE00008F0D1C0C11581E0D80708F05AC0C83E3B
:101EF000D10510F7CE01DF91CF911F910895C03623
:101F000082E5D80718F5C03482E5D80708F06BC021
:101F1000C03282E5D80708F05FC0C11582E5D80756
:101F200008F497C02C2F2695269580E2289F9001D3
:101F300011248C2F8370C1E0D0E002C0CC0FDD1FD4
:101F40008A95E2F7C22BD32BDD68D4CFC03A82E565
:101F5000D80760F4C03882E5D80708F459C0CF71BB
:101F6000D0E0DC2FCC27C46FD06AC4CFC03C82E560
:101F7000D80708F462C0C03E82E5D80708F09CCFBD
:101F8000DC2FCC27CC27DF71C06FD06AB3CFC55A06
:101F9000D0E0C356DE4FC881D0E0D064ABCFD0656F
:101FA000A9CF8D2F0E940811182FCE0199270E94CA
:101FB0006610C12FD0E0DC2FCC27CC27DF71C82BD7
:101FC000D92B98CFCE0199270E946610CC27DF70BD
:101FD000C82BD92BD06A8ECFCF71D0E0DC2FCC2785
:101FE000C16FD06A87CF2C2F26952695277080E267
:101FF000289F900111248C2F8370C1E0D0E002C093
:10200000CC0FDD1F8A95E2F7C22BD32BDC6872CF91
:102010002C2F26952695277080E2289F9001112469
:102020008C2F8370C1E0D0E002C0CC0FDD1F8A95F9
:10203000E2F7C22BD32BDA685DCF8C2F8F710E9411
:102040000811C82FD0E0DC2FCC27CC27DF71D0625D
:1020500051CF8C2F8F710E94081155E0D695C795EE
:102060005A95E1F7CF70D0E0DC2FCC27282F30E055
:1020700084FF05C044E0220F331F4A95E1F7C22BCD
:10208000D32BD06937CF8D2F8F710E940811182F55
:10209000CE0199270E946610C12FD0E0DC2FCC27FB
:1020A000CC27DF71C82BD92BD2CF462F753030F417
:1020B0006F3020F4672F0E940403089590E080E0C1
:1020C00008950E9455100E94370F08958238910597
:1020D000B9F1B0F48133910509F47DC048F4893237
:1020E000910509F46DC08A32910509F47BC0089509
:1020F0008533910509F45FC08933910509F108958D
:10210000833E9105D9F138F4803E910529F1823E54
:10211000910579F10895863E9105D9F1873E9105A3
:1021200009F43EC0843E910541F52091480321FF0A
:1021300024C08091470384FD19C087EE90E0089584
:1021400020914703237009F05AC02091480323FFD0
:1021500014C089E290E008952091470320FD38C023
:102160003091480330FF09C024FF43C090E080E075
:1021700008952091470322FDF7CF0895209147034A
:1021800022FD3AC03091480330FD39C024FFF5CF1D
:10219000EDCF2091470323FFF0CF24FDE7CFCDCF34
:1021A0002091470323FD2EC03091480331FFEECF2D
:1021B00084EE90E008952091470325FFDECFC9CF3C
:1021C0002091470325FD21C02091480323FFD5CF4F
:1021D00089E390E0D2CF2091470326FFCECF8AE259
:1021E00090E008952091470326FFC7CF81E390E058
:1021F000089583EE90E0089582EE90E0089580EED9
:1022000090E0089586EE90E0089585E390E00895CB
:102210009091470392FF10C041E0282F2471243091
:1022200009F040E031E0282F2871283009F030E033
:10223000431711F02CE0822793FF10C041E0282FB4
:102240002471243109F040E031E0282F2871283131
:1022500009F030E0431711F02CE082273091480359
:1022600030FF10C051E0282F2171213009F050E0DB
:1022700041E0282F2871283009F040E0541711F070
:1022800029E0822731FF10C041E0282F2171213140
:1022900009F040E031E0282F2871283109F030E0C2
:1022A000431711F029E0822794FD877E089580E08E
:1022B000089508950E945911089508950E945D118E
:1022C0000895E82FF0E0EE0FFF1FED5AFC4F8081DC
:1022D00091810895089580EA8A95F1F7089500C0E4
:1022E00008950E946B110895F894E82FE295EF701D
:1022F000F0E031A1282F2F7081E090E001C0880F1D
:102300002A95EAF7982F9095932391A392A1892B70
:1023100082A3789408950F931F93CF93DF93CFEA0E
:10232000D1E089918F3F11F00E94741181E0C43B8C
:10233000D807B9F7C0EAD1E00FEA11E089918F3FE1
:1023400011F00E9474110C171D07C1F7DF91CF9196
:102350001F910F910895AF92BF92DF92EF92FF927B
:102360000F931F93CF93DF938C01D62EC62FD0E00F
:10237000CE0181559E4F7C01FC0120812F3F09F445
:102380004CC0F894E22FE295EF70F0E031A12F708D
:1023900081E090E001C0880F2A95EAF7932F982BEF
:1023A00091A392A18095892382A378940E946F11B2
:1023B000E0EAF1E041E050E0B12CA12C21912F3F67
:1023C000B1F1A22FA295AF70B0E090968C9190E001
:1023D0002F7002C0959587952A95E2F780FD27C05A
:1023E000CA01A82AB92A440F551F81E0EF3AF8071D
:1023F00029F7F70180818F3F11F00E94741161E08D
:10240000A114B10409F460E08D2D0E947111CC0F6C
:10241000DD1FC00FD11FB982A882DF91CF911F911C
:102420000F91FF90EF90DF90BF90AF90089590E0F4
:1024300080E0D7CF0E948B118AE0E3E5F3E0DF0173
:10244000982F1D929A95E9F7E9E4F3E0DF011D92D8
:102450008A95E9F785E00E946B120E945A1108954F
:10246000AAE0B0E0E6E3F2E10C940C2B8E010F5FE2
:102470001F4F8AE0F80111928A95E9F7F12C6F2D30
:10248000C8010E94AB11F394F5E0FF12F8CF4AE0C7
:1024900050E0B80189E493E00E94D52B21E0009739
:1024A00009F420E0892B41F08AE0F801A9E4B3E0C7
:1024B00001900D928A95E1F745E063E573E089E4C8
:1024C00093E00E946C12182F0E945E11812F2A96B1
:1024D000E5E00C94282B0895B0E0A0E0E2E7F2E1FB
:1024E0000C94092B6C017B01042FC22F222379F05D
:1024F00081E08093C5020E945D239093C402809383
:10250000C30280E0CDB7DEB7E8E00C94252BD09174
:10251000C502DD23B1F38091C3029091C4020E94F1
:102520007523059770F310E0000F111FA801B60185
:10253000C7010E94D52B892B31F0A801B601C70134
:102540000E94E22BCD2F1092C5028C2FDBCF0E9470
:10255000BC0E08950E94F6220E941E250E94750E50
:102560000E9438250E94AB0E0E9445250E944A25F4
:102570000E94A7120E9464250E94880EF7CF9093B4
:10258000E5018093E4010895EF92FF920F931F936A
:10259000CF93DF93EB01E82FD1110EC0442321F03C
:1025A000F0E0EE50FD4FE4916E2F7E2F8E2FCDB7D1
:1025B000DEB7E6E00C94272B0D2F10E0282F30E03B
:1025C000442329F02E503D4FF901249130E0F6E0EC
:1025D000CF9FC0011124EFEFF0E0BF010E947E2ADF
:1025E000AB018C2F90E0880F991FA5E5A49FB00147
:1025F000A59F700D1124861B970B982F990F980F8C
:10260000BF01601B710B629FD001639FB00D729F71
:10261000B00D11248B2F9D9FB0011124672F7727B8
:10262000EF01C61BD70BBE01629FE001639FD00D77
:10263000729FD00D11247F01E91AF108E09EB001CC
:10264000E19E700DF09E700D1124672F7727E61B19
:10265000F70BE29F8001E39F100DF29F100D1124F4
:10266000E12F722F4230510599F048F44115510580
:1026700069F04130510581F0EB2F8D2F07C04430B8
:10268000510569F080F046305105B1F76E2F8FCFBC
:10269000E22F7B2F812FFACFE22F7D2FF7CFEB2F69
:1026A000822F712FF3CF7B2F822FED2FEFCF41E0C1
:1026B0000E94C412089508950E9457130895CF935D
:1026C000DF93762FE901682F842F0E945C137983B2
:1026D00068838A83DF91CF91089580915D03982F5D
:1026E0009C7F29F48370846080935D0308958C3A05
:1026F000E8F38370886AF8CFB0E0A0E0E2E8F3E1A5
:102700000C94092B88E090E00E94F32B6B017C0174
:1027100083E290E00E94EB2B282F30E040E050E075
:1027200060E070E080E090E000E20E94362BB22F83
:10273000A32FF42FE52FD62FC72F97018601BC2991
:10274000A12BFE295E2F532B2B2F3A2F4F2F6D2FAE
:102750007C2FCDB7DEB7E8E00C94252BB0E0A0E0ED
:10276000E4EBF3E10C94052B49015A016B017C0168
:102770000E946D138401A4016A2D7B2D88E090E0F6
:102780000E94212C94014A2D5B2DB601C70100E265
:102790000E94512B622F83E290E00E940F2CCDB754
:1027A000DEB7ECE00C94212BEDE5F3E085E08083CF
:1027B00011828FEF828383831482758125E030E05C
:1027C0004FEF5FEF60E0868197810E94AE1308951E
:1027D00080915D0380FF03C086958695089580E013
:1027E000089590916103933018F49F5F9093610373
:1027F000882391F020915D0330915E0340915F0347
:102800005091600360916103709162038091630352
:10281000909164030E94AE13089581E00E94F11329
:10282000089590916103992319F091509093610359
:10283000882391F020915D0330915E0340915F0306
:102840005091600360916103709162038091630312
:10285000909164030E94AE13089581E00E941114C8
:10286000089560910C0180915D0380FF0FC070E0BE
:1028700080910B0123E0829FC0011124E091E101CE
:10288000F091E2018B599C4F0995089580910D01BB
:1028900090910E0123E0829FF0011124EB59FC4F2F
:1028A000891728F71182108212828F5F3396F8CF32
:1028B00090915D0390FF0EC090910D0120910E014B
:1028C00033E0939FF0011124EB59FC4F921718F05D
:1028D0000E94311408958183608342839F5F339601
:1028E000F5CFA3E0B0E0E7E7F4E10C940F2B909173
:1028F0005D0390FF0AC09E012F5F3F4F0E945F1350
:102900004B8169818A810E9458142396E2E00C94DD
:102910002B2BCF93DF93EC01EC81F0E0E351FE4FE2
:102920004491EDE5F3E0628181810E9471148C8114
:102930008F5F8C83DF91CF910895CF93DF93EC016C
:10294000EDE5F3E0438162818C810E9471148C81FA
:102950008F5F8C83DF91CF910895A3E0B0E0E3EB2C
:10296000F4E10C940D2B8C018091C60281110AC0F8
:102970009E012F5F3F4F4FEF6FEF0E945F138A81E1
:102980008093C602F8016481613069F08091C602CB
:1029900040E0662361F040E0623011F44091C602ED
:1029A00080E060E004C06091C60240E080E00E94E8
:1029B0005814F801848190E0019663E070E00E9471
:1029C000922A84832396E4E00C94292BA3E0B0E0C0
:1029D000ECEEF4E10C94082B082FD62EF42EC22E28
:1029E00090915D0390FF2FC0E92FE695E695AE2FFD
:1029F000B0E0AC54BE4F8C91809322039C7F943006
:102A000031F59E012F5F3F4F802F0E945F134B8156
:102A100069818A810E94581400935E03D0925F03FB
:102A2000F0926003CC2079F020915D036091610306
:102A300070916203302F4D2D5F2D80916303909133
:102A400064030E94AE132396E9E00C94242B823099
:102A500019F4F0906003E0CF863019F400915E0322
:102A6000DBCF8930D9F38931B9F6E9516E2F617026
:102A7000B62EE695F0E0E351FD4F1491E12C609104
:102A80000F01E61618F00E943114C6CFE19EC00176
:102A9000112470E00E947E2A802FB11014C0860F8E
:102AA00020910D01622F6E0D7727771F9B01220F5A
:102AB000331F260F371F2B593C4F4F2D6D2D0E9472
:102AC0005F13E394DCCF861BEBCFEDE5F3E0918160
:102AD000282F4381628188E0890F0E94E6140895BF
:102AE00081E00E9465150895EDE5F3E09181282FBE
:102AF0004381628188EF890F0E94E614089581E086
:102B00000E9474150895EDE5F3E0628128E0620FFC
:102B100008F46FEF282F438181810E94E614089505
:102B200081E00E9483150895EDE5F3E0628128E0DD
:102B3000621B08F460E0282F438181810E94E61423
:102B4000089581E00E9494150895EDE5F3E0438136
:102B500028E0420F08F44FEF282F628181810E9404
:102B6000E614089581E00E94A5150895EDE5F3E0CF
:102B7000438128E0421B08F440E0282F62818181D4
:102B80000E94E614089581E00E94B615089520E0A1
:102B90000E94E6140895EF92FF921F93CF93DF9364
:102BA000EC0110E0EE24EA94F12C60910F0116176D
:102BB00070F00E9431149A818C8190FF27C08F5F42
:102BC0008C83DF91CF911F91FF90EF90089520911A
:102BD0000D01422F410F5527551FCA019A01220F9F
:102BE000331F280F391F2B593C4F70E0C7010E943B
:102BF000922A962F8C814091600360915F03199F08
:102C0000800D11240E945F131F5FCFCF8150D8CF5A
:102C1000B0E0A0E0EEE0F6E10C94082BFC0182812C
:102C20000FEF80FF01E010E080910F01181798F07E
:102C30000E9431148091C802013009F04CC081110A
:102C400002C080910F0181508093C802CDB7DEB7DA
:102C5000E9E00C94242BC0910D01C12ED12CCC0D98
:102C6000DD2DD11DCE01880F991FC80FD91FCB595B
:102C7000DC4F198218821A8234E0E32EF12CB12C39
:102C80008091C8028B0D813104F18F70082E000CE9
:102C9000990BC816D90691F4809160038E9DA0010E
:102CA0008F9D500D112455954795559547959E013B
:102CB00060915F0380915E030E945F13B00EF1E0AC
:102CC000EF1AF108E9F61F5FAFCF87FFDFCF9091D2
:102CD0000F01890FDBCF90E0019660910F0170E04A
:102CE0000E94922AB1CF0F931F93CF93DF938091CD
:102CF0000D0190910E0123E0829FF0011124EB5908
:102D0000FC4F891740F1C0E0D3E060910F01C61776
:102D100040F10E943114209109018091C702820F75
:102D20008093C70290910A01920F90930A0119169D
:102D300054F4082E000C990B40910F014150550B93
:102D4000841795071CF0219520930901DF91CF91FD
:102D50001F910F9108951182108212828F5F339616
:102D6000D0CF0C2F10E070E0C8010E94922A209171
:102D70000D01820F482F50E02091C702022E000C57
:102D8000330B02171307BCF020910A01022E000C2E
:102D9000330B201731077CF08D9F900111242B59A4
:102DA0003C4F4091600360915F0380915E030E94FD
:102DB0005F13CF5FAACFFA01EE0FFF1FE40FF51FDD
:102DC000EB59FC4F118210821282F3CFB0E0A0E0E9
:102DD000ECEEF6E10C94052BEC014C81042F10E095
:102DE0009801D8010E94D62A9B01AC010E94EC2ACE
:102DF0004B015C01E0E2F0E0E01BF10BA5E5B0E087
:102E0000AC019B010E94EC2A6B017C019F01DF0158
:102E10000E94CE2A9B01AC010E94F72A9B01AC01C3
:102E2000280D391D4A1D5B1DC701B6010E94A62A47
:102E3000F22E822F90E039E23F1520F143E0249FEB
:102E40009001112435952795122F109500E085E506
:102E5000E82EEF1880910F01081718F10E94311425
:102E60009C8181E0992319F0903219F48FEF8093BF
:102E7000080180910801890F8C83CDB7DEB7ECE0A3
:102E80000C94212B25E530E0B901681B790B9B01DF
:102E9000220F331F260F371F37FFD4CF2F5F3F4F2F
:102EA000D1CF8E2D01FD8F2D20910D01622F600F4E
:102EB0007727771F9B01220F331F260F371F2B59B0
:102EC0003C4F412F60915F030E945F130F5FC2CFA1
:102ED0000F931F93CF93DF93EC0110E000E09091EC
:102EE0000F019017110609F06CF40E9431148C81C7
:102EF00090E00196817099278C83DF91CF911F918B
:102F00000F91089520910D01A801420F511D9A01C2
:102F1000220F331F240F351F2B593C4F4C816091DA
:102F20005F0380915E0396959017110651F04CF067
:102F3000442349F0409160030E945F130F5F1F4FCD
:102F4000CECF4423B9F340E0F7CFB0E0A0E0EBEA06
:102F5000F7E10C94012BFC016280448081E08483C2
:102F6000EDEEF1E07490ECE6F2E0E491C0916003E4
:102F7000C695C158D0E0CC0FDD1FCD2FDD27812CA9
:102F800075E0972EAA24AA94B12C55245A94E719D7
:102F9000EE2EF12C80910F01881638F00E9431142A
:102FA000CDB7DEB7E0E10C941D2BC82CD12C82E00C
:102FB000861568F09C9CF0019D9CF00D1124E75350
:102FC000FD4F80915E03808380915F038183411078
:102FD00023C09C9CF0019D9CF00D1124E753FD4FF4
:102FE0001382128220910D01C601820F911D9C0156
:102FF000220F331F280F391F2B593C4F9C9CF00187
:103000009D9CF00D1124E753FD4F42816181808129
:103010000E945F138394BECF9C9C80019D9C100DE9
:10302000112407531D4FF80183818823F1F081504B
:103030008383859DC0011124648170E00E947E2AF3
:10304000FB01FF27E351FE4F8491E82FE719E59D2F
:10305000C0011124B7010E947E2A80916003689FFD
:10306000B0011124F8017283BDCF0E94B82BB501C5
:103070000E94922A8C179D070CF0B4CFF2E0F6154F
:1030800098F40E94B82BB5010E94922AF80180831F
:103090000E94B82B20915F032695622F70E00E945A
:1030A000922A280FF80121839C9CF0019D9CF00D31
:1030B0001124E753FD4F128280916003893C58F040
:1030C00088EC9C9CF0019D9CF00D1124E753FD4F72
:1030D0008483838387CF8431A0F784E1F2CFEDE549
:1030E000F3E020812E7F20833181428153816481EE
:1030F0007581868197810E94AE13109223030E94EE
:1031000031140895EDE5F3E080818E7F8083109285
:1031100023030E9431140895109223038091200309
:1031200081110AC081E08093200380915D0381704A
:1031300080931F030E948218089560915D03669535
:10314000669570E04BE050E080E191E00E94C82B72
:10315000892B19F481E0809323030E945D239093CF
:103160001A0380931903089590915D0390FF34C072
:103170009370811132C0946090935D03662391F047
:1031800020915D0330915E0340915F035091600395
:103190006091610370916203809163039091640375
:1031A0000E94AE1360915D036695669570E04BE0FA
:1031B00050E080E191E00E94C82B892BB1F0109281
:1031C000230381E080931C034091600360915F03BF
:1031D00080915E030E94C71508958B3210F0986AA3
:1031E000CBCF880F880F982BC7CF0E949D18E9CFAF
:1031F000682F90915D039695969581E0890F8B32AB
:1032000008F081E00E94B418089581E00E94F81847
:103210000895682F90915D03969596958FEF890F8D
:1032200009F48AE20E94B418089581E00E94091905
:10323000089561E00E94B4180895EDE5F3E08081FF
:1032400081608083869586950E94191908958091E2
:103250005D0380FF03C00E946F1808950E941D192E
:10326000089560E00E94B4180895809121038111AF
:103270003CC00E947C1320935D0330935E03409317
:103280005F035093600360936103709362038093C4
:103290006303909364032C7FA1F40E94D4130E94D3
:1032A0007C1320935D0330935E0340935F03509340
:1032B0006003609361037093620380936303909350
:1032C00064030E946D1310922303E091DF01F091DB
:1032D000E001099580915D0380FF04C08695869585
:1032E0000E94311981E0809321030895EDE5F3E018
:1032F000808181608083869586950E94311908952A
:103300001092200380911F0381110E9476190E9460
:103310009D1808950F931F93CF93DF9380912303FC
:103320008823C1F180912203E0915D03E695E69543
:10333000E81BE0931B03823091F5F0E0E751FE4F6C
:10334000E491CE2FD0E009E814E180911C0388239A
:1033500061F010921C030E945D2390931A038093E6
:10336000190310921E0310921D030E945D23E09129
:103370001903F0911A038E1B9F0B8F3F9F4750F448
:10338000EC0FFD1FF0931A03E093190389E193E01A
:10339000F8010995DF91CF911F910F910895863023
:1033A00049F4F0E0EA51FE4FE491CE2FD0E00DE970
:1033B00014E1CBCF893051F4E695F0E0ED51FE4FAA
:1033C000E491CE2FD0E00BEC15E1BFCF8F3051F45C
:1033D000E695F0E0E052FE4FE491CE2FD0E008E019
:1033E00016E1B3CF853149F4F0E0E352FE4FE491AA
:1033F000CE2FD0E003E716E1A8CFC8E2D0E006EE7A
:1034000016E1883109F4A1CF833239F4EBEDF1E014
:10341000C591D4910DEA14E198CFC4EFD1E008E64C
:1034200017E1843209F491CFC0EDD7E00BE513E149
:10343000853209F08ACF8E2F63E00E94722AE92F2D
:10344000F0E0E852FE4FE491CE2FD0E005EA17E11C
:103450007CCF08950E948A190895FA01811101C054
:10346000FB0109950895CF93DF93C82FD62F0E94B3
:10347000E8138C1748F00E94E8138D1728F40E9477
:103480000519DF91CF9108958C2F0E941919F9CF5A
:103490001F93CF93DF93EC01FB011581111110C035
:1034A0000E94680C8272FE01E052F847E531F10596
:1034B00008F05EC0E059F34D0C94C82A0E94271909
:1034C000812FDF91CF911F91089545E159E165E08A
:1034D00079E10E942D1AF4CF45E059E165E179E1E7
:1034E000F8CF4FE755E160E775E1F3CF40E755E1ED
:1034F0006FE775E1EECF41EA55E160E975E1E9CFAB
:1035000040E955E161EA75E1E4CF43EC55E162EB56
:1035100075E1DFCF42EB55E163EC75E1DACF4DE2C7
:1035200054E16DE074E1D5CF4DE054E16DE274E11A
:10353000D0CF81E00E941919C3CF65E082E00E94DC
:10354000331ABECF68E086E0FACF6EE089E0F7CFAD
:1035500064E18FE0F4CF67E185E1F1CF88E1EACF64
:1035600062E289E1ECCF83E2E5CF6AE285E2E7CF70
:1035700011E0A6CF86E090E00E94EB2B0895682F23
:1035800086E090E00E940F2C08958DE280939503D1
:103590000E94BF1A08950E94BA1A8093950382FF71
:1035A0000E94C51A80919503803320F0877088624D
:1035B0008093950390919503892F817090FF04C0AB
:1035C000892F8695869586950E94CC1B08958091BB
:1035D0009503982F969596959695953040F49F5F14
:1035E000990F990F990F8770892B8093950380917C
:1035F00095038160809395030E94BF1A8091950383
:103600008695869586950E94CC1B0895809195039A
:10361000982F987F79F0885080939503887F91E068
:1036200009F490E08091950390FB80F980939503D5
:103630000E94BF1A809195038695869586950E9473
:10364000CC1B08958091950380FD13C08160809309
:103650009503813019F489E0809395038091950357
:103660000E94BF1A809195038695869586950E9443
:10367000CC1B08958091950380FF08C08E7F8093B6
:1036800095030E94BF1A80E00E94CC1B0895809190
:10369000950380FF03C00E943A1B08950E94221BDD
:1036A000089590919503892F8695869586958F5FCD
:1036B0008F7197708630E0F4880F880F880F892B00
:1036C0008093950380919503887F91E009F490E0C1
:1036D0008091950390FB80F9809395030E94BF1A17
:1036E000809195038695869586950E94CC1B0895BA
:1036F00090939503E7CF863008F085E0909195038D
:103700009770282F220F220F220F922B9093950350
:10371000987F21E009F420E09091950320FB90F937
:10372000909395030E94CC1B08950E947B1B80916F
:1037300095030E94BF1A08959C01FB01858188238F
:1037400049F12230F8E73F07F9F040F42115E8E7A6
:103750003E0769F02130384779F00895243098E722
:10376000390779F058F02530384789F0089585E019
:103770000E94951B80E0089580E0FACF0E94061B0E
:10378000F9CF0E94E71AF6CF0E94471BF3CF0E94A1
:10379000511BF0CF81E008958F929F92AF92BF921C
:1037A000EF92FF920F931F93CF93DF938630B0F584
:1037B000811135C0909180009F7D90938000A091F1
:1037C0008600B0918700282F30E00E94D62A25E09D
:1037D00030E040E050E00E94A62A89019A018091E1
:1037E0008600909187006CE070E00E947E2A60174E
:1037F0007107C8F0C80169E070E00E947E2A7093EA
:103800008B0060938A00DF91CF911F910F91FF9001
:10381000EF90BF90AF909F908F90089585E090912A
:1038200080009062CACF8091860090918700E090DE
:103830008600F0908700E0918600F0918700C6E056
:10384000D0E0BE010E947E2A060F171F211D311DE8
:103850004801590185E0880C991CAA1CBB1C8A955B
:10386000D1F7C701BE010E947E2A9F0150E040E0CF
:10387000260F371F411D511DC501B4010E94A62A04
:1038800049015A01E0918600F0918700CA01B9010F
:103890000E94622A9B01AC01DF010E94EC2A9B017D
:1038A000AC01C501B4010E94622A2FE0969587956C
:1038B000779567952A95D1F700918600109187003A
:1038C00030E020E0061717072807390708F097CFE0
:1038D000609186007091870092CF0895269A2E9865
:1038E00082E28093800089E1809381008FEF9FEFD7
:1038F00090938700809386000E94CB1A08956A9A5D
:1039000008954EB14B7F5EB15460EFB7F8949B01C0
:10391000220F331F260F371F280F391F281739078B
:1039200041F4EFBF8FE594E00197F1F700C000008C
:103930000895DC016D91CD0178E05EB9000000C012
:1039400067FF4EB9660F000000C000C000C04EB94E
:1039500000C07A9591F7E2CF0E948A0D089580E029
:103960000E946111817008950E9430122FEF86E746
:1039700091E0215080409040E1F700C000000E949B
:1039800030120E94AF1C882321F00E94AC1C0E94C0
:10399000A82308950E94B41C0895CF93DF93EB01F0
:1039A00086319C4711F50E94680C9D81992399F0FE
:1039B0008A7A91E009F490E090932403811109C080
:1039C00089E20E9442220E941C0D80E0DF91CF918B
:1039D000089585E3F6CF80912403811104C089E224
:1039E0000E945922F0CF85E3FBCF81E0EFCFCF9348
:1039F000DF93EC01FB018581882309F4D2C09E018D
:103A000030572332310508F0B2C00E94A60D9093C2
:103A1000480380934703FE01E150F047E232F1058D
:103A200020F4EB57F34D0C94C82A80914703816032
:103A30008093470393C08091480388608093480334
:103A40008DC0809147038260F3CF809147038460EB
:103A5000EFCF809147038860EBCF8091480381606E
:103A6000EDCF809148038260E9CF80914703806168
:103A7000DFCF809147038062DBCF80914703806472
:103A8000D7CF0E94EC07809147038068D1CF809107
:103A900047038C60CDCF809148038360CFCF809166
:103AA00047038E7FC5CF80914803877FC7CF809122
:103AB00047038D7FBDCF809147038B7FB9CF809126
:103AC0004703877FB5CF809148038E7FB7CF809122
:103AD00048038D7FB3CF809147038F7EA9CF80911C
:103AE00047038F7DA5CF809147038F7BA1CF0E9495
:103AF000EC07809147038F779BCF80914703837FAB
:103B000097CF809148038C7F99CF8091470382FBA8
:103B1000992790F921E0922790FB82F990FB83F995
:103B200087CF80914803982F909591708E7F892B35
:103B300090FB81F983CF90914703892F8F7B96FF6C
:103B4000806476CF0E94EC0790914703892F97FB02
:103B500087F980586DCF81E00E942F0E8091470336
:103B6000909148030E94AB0D0E94EC0780E0DF912A
:103B7000CF91089580E0F0CF90914703892F8F7EF9
:103B800094FF806155CF90914703892F8E7F90FFDE
:103B900081604ECF90914803892F877F93FF886083
:103BA0004DCF81E0E4CF282F35EB2303C001112452
:103BB00097FF04C080589109892F089580589F4F1E
:103BC000FBCF80912B0380FF0DC06091200170E03E
:103BD000660F771F6038710570F56115710569F121
:103BE000862F089581FF07C06091200184E0689FBF
:103BF000B0011124EFCF6091200182FD0AC08091B5
:103C00002A038823A9F020911F01609120018217C7
:103C100010F088E0ECCF869FC001112433E0880FBC
:103C2000991F3A95E1F7622F70E00E94922AD2CF55
:103C300068E070E0D5CF8FE7089581E00895809126
:103C40002B0380FF0CC060911C0170E07595679597
:103C5000759567956115710549F1862F089581FF66
:103C600006C060911C0170E075956795F3CF609177
:103C70001C0182FD0BC0909129039923A1F0609152
:103C80001B0180911C01961738F0682F70E0603896
:103C9000710500F38FE70895899FC001112470E03A
:103CA0000E94922AF4CF61E070E0D7CF81E00895BE
:103CB00090912E0320912F03922B20913103922B70
:103CC00020913003922B31F098E090932A0391E0F9
:103CD000909329038D3C31F40E94E11D81958093DE
:103CE0002F0308958E3C19F40E94E11DF8CF8F3CFC
:103CF00031F40E94E11D819580932E030895803D4B
:103D000019F40E94E11DF8CF893D29F40E941F1E7D
:103D10008093300308958A3D21F40E941F1E8195EF
:103D2000F7CF8B3D31F40E941F1E819580933103A4
:103D300008958C3D19F40E941F1EF8CF9FE2980F42
:103D4000983070F4815D990B21E030E001C0220FC2
:103D50008A95EAF780912D03822B80932D03089595
:103D60008D3D31F480912B03816080932B03089566
:103D70008E3D21F480912B038260F7CF8F3DB9F700
:103D800080912B038460F1CF40912E038D3C59F438
:103D900080912F0387FF0DC010922F0341110BC09C
:103DA00010922A0308C08E3C81F480912F031816CC
:103DB0009CF3442381F08091300390913103892B4F
:103DC00009F05AC01092290308958F3C49F447FF27
:103DD000F0CF10922E0380912F038111ECCFE0CF12
:103DE000803D19F41416ACF3E4CF90913003893D73
:103DF00029F41916F4F610923003DBCF8A3D19F43A
:103E000097FFD7CFF8CF909131038B3D29F497FFDF
:103E1000D0CF10923103CDCF8C3D19F41916CCF3CD
:103E2000C8CF9FE2980F983090F4815D990B21E004
:103E300030E0B90102C0660F771F8A95E2F7CB0127
:103E4000809590912D03892380932D03B2CF8D3DD2
:103E500031F480912B038E7F80932B03AACF8E3D6C
:103E600021F480912B038D7FF7CF8F3D09F0A1CFF7
:103E700080912B038B7FF0CF08950E945D239C01DE
:103E800090912E0380912F03982B21F030932803DB
:103E9000209327039091300380913103982B21F0D8
:103EA00030932603209325038CE293E00E943F2168
:103EB000089586E0ECE2F3E0DF011D928A95E9F7D0
:103EC00010922A031092290310922B030895FC01EB
:103ED000828181110EC0838181110BC08481811187
:103EE00008C091E08581811101C090E0892F817027
:103EF000089581E0FCCFA6E0B0E0E1E8FFE10C949A
:103F00000E2B86E0ECE2F3E0DE01119601900D92BB
:103F10008A95E1F710922E0310922F03109230032E
:103F2000109231038B819C81892B89F0809127032A
:103F3000909128030E947523AC0190912A03992344
:103F4000C9F1809121018417150608F440C08D81C4
:103F50009E81892B91F080912503909126030E94E8
:103F60007523AC0190912903992309F46AC08091CB
:103F70001D018417150608F472C0BE016F5F7F4FE4
:103F80008CE293E00E948A22811105C08CE293E0CA
:103F90000E94671F81110E943D1F86E0FE0131963D
:103FA000ACE2B3E001900D928A95E1F72696E3E04A
:103FB0000C942A2B209122018AE0289F9001112441
:103FC0002417350720F69F5F90932A0302C09F3F76
:103FD000D1F71B81112359F00E94E11D9FEF1116AB
:103FE0000CF491E0899F802D112480932E031C8175
:103FF000112359F00E94E11D9FEF11160CF491E07E
:10400000899F802D112480932F0380912E03882374
:1040100009F49DCF10912F03112309F498CF0E942A
:10402000D31D882351F080932E03812F0E94D31D2E
:10403000882329F080932F038ACF81E0F4CF81E099
:10404000F9CF20911E018AE0289F900111242417A6
:10405000350708F092CF9F5F9093290302C09F3FDE
:10406000D1F71D81112359F00E941F1E9FEF1116D9
:104070000CF491E0899F802D1124809330031E81E0
:10408000112359F00E941F1E9FEF11160CF491E0AE
:10409000899F802D112480933103809130038823E0
:1040A00009F46BCF10913103112309F466CF0E94FC
:1040B000D31D882351F080933003812F0E94D31D9C
:1040C000882329F08093310358CF81E0F4CF81E039
:1040D000F9CF0F931F93CF93DF93C42FD22FFC01FF
:1040E00085818823C9F0409334030E945D23909317
:1040F00033038093320380E28C0F883040F4C77022
:1041000081E001C0880FCA95EAF70E949905DF9106
:10411000CF911F910F91089510913403141332C061
:1041200080913203909133030E947523883C91055E
:1041300048F5C0E2CD0F1D17B9F080E2810F88303D
:1041400040F4177081E001C0880F1A95EAF70E94C9
:10415000A005C83048F481E09D2F977001C0880FFA
:104160009A95EAF70E949905802F0E949005C83021
:1041700070F6D77081E001C0880FDA95EAF70E94E7
:10418000A005C5CF80E28C0F883008F6C77081E0AB
:1041900001C0880FCA95EAF7F2CF0F93DB0188516F
:1041A0009C4787309105A0F5FC01E955F34D0C942F
:1041B000C82A06E221EE41EE6AE17CE7CD010E94C9
:1041C000692080E00F91089507E225EE45EE6BE14E
:1041D0007CE7F4CF06E221EE40EE68E17CE7EECF2B
:1041E00007E225EE44EE69E17CE7E8CF06E221EE46
:1041F00042EE6CE17CE7E2CF07E225EE46EE6DE1B0
:104200007CE7DCCF08E221E045EE6EE17CE7D6CF2B
:1042100015968C91882319F010923403D3CF81E046
:10422000D1CF90933A03809339030895E0913903F5
:10423000F0913A03309729F00190F081E02D099533
:10424000089580E008950E9416210895E0913903B1
:10425000F0913A03309721F00280F381E02D099527
:104260000895E0913903F0913A03309739F026E050
:10427000DC012C930480F581E02D09950895E091EF
:104280003903F0913A03309739F022E0DC012C93A6
:104290000680F781E02D09950895A3E0B0E0E3E5FD
:1042A000F1E20C940F2B209137033091380328173B
:1042B0003907A1F09093380380933703E0913903D5
:1042C000F0913A03309751F023E029839B838A834E
:1042D0000084F185E02DCE01019609952396E2E058
:1042E0000C942B2BA3E0B0E0E8E7F1E20C940F2B49
:1042F000209135033091360328173907A1F09093A8
:10430000360380933503E0913903F0913A033097F7
:1043100051F024E029839B838A830084F185E02D7A
:10432000CE01019609952396E2E00C942B2B209167
:104330000601309107012E5F3F4F80912D018823A8
:1043400079F08091470387FF0BC0209104013091E1
:1043500005012E5F3F4F9EE180E0915018F40895D3
:1043600096E0FACFF90141919F014423B1F38F5FA9
:10437000F4CF882321F190912D01992311F190918F
:10438000470397FF1EC0E82FE695E695E695EE31C8
:10439000B0F42091040130910501E20FF32FF11DDB
:1043A000228130E0877041E050E002C0440F551F89
:1043B0008A95E2F72423352381E0232B91F480E0D2
:1043C00008952091060130910701F9013296285F86
:1043D0003F4F9191981721F0E217F307D1F7EFCFF4
:1043E00081E008959C01FC0132969FEF80E04191AD
:1043F000461751F09F3F19F4411101C0982F8F5F6C
:104400008630A9F79F3F09F40895290F311D97FDC4
:104410003A95F90162830895FC013296089621913C
:10442000261303C0DF0111971C92E817F907B9F7AB
:104430000895E62FE695E695E695EE3168F4E80FE7
:10444000F92FF11D677021E030E001C0220F6A955D
:10445000EAF78281822B82830895E62FE695E6951E
:10446000E695EE3170F4E80FF92FF11D677021E049
:1044700030E001C0220F6A95EAF720958281282357
:1044800022830895682F80912D01882359F080910F
:10449000470387FF07C080910401909105010E94A6
:1044A0001922089580910601909107010E94F2213E
:1044B0000895682F80912D01882359F0809147033A
:1044C00087FF07C080910401909105010E942D2271
:1044D000089580910601909107010E940C22089591
:1044E00080912D01882379F08091470387FF0BC0CD
:1044F000E0910401F091050132968EE1DF011D92F9
:104500008A95E9F70895E0910601F0910701329646
:1045100086E0F4CFDC01FB0111969C91119781811B
:10452000981322C012968C911297882319F09281C9
:1045300089131AC013968C911397882319F09381CD
:10454000891312C015968C911597882319F09581BF
:1045500089130AC014969C91992321F081E024814B
:10456000291303C080E001C081E08170089508959F
:104570000E94B7220895811106C081E080933B0319
:104580000E94B822089582E0F9CF83E080933B0334
:104590000E94B82208950E94BB22089581E0809372
:1045A0003B030E94B82208950E94CE2208950895E8
:1045B00008950E94D8220895089508950E94D72250
:1045C0000895CF930E94DC220E9430120E94DD22C7
:1045D000C0E08C2F0E946111892B31F4CF5FC53070
:1045E000C1F780E0CF91089581E0FCCF85B7806866
:1045F00085BF85B7806885BF08951F921FB61F923B
:1046000011248F939F93AF93BF9380913C038111AB
:1046100013C08091960390919703A0919803B09155
:1046200099034196A11DB11D809396039093970322
:10463000A0939803B0939903BF91AF919F918F91ED
:104640001F901FBE1F90189580919E03843031F1FA
:104650000E94F40310923C0388E190E020E40FB63E
:10466000F894A895809360000FBE2093600083B7F4
:10467000817F846083BF83B7816083BF789488958E
:1046800083B78E7F83BF0FB6F894A89580916000A2
:10469000886180936000109260000FBE08950E94B0
:1046A000EC070E94FE03089582E084BD93E095BD6F
:1046B0009AEF97BD80936E0008952FB7F89480917C
:1046C000960390919703A0919803B09199032FBFFF
:1046D00008952FB7F8946091960370919703809195
:1046E0009803909199032FBF08959C014FB7F894B8
:1046F0008091960390919703A0919803B0919903AC
:104700004FBF821B930B089578941F921FB61F9280
:1047100011248F939F93AF93BF93809196039091B1
:104720009703A0919803B09199030196A11DB11D23
:104730008093960390939703A0939803B093990363
:10474000BF91AF919F918F911F901FBE1F901895A1
:1047500081E08093E00080E28093D8001092C9004D
:104760008FE19EE40197F1F700C0000087E090EB35
:10477000DC018093A7039093A803A093A903B093AF
:10478000AA0388E19CE00FB6F894A8958093600096
:104790000FBE90936000FFCF88E19CE00FB6F894C5
:1047A000A895809360000FBE90936000FFCF80912A
:1047B000450308959B01BA0190919E039430E9F45A
:1047C0008F708093E9009FEF8091E800915085FD04
:1047D00006C085ED8A95F1F700009111F5CF809123
:1047E000E80085FF0AC050E040E0C9010E94DB25D7
:1047F0008091E8008E778093E800089543E050E0D0
:10480000BC0182E00E94DA23089546E050E0BC013A
:1048100082E00E94DA23089540E250E0BC0182E089
:104820000E94DA230895CF93DF93EC0148E050E033
:10483000BC0181E00E94DA2388E0FE01ADE3B3E031
:1048400001900D928A95E1F7DF91CF9108958091C3
:104850009D03811109C00E946B270E94C827809187
:10486000E20084608093E200089510929D03089511
:104870000E94CE22089560919A0381E0611101C0E7
:1048800080E00E94C522089590919E0381E09430BB
:1048900009F080E060919A030E94CB22089542E0E3
:1048A00061EC81E00E94E72642E261EC82E00E9436
:1048B000E72690919E0381E0943009F080E06091BA
:1048C0009A030E94BB2208958091A003833009F4CB
:1048D00061C030F48130D1F1823009F49EC0089576
:1048E0008A3009F48AC08B3009F46FC0893009F02E
:1048F00050C080919F03813209F04BC08091A30387
:104900009091A403029708F044C08091E800877F4B
:104910008093E8008091E80082FF37C09091F30017
:104920008091F200029731F48091F100813011F012
:10493000863021F48091F100809345038091E80056
:104940008B778093E8000E941B2723C080919F03F0
:10495000813AF9F48091E800877F8093E8008091A4
:10496000A3039091A403892B61F468E08DE393E0A5
:1049700070E00E942A268091E8008B778093E800FF
:10498000089560E090E080E0F3CF80919E03811174
:10499000C1CF089580919F03813AD9F78091A303F5
:1049A0009091A403892BA9F78091E800877F8093D9
:1049B000E8008091E80080FFFCCF80912D0180937A
:1049C000F1008091E8008E77BCCF80919F03813207
:1049D00001F78091A3039091A403892BD1F68091D4
:1049E000E800877F8093E8000E941B278091A10345
:1049F00080932D010E94EC07089580919F038132DE
:104A000041F68091E800877F8093E8000E941B2791
:104A10008091A20380934603089580919F03813A79
:104A200009F0B7CF8091E800877F8093E8008091FC
:104A3000E80080FFFCCF80914603C1CF84B7877F19
:104A400084BF0FB6F894A895809160008861809328
:104A50006000109260000FBE80E890E00FB6F894FE
:104A600080936100909361000FBE0E94D42208954C
:104A70000E946B270E94C827E2EEF0E080818460EC
:104A8000808378940E94472A089583E291E00E94EF
:104A90001121089580919E03853031F480919E0309
:104AA000853019F00E944F2308950E94242380919D
:104AB0009C03882399F30E94E122882379F30E94C2
:104AC000C5250E94EC07EACF08959A014091A503FD
:104AD0005091A6030E946D250895492F5527433014
:104AE000510519F168F44130510509F444C04230D0
:104AF000510509F445C090E080E050E040E025C059
:104B00004132510549F142325105A9F784E490E060
:104B100047E155E061157105C1F086EB90E041E693
:104B200054E06130710589F0E6CF99278130910515
:104B300081F0009729F00297F1F6E2EFF3E002C06E
:104B4000E0E1F4E0849190E0AF01F901518340830A
:104B50000895EEEFF3E0F6CF89E090E046E254E00E
:104B60006115710591F389E090E04FE354E0613005
:104B7000710559F3C0CF82E190E04FE454E0E5CFF6
:104B80008BE390E044E154E0E0CF80E189BD82E135
:104B900089BD09B400FEFDCF8091D8008F7D809340
:104BA000D8008091E00082608093E0008091E00076
:104BB00081FDFCCF0895AF92BF92CF92DF92FF921A
:104BC0000F931F93CF93DF936C01EB018A010E9437
:104BD0003A27F82E811123C00115110539F0F8018B
:104BE00080819181C81BD90BC80ED91EB12CA12C74
:104BF0002097A9F08091E80085FD22C08091E8000F
:104C00008E778093E80001151105A1F0F8018081ED
:104C10009181A80EB91EB182A08285E0F82E8F2D59
:104C2000DF91CF911F910F91FF90DF90CF90BF90B8
:104C3000AF9008950E943A278823D1F2F82EEFCF43
:104C4000F60181916F018093F1002197FFEFAF1A78
:104C5000BF0ACECFFC018091A5039091A6038617D1
:104C60009707A0F06115710529F49091E8009E77EF
:104C70009093E80090E06115710551F4911108C01E
:104C80008091E80082FF34C080E00895BC01F2CF3B
:104C900080919E038823C1F18530C1F18091E800A5
:104CA00083FD30C08091E80082FDEACF8091E8006A
:104CB00080FFE1CF8091F3002091F200382F611541
:104CC000710519F02830310558F091E02830310590
:104CD00009F090E02091E8002E772093E800CBCFF8
:104CE00081918093F100615071092F5F3F4FE7CFB1
:104CF00080919E03882341F0853041F08091E80047
:104D000083FFBECF81E0089582E0089583E0089597
:104D1000FC018091A5039091A60386179707A0F048
:104D20006115710529F48091E8008E778093E80081
:104D300090E06115710551F4911108C08091E8006F
:104D400082FF35C080E00895BC01F2CF80919E03C0
:104D50008823C9F18530C9F18091E80083FD31C015
:104D60008091E80082FDEACF8091E80080FFE1CFEA
:104D70008091F3002091F200382F6115710519F030
:104D80002830310558F091E02830310509F090E0E5
:104D90008091E8008E778093E800CBCF8491809358
:104DA000F1003196615071092F5F3F4FE6CF80913E
:104DB0009E03882341F0853041F08091E80083FF15
:104DC000BDCF81E0089582E0089583E00895982F93
:104DD000973028F08F708093E90081E008959093D8
:104DE000E900242F762F50E0981731F07091EC00F5
:104DF0002091ED005091F00021FD02C09F5FE8CFAF
:104E00003091EB003E7F3093EB003091ED003D7F21
:104E10003093ED003091EB0031603093EB007093F4
:104E2000EC002093ED005093F0002091EE0027FD60
:104E3000E5CF80E0089580919F0387FF13C08091A4
:104E4000E80082FF06C08091E8008B778093E8003D
:104E500004C080919E038111F2CF089580919E033A
:104E60008823D9F38091E80080FFF8CF8091E80093
:104E70008E77ECCF2091E4003091E50095E6A90112
:104E80002091EC00822F817020FF06C08091E80005
:104E900080FF06C080E008952091E80022FD1AC03E
:104EA00080919E03882389F0853089F08091EB0002
:104EB00085FD0FC02091E4003091E50042175307B3
:104EC000F9F29150E1F684E0089582E0089583E0DC
:104ED000089581E008950E94DA270E94E227E0EE1B
:104EE000F0E0808181608083E8EDF0E080818F7761
:104EF000808319BCA7EDB0E08C918E7F8C9380816C
:104F00008F7E808310929D0308950F931F93CF93FC
:104F1000DF930E94DA270E94E227C8EDD0E0888163
:104F20008F77888388818068888388818F7D888354
:104F300019BC10929E0310929A0310929C03109237
:104F40009B0300EE10E0F80180818B7F80838881D5
:104F50008160888342E060E080E00E94E726E1EE25
:104F6000F0E080818E7F8083E2EEF0E080818160DE
:104F70008083808188608083F80180818E7F808338
:104F8000888180618883DF91CF911F910F9108956F
:104F9000E8EDF0E080818F7E8083E7EDF0E08081B6
:104FA0008160808384E082BF81E080939D030E94C2
:104FB00085270895E8EDF0E080818E7F8083109250
:104FC000E20008951092DA001092E10008951F9215
:104FD0000F920FB60F9211242F933F934F935F932D
:104FE0006F937F938F939F93AF93BF93EF93FF93B1
:104FF0008091E10082FF0BC08091E20082FF07C038
:105000008091E1008B7F8093E1000E94462A80918D
:10501000DA0080FF19C08091D80080FF15C0809110
:10502000DA008E7F8093DA008091D90080FF96C0ED
:1050300080E189BD82E189BD09B400FEFDCF81E038
:1050400080939E030E9427248091E10080FF19C075
:105050008091E20080FF15C08091E2008E7F8093F6
:10506000E2008091E20080618093E2008091D800AC
:1050700080628093D80019BC85E080939E030E94D3
:105080003B248091E10084FF2BC08091E20084FFEB
:1050900027C080E189BD82E189BD89B5982F9170D3
:1050A00080FFFBCF8091D8008F7D8093D8008091C6
:1050B000E1008F7E8093E1008091E2008F7E8093FB
:1050C000E2008091E20081608093E20080919A0387
:1050D000882309F449C084E080939E030E944424FD
:1050E0008091E10083FF29C08091E20083FF25C009
:1050F0008091E100877F8093E10082E080939E03AE
:1051000010929A038091E1008E7F8093E10080915C
:10511000E2008E7F8093E2008091E20080618093C4
:10512000E20042E060E080E00E94E7268091F0002B
:1051300088608093F0000E943824FF91EF91BF9126
:10514000AF919F918F917F916F915F914F913F911F
:105150002F910F900FBE0F901F90189519BC1092B1
:105160009E030E94352470CF8091E30087FD93E079
:1051700090939E03B3CF1F920F920FB60F921124FC
:105180002F933F934F935F936F937F938F939F934F
:10519000AF93BF93CF93DF93EF93FF93D091E90049
:1051A000DF708091EC00C82FC17080FDC0E81092C4
:1051B000E9008091F000877F8093F00078940E944E
:1051C000FF281092E9008091F00088608093F00041
:1051D000CD2BCF70C093E900FF91EF91DF91CF917C
:1051E000BF91AF919F918F917F916F915F914F91FF
:1051F0003F912F910F900FBE0F901F901895AAE22C
:10520000B0E0E5E0F9E20C940E2B8FE993E02091F9
:10521000F100FC012193CF01F3E0873A9F07B9F732
:105220000E9464248091E80083FF1EC180919F0347
:105230009091A0039A3008F017C1E92FF0E0E255F1
:10524000F34D0C94C82A803899F0823809F00CC1CB
:105250008091A3038F70873008F006C18093E90026
:105260008091EB0085FB882780F91092E90006C049
:1052700080919B0390919C03911182609091E80032
:10528000977F9093E8008093F1001092F100809155
:10529000E8008E77E5C0882309F4D3C0823009F096
:1052A000E3C08091A1038111D6C08091A3038F70C8
:1052B0002FEF280F263008F0D7C08093E900209107
:1052C000EB0020FFC8C0933031F48091EB00806286
:1052D0008093EB00C0C09091EB0090619093EB0045
:1052E00021E030E001C0220F8A95EAF72093EA001E
:1052F0001092EA008091EB008860EACF8111B4C07F
:105300001091A1031F778091E3008078812B809317
:10531000E3008091E800877F8093E8000E941B27CC
:105320008091E80080FFFCCF8091E300806880934B
:10533000E30082E0111183E080939E0395C08058C2
:10534000823008F091C08091A1039091A2038C3D1E
:1053500023E09207A1F583E08A838AE289834FB72D
:10536000F894DE01139620E03EE051E2E32FF0E0F6
:1053700050935700E49120FF03C0E295EF703F5F28
:10538000EF708E2F90E0EA30C0F0C7968D939D931A
:105390002F5F243159F74FBF8091E800877F8093BA
:1053A000E8006AE270E0CE0101960E942A26809110
:1053B000E8008B778093E80057C0C096E7CF6091F4
:1053C000A3037091A403AE014F5F5F4F0E94652558
:1053D000BC01892B09F448C09091E800977F909315
:1053E000E80089819A810E948826E1CF8038E1F522
:1053F0008091E800877F8093E80080919A038093F2
:10540000F10045CF811130C09091A103923060F539
:105410008091E800877F8093E80090939A030E9430
:105420001B2780919A03882311F084E005C08091A6
:10543000E30087FDFACF81E080939E030E944F2412
:1054400013C08091A103813079F481E0933009F099
:1054500080E080939C031092E9008091E800877FB0
:105460008093E8000E941B278091E80083FF0AC018
:105470008091E800877F8093E8008091EB00806254
:105480008093EB00AA96E3E00C942A2B0895CF9327
:1054900080919E038823A1F0C091E900CF70909184
:1054A000EC00892F817090FD80E8C82B1092E900F4
:1054B0008091E80083FD0E94FF28CF70C093E9002F
:1054C000CF910895DB018F939F930E94EC2ABF91A7
:1054D000AF91A29F800D911DA39F900DB29F900D43
:1054E00011240895991B79E004C0991F961708F0BC
:1054F000961B881F7A95C9F780950895AA1BBB1B38
:1055000051E107C0AA1FBB1FA617B70710F0A61BC3
:10551000B70B881F991F5A95A9F780959095BC01E4
:10552000CD01089597FB072E16F4009407D077FD60
:1055300009D00E947E2A07FC05D03EF49095819503
:105540009F4F0895709561957F4F0895A1E21A2E9F
:10555000AA1BBB1BFD010DC0AA1FBB1FEE1FFF1F17
:10556000A217B307E407F50720F0A21BB30BE40B67
:10557000F50B661F771F881F991F1A9469F76095AE
:105580007095809590959B01AC01BD01CF01089568
:10559000EE0FFF1F0590F491E02D09940E94D62A8A
:1055A000332312F48A1B9B0B0C94E72AA29FB001B1
:1055B000B39FC001A39F700D811D1124911DB29F47
:1055C000700D811D1124911D08950E94D62AB7FFE8
:1055D0000895821B930B08950E94D62AA59F900DD3
:1055E000B49F900DA49F800D911D11240895B7FFC5
:1055F0000C94EC2A0E94EC2A821B930B08952F92A4
:105600003F924F925F926F927F928F929F92AF9252
:10561000BF92CF92DF92EF92FF920F931F93CF939F
:10562000DF93CDB7DEB7CA1BDB0B0FB6F894DEBF36
:105630000FBECDBF09942A88398848885F846E845C
:105640007D848C849B84AA84B984C884DF80EE80A6
:10565000FD800C811B81AA81B981CE0FD11D0FB6AF
:10566000F894DEBF0FBECDBFED010895002E0830C7
:1056700090F0982F872F762F652F542F432F322F9E
:1056800022270850F4CF220F331F441F551F661FD7
:10569000771F881F991F0A95B2F7002D089597FD6F
:1056A0001094002E083098F00850232F342F452FE7
:1056B000562F672F782F892F912DF4CF159497951A
:1056C00087957795679557954795379527950A95C7
:1056D000AAF71124002D08958F929F92AF92BF9246
:1056E000CF92DF92EF92FF92CF93DF93EC0168812C
:1056F00079818A819B81611571058105910521F46C
:1057000064E279ED8BE597E02DE133EF41E050E085
:105710000E94432C49015A019B01AC01A7EAB1E464
:105720000E94EC2A6B017C01ACEEB4EFA501940160
:105730000E94FA2ADC01CB018C0D9D1DAE1DBF1D00
:10574000B7FF03C00197A109B04888839983AA8352
:10575000BB839F77DF91CF91FF90EF90DF90CF9049
:10576000BF90AF909F908F9008950E946C2B0895EA
:1057700080E091E00E946C2B0895B0E0A0E080935F
:10578000000190930101A0930201B09303010895D9
:10579000FC014150504030F001900616D1F731978E
:1057A000CF010895882799270895FB01DC0104C0E3
:1057B0008D910190801921F441505040C8F7881B09
:1057C000990B0895FB01DC0102C001900D9241503C
:1057D0005040D8F70895F999FECF92BD81BDF89A4F
:1057E000992780B50895A6E1B0E044E050E00C941C
:1057F000352CA8E1B0E042E050E00C94352CDC01FF
:10580000A40FB51F4150504048F0CB01840F951FA5
:105810002E910E94102C41505040D0F70895262F11
:10582000F999FECF92BD81BDF89A019700B4021696
:1058300039F01FBA20BD0FB6F894FA9AF99A0FBE44
:1058400008950396272F0E94102C0E940F2C252FBD
:105850000E94102C242F0C94102C0196272F0E94AC
:10586000102C0C940F2CDC01CB01FC01F999FECF1C
:1058700006C0F2BDE1BDF89A319600B40D924150D8
:105880005040B8F70895052E97FB1EF400940E942F
:105890005A2C57FD07D00E94A62A07FC03D04EF4CD
:1058A0000C945A2C50954095309521953F4F4F4F71
:1058B0005F4F089590958095709561957F4F8F4FBC
:1058C0009F4F0895F894FFCFE805E805380638069D
:1058D0009D06B90617061706BE062F073E073E07A8
:1058E0005E1A651A6C1A711A761A7B1A801A851A52
:1058F0008A1A8F1A941A991A9D1AA21AA51AA81A06
:10590000AB1AAE1AB01AB31AB51A4F1DC31D571DE4
:10591000211D251D5B1D291D5F1D6B1D351DBC1D1A
:10592000391D6F1D3D1D731D9B1D411D771DA21D42
:10593000471D7D1D851D2D1D631D311D671D4B1DC3
:10594000811D911DAB1DBA1D1B1D531DCA1DEA20D3
:10595000F020D920E420F620FC20022123294B2925
:10596000342A4B29342A7E299F29342AF629022AEF
:10597000010000008402A4020101020010001010C6
:1059800001191A1B1C1D1E1F202122280850011E50
:105990000A1401D72313240C240524FE2301E2005A
:1059A000E900EA00B500B600B700CD008301CC00E5
:1059B0008A01920194012102230224022502260277
:1059C00027022A02B300B4006F0070009F01CB01D0
:1059D0009F02A002818283E200E900EA00B500B6DE
:1059E00000B700CD008301CC008A0192019401210F
:1059F00002230224022502260227022A02B300B44F
:105A0000006F0070009F01CB019F02A00281828382
:105A1000F0F1C66766379431303534979633F49099
:105A200091929395000102020202060606090909F5
:105A30000909090F0F0F0F0F0F151515181919194F
:105A40001919191919191923242525252525257F03
:045A50001C811C0099
:00000001FF
